:020000022000DC
:1060000000000420756302005D6302005F6302000C
:106010006163020063630200656302000000000028
:1060200000000000000000000000000067630200A4
:1060300069630200000000006B6302006D630200F0
:10604000598A02006F6302006F630200BD8602007E
:10605000818F02006F630200717D02003D7F0200AC
:106060006F630200B99102006F6302006F63020068
:106070006F6302006F6302006F6302006F630200D0
:10608000211B0300656602006F6302006F6302005C
:1060900001670200E9D50200CDDC02006F63020057
:1060A0006F6302006F6302006F6302006F630200A0
:1060B000398402006F63020000000000000000004D
:1060C0006F6302006F6302006F6302006F63020080
:1060D0007D8802006F630200E51F030000000000DE
:1060E00000000000000000000000000000000000B0
:1060F00000000000000000000000000000000000A0
:10610000000000000000000000000000000000008F
:10611000000000000000000000000000000000007F
:10612000000000000000000000000000000000006F
:10613000000000000000000000000000000000005F
:10614000000000000000000000000000000000004F
:10615000000000000000000000000000000000003F
:10616000000000000000000000000000000000002F
:10617000000000000000000000000000000000001F
:10618000000000000000000000000000000000000F
:1061900000000000000000000000000000000000FF
:1061A00000000000000000000000000000000000EF
:1061B00000000000000000000000000000000000DF
:1061C00000000000000000000000000000000000CF
:1061D00000000000000000000000000000000000BF
:1061E00000000000000000000000000000000000AF
:1061F000000000000000000000000000000000009F
:10620000354936480A1A02D0072291438D4634494F
:1062100034480A1A06D00722914381F309880222E2
:1062200082F3148830483149314A00F044F831484B
:106230003149324A00F03FF831483249324A00F0E1
:106240003AF832483249334A00F035F83248334997
:10625000334A00F030F833483349344A00F02BF821
:1062600033483449344A00F026F83448344900228F
:1062700000F02CF833483449002200F027F8334866
:106280003349091A082902DB002202604160314AC1
:1062900090471F481F49884205D00268043003B464
:1062A000904703BCF7E700208646EC46002000211B
:1062B000294A9047FEE7884207D0521A05D0037852
:1062C00001300B700131013AF9D17047884202D098
:1062D00002700130FAE770470000042000E003205C
:1062E0000000042000000420105D0300642400204E
:1062F000A5250020D4630200D4630200404E0300B1
:10630000105D03006424002064240020144F030067
:10631000144F0300144F0300144F0300144F0300E5
:10632000144F0300144F0300144F0300105D0300CB
:10633000545E0300A8250020A8250020A8250020E1
:1063400098590020985900209C5900209C59002001
:106350009C7900209D630200E5920200FEE7FEE7C3
:10636000FEE7FEE7FEE7FEE7FEE7FEE7FEE7FEE705
:10637000704700BF1048804710484FF0070188431E
:1063800085460F4880470F48016841F4700101605D
:10639000BFF34F8FBFF36F8FFFF732BF0A480B4930
:1063A0000B4A884207D0521A05D0037801300B708F
:1063B0000131013AF9D170477163020000000420F5
:1063C0004975020088ED00E0004F030050240020D2
:0463D0006424002021
:1063D40000487047905900201FB50021039001AA7E
:1063E40044F20100CDE9011100F004F805B05DF8B4
:1063F40004FB000072B6094BD3F8F020D20700D595
:1064040000BEBFF34F8FD968054A01F4E0610A4327
:10641400DA60BFF34F8F00BFFDE700BF00ED00E07F
:106424000400FA054B1C30B5DB00044612F00300EF
:106434009BB20DD1074D2A601A44074B1A60074BD3
:106444001870074B1870074B1C80074B198030BD20
:106454000720FCE7B0250020AC250020A82500205B
:10646400B8250020B4250020B62500202DE9F743E7
:10647400DFF8BC80B8F800308B4206460D4617465C
:1064840047D300240DF107008DF8074000F02CFBE2
:10649400224B234A23481B78008892F800C0844585
:1064A4005FFA8CF138BF4C1CDBB238BFE4B2A342B4
:1064B40028D014781178CBB2884286BF0133DBB27E
:1064C400002313709DF8070000F032FB4FF6FF73B2
:1064D4009C4220D0144B1B6843F8347003EBC4096E
:1064E4009EB195B1114BB8F800001B682A4631469D
:1064F40004FB00300DF074FCA9F80450002003B034
:10650400BDE8F0834FF6FF74DCE70020A9F804002F
:10651400F5E70920F3E70420F1E700BFB8250020E0
:10652400A8250020B6250020B0250020AC25002099
:10653400B425002070B5104C104D22782B789A4267
:1065440000D170BD0E480F4A2378126806880E48A1
:1065540002EBC301006852F83320898803FB06006C
:1065640090470A4922780988D3B2914286BF013301
:10657400DBB200232370E0E7B8250020A825002023
:10658400B4250020B0250020AC250020B62500202D
:10659400094B5A7899780132D2B2914208BF00224D
:1065A400197891421FBF02705878182202FB0030FC
:1065B40014BF043000207047BC25002073B5054685
:1065C40000240DF107000E468DF8074000F08CFA08
:1065D4000DF10600FFF7DCFF90B10670094B9DF842
:1065E400062045605A709DF8070000F0A1FA24B90E
:1065F400054B4FF48012C3F80021204602B070BD51
:106604000424F0E7BC25002000E100E0024B4FF435
:106614003C6043F001031847204F030038B50C4B8E
:106624000C4C4FF40032C3F8802001254FF4803322
:10663400C4F84833C4F808336560FFF7E7FF064B36
:10664400A56000241C60FFF7E1FF044B1C7038BDFB
:1066540000E100E000100140C8270020B927002015
:10666400F8B51F4B1F491B680025C1F84051C1F8FC
:106674004451C1F84851C1F84C51C1F80051C1F816
:1066840004514BB3D1F8044517490968641A24F03E
:106694007F442F461A68A24209D8A41A15441A7CCA
:1066A400DE691AB1D3E905201F749047AEB90F4AC9
:1066B4000F4B11781B788B4205D10133DBB2022BCF
:1066C40008BF0023137012780A4B43F822500A4B78
:1066D4004FF48012C3F80021F8BD3346DAE700BF57
:1066E400CC27002000100140C8270020C527002027
:1066F400C4270020BC27002000E100E02DE9F04F72
:10670400A14AA24913780978A14D994285B03CD099
:106714000133DBB2022B08BF002313709D491278AA
:106724009D4B0F6853F822003B1823F07F4300224F
:106734000B602B6816461446944613B942B12B607D
:1067440006E0196881420ED902B12B60091A19605A
:1067540001272B68DFF848A201934FF00008BEB967
:10676400DFF844B260E0401A0C44D968D3F81CE066
:10677400C3F800C031B13A1922F07F42C3E90121C4
:10678400DE611E4673460122D7E700263746E0E75E
:106794003446F6697F4B60681B68DFF810C2A16855
:1067A400C21A22F07F42624500F2A6800A442260A7
:1067B400012222742A680023C4E90133E361002A18
:1067C40040F0A3802C60CAE79BF802105A1CD2B296
:1067D40091428BF8002004BF00228BF8002018227D
:1067E40002FB03B32A6819799C68022975D003292E
:1067F4007FD0012918D1207CB0B9D3E90312A2605B
:106804005A69E2609A69654BA2611A78002A18BF36
:1068140001466160BEE78C4200F094808946C969F4
:106824000029F8D1002323749BF800309BF8012041
:106834009A42C9D12B68B8F1000F04D1019A9A4247
:1068440001D1002F43D0002B79D0D3F800A0544DB0
:10685400504BD5F804751C68DFF854813E1B98F83A
:10686400003026F07F4603369BB94FF48033C5F8D9
:106874004433C5F804334B4B4FF400324FF0010955
:10688400C3F880211A60C5F80090FFF7BFFE88F8AE
:106894000090B2452CBF5444A41924F07F44C5F899
:1068A4004045D5F80435DB1B23F07F43E41B033359
:1068B40024F07F44A3420AD9D5F80435C5F84035FD
:1068C400FFF7A4FE374B4FF40032C3F80021334BDB
:1068D40000221A7005B0BDE8F08F114691469FE77B
:1068E4001174D2690123002AFAD1002B9CD02A60AA
:1068F4009AE700231946F6E71B1A23F07F438B42DD
:1069040034BFCB1A0023236052E7216813689942ED
:1069140013D85B1A1360E26154E7091AD8691A465E
:1069240038B1034618688842F7D3401A18601846ED
:1069340013462160E061DC6111E71346F2E7FFF7DB
:106944006DFEC4E74C4511D1D3692B6073B9DFF8F0
:1069540044E00120CDE90212CAF80800CEF8003064
:106964000E4B1870FFF752FEDDE902120B68C9697D
:10697400C9F81C1011B1086803440B602B689342DA
:1069840018BF4FF001084DE7C4270020C527002099
:10699400CC270020C8270020BC270020B8270020CF
:1069A4000010014000E100E0BC250020FEFF7F0054
:1069B400B927002008B5FFF731FE104B002015223F
:1069C40018809A700E4B18600E4B18700E4B18708E
:1069D4000E4B4FF48012C021C3F8802183F81413A6
:1069E4001A6002F18042A2F56F22C2F8080583F80A
:1069F4001113074BD2F804251A6008BDBC250020EA
:106A0400CC270020C4270020C527002000E100E097
:106A1400C8270020074B9B784BB132B128B10368DB
:106A2400187C20B959745A617047072070470820B0
:106A3400704700BFBC2500202DE9F743DFF88480B0
:106A440098F8023005460E461746ABB3A0B30429A6
:106A540030D9436983B3437C0024012B0DF1070033
:106A64000CBF8946A1468DF8074000F03DF80DF1B2
:106A74000600FFF78DFDD8B1012303700F4B45606D
:106A8400D3F80435C0E90497C0E902369DF806300E
:106A940088F801309DF8070000F04AF824B9084B43
:106AA4004FF48012C3F80021204603B0BDE8F08300
:106AB4000424EFE70724F7E70824F5E70010014072
:106AC40000E100E0BC250020064A92783AB130B1DA
:106AD400426922B1002202740221FFF76FBD08202F
:106AE400704700BFBC25002070B5EFF3108672B666
:106AF4000C4A946801239CB993600B4B0B4DD3F85B
:106B0400801029401160C3F88050D3F8841051607C
:106B14004FF0FF32C3F88420047006B962B670BD2A
:106B24000370FAE7D027002000E100E0FC06FFBD77
:106B3400084B9A6810B55AB150B9EFF3108172B688
:106B4400054A1C6814605C685460986001B962B6B8
:106B540010BD00BFD027002000E100E010B561B1F6
:106B6400B2FBF3F403FB1424A4B244B9C0E9001447
:106B740084608281C381204610BD0E20FCE7092079
:106B8400FAE782B050E8022FC188B2EB324F4FF0DF
:106B9400000317BF92B241EA014142EA014104E015
:106BA4004268B2EB324F08BF012340E80212002AC8
:106BB400E8D18DF807309DF80730002B0CBF112069
:106BC400002002B0704737B550E8013F9DB2C48938
:106BD40025448489A54228BF2D1B0489A54202BFF0
:106BE400BFF32F8F002207E0C5EA030540E80154F4
:106BF400002CE9D14FF001028DF803200193019A92
:106C04000A609DF8031001F0FF0321B1006810FA37
:106C140082F003B030BD1846FBE70A884B889A42DD
:106C240009D150E8012FC2EA024240E80123002BB7
:106C3400F7D1012070470020704737B550E8023F74
:106C44001FFAA3F5C488A54202BFBFF32F8F002209
:106C54000DE0C48925448489A54228BF2D1BC3EABD
:106C6400054540E80254002CE8D14FF001028DF8AC
:106C740003200193019A0A609DF8031001F0FF03B9
:106C840021B1006800EB124003B030BD1846FBE7A9
:106C94000A884B889A4209D150E8022FC2EA22425C
:106CA40040E80223002BF7D10120704700207047F1
:106CB40001F01F024B090121914000EB830000F019
:106CC40065B84B0910B501F01F040121A14000EB88
:106CD400830000F04FF8E04000F0010010BD01F027
:106CE4001F0301229A404B0900EB8300D14300F0BB
:106CF40059B84B0901F01F0150F82300C84000F0B7
:106D0400010070472DE9F0474F1E7F0980460E466B
:106D14000137002558F8254008EB8509E44394FA27
:106D2400A4F4B4FA84F44FEA451A202C06D10135B0
:106D3400AF42EFD834462046BDE8F0875444A6421B
:106D4400F5D921464046FFF7BCFF0028F3D0D9F817
:106D54000040E44394FAA4F4B4FA84F4E5E710B5EB
:106D6400034653E8000F0A4643E8002494F0000F5A
:106D7400F7D110BD10B5034653E8000F40EA0102F5
:106D840043E8002494F0000FF6D110BD10B503467B
:106D940053E8002F42EA010043E8000494F0000F96
:106DA400F6D110BD10B5034653E8002F02EA0100E6
:106DB40043E8000494F0000FF6D110BD10B503466B
:106DC40053E8000F00EB010243E8002494F0000FA5
:106DD400F6D110BD10B5034653E8002F02EB0100B5
:106DE40043E8000494F0000FF6D110BD10B503463B
:106DF40053E8002FA2EB010043E8000494F0000FD5
:106E0400F6D110BD002370B51C461D4650E8003F66
:106E14000D68AB4207BF40E80026012440E8003675
:106E24000B60002E1CBF0024F0E7E0B270BD01210E
:106E3400FFF7A0BF0B4610B4114628B123B103607D
:106E44005DF8044B1B6818470E205DF8044B70472F
:106E54002DE9F04308B302B3D0F800E0BEF1000F0F
:106E64001ED0FBB14568D5F80490B3FBF9F509FBD6
:106E74001535BDB942EA010C1CF0030F14D1C568E5
:106E8400A94211D34D1EEC180569AC420CD8DEF8AA
:106E94000C40A446BDE8F04360470E20BDE8F083F3
:106EA4000820FBE70920F9E71020F7E7F0B5D8B18F
:106EB400D0F800C0BCF1000F18D0CAB14568D5F8AD
:106EC40000E00EF1FF350D4214D1C568A94211D37B
:106ED4004D1E0EFB02540569AC420BD8DCF8104081
:106EE400A446BDE8F04060470E20F0BD0820FCE752
:106EF4000920FAE71020F8E729DF704728DF7047F8
:106F040070B503689E6886B004460D466EB11422BF
:106F1400002168460CF08DFFA36805932379019541
:106F24002BB1012B0DD06846B04706B070BD0123CC
:106F34008DF8003023690293E36803936369049333
:106F4400F1E702238DF80030E3681B030293F5E7B1
:106F54000846704700207047024B187A003818BF63
:106F64000120704778280020034B187A0122B0FAD8
:106F740080F05A74400970477828002008B51046FC
:106F84001A460CF02DFF002008BD000008B514229D
:106F9400002104480CF04DFF0348FFF7F2FD0020E8
:106FA40008BD00BF782800206828002010B5094CCF
:106FB400094B43602046FFF73AFF40B906F06AFEEA
:106FC400064920741C2306488C22FFF7C7FD0020C5
:106FD40010BD00BF78280020284F0300DC270020C4
:106FE4006828002038B5234D234C2B7A3BB923491C
:106FF4002348FFF722FE206008B9686038BD0223E9
:1070040024682B72237973B1012B24D020460321E9
:10701400FFF776FF00232B726B6018491848BDE810
:107024003840FFF735BED4E90523D21AB2F5805FA4
:10703400D4E9031028BF4FF480529208012A38BFC4
:10704400012219441844FFF757FF50B11128DDD12C
:1070540001232B72D2E7D4E903031844FFF74EFF50
:10706400F3E72B7C002BC9D1BDE83840022000F0A7
:1070740009B800BF78280020902800208C28002020
:107084006828002038B5234C237A002B41D0022BEA
:1070940009D1032830D0204B00221B68E2601A7902
:1070A4003AB1012A22D0637C7BBBBDE83840FFF7AC
:1070B40099BFD3E905128D1AB5F5805F94BF5219B3
:1070C40002F580529A619142EDD102284FF00003FB
:1070D40008BF19462372104B18BF0D211868FFF71B
:1070E4000FFF0E490E48FFF7D3FDDCE71A690132A2
:1070F4001A615B699A42E7E7E3680133082B01D818
:10710400E360D0E70023E360DFE7BDE8384006F042
:10711400B1BD38BD78280020902800208C2800209C
:1071240068280020831E012B01D8FFF7ABBF7047EE
:1071340000F0FD03012B08D1044B00225A74421EB7
:10714400504250411874FFF74DBF70477828002013
:1071540010B5064C201DFFF76AFE28B9637C1BB9E5
:10716400BDE81040FFF73EBF10BD00BF78280020E7
:107174002DE9F34180460D46104801A916461F46E5
:10718400FFF721FD0446B0B11822002104300CF0B1
:1071940050FE2D0B0123237101A90848C4F8008077
:1071A400A760E5606661FFF738FDFFF7D1FF0020B7
:1071B40002B0BDE8F0810420FAE700BF682800208F
:1071C4002DE9F34180460F460F4801A916461D4696
:1071D400FFF7F9FC0446A8B11822002104300CF092
:1071E40028FE089BA36001A9C4E903670648C4F804
:1071F40000806561FFF711FDFFF7AAFF002002B0D0
:10720400BDE8F0810420FAE76828002033DF7047E6
:1072140041DF7047064B10B500241C70054B1C6001
:10722400BFF35F8F0449054800F064F8204610BDA1
:107234009D280020A0280020544F030094280020FB
:1072440008B506F027FD18B1BDE80840FFF7E0BF18
:1072540020BF40BF20BF08BD70B5204D04460121AA
:107264002846FFF77CFDBFF35F8F38B9042C0AD0A2
:107274001B4B1A781AB1BFF35F8F286070BD194A8F
:10728400147001221A70184C164E636830787BB95A
:107294000238012814D8BFF34F8F1449144BCA681D
:1072A40002F4E0621343CB60BFF34F8F00BFFDE7EE
:1072B4001B6898470028DED0204600F025F8E4E754
:1072C40006F0E8FC08B1FFF7A1FF4FF0804301226C
:1072D400C3F80025BFF34F8F20BFFDE7A02800208F
:1072E4009D2800209C2800209428002000ED00E028
:1072F4000400FA050B684A684360934208BF002300
:10730400016008BF43607047436843B102689168F5
:1073140052680B449342436004BF002343607047A8
:1073240013DF70470023D3F8F80F421C04D14FF049
:1073340010235869431C01D0FFF7F2BF04207047A3
:107344000148FFF7EDBF00BF006002000268136848
:107354005268934291BFD01A80680130801888BF68
:10736400C01A7047036881681A685B688B4234BF2F
:1073740001330023D31A58425841704773B5002390
:1073840004460DF107000D468DF80730FFF7ACFBFE
:107394002046FFF7E7FF10B1237C002B3BD1236885
:1073A400A1685E685A688A4234BF013200225A607A
:1073B40028B11A688A4234BF013200221A60E26896
:1073C4006368511E072920D8DFE801F004101F1458
:1073D4001F1F1F182A789A552046FFF7B7FF236806
:1073E4009A68824200D29860002415E02A8823F823
:1073F4001620F1E72A6843F82620EDE7D5E90001D5
:1074040003EBC603C3E90001E6E7294606FB0230A5
:107414000CF0E6FCE0E704249DF80700FFF788FB86
:10742400204602B070BD37B5054600240DF10700B3
:107434008DF80740FFF758FB2B681C609DF8070088
:107444005C609C60FFF774FB03B030BD0368186890
:107454005B68C31A58425841704773B50023054608
:107464000DF107000C4616468DF80730FFF73CFB7C
:107474002846FFF7EBFF002832D12B6819682EB994
:107484001A68A868824238BF561C1E60EA686B6896
:10749400501E07281ED8DFE800F0040E1D121D1D23
:1074A4001D165B5C237000249DF80700FFF740FB6A
:1074B400204602B070BD33F811302380F3E753F84F
:1074C40021302360EFE703EBC103D3E90023C4E9D0
:1074D4000023E8E701FB023120460CF081FCE2E7DF
:1074E4000524E1E74FF0704393F8E02F062A10D10A
:1074F400D3F8E42F12070CD1D3F8E80F00F0F0030F
:10750400302B08D000F0E000A0F14003584258416D
:10751400704700207047012070474FF0704393F884
:10752400E02F062A0CD1D3F8E42F120708D1D3F8A0
:10753400E80F00F0F000A0F13003584258417047C2
:107544000020704708B5FFF7CDFF40B14FF08053DE
:10755400884AD3F82433C3F30423C2F84035FFF731
:10756400DCFF10B1844B854A5A67FFF7BBFF48B173
:107574004FF080534FF08042D3F84432C3F3423388
:10758400C2F83C35FFF7C9FF30B17D4AD2F8FC3070
:1075940023F08073C2F8FC30FFF7A4FF40B14FF032
:1075A40080430022C3F80C21C3F81021C3F8382506
:1075B400FFF7B3FF20B14FF080430322C3F8A025A7
:1075C400FFF7ABFF60B16F4B0522C3F81026012211
:1075D400C3F888260022C3F818263F22C3F81426CD
:1075E4004FF0704393F8E02F062A50D1D3F8E42FDC
:1075F40011074CD1D3F8E83F03F0F003502B46D1E8
:107604004FF08052604BD2F80414C3F82015D2F81E
:107614000814C3F82415D2F80C14C3F82815D2F8AA
:107624001014C3F82C15D2F81414C3F83015D2F87A
:107634001814C3F83415D2F81C14C3F84015D2F842
:107644002014C3F84415D2F82414C3F84815D2F80A
:107654002814C3F84C15D2F82C14C3F85015D2F8DA
:107664003014C3F85415D2F83414C3F86015D2F8A2
:107674003814C3F86415D2F83C14C3F86815D2F86A
:107684004014C3F86C15D2F84424C3F87025FFF7EE
:1076940029FF48B14FF080534FF08042D3F858325D
:1076A40003F04F03C2F8E43EFFF71CFF48B14FF06C
:1076B4008043D3F80024D20744BF6FF00102C3F81B
:1076C40000244FF08053D3F83021062A0AD1D3F88E
:1076D4003431062B01BF2D4AD2F83C3743F4806382
:1076E400C2F83C37264AD2F8883043F47003C2F813
:1076F4008830BFF34F8FBFF36F8F4FF01023D3F851
:107704000022002A03DBD3F80432002B2EDA204BAC
:107714000122C3F80425D3F80024002AFBD04FF03B
:1077240010221521C2F80012D3F80024002AFBD03D
:107734004FF010231522C3F80422154BD3F800246C
:10774400002AFBD00022C3F80425D3F80024002A21
:10775400FBD0BFF34F8F0A490E4BCA6802F4E062B4
:107764001343CB60BFF34F8F00BFFDE70A4B0B4AB7
:107774001A6008BD0030014000C007400DF0ADBAEA
:1077840000ED00E00050004000C000400010004048
:1077940000E001400400FA05642400200090D003B6
:1077A40038B5074C051E04F1080318BF1C462368AE
:1077B4002BB11A6822605B6828469847F7E738BD02
:1077C400AC28002020B9054B01225A70FFF7E8BF0E
:1077D400012802D1014A9070F8E77047A4280020DC
:1077E40020B9034B01225A70FFF7DABF704700BF7C
:1077F400A4280020014B1878704700BFA42800205B
:1078040038B50B4C237883B90A486360A3602361BD
:10781400E36000F08DF8054606F03CFA08B900F084
:1078240093F801232370284638BD8525FBE700BF64
:10783400A4280020C977020037B5184CA378054660
:1078440003F0FF029BB110B1436801209847002365
:107854000DF107008DF80730FFF746F9E3689DF84E
:1078640007000133E360FFF763F903B030BD0DF1A6
:1078740007008DF80720FFF737F925B12269134671
:107884003BB92A602561E368002BE7D100F072F868
:10789400E4E79D42F7D01B68F2E700BFA42800206C
:1078A40037B50B4C00230DF107008DF80730FFF7B7
:1078B4001BF9E368013BE360E56815B900F06BF878
:1078C400A5709DF80700FFF733F903B030BD00BF82
:1078D400A4280020012813B508D003281CD018B907
:1078E400114B0122C3F8802002B010BD0F4C0023BD
:1078F4000DF107008DF80730FFF7F6F823780BB980
:10790400FFF77EFFE3689DF807000133E36001237E
:10791400A370FFF70DF9E7E700F016F802B0BDE831
:107924001040FFF7BDBF00BF00E100E0A428002025
:10793400044A137923B901211060918018467047D5
:1079440085207047B8280020084B1A68D2075FBF0B
:10795400C02283F8002301221A604FF080420123E1
:10796400C2F81835024A1370704700BF00E100E006
:10797400C02800204FF080430022C3F8042182B0C5
:10798400D3F804210192019A0222C3F804230122AC
:107994009A6002B070474FF080430122DA60D3F856
:1079A4001824D203FBD470474FF0804307B5D3F8B3
:1079B40000217AB10022C3F80021D3F800210092FB
:1079C400009A0122C3F808230F4B587910B95A7151
:1079D4001B6898474FF08043D3F8042182B10022FA
:1079E400C3F80421D3F804210192019A0222C3F8B6
:1079F4000823054B1B68012003B05DF804EB18470E
:107A040003B05DF804FB00BFB828002000F18040FB
:107A140000F5C040002382B0036003680193019B1A
:107A240002B0704703681F2B83BF03F01F0303607A
:107A340001484FF0A04070470003005007B5019083
:107A440001A8FFF7EFFF019B00EB8300D0F800379C
:107A540023F44033C0F80037D0F8003743EA01413B
:107A6400C0F8001703B05DF804FBC208012300F05E
:107A7400070003FA00F08B5C184388547047000039
:107A8400054B4FF0FF32072843F8202084BFC0186D
:107A940080F8CC20704700BFC428002038B5154DAD
:107AA40095F8FB4024BB3022FF2105F1A4000CF023
:107AB400C0F9E0B20134FFF7E3FF292CF9D10E4BF2
:107AC4000022C5F8F5209A800C4BC02183F80613D8
:107AD400402119604FF4BE70FFF798FF084B4FF038
:107AE4000041C3F80413012385F8FB30104638BD68
:107AF4000820FCE7C4280020B929002000E100E0A8
:107B040000600040034B93F8FB00003818BF0120CD
:107B1400704700BFC42800202DE9F341DFF8F4804A
:107B240008EB0003054693F9A430002B0F466CDAEA
:107B34008B78C3F34003002B0BBF082400242921B6
:107B440008218C4203D1042002B0BDE8F08158F82A
:107B54002400013041D108EB050166B248F8242025
:107B640081F8A4601BB908EB040383F8CC50BB78FC
:107B74005A0712D4D90732D501A80195FFF752FF4D
:107B8400019B00EB8300D0F8003723F00203C0F818
:107B940000371F492846FFF768FFBB783A7813F08F
:107BA400020328D0A40004F1804404F5C0442D024B
:107BB400D4F8103523F44F3323F44073C4F810354C
:107BC4001204D4F8103505F47C5502F44032154300
:107BD4001D43C4F810550020B6E70134B1E701A8ED
:107BE4007A780195FFF71EFF019B03F5E07392007D
:107BF40040F82320CDE7083E48FA86F898F8D45098
:107C040045EA821288F8D420E5E708209CE700BF03
:107C1400B9290020C428002073B5244D2E18044629
:107C240096F9A420072A1DDD083A45FA82F595F84D
:107C3400D4309B09032B10D1019001A8FFF7F2FE69
:107C4400019BD0F81015D94001F001010231204602
:107C540002B0BDE87040FFF7F1BE012B0CBF02215A
:107C64000321F4E7D3B2072B1DD8930003F180431B
:107C740003F5C043D3F8100540F00100C3F8100524
:107C840002F1400040B2800080B2FFF7BFFE51B164
:107C940096F9A43055F823302BB1012303FA02F2EC
:107CA400034BC3F8042302B070BD00BFC4280020F6
:107CB400006000400E4B034493F9A420072A02DD20
:107CC4000021FFF7BBBED3B2072B10D8930003F1FA
:107CD400804303F5C043D3F8101521F00101C3F824
:107CE4001015012303FA02F2024BC3F8082370476C
:107CF400C428002000600040F7B50446FFF7DAFF0F
:107D0400174A184E1119E50891F9A43091F8A410F6
:107D140007299FBF144903F5A273002041F82300EB
:107D240004F0070301219940735D0B420DD001A8B3
:107D34000194FFF777FE019B03F5E073022740F8F7
:107D44002370735D23EA01017155144494F8A4006F
:107D5400FFF796FEFF2384F8A43003B0F0BD00BF04
:107D6400C4280020B9290020006000402DE9F04F0C
:107D740000248BB0CDE90444654D4FF48072012199
:107D840002F1804303F5C04390B21B68012B06D176
:107D9400D5F804330B4202D0FFF738FE0C4304320B
:107DA400B2F5907F4FEA4101EAD1594BD3F87C31C7
:107DB400012B0ED14FF4BE70FFF728FE4FF0A04305
:107DC40044F00044D3F810350493524BD3F81035E3
:107DD4000593E3B2D3B1504F01260025344210D0AD
:107DE400AB0003F1804303F5C043D3F81005D3F887
:107DF400101557F8253023B1C1F30141C0F3052014
:107E040098470135082D4FEA4606E7D1002C7BDA66
:107E14000023CDE906334FF0FF33CDE90833DFF813
:107E2400F8A03E4B019300252F46019B13F9014B0B
:107E34000193631C4FD0C4F3C2060122E3B204F0E1
:107E44003F0B04F0070402FA04F406F128020DEBD8
:107E5400020616F8081C21423DD00AEB0B014FEA3A
:107E6400931991F9A4105AF82180B8F1000F07D1A1
:107E7400B9F1030F2FD106A95846FFF7F6FD02E02A
:107E8400B9F1030FF7D003A8CDF80CB0FFF7CAFD82
:107E9400039901F5E07150F8211016F8180C2042EE
:107EA400C1F3014106D0022915D1B9F1030F0CD158
:107EB400494605E003290ED1B9F1030F05D102218A
:107EC4005846FFF7BBFD0135EDB2B8F1000F02D003
:107ED40049465846C0470137212FA6D1A5B14FF0D6
:107EE400A0430499D3F8102503F540739142D3F8C5
:107EF400103502D10599994206D004920593069A49
:107F0400079B089209938CE70BB0BDE8F08F00BF84
:107F14000060004000030050C4280020982900207D
:107F240000F1804000F5E040002382B00360036864
:107F34000193019B02B07047F0B5524B524CD3F8F9
:107F4400043185B0002B3DD094F82E204FF482707C
:107F5400FFF7E6FF2AB394F82F3013BB494AD2F84F
:107F64000031002B32D04FF48070FFF7D9FF638BC0
:107F740094F82D00834250D921891B1A9BB289B2EF
:107F84006383CB1A616801EB4303C2F82C36C2F851
:107F940030064FF48270FFF7C3FF3A4B01225A6058
:107FA40014E0636802932389ADF80C30E368002180
:107FB4008DF8041033BB2374236801A89847002369
:107FC40084F82F3094F82E30002BC7D12D4BD3F8E2
:107FD40010315BB14FF48870FFF7A2FF00232374C4
:107FE40002238DF8043001A823689847254BD3F861
:107FF4001431EBB14FF48A70FFF792FF002323741E
:1080040005B0F0BD208B608363602081E160002AAD
:10801400D2D11C4B01221A60CEE7BAD1E368012108
:1080240084F82F1013B100216183AEE76383B0E7B6
:1080340066694FF000470125002EE1D0B6FA86F2BA
:1080440027FA02F34632920026EA030602F180433D
:1080540003F5E0431B68002BEED01046A2F58C72AA
:10806400FFF75EFFD30882F00402C2F380028DF8AA
:1080740008308DF8045023688DF8092001A898472A
:10808400DAE700BF00700040C029002038B51E4B5D
:10809400044693F82C00A8BB1C4A19602178C2F846
:1080A400F0156178C2F8F415E5781874012183F8A5
:1080B4002D00586183F82F0083F82E5083F82C107C
:1080C4006FF00043C2F808334FF48270FFF728FFC3
:1080D4004FF48070FFF724FF4FF48A70FFF720FFFE
:1080E400A3780B485B01DBB280F80733802303607D
:1080F4000223C2F804330DB1C2F80413C2F8001508
:10810400002038BD0820FCE7C02900200070004092
:1081140000E100E070B52A4B1A7C02F0FF05002A4A
:108124004BD10A79012A9CBF264CC4F8005500F1B2
:108134000C0503EB4504247924B993F82D4001344C
:1081440083F82D4003EB4503CC790D7A8E781C71AE
:108154005D714B7836021B0106F4E06603F03003D0
:1081640033430E7806F003063343CE78360306F421
:1081740080563343160406F4E02633434E79897956
:10818400360506F480160906334301F080710B436B
:108194000C4901EB0016000100F1804000F5E040BD
:1081A400012AC6F81835C0F81455C0F8104502D88D
:1081B4000123C1F80035002000E0112070BD00BF8C
:1081C400C02900200070004070B5324A147C04F0CD
:1081D400FF03002C5CD1304C012503261574C4F830
:1081E4000863C4F82C16C4F8305692F82D40AC42FB
:1081F4000CD91D46190101F1804101F5E04101331B
:10820400082BC1F81455C1F81055F3D100F10C0333
:10821400000102EB430300F1804000F5E0401979CE
:108224005B79C0F81435C0F810151B4901230B60A5
:108234004B6042F21073D1F8040108B9013BFAD142
:108244004FF48070FFF76CFE4FF48270FFF768FE06
:10825400012C11D90F4800210B0103F1804303F5D0
:10826400E0430131047F457FC3F814550829C3F85E
:10827400104500F10200EFD192F82E10064B29B1FF
:1082840003210020C3F80413107470BD0221F8E721
:108294001120FAE7C029002000700040024B187C2E
:1082A400003818BF01207047C029002008B5114AC2
:1082B400137CABB14FF48A70FFF732FE0E4B2021D2
:1082C400C3F8041301219960137C022B09D1002304
:1082D4001374094B2021C3F8081300235360D3609F
:1082E40008BD42F21073117C0029F2D0013BFAD18F
:1082F400EFE700BFC029002000700040F0B51C4F1C
:108304008BB207EB001443EA0243C4F81C35194B43
:1083140040005C6900F1010C4FF0004611F5006F5C
:1083240026FA0CF64FF0800505FA00F50BBFB443AE
:1083340034435C615C610CBFC7F80853C7F804534D
:108344004FF0004140245D69844021FA00F040F27E
:10835400FF718A42064A0BBF25EA00002843586190
:1083640058610CBFC2F80843C2F80443F0BD00BF13
:1083740000700040C029002010B5124B1A7CF2B9DD
:1083840000F10C0103EB4102127922B193F82D2084
:10839400013A83F82D2003EB410300249C80030160
:1083A40003F1804303F5E0430749C3F8144540F261
:1083B400FF72C3F81045FFF7A1FF204610BD11203E
:1083C400FCE700BFC029002000F8FFFF38B5124BBE
:1083D4006FF00042C3F80823104A8021C2F88010CD
:1083E40001229A6042F21072D3F8141109B9013AC9
:1083F400FAD10B4D0024C3F800452C7405EB44035B
:108404001B7F13B1E0B2FFF7B7FF0134082CF5D19D
:10841400002385F82C3038BD0070004000E100E0F6
:10842400C02900200023435082B043580193019B8C
:1084340002B070472148D0F8103110B55BB14FF449
:108444008871FFF7EFFF1E4B5A79510703D51B685C
:108454000BB1012098471948D0F814315BB14FF49F
:108464008A71FFF7DFFF164B5A79120703D51B6891
:108474000BB1022098471148D0F81C315BB14FF47E
:108484008E71FFF7CFFF0E4B587910F0100002D118
:108494001B6803B198470948D0F8043163B14FF41D
:1084A4008271FFF7BFFF064B01221A711B681BB1D3
:1084B400BDE810400320184710BD00BF00C00140B4
:1084C400F02900201F2886BF054A00F01F004FF046
:1084D400A042012303FA00F0C2F80C05704700BF64
:1084E400000300501F2886BF054A00F01F004FF00C
:1084F400A042012303FA00F0C2F80805704700BF48
:10850400000300502DE9F8430779674C8046242086
:10851400784325182E7F002E40F0C380D8F80060E1
:1085240022506B600B7B0878012B00F2A880FFF7C8
:10853400C9FF0B781F2B86BF03F01F035B4A4FF064
:10854400A04203F5E073012042F823004D78FF2D8B
:1085540000F098802846FFF7B5FF1F2D8BBF05F06C
:108564001F032B46514A4FF0A04203F5E07303204A
:1085740042F823008B78FF2B00F087801F2B8BBFE2
:1085840003F01F021A4649484FF0A04002F5E0727A
:108594004FF0000C40F822C09946242202FB074207
:1085A40082F82030C878D077FF2816D00B79002BBA
:1085B4006ED0FFF787FFCB781F2B86BF03F01F0316
:1085C4003A4A4FF0A04203F5E073032042F8230037
:1085D400242303FB07430A799A770B78C6F80835F6
:1085E4008B68C6F80C55C6F81095C6F824354B7B35
:1085F4000A7B003B18BF0123022A4CD0032A4DD02A
:10860400012A01D143F00203C6F854358B79C6F828
:10861400C03524237B43E35813B14022C6F8042316
:108624000722C6F800250BB3D8F800304A7943F383
:1086340007300028A8BF00F16041C3F30733BCBF73
:1086440003F00F051A494FEA4212A8BF01F5614130
:10865400D2B2B4BF4A5581F8002303F01F030122AC
:1086640002FA03F34009134A42F82030242303FB9F
:1086740007440020012360772377BDE8F883FFF7E0
:1086840031FF56E74FF0FF3574E74FF0FF3984E7C9
:10869400FFF728FF8FE743F00403B5E743F0060331
:1086A400B2E70820E9E700BFF829002000030050E2
:1086B40014ED00E000E100E0114B07B5D3F81821F8
:1086C400DAB110490022C3F81821C87FD3F8183151
:1086D4000193FF28019B03D08B7F5BB1FFF7F2FE70
:1086E40000234B770B72D1E90031074803B05DF8E2
:1086F40004EB1847FFF7F6FEF2E703B05DF804FB5E
:1087040000300040F8290020002A00207FB50378BB
:108714008DF804304368029383688DF80C30C36885
:1087240004930369064A8DF81430064B01A853F8E4
:10873400213052F82110984707B05DF804FB00BFC0
:108744001C2A00202C2A0020F0B50546174615F8EF
:1087540004CB124A42F82C70114A42F82C30114BC7
:108764000C460FCB85B06E4686E80F002368009355
:1087740023798DF8053063798DF80630A368029368
:10878400002FA389084AADF80C3008BF3A46634667
:1087940031462846FFF7B6FE05B0F0BD2C2A00206E
:1087A4001C2A0020604F030011870200002343505D
:1087B40082B043580193019B02B07047F0B51C4B43
:1087C40044791C4F43F8242004EB44036600FB5C0B
:1087D40063BB90F9045003798A78002DADBF05F18D
:1087E400604CDFF854C003F00F0E0CF5614C4FEAF7
:1087F4004212D2B2B4BF0CF80E208CF800236D09DB
:108804000122DFF838C003F01F0302FA03F34CF827
:10881400253003680888C3F8080534443B190879EF
:108824003A55C978587099700020F0BD0820FCE7CB
:10883400402A00203C2A002014ED00E000E100E082
:10884400036801221A604379024A03EB43030221BD
:10885400D15470473C2A0020024610B500680C46EB
:108864004FF48271FFF7A2FF13680222C3F8442376
:108874000CB1C3F8042310BD2DE9F041224E234F5F
:10888400DFF88C8000244FF48035D7F80433A6F544
:1088940080412B4289B20CD0336853B1C7F8485396
:1088A4003846C7F80853FFF781FFD8F80030E0B224
:1088B40098470134042C4FEA450506F10406E4D137
:1088C4001248D0F80433DA070AD5D0F800313BB1A6
:1088D4004FF48071FFF76AFF0D4B20461B689847E1
:1088E4000A48D0F804339B070CD5D0F804314BB1B7
:1088F4004FF48271FFF75AFF054BBDE8F0411B6846
:1089040005201847BDE8F081404102400040024084
:10891400402A002000F1804382B01A68002A14BF64
:108924000120002004D000221A601B680193019BDF
:1089340002B070470E4A1378C3B903784FF08041F0
:10894400C3F34003C1F88035037803F00103C1F891
:108954007835084B1968C9075FBFC02183F8001335
:10896400012119600123137000207047852070478E
:10897400502A002000E100E0084B1B781BB9084B8B
:108984000122C3F88020074A00231360064A1360BB
:10899400064A1360064A1370704700BFC0280020BF
:1089A40000E100E0442A0020482A00204C2A00204C
:1089B400502A00204FF0804310B5D3F804436207D7
:1089C40007D54FF48470FFF7A5FF10B11E4B1B6849
:1089D4009847A30608D54FF48A70FFF79BFF18B198
:1089E4001A4B00201B689847600608D54FF48C701A
:1089F400FFF790FF18B1154B01201B68984721061B
:108A040008D54FF48E70FFF785FF18B1104B002086
:108A14001B689847E20508D54FF49070FFF77AFF7A
:108A240018B10B4B01201B689847A3050AD54FF4D6
:108A34009270FFF76FFF28B1054BBDE810401B682B
:108A44000220184710BD00BF442A0020482A0020F5
:108A54004C2A002008B5FFF7ADFFBDE80840FEF73B
:108A6400A3BF0023435082B043580193019B02B03B
:108A740070472DE9F0470E78089F9DF824A004461E
:108A84000D469846002E5BD1D0F82431D2F80090E0
:108A94003BB14FF49271FFF7E4FF012363612B7044
:108AA40014E0D0F81C313BB34FF48E71FFF7D9FFBB
:108AB400D0F82431002BECD113689F4212D918F856
:108AC4000330C0F81C35136801331360B94535D140
:108AD400D4F8043193B34FF482712046FFF7C1FFF9
:108AE400002604E00123BAF1000F03D0C36130462D
:108AF400BDE8F0874361E9E7D0F80831002BE5D001
:108B04004FF48471FFF7ADFFD0F82431002BC0D1AE
:108B140013689F42DAD9D0F8181508F803101368BF
:108B2400013313607A1E934205D10223C0F8003248
:108B340001232362CAE79F42FAD1C7E70126D6E799
:108B44004FF49271FFF78DFF4FF48E71FFF789FF99
:108B54004FF48471FFF785FFBAE700002DE9FF4762
:108B64000C4605461F4620463B4B03934FF4827147
:108B74009DF83080FFF775FF4FF49271FFF771FF96
:108B84004FF48E71FFF76DFF4FF48471FFF769FFA7
:108B94000023C4F800326B6385F82E30012323626E
:108BA400A36016466A6B97421DD9B35CC4F81C35A2
:108BB4006B6B01336B632B68E3B905F1340A05F180
:108BC4002E09039B002B1FDC95F82E3053BB00208D
:108BD400039B002B15DC0023C4F800350523C4F8DF
:108BE400003503200DE0B8F1000F01D0E361E2E7A6
:108BF4006361E0E740F28623AB60AB68C4F80433FA
:108C0400002004B0BDE8F087CDE900783346524631
:108C140049462046FFF72DFF0028D5D0039B013B92
:108C24000393CEE7D4F8C434C4F8C434002BCED0B4
:108C340013F0010F14BF4FF40240032048F2012245
:108C440013F0020F18BF104613F0040F48F202236A
:108C540018BF1846BCE700BFA08601002DE9FF47F6
:108C64000C4605461E462046364B03934FF482714C
:108C7400FFF7F7FE4FF49271FFF7F3FE4FF48E7196
:108C8400FFF7EFFE4FF48471FFF7EBFE0023012E94
:108C9400D5F800806B6385F82E3017464FF001033A
:108CA40006BF0222C4F80022C4F800322362236003
:108CB400B8F1000F15D105F1340A05F12E09039B13
:108CC400002B18DC95F82E301BBB0020039B002BD7
:108CD4000EDC0023C4F800350523C4F80035032056
:108CE40006E040F28623AB60AB68C4F8043300208E
:108CF40004B0BDE8F087CDE900683B4652464946DA
:108D04002046FFF7B6FE0028DCD0039B013B03930B
:108D1400D5E7D4F8C434C4F8C434002BD5D013F048
:108D2400010F14BF4FF40240032048F2012213F054
:108D3400020F18BF104613F0040F48F2022318BFA5
:108D44001846C3E7A0860100F0B50679344D4FF00C
:108D54003C0C0CFB06FC05EB0C0494F82D70002F66
:108D64005BD1A76084F8307084F82F700F6863605B
:108D74001F2F4B7B84F838308CBF07F01F033B4612
:108D840003F5E07388BF274C45F80C2098BF4FF0DB
:108D9400A04440F20C6E44F823E04C681F2C8CBFB6
:108DA40004F01F03234603F5E0738CBFDFF874C09F
:108DB4004FF0A04C4CF823E003688868C3F80875AA
:108DC400C3F80C45C3F82405FAB143F3073000286F
:108DD4000A7BB4BF144900F16041C3F30733B8BF41
:108DE40003F00F044FEA4212A8BF01F56141D2B269
:108DF400B4BF0A5581F8002303F01F03012202FACD
:108E040003F34009094A42F820303C2303FB06558A
:108E1400012385F82D300020F0BD0820FCE700BFB9
:108E2400542A00200003005014ED00E000E100E0AB
:108E3400036802790521C3F80015044B3C2101FBAA
:108E44000233022283F82D20704700BF542A0020E9
:108E54002DE9F74F2D4F0679D0F800902C4BC9F827
:108E640008333C2505FB0675C6EB061C95F82F3028
:108E74008E46144607EB8C0C03F0FF0B33B1AB6842
:108E8400C9F80433112003B0BDE8F08F82F0040365
:108E9400C3F3800385F82F302A628A46BAE80F00AC
:108EA40005F10C08A8E80F00DAF80030C8F8003023
:108EB400DEF80430AB62DEF80C206A629EF8011022
:108EC400C9F888159EF80010012917D0A1B9C4F378
:108ED40040143C2101FB0671604681F82C4000944B
:108EE4004946FFF73BFE3C235E43BA19BB59002BAE
:108EF400C9D182F82F30C6E70124EAE785F82CB0FF
:108F040049466046FFF7AAFEEDE700BF542A002059
:108F140086420400F0B587B004460F46154600218A
:108F2400142201A81E460AF084FF9DF830308DF803
:108F34000570002B14BF2022002201A920460296AE
:108F44000495FFF785FF07B0F0BDF0B587B0044680
:108F54000F4615460021142201A81E460AF069FF97
:108F64000123002201A920468DF804308DF80570F4
:108F740002960495FFF76CFF07B0F0BDF0B52F4CD7
:108F840089B094F82C300193A36A009304F134025D
:108F9400636A04F12E014FF04020FFF76AFDE8B93F
:108FA40094F82EC0276ABCF1000F21D1217B8B1EBF
:108FB400012B1DD8626AA3699A4219D1E2696369D7
:108FC4006262C7F340170329A36284F82C7007D1A7
:108FD40000974FF040212046FFF7C0FD09B0F0BDD7
:108FE4004FF04021204609B0BDE8F040FFF736BEFF
:108FF400134E0FCE03AD0FC533682B60BCF1000FC9
:1090040018D04FF04022D2F8C434C2F8C4349907BF
:109014000CD501238DF80830002384F82F307B070A
:10902400DCD4D4E9003102A89847D7E75A07F3D52E
:109034000223EFE78DF808C0EEE700BF542A0020B2
:10904400602A00201FB503788DF800308388ADF8BE
:10905400043083688DF80630C3688DF807300369DF
:1090640002934369054A0393054B684653F821303C
:1090740052F82110984705B05DF804FB902A0020AF
:10908400982A0020024B4FF4807043F001031847E4
:10909400704F03001F2886BF054A00F01F004FF0E1
:1090A400A042012303FA00F0C2F80805704700BF8C
:1090B400000300502DE9F047154690F80080394A26
:1090C40042F82850384A42F828304B7B06460C4672
:1090D400A3B30868DFF8D8904FF0A04100F5E0731F
:1090E40040F20C6241F82320636803F5E073002723
:1090F40041F82320FFF7CEFF6068FFF7CBFF23681A
:1091040003F5E07340F20D6241F82320636803F530
:10911400E0734FF0010A41F82320FFF7B3FF6368BF
:109124001F2B8ABF4A464FF0A04203F01F03D2F818
:10913400102522FA03F3DB070BD507BB002D1B4ACE
:10914400434608BF2A462146301DBDE8F047FFF7D5
:10915400FBBD23681F2B86BF03F01F034A464FF055
:10916400A0420AFA03F3C2F80C35FFF78BFF01376C
:109174002068FFF78FFFFFF785FF092FCFD16368C2
:109184001F2B86BF0A4903F01F034FF0A0410122A1
:1091940002FA03F3C1F80C35FFF774FF6068FFF7B8
:1091A40079FFCBE7982A0020902A002049900200FA
:1091B400000300502DE9F341104C114F114E0025CE
:1091C4004FF48038236804F5E04080B26BB1D7F8DF
:1091D400043308FA05F21A4207D0002323602368F7
:1091E4000193019BD6E9003198470135042D04F120
:1091F4000404E7D102B0BDE8F08100BF4091004013
:1092040000900040A02A0020704709B107F01EBA60
:109214007047000037B52D4B2D492E48019308F0B7
:109224009FFE0446002005F0F7F9044308F00AFF06
:10923400044308F00BFE044308F04AFD044309F01C
:1092440013FE0443012008F01BFF044309F038FC1B
:10925400044300F0E7FC0443012000F0FFFC00F0AD
:10926400C1F8044300F0F8FE044300F031FF44EA7F
:10927400000500F05FFD054301A801F019F8012085
:1092840000F0EEFA054301F0C9F9054300F038FC9B
:10929400054300F053FC05430DD1284600F0DEFCE5
:1092A400012000F0CFFC4FF47A7008F015FF05465A
:1092B400002000F0C7FC084809F056F9074A632368
:1092C4000021284609F0E4F803B030BD6F12833D55
:1092D4000D920200407E05000F920200764F0300BB
:1092E40008B5FFF797FF08F00BFD08F0E5FEFAE775
:1092F40007B504210190074A0DEB010008F00CFDAD
:10930400054A98236FF0004109F0C2F803B05DF8F4
:1093140004FB00BF65930200B54F0300007810F012
:10932400010010B504D00021054A084608F0F4FCF9
:10933400BDE81040034A4D23002109F0A9B800BF3D
:109344004D930200B54F030008B500F00BFC00F08C
:1093540081FE07F080F9BDE8084007F077B9000006
:1093640038B5002835D0042933D14388B3F5837F39
:109374002FD04FF6FF7293422BD10078154C164D27
:10938400032814D1154905F04BF92378012043F043
:109394000103237000F05EFC286808F0CBFD286808
:1093A400224641F28831BDE8384008F0A1BD0C499D
:1093B400032005F035F9237800206FF300032370B0
:1093C40000F048FC286808F0B5FDBDE8384000F01E
:1093D4002BBA38BDAC2A0020B02A0020FA4F030073
:1093E4001250030010B5054A0548002108F056FD47
:1093F4000446044809F0ACFA204310BD219302004E
:10940400B02A00206824002010B5064A89B208F06A
:1094140083FCBDE81040044A40F23F13002109F0E8
:1094240037B800BF519502003450030010B5064A06
:1094340089B208F071FCBDE81040044A4FF49873F7
:10944400002109F025B800BFF5980200345003004C
:1094540010B5084A89B208F05FFC074B1A786FF31D
:1094640041021A70BDE81040044A4FF48D73002184
:1094740009F00EB8AD970200C02A00203450030052
:1094840070B54FF4907204460E4600210AF0D1FCE8
:10949400302104F1F00009F0E1FA05462EB930213B
:1094A40004F1C00009F0F5FA0543114920460AF019
:1094B400F3FC104A272104F109000AF03EFC00F1F4
:1094C40009030D4AC0F12701E0180AF036FC0B49E4
:1094D40004F160000AF0E0FC094904F190000AF08C
:1094E400DBFC084904F130000AF0D6FC284670BDC4
:1094F4007850030082500300895003009250030007
:109504009C500300B25003000378DA0710B50446F8
:109514000AD50C4B022240F205501A7005F032FCB9
:1095240023786FF30003237023789B0708D5002169
:10953400054A084608F0F0FB23786FF341032370D3
:1095440010BD00BFB42A0020D198020070B50E46A9
:10955400054660B30A292DD900F004FB47F23051C7
:109564000446002006F0AAF82B78303BDBB21B2B14
:1095740044EA00040BD8012202FA03F30E4A1A400B
:109584002AB10E483246294600F09CFE04430021CD
:10959400022006F093F8044300F0D0FA2043BDE81B
:1095A4007040074ABB236FF0004108F071BF4FF4CD
:1095B4000060F4E71020F2E707043F0CBD2D030020
:1095C400345003002DE9F041284B294E294FDFF890
:1095D400AC8086B00722CDE9032303A840F2994367
:1095E400059309F005F932464FF4FA736FF0004120
:1095F400044608F04DFF002005F042FC04433246C7
:109604006FF0004120464FF4FB7308F041FF1A4B02
:10961400D8F8000019221A703B7843F001033B701C
:1096240008F088FC5C2332466FF00041054608F0E0
:109634002FFF3A46D8F8000041F2883108F058FC70
:109644000543324628465E236FF0004108F020FFB0
:1096540044EA05004FF4FD7332466FF00041019077
:1096640008F016FF019806B0BDE8F081640004001C
:1096740034500300C02A0020B42A0020B82A002055
:1096840070B588B0002400220023054602A8CDE965
:109694000223CDE905440E46079406F017F9BDF8F8
:1096A4000830134A0093CDE902340C21114B05A86C
:1096B4000AF043FB05A809F0E5FA044616B909F0D7
:1096C400CDFA0443284609F095FA44EA000509F066
:1096D400A9FA0543084809F0A5FB084809F0A8FBC6
:1096E400074809F0ABFB09F03FFB284308B070BD05
:1096F400C5500300BF50030055940200319402008A
:109704000D940200014B1878704700BFB42A002062
:1097140030B5C9B005464FF49072002168460AF08E
:1097240088FB29466846FFF7ABFE134A40F235230F
:109734006FF00041044608F0ABFEFFF743FF04431B
:109744000D4A40F2372320466FF0004108F0A0FE96
:1097540029466846FFF794FF0443074A40F2392339
:109764006FF00041204608F093FE044806F0ECF840
:10977400204649B030BD00BF3450030065A002004C
:1097840013B509F05DF80446FFF71CFF054A2043B2
:1097940040F243236FF00041019008F079FE0198F4
:1097A40002B010BD3450030070B509F0EBFA0C4A56
:1097B40040F207130021044608F06AFEFFF7E0FFB9
:1097C400084B074A00211970074B1D7861F34105C6
:1097D4001D7020434FF48573BDE8704008F058BEF7
:1097E40034500300BC2A0020C02A002010B509F020
:1097F40027F8044609F074FA204310BD38B504462E
:10980400FFF7F4FF054684F00100FFF781FF054BE5
:1098140005431C7024B1012000F018FA284638BD15
:109824002046F9E7BC2A002070B50B4D0B4E2B786F
:10983400012043F002032B70FFF7E0FF0446306879
:1098440008F078FB2A4604434EF66021306808F09D
:109854004FFB204370BD00BFC02A0020B82A00205F
:1098640090B50746C9B0022005F0D4FF144A044657
:109874000021144808F012FB04431ED117B9FFF766
:10988400D3FF04464FF49072002168460AF0D1FADF
:1098940000216846FFF7F4FD0443FFF793FE3946C1
:1098A40004436846FFF7ECFD394604436846FFF776
:1098B400E7FE0443044806F047F8204649B090BD4B
:1098C4000D950200B82A002065A0020010B509F029
:1098D40065FA48B9FFF792FFBDE81040034A4FF418
:1098E400CB73002108F0D4BD0020F5E73450030009
:1098F40010B50020FFF782FF094B1A786FF341027D
:109904001A700021074AEF2308F0C2FD0021BDE8C8
:109914001040044A4FF49273084608F0B9BD00BFE2
:10992400C02A0020345003002DE9F04106460F46BA
:1099340006F0F0FE00240546884606F0EBFE15F519
:109944007A6248F1000382428B4104D244F4806479
:109954006305F2D506E03846B0470228044604D031
:109964000028F5D12046BDE8F08108F0A5FBE4E726
:109974000021024A084608F0CFB900BF85990200C9
:10998400B0B59AB000AF1A220021182507F11C00C7
:109994000AF04FFA2A46002138460AF04AFA00F043
:1099A40031FCB860384608F062FD03B29B0007330F
:1099B40023F00703ADEB030D3846C7F810D000F0D1
:1099C40039FC012000F03EF93022002107F1380073
:1099D4000AF02FFA0121384608F07EFC02213846AD
:1099E40087ED110A08F078FC0421384687ED120A45
:1099F40008F072FC8021384687ED130A08F06CFCED
:109A04004FF48031384687ED0E0A08F065FC4FF4B8
:109A140080213846374C87ED0F0A08F05DFC238817
:109A240087ED100AA7F8543000F03CFC87F8560084
:109A340007F1580005F04AFF07F1600005F000FA4D
:109A440007F1500008F0C6FE07F1380107F11C00C9
:109A540009F050FB238887F8345001339BB24FF64A
:109A6400FF72934208BF00232380FFF74BFE044696
:109A740000283CD0FF2808BF002407F11C0087F809
:109A8400354008F0FDFE0446732320461A4A6FF061
:109A9400004108F0FDFC0125122307F11C0087F8A2
:109AA400343087F8355009F087F910B1B4FA84F5E9
:109AB4006D0907F11C0009F075FA00B135B108F021
:109AC4007FFA06F027FE0D4BC3E90001384600F08B
:109AD40083F90446002000F0B5F8074A94236FF098
:109AE4000041204608F0D4FC6837BD46B0BD08F0FC
:109AF400B1FEC9E7D02A0020CD500300C82A0020B7
:109B040010B508F0C5F908B9202010BD08F016F901
:109B14000028F9D0074C084A0121204608F0BEF974
:109B24000028F2D1024640F60A212068BDE8104020
:109B340008F0DEB9C42A00207599020010B5084C5B
:109B440023685BB100210846FFF71AFF2068002252
:109B5400BDE8104040F60A2108F0CAB9202010BD23
:109B6400C42A0020034B186808B108F0E3B9202088
:109B7400704700BFC42A002010B506F0CBFD074A89
:109B8400074CD2E900321B1942F10002834272EB06
:109B9400010334BF0120002010BD00BFC82A0020EB
:109BA400E09304001C4A70B51368A9B140EA0301AC
:109BB4001160CA062DD40B0711D5012140F20910FA
:109BC40009F0D2F904462046144ABDE870404B23FC
:109BD4006FF0004108F05CBC23EA0001E8E711F0F3
:109BE400040403D001214FF6FF70E9E70329F9D0FB
:109BF400012901D10620E3E7094E254636F8020B78
:109C0400002109F0B1F90135042D44EA0004F5D12D
:109C1400D9E70024D7E700BFD42A00201551030058
:109C24005C51030008B504490448042209F046F9CC
:109C3400034B00221A6008BD575103005C51030016
:109C4400D42A002001460120FFF7ACBF01460220C0
:109C5400FFF7A8BF01460420FFF7A4BF0146082070
:109C6400FFF7A0BF2DE970412D4EA1B04FF00008C1
:109C740034780E234444B4FBF3F203FB1244A4F5FA
:109C84008054A4B22146F02008F076FF234605460E
:109C940088BB244A802168460AF04FF869460320AD
:109CA40004F0BEFC25F0040508F06AFF28BB08F0A8
:109CB40065FF054308F064FF10BB1B4A40F6B4730C
:109CC4002146F02008F032FF054308F059FFD0B9CF
:109CD4006C23164A6FF00041284608F1010808F089
:109CE400D7FB5FFA88F38DB1B8F10E0FC0D12846C7
:109CF40021B0BDE870810E4ACCE708F0DDF9D3E766
:109D040008F0DAF9D6E708F0D7F9DEE73278134439
:109D1400DBB20E22B3FBF2F102FB11333370E6E740
:109D2400584A002064510300F02A0020AD5103007A
:109D34008751030070B5234B234A22492248A2B01D
:109D4400CDE90023214B83E803004FF47045002440
:109D54004FF20E062946F02008F00EFF044308F0E7
:109D64000FFF58BB0135ADB2B542F3D108F006FF81
:109D7400174E24F00404042304433246EF21F02058
:109D840008F0F2FE30F00403054609D133880133AC
:109D9400338032460423EF21F02008F0C7FE054645
:109DA40033880C4A802102A809F0C7FF02A90320C6
:109DB40004F036FC45EA040022B070BD08F07CF9DA
:109DC400CDE700BF800005002C010100E82A002037
:109DD400D82A0020EF5103002DE9F04F2DED048B1C
:109DE4003E4B3F4D3F4EB3F800903F496B6883B004
:109DF400044604200193D6E9007804F011FCD6E966
:109E04000023134309D04FF47A73E9FB0378D4E9B0
:109E14000023BA4273EB08035ED33449042004F0F0
:109E2400FFFB4FF480212046D4E9008908F054FA5E
:109E340080212046B0EE409A08F04EFA4FF480316B
:109E44002046F0EE408A08F047FAD5F808A0BAF1A7
:109E5400F90FB0EE408A25D92549032004F0E0FB30
:109E6400FFF700FF234AEE230021054608F010FB0C
:109E74001B4B40F6B4720021184609F0DAFF019A30
:109E84000260D4E9000100234FF47A72C6E90001AC
:109E940009F023FE124B5860284603B0BDEC048B36
:109EA400BDE8F08F0AF10107AF604FF47A72002326
:109EB4004046494609F011FE05EB071BFA2F05EB56
:109EC4000A15CBF804008BED029AC5ED078A85EDDF
:109ED400088AC1D00025D4E70025DDE7E82A002060
:109EE400F02A0020E02A0020055203001C5203003F
:109EF40032520300AD5103002DE9F8430C460646E7
:109F0400002800F0A080002900F09D804F4FDFF86A
:109F140040812368217833F47F4347D1A1F58051F0
:109F240040F6B4733A4689B2F02008F01DFE237857
:109F3400013305462370042D72D140F6B47200211A
:109F4400384609F076FF23780E2BE2D923780F2BBD
:109F540075D83E4FB4F80290BB68994524D209F1F4
:109F6400010807EB081898ED020A4FF480213046E7
:109F740007EB091708F0E0F997ED070A802130464E
:109F840008F0DAF997ED080A4FF48031304608F00A
:109F9400D3F9D8F804204FF47A73A2FB0323C6E95B
:109FA4000023638801336380002049E00D2963881E
:109FB400BA6811D89A421ED8A1F5805140F6B473FC
:109FC4003A4689B2F02008F0CFFD2378013323709C
:109FD400002305466380AEE70E290CD19A420AD8C5
:109FE40040F6B4724146384609F0FAFE237801334C
:109FF4002370002363806388B86807EB0313D4E9F4
:10A0040002CE5B694FF47A72A3FB023511466345B5
:10A0140075EB0E0362880ED2904204D8042592E7B1
:10A02400002D90D1E7E7013207EB02135B686280F1
:10A03400A3FB0135EBE79042F0D9002586E7042025
:10A044002843BDE8F8834FF40060FAE7A43A0020FF
:10A05400F02A002005F0CABF012006F0CFBA0000A4
:10A0640037B5194D044606F055FBD5E90023824265
:10A074008B410ED27CB9F3236846CDE900448DF8B8
:10A08400053008F063FB114AAF236FF0004108F07C
:10A09400FFF903B030BD08F0F5FA0028F9D006F056
:10A0A40039FB4EF66023C01841F10001C5E90001F7
:10A0B40008F064FB054AB8236FF0004103B0BDE823
:10A0C400304008F0E5B900BF684A00204752030059
:10A0D4002DE9F043454C464B2360464B6360464BA9
:10A0E40089B01868454B03930D230227ADF810304F
:10A0F4004FF01D0903234FF01F080090CDF814D032
:10A104000697ADF81C30ADF80490ADF806808DF8D4
:10A114000870ADF80A7005F0ABFF20B92025284679
:10A1240009B0BDE8F08306F0BBF80028F6D003A818
:10A1340007F00AFE054601A806F048F90821054380
:10A14400484605F09BFF08210543404605F096FF6D
:10A154000543E4D106F0A2FA294808F073F80A206E
:10A1640007F0BAFF4FF6FF7854F8043BB3F86A00DF
:10A1740040450DD0052105F081FF54F8043C93F8C7
:10A184006C10B3F86A0005F0EBFF0A2007F0A4FF97
:10A19400062654F8040C08F008FF013E04D0B0F57C
:10A1A400003FF6D0D0B900E0A8B954F8040C08F088
:10A1B40028FF38B954F8040C08F03AFF012FAED048
:10A1C4000127D1E754F8040C08F032FF54F8040CCA
:10A1D40008F000FFF2E7B0F5003F05D054F8043C66
:10A1E400FF2283F86820E9E70546E7E7604A002094
:10A1F400EC24002078240020C65203000F00110034
:10A204001907030038B50A4D286850B90024686856
:10A2140028B108F033F910B16B689B681C432046E1
:10A2240038BD08F02BF90028F0D02B689C68EEE7C5
:10A23400604A0020F8B50B4D06460227002455F865
:10A24400040B40B108F01AF928B155F8043C304623
:10A254005B6C98470443012F01D12046F8BD0127C8
:10A26400EDE700BF604A002038B50D4D044628686C
:10A2740038B108F003F920B12868826834EA02038F
:10A2840002D0686808B9002038BD08F0F7F8002843
:10A29400F9D06868826834EA0203F4D1F4E700BFB5
:10A2A400604A0020014B1868704700BF5C4A0020D8
:10A2B40008B5034B1868FFF7D7FF082008BD00BF97
:10A2C400CC5203002DE9F04F2DED028BAFB0814647
:10A2D40000AF0D46002900F091810A2A40F29181D5
:10A2E4000B78303B00241B2B00F2C580DFE803F021
:10A2F400C0BBBDC3C3C3C3C3C3C3B9C3C3C3C3C345
:10A3040012ADAFB3B5B7C3C3C3C30EB1072363F371
:10A31400070400E00124AB78112B40F06D816B46FB
:10A324001822002107F1200008EE903A09F081FD7F
:10A3340007F12000BC6208F09AF803B29B000733CF
:10A3440023F00703ADEB030D2846C7F830D008F01F
:10A35400D3FF0446284608F0DBFF834606F0DAF90B
:10A36400A34582460E4680F04581A749032004F0A8
:10A3740057F94FF47A7200235046314609F014FC21
:10A384004FF47A73201AA0FB0302FA60FA68B860EB
:10A3940061EB4101B4EB0B0403FB01226BEB0B0BF0
:10A3A400A4FB034103FB0B11A24576EB0103FA6006
:10A3B4006BDBBAEB040466EB0101C7E90841C7E9AA
:10A3C400064100263E747E824FF0000807F110011A
:10A3D40007F12000C7F82C80FFF78EFD04280446FF
:10A3E40056D11222414607F1400009F022FD0B2309
:10A3F40087F850306B7887F838302B7887F8393005
:10A40400102387F83A3007F138014FF0FF334846FC
:10A41400C7F83B30C7F83F30FFF786FA80217B4A04
:10A42400334607F1380009F088FC07F138010320AE
:10A4340004F0F6F818EE903A24F004009D46BC3778
:10A44400BD46BDEC028BBDE8F08F022463E7042413
:10A4540061E770235BE710245DE720245BE7402479
:10A4640059E76B4C57E7802455E74FF4803452E7A3
:10A474004FF480244FE7674A40F23D236FF00041D8
:10A484004FF4803008F004F845E70024214694E7AF
:10A49400FFF772FBF8B14146122207F1400009F0C0
:10A4A400C8FC0B2387F850306B7887F838302B784A
:10A4B40087F83930F02387F83A3007F138014FF044
:10A4C400FF33484644F48064C7F83B30C7F83F3054
:10A4D400FFF72AFAAEE7002CACD107F1200007F011
:10A4E400C6FFB9687860D7E908324842F96861EB79
:10A4F40041019842914115DAB96811EB030BFB68ED
:10A5040043EB02084FF0000A7B685FFA8AF18B4242
:10A514000BD841490420013604F082F8002C3FF4A2
:10A5240053AF87E7A346A046ECE707F12000396064
:10A5340007F033FF396800284BD007F1200007F0FB
:10A544004EFF3A6B386002EB8A0292ED008A0021DA
:10A554001A2207F1380009F06CFC3B68D807DAB21C
:10A5640021D5402107F13800396008F0DDFE43466B
:10A574005A4607F1380008F0E0FE3968B0EE480AA0
:10A5840007F1380008F0F4FE012387F851300B235B
:10A5940087F8503007F138016B7887F8383048462F
:10A5A400FFF7C2F914E0910722D450071ED4D10654
:10A5B4001AD4900616D4510612D410060ED4D90318
:10A5C400C3F3074208D4530701D53021CAE710204A
:10A5D40004430AF1010A97E73221C3E73121C1E7B5
:10A5E4004521BFE74421BDE74321BBE74221B9E749
:10A5F4004121B7E710241DE7002020E74FF4006055
:10A604001DE74FF400701AE78C520300A2520300B6
:10A614008000050047520300C352030013B5002312
:10A62400CDE900336846F3238DF8053008F08EF841
:10A63400044608F0A3F8204302B010BD6DDF704754
:10A6440079DF70477DDF704764DF70472DE9F04F95
:10A6540085B000250E9CBDF83CB0B4F800A0019173
:10A66400074690461E46A9463A884A450DDC45B140
:10A674002388013BA3EB0A039BB2FF2B3AD806F8CD
:10A684000A30002005B0BDE8F08F7A6852F829003E
:10A69400039000220DF10B0103A8FFF7D5FF00285A
:10A6A400F0D19DF80B20424521D12288002D14BF02
:10A6B4000020022002EB0801014459451ADC3DB98F
:10A6C400013292B2019B2280B3542288013222804B
:10A6D40022880DF10B01324403A8FFF7B5FF0028CF
:10A6E400D0D121889DF80B200A442280012509F14C
:10A6F4000109B9E70C20C5E72DE9F341089FBDF82E
:10A7040024801546CDE90078022204461E46FFF750
:10A714009DFF50B93346102229462046CDE90878DA
:10A7240002B0BDE8F041FFF791BF02B0BDE8F0818F
:10A734002DE9F04F00231788138090F82D3085B051
:10A7440006460D4614465BB3082F01D80C2028E1B9
:10A7540002A8FFF773FF002840F023812388DDF867
:10A7640009100822EA54238801339BB21B22238058
:10A77400EA54238801339BB2EA182380E950BDF8D8
:10A784000D30938023889DF8082006339BB212F085
:10A79400FE0218BF01222380EA5423880133238058
:10A7A400B378FBB123880433BB42CFD802A8FFF7A8
:10A7B40047FF002840F0F58023880322EA542388C9
:10A7C40001339BB219222380EA542388BDF8082060
:10A7D40001339BB2E9182380EA54120A4A70238891
:10A7E40002332380F2789AB12388D91CB942ADD8B8
:10A7F4000221E954238801339BB201212380E954C7
:10A8040023880B449BB22380EA5423880B4423807F
:10A814007268AAB12388D91CB94297D8022192F947
:10A824000020E954238801339BB20A212380E95490
:10A83400238801339BB22380EA5423880133238085
:10A844003389002B40F0A180338A5BB1CDE9004706
:10A854002B460722032106F11000FFF74DFF0028C5
:10A8640040F09F80338B5BB1CDE900472B46152226
:10A87400142106F11800FFF73FFF002840F09180F3
:10A88400326A002A40F09080D6F82480B8F1000F94
:10A8940030D0B8F804302188981C8A1C0244BA428B
:10A8A4003FF654AFFE283FF651AF03336B54238871
:10A8B40001339BB2FF222380EA54238801339BB2E5
:10A8C4002380B8F80020EA54E918120A4A70208854
:10A8D400023080B22080B8F804205AB1D8F80810A9
:10A8E40000296BD0284409F07BFA2388B8F80420A7
:10A8F4001344238096F82C30002B40F09880307855
:10A9040000284ED03388012B58D0228802F1020C43
:10A91400BC453FF61BAF012805D1737802331344BD
:10A924009F42FFF413AF023FBF1ABFB202A905EB67
:10A934000C00ADF80870FFF785FE90BB3178BDF8C8
:10A944000830022900F0B98072789A4202D39F42FB
:10A9540080F0B180012940F0B280974293B2C0F0F8
:10A96400AE80ADF808300821BDF80830FE2B3FF664
:10A97400EDAE22880133AB542288013292B2228098
:10A98400A9542288134423800BE0CDE900472B46C9
:10A994000622022106F10800FFF7AEFE00283FF46C
:10A9A40053AF05B0BDE8F08FB4F800C00CF1060356
:10A9B400BB423FF6CBAE1188052901D80720F0E74A
:10A9C4006FF4486E01EB0E039BB24FF27D3E73456C
:10A9D400F4D95388052BF1D96FF44860181880B264
:10A9E4007045EBD94FF6FF70814201D09942E5D80A
:10A9F400052305F80C30238801339BB212212380F0
:10AA0400E954238801339BB223801188E954E81860
:10AA1400090A4170238802339BB223805288EA5486
:10AA2400E918120A4A702388023323802CE7B36A98
:10AA3400002BC3D04FF000084FF00C0A4FF0160B58
:10AA4400B16A5FFA88F20AFB02F201EB0209B9F873
:10AA54000430981CFE283FF679AE208803332B542B
:10AA6400238801339BB2238005F803B02388013384
:10AA74009BB223808A5AEA54E918120A4A70208841
:10AA8400023080B22080B9F804205AB1D9F80810F5
:10AA9400002993D0284409F0A3F92388B9F80420A5
:10AAA4001344238096F82C2008F101085FFA88F3F8
:10AAB4009A42C5D823E7092156E79F42FBD2ADF855
:10AAC400087050E775DF704776DF70477ADF7047AC
:10AAD4007BDF7047034B1A8882420CBF1846002064
:10AAE400704700BF8C4A0020024B9B6903B1184792
:10AAF400704700BF704A002073B585B22846FFF73F
:10AB0400E9FF044638B3174E027A337B9A420CD2DB
:10AB140000F10A012846FFF7D5FFF0B111281AD039
:10AB240002B0BDE87040FFF7DFBF00230372337C3F
:10AB340043B13B212846FFF7C7FF30F0080301D09B
:10AB4400FFF7D2FF736933B100228DF80420ADF80A
:10AB5400065001A8984702B070BD237A01332372CE
:10AB6400F9E700BF704A002037B50B46497A0F4A0F
:10AB740079B9D2E901141D7A0246002D18BF214685
:10AB84005868FBF759FF78B103B0BDE83040FFF7D0
:10AB9400ABBF00211972536933B10122ADF806002D
:10ABA4008DF8042001A8984703B030BD704A0020F6
:10ABB4004B8802889A4210B51DD842889A421AD30B
:10ABC40083888A88012B94BFDC1A03F1FF349442F2
:10ABD40011D8013393420ED3C088CB88642894BF24
:10ABE400021AA0F164029A4205D86430984234BF34
:10ABF4000020012010BD0020FCE700000388122B78
:10AC040070B5014659D004D8102B1ED0112B44D056
:10AC140070BD502BFCD12F4BC288DB899A42F7D1EF
:10AC2400038A022BF4D186883046FFF753FF05468A
:10AC34000028EDD001F1120000F01AFA38BB686860
:10AC4400FBF742FF0028E3D009E0C37B012BDFD1EF
:10AC54004FF6FF70FFF73EFF054620B90420BDE81C
:10AC64007040FFF741BF1C4A8E88068000230372A0
:10AC74001368C0F80A305368C0F80E3010310A3037
:10AC8400FFF796FF134B6872DB89002BC0D129466E
:10AC94003046BDE87040FFF767BF8088FFF71AFFB2
:10ACA40004460028B4D04068FBF70EFF08B1FFF754
:10ACB4001BFF4FF6FF732380AAE786883046FFF711
:10ACC40009FF05460028A3D008310A30FFF770FFBA
:10ACD4006872DCE7704A0020A04A0020F8B50646F6
:10ACE40048B305460FCD154F3C460FC495E8070001
:10ACF40084E807003068124C3C60B0B1FFF7E6FE10
:10AD0400C0B9326813682360536863600D480E4A03
:10AD14004FF6FF7303800D4B40F8043F0021FBF70F
:10AD240079FE002818BF032004E02046FFF7D0FE78
:10AD34000028EBD0F8BD0E20FCE700BF704A0020CD
:10AD4400A04A00208C4A0020FDAA0200A84A002044
:10AD540070B50646FFF7BEFE0B4B0C46002908BF34
:10AD64001C46054668B121463046FFF7ABFE38B9AC
:10AD740001232B812368C5F80A306368C5F80E30B7
:10AD840070BD43F20200FBE7A04A0020F7B5174666
:10AD940001900E4691B1019C6CB100252C462946C8
:10ADA40001A8FBF7A6FF18B13946A8B2B047013491
:10ADB4000135142DF3D1204603B0F0BD0C46FAE75B
:10ADC40073B50191019C06466CB100252C462946B9
:10ADD40001A8FBF78EFF18B106EB440301349D80F4
:10ADE4000135142DF3D13046346002B070BD00003B
:10ADF4002DE9F04703888488112B8CB005463DD09B
:10AE04001A2B42D0102B19D1DFF8C080D8F80830A3
:10AE1400DB430093D8F804106846FBF7C3FF00999E
:10AE240001A8FFF7CDFF0DF108090027019B9F4200
:10AE340007D3132C12D90420FBF7CEFA0CB0BDE8CB
:10AE4400F08739F802AB00260136514608EB86003C
:10AE5400FBF745FF1D2EF7D10137E7E716482146DA
:10AE6400FBF726FF15482146FBF722FFEB7B012B5E
:10AE7400E4D013482146FBF71BFFDFE70E482146C9
:10AE84000CB0BDE8F047FBF72ABF037A0D481F2B2F
:10AE94004FEA131521460AD9FBF70AFF022D0A4887
:10AEA4002146EDD00CB0BDE8F047FBF701BFFBF73E
:10AEB40016FF05482146E3E7D04A0020CC4A00208B
:10AEC400D44A0020D84A0020DC4A0020C84A002086
:10AED4001328014602D80248FBF70BBF0020704735
:10AEE400CC4A002007B50190FFF7F2FF019930B179
:10AEF4000448FBF7FEFE002814BF0220012003B023
:10AF04005DF804FBD44A002007B50190FFF7E0FF89
:10AF1400019928B1044803B05DF804EBFBF7E9BEDE
:10AF240003B05DF804FB00BFD84A002010B5044606
:10AF3400FFF7CEFF002814BF2046142010BD0000E8
:10AF440008B518210248FBF7DDFEC0B208BD00BFFA
:10AF5400C84A002070B50A4E054630460C46FBF739
:10AF6400C8FE58B12846FFF7B3FF38B10634294666
:10AF740006EB8400BDE87040FBF7BBBE002070BD4B
:10AF8400C84A0020F8B50D4C054620460E46174623
:10AF9400FBF7AFFE80B12846FFF79AFF60B1B01D02
:10AFA40004EB800029461FB1BDE8F840FBF780BEE2
:10AFB400BDE8F840FBF793BEF8BD00BFC84A0020C7
:10AFC40073B50B4D019204460E4601462846FBF725
:10AFD40090FE50B1043405EB8404019AA068314614
:10AFE40002B0BDE87040FFF7D1BE02B070BD00BF33
:10AFF400C84A002070B50546164608460AB90E2010
:10B0040070BD00231360002DF9D02B68002BF6D0FF
:10B01400EB8813F003040ED1FFF788FFC0B21428A5
:10B024000BD02B7983420AD9EA882B6800FB0230C3
:10B0340030602046E4E70720E2E70520E0E704204B
:10B04400DEE7AADF7047002301380B70042806D816
:10B05400DFE800F00306080A0C0011230B707047A8
:10B064002123FBE73123F9E71223F7E72223F5E74E
:10B07400008800F0010070470088C0F3400070476A
:10B0840038B5044608460D4608F028FF6560208060
:10B0940038BDF0B58B7891B00C46012B38BF012335
:10B0A40000278DF80E3005460B88607CADF80C3017
:10B0B4006946ADF800708DF80270FFF7C4FFA07CFC
:10B0C4000DF10101FFF7BFFF1646237BE27B217DD3
:10B0D40043EAC203227C43EA02139DF80220B942E8
:10B0E40022F0190203F0190314BF022101211343B2
:10B0F40061F342031C22394609A88DF8023008F096
:10B1040098FE637B13F0300F14D00DF10901E07C3D
:10B11400ADF808708DF80A70FFF795FF11238DF8CC
:10B1240008309DF80A30012102AA61F342038DF828
:10B134000A300E92637B8DF82430A37B8DF8253082
:10B144000023CDE90633089303AB0493A388ADF839
:10B154001C30A368CDF814D01BB1E288ADF81820D8
:10B164000893A36973B301A90022ADF804208A707F
:10B174001A88ADF82C205A88ADF82E205A680D9103
:10B18400187B0A92FFF75FFFA3690DF10501587B55
:10B19400FFF759FFA3699A7A197A41EAC201DA7A68
:10B1A4009B7B41EA02119DF80620002B01F0190156
:10B1B40022F0190214BF02230123114363F3420155
:10B1C4008DF80610E36903B10C93334604AA09A968
:10B1D4002846FFF736FF11B0F0BD90DF7047A5DFBA
:10B1E4007047B5DF70471FB50023ADF80810ADF800
:10B1F4000A106A4602A9ADF80C30ADF80E3000937F
:10B20400ADF80430FFF7E9FF05B05DF804FB78B151
:10B214004FF0171303601B2303711723C3800381AB
:10B2240041F61B3200230161438182811846704735
:10B234000E20704720B1172904D1018000207047E7
:10B244000E2070470720704713B5034680880C46CC
:10B25400A0B91A88242A7CD012D8112A56D0232ABD
:10B2640000F08780102A2ED0A37A3BB1E188002019
:10B27400FFF7B5FF10B94FF48073638102B010BDBE
:10B284003A2A4BD0552AEFD1DB88C988A072172BF4
:10B2940038BF17238B4228BF0B462381FFF7A1FF3A
:10B2A400E27A002AE0D12369002BDDD040F6772131
:10B2B400ADF802202289ADF80010ADF804206946EB
:10B2C40020469847D0E7DB7B0A790A73012B13D019
:10B2D400022B14D0E18823898B4205D20020FFF78A
:10B2E4007EFF70B90123E372217B637B8B42BBD267
:10B2F4000020FFF778FFB7E70B88E380EAE74B8885
:10B30400FBE7112804BF0123A372EDE71723CB80C9
:10B314000B8141F61B3348818B81A5E75B89CA8881
:10B32400934228BF1346172B0A6938BF17230B8192
:10B3340062B1C97A51B140F67721ADF80010ADF889
:10B344000200ADF80430694620469047002363812B
:10B354008AE71A7A0B694A73002B85D04DF67A2155
:10B364008DF80500ADF80010ADF802008DF804204A
:10B37400A5E7197A237B994228BF1946B9E7B0DFBC
:10B38400704766DF704710B5002104464088FFF718
:10B39400F8FF034608B9237210BD112801D1012317
:10B3A400F9E76368BDE81040184760B159B1037804
:10B3B400DE2B0AD00B684360DE2303704FF6FF7365
:10B3C4004380002070470E2070470820704728B142
:10B3D4000378DE2B04D14180002070470E20704793
:10B3E40008207047F0B5054685B00C46002942D0C8
:10B3F400002840D00B78DE2B3DD182884B889A42BE
:10B4040004D10B7A13B10846FFF7BDFF2B88112B2B
:10B4140033D0512B0FD0012B2DD12B7A012B2AD1D4
:10B42400A9886288914226D12046237205B0BDE8DE
:10B43400F040FFF7A8BFAE886388B3421BD1AF7951
:10B44400022F18D1AD7B2B1F022B14D80021102200
:10B45400684608F0EEFC052D18BF4FF4C07369462A
:10B46400304618BFADF804308DF80070FFF787FF41
:10B4740008B16368984705B0F0BD6388AA889A420A
:10B4840004BF4FF6FF736380F5E7A0DF7047A1DFC9
:10B494007047ADDF7047B3DF704710B5044640888E
:10B4A40000F076FCA0802046BDE8104001F0D2BA3E
:10B4B40030B587B005460C4618220021684608F0CE
:10B4C400B8FC072368468DF80030ADF802500294AA
:10B4D400FFF7E3FF07B030BD30B587B0054618224B
:10B4E4000021684608F0A5FC4FF6FF739D42ADF8B5
:10B4F400025023D0284600F060FB1128044617D0E0
:10B5040007D860B10B2811D021462846FFF7D0FF99
:10B5140003E043F202039842F6D1002209E00E232D
:10B5240068468DF80030FFF7B8FFF6E70F23F7E71A
:10B534000122034B28461978FFF724FD07B030BDDC
:10B54400474B0020FFF7C8BF024B0349187800227D
:10B55400FFF736BD494B002061B502002DE9F047E5
:10B56400DFF8048188B098F800100446FFF7F2FC75
:10B574000646002873D1204600F072FB08280146D5
:10B5840022D006D888B106284BD02046FFF790FF7A
:10B5940009E043F20203984205D043F20143984282
:10B5A40059D01128F1D1012546E03146182202A8CC
:10B5B40008F03FFC102302A88DF80830ADF80A40CB
:10B5C4000126FFF76AFFEEE701A8FFF764FF35469F
:10B5D40001274FF002090DF1060ABDF80430BB4201
:10B5E4001FD902AA39462046CDE9029AFFF751FF36
:10B5F400B8B9BDF80630013735B942F605255B1BED
:10B604005D425D41BFB2E8E742F602129342F9D1CE
:10B614000DF1020302AAB9B220460393FFF739FFE2
:10B6240030B1204600F0B4FB00F034FB002503E009
:10B63400BDF80230002BF4D00A4B2A461978204674
:10B64400FFF7A0FC98F800103246204608B0BDE889
:10B65400F047FFF797BC2046FFF73EFFA3E708B08B
:10B66400BDE8F087494B00204A4B002013B504463F
:10B6740000F08EFB00236A46092100F0F9FD05283D
:10B6840005D1044B012219782046FFF77BFC02B058
:10B6940010BD00BF454B002008B5084B0849187879
:10B6A4000022FFF78DFC024630B9064B0649187894
:10B6B400BDE80840FFF784BC08BD00BF484B00202C
:10B6C4000DB70200454B0020D1B6020037B542F653
:10B6D400A623ADF800300A4B0446186801900125F2
:10B6E40001AA69462046ADF80250FFF7CEFE28B9FC
:10B6F400044B2A4619782046FFF744FC03B030BDBA
:10B70400D0520300444B002030B5012187B00546D8
:10B714001C48FBF724FB0446BFF35F8F70BB28462D
:10B7240000F006FA862801460ED007D8D0B11128B9
:10B7340026D02846FFF7BCFE002403E043F20203B0
:10B744009842F6D122460FE018222146684608F0B6
:10B7540070FB062368468DF80030ADF80250FFF701
:10B764009CFEEFE701240246074B28461978FFF7B1
:10B7740009FC1CB9BFF35F8F024B1C6007B030BDDE
:10B784000122F1E7404B0020484B002038B50378F4
:10B794000446A3B94088FFF79FFE6588284600F059
:10B7A4004CFA28B1064B012219782846FFF7EAFB28
:10B7B4006088FFF75BFFBDE83840FFF76DBF38BD19
:10B7C400494B002037B50378082B044630D1427A20
:10B7D40072BB057A072D1BD0082D2ED0012D27D141
:10B7E40080886A46294600F06DFF08BB019B1B78E0
:10B7F400F3B1A08800F0FAFA4FF6FF73984217D01D
:10B80400124B2A461978FFF7BDFBFFF79DFE0FE0A8
:10B81400808800F0EBFA4FF6FF739842044607D095
:10B824000B4B01221978FFF7ADFB2046FFF71EFFF3
:10B8340003B0BDE83040FFF72FBF064B196801295C
:10B84400F6D1BFF35F8F1A60F2E700BF494B0020C7
:10B85400484B0020404B00202DE9F843FFF770FBD4
:10B86400DFF89090DFF8908089F80000FFF768FB1C
:10B8740088F80000FFF764FB184F194E3870FFF783
:10B884005FFB3070FFF75CFB164D174C2870FFF719
:10B8940057FB2070FFF754FB144B187099F80030D5
:10B8A400182B18D098F80030182B14D03B78182B8C
:10B8B40011D03378182B0ED02B78182B0BD023787B
:10B8C400182B08D0182806D0094B00201860BFF3A5
:10B8D4005F8FBDE8F8830320FBE700BF494B0020DE
:10B8E4004A4B0020454B0020444B0020464B00208F
:10B8F400404B0020484B0020474B002037B50C4BF1
:10B904000022CDE900320B4B0D4619780446FFF7AF
:10B9140039FB0949094B2046002D08BF0B4601930A
:10B9240000F036FA0022694600F00EFD03B030BD87
:10B9340001000900454B0020D4520300D8520300F3
:10B9440070B503888488502B86B0054638D00ED84D
:10B95400352B48D0362B63D03F4B40491878002212
:10B96400FFF72EFB06B0BDE87040FFF7EDBD522B8C
:10B9740022D0542BF0D118220021684608F059FA3D
:10B98400112320468DF80030ADF8024000F000FA93
:10B99400ADF8040000F07EF9314B204619780022FE
:10B9A400FFF7F0FA2F4B204619780022FFF7EAFA46
:10B9B4006846FFF772FDCFE72046FFF78DFDCBE722
:10B9C400037B012BC8D1827A012AC5D1018942F6B1
:10B9D40002139942C0D1244B20461978FFF7D2FABA
:10B9E400FFF75AFEB8E7214E20463178FFF7B2FA46
:10B9F4000028B1D0002231782046FFF7C3FAEA8844
:10BA04003ABBAE89012E24D1E9892046FFF73FFDD8
:10BA1400F8B9174B324619782046FFF7B3FA9BE77B
:10BA2400134E20463178FFF795FA002894D03178E8
:10BA340000222046FFF7A6FAE98851B9EB89012BC9
:10BA440003D1297C003918BF01212046FFF756FF96
:10BA540082E70021F9E700BF474B002049B5020007
:10BA64004A4B0020494B0020484B0020444B002007
:10BA7400464B0020AFDF7047B1DF7047B2DF70473D
:10BA8400B3DF704710B50446808800F0AFF96080DA
:10BA94002046BDE8104000F0DFBF0000F0B5184BB1
:10BAA400184D93E8030089B06E4686E803004FF60C
:10BAB400FF772888B8421CD00022314600F044FCAD
:10BAC4000446C0B11822002102A808F0B2F92B885C
