:020000022000DC
:1060000000600020756302005D6302005F630200B0
:106010006163020063630200656302000000000028
:1060200000000000000000000000000067630200A4
:1060300069630200000000006B6302006D630200F0
:106040007D8002006F6302006F6302007D850200A5
:10605000997E020000000000CD7402005D7602000F
:106060006F6302006F6302006F6302006F630200E0
:106070006F6302006F6302006F6302006F630200D0
:1060800035BB0200516602006F6302006F630200BD
:10609000ED66020079950200399702006F630200F5
:1060A0006F6302006F630200000000000000000048
:1060B000597B02006F630200000000000000000036
:1060C00000000000000000000000000000000000D0
:1060D00000000000000000000000000000000000C0
:1060E00000000000000000000000000000000000B0
:1060F00000000000000000000000000000000000A0
:10610000000000000000000000000000000000008F
:10611000000000000000000000000000000000007F
:10612000000000000000000000000000000000006F
:10613000000000000000000000000000000000005F
:10614000000000000000000000000000000000004F
:10615000000000000000000000000000000000003F
:10616000000000000000000000000000000000002F
:10617000000000000000000000000000000000001F
:10618000000000000000000000000000000000000F
:1061900000000000000000000000000000000000FF
:1061A00000000000000000000000000000000000EF
:1061B00000000000000000000000000000000000DF
:1061C00000000000000000000000000000000000CF
:1061D00000000000000000000000000000000000BF
:1061E00000000000000000000000000000000000AF
:1061F000000000000000000000000000000000009F
:10620000354936480A1A02D0072291438D4634494F
:1062100034480A1A06D00722914381F309880222E2
:1062200082F3148830483149314A00F044F831484B
:106230003149324A00F03FF831483249324A00F0E1
:106240003AF832483249334A00F035F83248334997
:10625000334A00F030F833483349344A00F02BF821
:1062600033483449344A00F026F83448344900228F
:1062700000F02CF833483449002200F027F8334866
:106280003349091A082902DB002202604160314AC1
:1062900090471F481F49884205D00268043003B464
:1062A000904703BCF7E700208646EC46002000211B
:1062B000294A9047FEE7884207D0521A05D0037852
:1062C00001300B700131013AF9D17047884202D098
:1062D00002700130FAE770470060002000400020A3
:1062E000006000200060002028F90200582D0020E6
:1062F000692E0020C0630200C0630200ACF10200FE
:1063000028F90200582D0020582D002014F2020018
:1063100014F2020014F2020014F2020014F202005D
:1063200014F2020014F2020014F2020028F9020032
:106330003CFA02006C2E00206C2E00206C2E0020F7
:106340001C3B00201C3B0020203B0020203B002069
:10635000203D00208B63020049880200FEE7FEE733
:10636000FEE7FEE7FEE7FEE7FEE7FEE7FEE7FEE705
:10637000704700BF0C4880470C484FF00701884326
:1063800085460B488047FFF73BBF0A480A490B4A3E
:10639000884207D0521A05D0037801300B700131C2
:1063A000013AF9D1704700007163020000600020DB
:1063B000ED6D020014F20200582D0020582D00202F
:1063C00000487047143B00201FB50021039001AA2C
:1063D00044F20100CDE9011100F004F805B05DF8C8
:1063E00004FB000072B6094BD3F8F020D20700D5A9
:1063F00000BEBFF34F8FD968054A01F4E0610A433C
:10640000DA60BFF34F8F00BFFDE700BF00ED00E093
:106410000400FA054B1C30B5DB00044612F0030003
:106420009BB20DD1074D2A601A44074B1A60074BE7
:106430001870074B1870074B1C80074B198030BD34
:106440000720FCE7742E0020702E00206C2E002008
:106450007C2E0020782E00207A2E00202DE9F74394
:10646000DFF8A880B8F800308B4206460D46174684
:1064700047D300240DF107008DF8074000F02CFBF6
:10648000234B244A24481B78008892F800C0844596
:106490005FFA8CF138BF4C1CDBB238BFE4B2A342C8
:1064A00028D014781178CBB2884286BF0133DBB292
:1064B000002313709DF8070000F032FB4FF6FF73C6
:1064C0009C4220D0154B1B6843F8347003EBC40981
:1064D0009EB195B1124BB8F800001B682A463146B0
:1064E00004FB003007F04FFEA9F80450002003B071
:1064F000BDE8F0834FF6FF74DCE70020A9F8040044
:10650000F5E70920F3E70420F1E700BF782E00202B
:106510007C2E00206C2E00207A2E0020742E00206D
:10652000702E002070B5104C104D22782B789A42B6
:1065300000D170BD0E480F4A2378126806880E48B5
:1065400002EBC301006852F83320898803FB060080
:1065500090470A4922780988D3B2914286BF013315
:10656000DBB200232370E0E77C2E00206C2E00209D
:10657000782E0020742E0020702E00207A2E00200D
:10658000094B5A7899780132D2B2914208BF002261
:10659000197891421FBF02705878182202FB003010
:1065A00014BF043000207047802E002073B50546CC
:1065B00000240DF107000E468DF8074000F08CFA1C
:1065C0000DF10600FFF7DCFF90B10670094B9DF856
:1065D000062045605A709DF8070000F0A1FA24B922
:1065E000054B4FF48012C3F80021204602B070BD65
:1065F0000424F0E7802E002000E100E0024B4FF47D
:106600003C6043F00103184720F2020038B50C4B00
:106610000C4C4FF40032C3F8802001254FF4803336
:10662000C4F84833C4F808336560FFF7E7FF064B4A
:10663000A56000241C60FFF7E1FF044B1C7038BD0F
:1066400000E100E0001001408C3000207D3000208F
:10665000F8B51F4B1F491B680025C1F84051C1F810
:106660004451C1F84851C1F84C51C1F80051C1F82A
:1066700004514BB3D1F8044517490968641A24F052
:106680007F442F461A68A24209D8A41A15441A7CDE
:10669000DE691AB1D3E905201F749047AEB90F4ADD
:1066A0000F4B11781B788B4205D10133DBB2022BE3
:1066B00008BF0023137012780A4B43F822500A4B8C
:1066C0004FF48012C3F80021F8BD3346DAE700BF6B
:1066D00090300020001001408C30002089300020D4
:1066E000883000208030002000E100E02DE9F04FEC
:1066F000A14AA24913780978A14D994285B03CD0AE
:106700000133DBB2022B08BF002313709D491278BE
:106710009D4B0F6853F822003B1823F07F43002263
:106720000B602B6816461446944613B942B12B6091
:1067300006E0196881420ED902B12B60091A19606E
:1067400001272B68DFF844A201934FF00008BEB97F
:10675000DFF83CB260E0401A0C44D968D3F81CE082
:10676000C3F800C031B13A1922F07F42C3E90121D8
:10677000DE611E4673460122D7E700263746E0E772
:106780003446F6697F4B60681B68DFF808C2A16871
:10679000C21A22F07F42624500F2A6800A442260BB
:1067A000012222742A680023C4E90133E361002A2C
:1067B00040F0A3802C60CAE79BF802105A1CD2B2AA
:1067C00091428BF8002004BF00228BF80020182291
:1067D00002FB03B32A6819799C68022975D0032942
:1067E0007FD0012918D1207CB0B9D3E90312A2606F
:1067F0005A69E2609A69684BA2611A78002A18BF48
:1068000001466160BEE78C4200F094808946C96908
:106810000029F8D1002323749BF800309BF8012055
:106820009A42C9D12B68B8F1000F04D1019A9A425B
:1068300001D1002F43D0002B79D0D3F800A0534DC5
:10684000504BD5F804751C68DFF850813E1B98F852
:10685000003026F07F4603369BB94FF48033C5F8ED
:106860004433C5F804334E4B4FF400324FF0010966
:10687000C3F880211A60C5F80090FFF7BFFE88F8C2
:106880000090B2452CBF5444A41924F07F44C5F8AD
:106890004045D5F80435DB1B23F07F43E41B03336D
:1068A00024F07F44A3420AD9D5F80435C5F8403511
:1068B000FFF7A4FE3A4B4FF40032C3F80021364BE9
:1068C00000221A7005B0BDE8F08F114691469FE78F
:1068D0001174D2690123002AFAD1002B9CD02A60BE
:1068E0009AE700231946F6E71B1A23F07F438B42F1
:1068F00034BFCB1A0023236052E721681368994202
:1069000013D85B1A1360E26154E7091AD8691A4672
:1069100038B1034618688842F7D3401A1860184601
:1069200013462160E061DC6111E71346F2E7FFF7EF
:106930006DFEC4E74C4511D1D3692B6073B9DFF804
:1069400044E00120CDE90212CAF80800CEF8003078
:10695000114B1870FFF752FEDDE902120B68C9698E
:10696000C9F81C1011B1086803440B602B689342EE
:1069700018BF4FF001084DE7883000208930002013
:10698000903000208C30002080300020001001402A
:10699000802E0020FEFF7F007C3000207D30002014
:1069A00000E100E008B5FFF731FE104B0020152292
:1069B00018809A700E4B18600E4B18700E4B1870A2
:1069C0000E4B4FF48012C021C3F8802183F81413BA
:1069D0001A6002F18042A2F56F22C2F8080583F81E
:1069E0001113074BD2F804251A6008BD802E002031
:1069F00090300020883000208930002000E100E045
:106A00008C300020074B9B784BB132B128B1036822
:106A1000187C20B959745A617047072070470820C4
:106A2000704700BF802E00202DE9F743DFF87C80FF
:106A300098F8023005460E461746ABB3A0B30429BA
:106A400030D9436983B3437C0024012B0DF1070047
:106A50000CBF8946A1468DF8074000F03DF80DF1C6
:106A60000600FFF78DFDD8B101230370104B456080
:106A7000D3F80435C0E90497C0E902369DF8063022
:106A800088F801309DF8070000F04AF824B9094B56
:106A90004FF48012C3F80021204603B0BDE8F08314
:106AA0000424EFE70724F7E70824F5E7802E002009
:106AB0000010014000E100E0064A92783AB130B19E
:106AC000426922B1002202740221FFF76FBD082043
:106AD000704700BF802E002070B5EFF3108672B6AD
:106AE0000C4A946801239CB993600B4B0B4DD3F86F
:106AF000801029401160C3F88050D3F88410516091
:106B00004FF0FF32C3F88420047006B962B670BD3E
:106B10000370FAE79430002000E100E0FC06FFBDBE
:106B2000084B9A6810B55AB150B9EFF3108172B69C
:106B3000054A1C6814605C685460986001B962B6CC
:106B400010BD00BF9430002000E100E001F01F0202
:106B50004B090121914000EB830000F013B801F0D4
:106B60001F0301229A404B0900EB8300D14300F040
:106B700015B84B0901F01F0150F82300C84000F080
:106B80000100704710B5034653E8002F42EA0100A8
:106B900043E8000494F0000FF6D110BD10B5034691
:106BA00053E8002F02EA010043E8000494F0000FCC
:106BB000F6D110BD002370B51C461D4650E8003FBD
:106BC0000D68AB4207BF40E80026012440E80036CC
:106BD0000B60002E1CBF0024F0E7E0B270BD41DF67
:106BE00070470000064B10B500241C70054B1C605C
:106BF000BFF35F8F0449054800F016F8204610BD2A
:106C0000A8300020AC30002028F20200A030002084
:106C100008B502F077FD18B1BDE80840FFF7DFBF07
:106C200020BF40BF20BF08BD0B684A684360934245
:106C300008BF0023016008BF43607047436843B149
:106C40000268916852680B449342436004BF00237A
:106C500043607047026813685268934291BFD01A2C
:106C600080680130801888BFC01A70470368816847
:106C70001A685B688B4234BF01330023D31A584231
:106C80005841704773B5002304460DF107000D46C7
:106C90008DF80730FFF720FF2046FFF7E7FF10B120
:106CA000237C002B3BD12368A1685E685A688A4226
:106CB00034BF013200225A6028B11A688A4234BFB8
:106CC000013200221A60E2686368511E072920D849
:106CD000DFE801F004101F141F1F1F182A789A55AF
:106CE0002046FFF7B7FF23689A68824200D2986077
:106CF000002415E02A8823F81620F1E72A6843F8D3
:106D00002620EDE7D5E9000103EBC603C3E9000146
:106D1000E6E7294606FB023007F035FAE0E70424EF
:106D20009DF80700FFF7FCFE204602B070BD37B5A6
:106D3000054600240DF107008DF80740FFF7CCFE53
:106D40002B681C609DF807005C609C60FFF7E8FE04
:106D500003B030BD036818685B68C31A58425841D5
:106D6000704773B5002305460DF107000C46164623
:106D70008DF80730FFF7B0FE2846FFF7EBFF00283D
:106D800032D12B6819682EB91A68A868824238BFB8
:106D9000561C1E60EA686B68501E07281ED8DFE884
:106DA00000F0040E1D121D1D1D165B5C23700024D7
:106DB0009DF80700FFF7B4FE204602B070BD33F81F
:106DC00011302380F3E753F821302360EFE703EB22
:106DD000C103D3E90023C4E90023E8E701FB023142
:106DE000204607F0D0F9E2E70524E1E74FF08053B1
:106DF0004FF08041D3F84422C2F34232C1F83C251F
:106E00000022C1F80C21C1F81021C1F83825484AE8
:106E1000D3F80404C2F82005D3F80804C2F8240506
:106E2000D3F80C04C2F82805D3F81004C2F82C05D6
:106E3000D3F81404C2F83005D3F81804C2F83405A6
:106E4000D3F81C04C2F84005D3F82004C2F8440566
:106E5000D3F82404C2F84805D3F82804C2F84C0536
:106E6000D3F82C04C2F85005D3F83004C2F8540506
:106E7000D3F83404C2F86005D3F83804C2F86405C6
:106E8000D3F83C04C2F86805D3F84004C2F86C0596
:106E9000D3F84404C2F87005D3F8583203F04F0316
:106EA000C1F8E43ED1F80034DB0744BF6FF00103C2
:106EB000C1F800344FF01023D3F80022002A03DB7E
:106EC000D3F80432002B2EDA1A4B0122C3F8042522
:106ED000D3F80024002AFBD04FF010221521C2F86D
:106EE0000012D3F80024002AFBD04FF01023152203
:106EF000C3F804220F4BD3F80024002AFBD0002251
:106F0000C3F80425D3F80024002AFBD0BFF34F8F29
:106F100009490A4BCA6802F4E0621343CB60BFF32D
:106F20004F8F00BFFDE7064B064A1A60704700BF4F
:106F300000C0004000E0014000ED00E00400FA0560
:106F4000582D00200090D00338B5074C051E04F1E1
:106F5000080318BF1C4623682BB11A6822605B68BF
:106F600028469847F7E738BDB830002020B9054BD0
:106F700001225A70FFF7E8BF012802D1014A907040
:106F8000F8E77047B030002020B9034B01225A7057
:106F9000FFF7DABF704700BFB0300020014B187810
:106FA000704700BFB030002038B50B4C237883B950
:106FB0000A486360A3602361E36000F08DF8054632
:106FC00002F0A0FB08B900F093F8012323702846D3
:106FD00038BD8525FBE700BFB03000206D6F020093
:106FE00037B5184CA378054603F0FF029BB110B1EA
:106FF00043680120984700230DF107008DF8073002
:10700000FFF76AFDE3689DF807000133E360FFF7CF
:1070100087FD03B030BD0DF107008DF80720FFF7A5
:107020005BFD25B1226913463BB92A602561E368FF
:10703000002BE7D100F072F8E4E79D42F7D01B681F
:10704000F2E700BFB030002037B50B4C00230DF144
:1070500007008DF80730FFF73FFDE368013BE36071
:10706000E56815B900F06BF8A5709DF80700FFF70B
:1070700057FD03B030BD00BFB0300020012813B56C
:1070800008D003281CD018B9114B0122C3F8802066
:1070900002B010BD0F4C00230DF107008DF8073032
:1070A000FFF71AFD23780BB9FFF77EFFE3689DF821
:1070B00007000133E3600123A370FFF731FDE7E729
:1070C00000F016F802B0BDE81040FFF7BDBF00BFEA
:1070D00000E100E0B0300020044B0246187918B9F6
:1070E0001A6001221A71704785207047C430002051
:1070F000084B1A68D2075FBFC02283F80023012221
:107100001A604FF080420123C2F81835024A13700A
:10711000704700BF00E100E0CC3000204FF080431A
:107120000022C3F8042182B0D3F804210192019A0D
:107130000222C3F8042301229A6002B070474FF084
:1071400080430122DA60D3F81824D203FBD47047BD
:107150004FF0804307B5D3F8002162B10020C3F897
:107160000001D3F800210092009A0122C3F80823FD
:107170000D4B1B6898474FF08043D3F8042182B130
:107180000022C3F80421D3F804210192019A0222BB
:10719000C3F80823044B1B68012003B05DF804EB1F
:1071A000184703B05DF804FBC430002000F18040B4
:1071B00000F5C040002382B0036003680193019B87
:1071C00002B07047800000F1A040D0F8002722F400
:1071D0004032C0F80027D0F8003743EA0143C0F836
:1071E00000377047C208012300F0070003FA00F0DF
:1071F0008B5C184388547047054B4FF0FF320728CB
:1072000043F8202084BFC01880F8BC20704700BF1E
:10721000D0300020C208054900F007000123834058
:10722000885C20EA03008854704700BFB531002015
:1072300038B5144D95F8E94014BB2022FF2105F123
:10724000A40006F0C9FFE0B20134FFF7D5FF292CF6
:10725000F9D10D4B0022C021C5F8E52083F80613B3
:10726000402119604FF4BE70FFF7A0FF074B4FF0AD
:107270000041C3F80413012385F8E930104638BDF6
:107280000820FCE7D030002000E100E00060004072
:10729000034B93F8E900003818BF0120704700BF86
:1072A000D03000202DE9F041DFF8E08008EB00034A
:1072B000054693F9A430002B0F4664DA8B78C3F3AC
:1072C0004003002B0BBF08240024292108218C42F5
:1072D00002D10420BDE8F08158F8240001303DD1EE
:1072E00008EB050166B248F8242081F8A4601BB9B8
:1072F00008EB040383F8BC50BB785A070ED4D907B7
:107300002ED5AB0003F1A043D3F8002722F00202F0
:10731000C3F800271E492846FFF764FFBB783A7878
:1073200013F0020325D0A40004F1804404F5C04406
:107330002D02D4F8103523F4473323F44073C4F8F6
:1073400010351204D4F8103505F4F85502F4403223
:1073500015431D43C4F810550020BBE70134B6E7C0
:107360007A7805F5E0734FF0A041920041F82320B0
:10737000D0E7083E48FA86F696F8C45045EA8212ED
:1073800086F8C420E8E70820A4E700BFD03000203A
:10739000B531002038B5204C251895F9A420072ACE
:1073A00018DD083A44FA82F494F8C4309B09032BA0
:1073B0000BD14FF0A043D3F81015C14001F00101EB
:1073C0000231BDE83840FFF7FDBE012B0CBF0221A2
:1073D0000321F6E7D3B2072B1DD8930003F18043B6
:1073E00003F5C043D3F8100540F00100C3F81005C1
:1073F00002F1400040B2800080B2FFF7D7FE51B1E9
:1074000095F9A43054F823302BB1012303FA02F28A
:10741000024BC3F8042338BDD03000200060004088
:107420000E4B034493F9A420072A02DD0021FFF745
:10743000C9BED3B2072B10D8930003F1804303F5E4
:10744000C043D3F8101521F00101C3F81015012332
:1074500003FA02F2024BC3F808237047D030002031
:107460000060004038B5174D0446FFF7D9FF2A19D0
:1074700092F9A43092F8A420072A9FBF124A03F57C
:10748000A273002142F8231005EBD40304F0070196
:1074900093F8E52001238B401A4209D004F5E073EC
:1074A0004FF0A042022142F823102046FFF7B2FE1F
:1074B0002C4494F8A400FFF79FFEFF2384F8A43027
:1074C00038BD00BFD0300020006000402DE9F04FF3
:1074D00087B00024584D03944FF48072012102F1CB
:1074E000804303F5C04390B21B68012B06D1D5F849
:1074F00004330B4202D0FFF759FE0C430432B2F5BD
:10750000907F4FEA4101EAD14B4BD3F87C31012BFC
:107510000AD14FF4BE70FFF749FE4FF0A04344F08C
:107520000044D3F810350393E3B2D3B1434F01269F
:107530000025344210D0AB0003F1804303F5C04373
:10754000D3F81005D3F8101557F8253023B1C1F33F
:107550000141C0F3042098470135082D4FEA460643
:10756000E7D1002C60DA00224FF0FF33CDE904238D
:10757000DFF8C880DFF8C8900026374619F9014BBC
:10758000631C46D0C4F3C20318336B440122E5B236
:1075900004F03F0A04F0070402FA04F413F8042C80
:1075A000224236D008EB0A02AD0992F9A42058F81D
:1075B00022B0BBF1000F08D1032D2AD104A95046F7
:1075C0000193FFF70FFE019B01E0032DF6D00AF5B2
:1075D000E0714FF0A04213F80C3C52F82110234206
:1075E000C1F3014105D0022913D1032D0BD1294646
:1075F00004E003290DD1032D05D102215046FFF7E8
:10760000E1FD0136F6B2BBF1000F02D0294650462B
:10761000D8470137212FB1D136B14FF0A043039A9B
:10762000D3F81035934202D107B0BDE8F08F039331
:10763000049B05939EE700BF00600040D03000200F
:107640009431002000F1804000F5E040002382B03A
:10765000036003680193019B02B07047F0B5524B81
:10766000524CD3F8043185B0002B3DD094F82E2035
:107670004FF48270FFF7E6FF2AB394F82F3013BB64
:10768000494AD2F80031002B32D04FF48070FFF716
:10769000D9FF638B94F82D00834250D921891B1A9E
:1076A0009BB289B26383CB1A616801EB4303C2F8D2
:1076B0002C36C2F830064FF48270FFF7C3FF3A4B06
:1076C00001225A6014E0636802932389ADF80C30FC
:1076D000E36800218DF8041033BB2374236801A8EC
:1076E0009847002384F82F3094F82E30002BC7D110
:1076F0002D4BD3F810315BB14FF48870FFF7A2FF28
:107700000023237402238DF8043001A823689847CE
:10771000254BD3F81431EBB14FF48A70FFF792FF89
:107720000023237405B0F0BD208B6083636020814B
:10773000E160002AD2D11C4B01221A60CEE7BAD1F7
:10774000E368012184F82F1013B100216183AEE7B3
:107750006383B0E766694FF000470125002EE1D052
:10776000B6FA86F227FA02F34632920026EA0306B8
:1077700002F1804303F5E0431B68002BEED0104676
:10778000A2F58C72FFF75EFFD30882F00402C2F309
:1077900080028DF808308DF8045023688DF8092098
:1077A00001A89847DAE700BF00700040BC31002014
:1077B00038B51E4B044693F82C00A8BB1C4A196030
:1077C0002178C2F8F0156178C2F8F415E5781874DC
:1077D000012183F82D00586183F82F0083F82E5083
:1077E00083F82C106FF00043C2F808334FF4827016
:1077F000FFF728FF4FF48070FFF724FF4FF48A70E3
:10780000FFF720FFA3780B485B01DBB280F807335A
:10781000802303600223C2F804330DB1C2F80413BD
:10782000C2F80015002038BD0820FCE7BC3100205C
:107830000070004000E100E070B52A4B1A7C02F0B5
:10784000FF05002A4BD10A79012A9CBF264CC4F8B7
:10785000005500F10C0503EB4504247924B993F895
:107860002D40013483F82D4003EB4503CC790D7A8C
:107870008E781C715D714B7836021B0106F4E06650
:1078800003F0300333430E7806F003063343CE781B
:10789000360306F480563343160406F4E0263343D9
:1078A0004E798979360506F480160906334301F0CE
:1078B00080710B430C4901EB0016000100F1804080
:1078C00000F5E040012AC6F81835C0F81455C0F894
:1078D000104502D80123C1F80035002000E0112036
:1078E00070BD00BFBC3100200070004070B5324A4E
:1078F000147C04F0FF03002C5CD1304C01250326DE
:107900001574C4F80863C4F82C16C4F8305692F8FD
:107910002D40AC420CD91D46190101F1804101F501
:10792000E0410133082BC1F81455C1F81055F3D1CB
:1079300000F10C03000102EB430300F1804000F56D
:10794000E04019795B79C0F81435C0F810151B496F
:1079500001230B604B6042F21073D1F8040108B9A7
:10796000013BFAD14FF48070FFF76CFE4FF4827048
:10797000FFF768FE012C11D90F4800210B0103F11C
:10798000804303F5E0430131047F457FC3F814557C
:107990000829C3F8104500F10200EFD192F82E102B
:1079A000064B29B103210020C3F80413107470BDE5
:1079B0000221F8E71120FAE7BC31002000700040F6
:1079C000024B187C003818BF01207047BC310020E2
:1079D00008B5114A137CABB14FF48A70FFF732FE41
:1079E0000E4B2021C3F8041301219960137C022B54
:1079F00009D100231374094B2021C3F80813002375
:107A00005360D36008BD42F21073117C0029F2D09C
:107A1000013BFAD1EFE700BFBC310020007000400D
:107A2000F0B51C4F8BB207EB001443EA0243C4F8D5
:107A30001C35194B40005C6900F1010C4FF0004609
:107A400011F5006F26FA0CF64FF0800505FA00F5E7
:107A50000BBFB44334435C615C610CBFC7F808538F
:107A6000C7F804534FF0004140245D69844021FA77
:107A700000F040F2FF718A42064A0BBF25EA00007F
:107A80002843586158610CBFC2F80843C2F8044348
:107A9000F0BD00BF00700040BC31002010B5124B9B
:107AA0001A7CF2B900F10C0103EB4102127922B108
:107AB00093F82D20013A83F82D2003EB4103002495
:107AC0009C80030103F1804303F5E0430749C3F8B9
:107AD000144540F2FF72C3F81045FFF7A1FF20469E
:107AE00010BD1120FCE700BFBC31002000F8FFFFF3
:107AF00038B5124B6FF00042C3F80823104A8021BA
:107B0000C2F8801001229A6042F21072D3F8141168
:107B100009B9013AFAD10B4D0024C3F800452C7481
:107B200005EB44031B7F13B1E0B2FFF7B7FF01344D
:107B3000082CF5D1002385F82C3038BD00700040AA
:107B400000E100E0BC3100200023435082B04358E4
:107B50000193019B02B070472148D0F8103110B555
:107B60005BB14FF48871FFF7EFFF1E4B5A79510755
:107B700003D51B680BB1012098471948D0F8143180
:107B80005BB14FF48A71FFF7DFFF164B5A7912078A
:107B900003D51B680BB1022098471148D0F81C315F
:107BA0005BB14FF48E71FFF7CFFF0E4B587910F099
:107BB000100002D11B6803B198470948D0F804317E
:107BC00063B14FF48271FFF7BFFF064B01221A71B8
:107BD0001B681BB1BDE810400320184710BD00BF53
:107BE00000C00140EC3100202DE9F04706795D4CE2
:107BF00024257543671997F81CC0BCF1000F40F0AD
:107C0000AF80006862517B6091F800E00F7B4FF01D
:107C1000A045012303FA0EF3012F94BFC5F80C35DC
:107C2000C5F808350EF5E0734FF0010C45F823C098
:107C30004B78FF2B1FBF0CFA03FCC5F80CC503F5EE
:107C4000E07C4FF0030818BF45F82C808D7808BF02
:107C50004FF0FF33FF2D1FBF05F5E07C4FF0A0492B
:107C60004FF0000A49F82CA04FF0240C0CFB064CF6
:107C700018BFA8468CF82050CD788CF81F5008BF4C
:107C80004FF0FF38FF2D17D091F804904FF0010C02
:107C90000CFA05FC4FF0A04AB9F1000F57D0CAF812
:107CA0000CC505F5E0754FF0030C4AF825C02425F6
:107CB00005FB064585F81E90C0F808E5C0F80C35B0
:107CC0008B68C0F81085C0F824354B7B003B18BF8B
:107CD0000123022F3ED0032F3FD0012F01D143F0CB
:107CE0000203C0F854358B79C0F8C03512B1402377
:107CF000C0F804330723C0F80035FAB140F3073267
:107D0000002A4B79B4BF184902F16041C0F3073033
:107D1000B8BF00F00F054FEA4313A8BF01F561415A
:107D2000DBB2B4BF4B5581F8003300F01F000123D4
:107D300003FA00F052090D4B43F82200242303FB01
:107D400006440020012360772377BDE8F087CAF856
:107D500008C5A6E743F00403C3E743F00603C0E702
:107D60000820F2E7F431002014ED00E000E100E02B
:107D70002DE9F3410779474E24237B431446F2183B
:107D80000D46517F8646002940F08180F35823B18B
:107D900014F0140F04BF0123537795E80F004FF040
:107DA000240C0CFB076C0CF10C0888E80F009CF805
:107DB0001F20FF2A08D09CF81E10012393404FF08B
:107DC000A042C1B1C2F80835296821B101F0604371
:107DD000B3F1005F06D1AA6882B102F06043B3F14B
:107DE000005F0BD0242303FB07660023737710206A
:107DF00002B0BDE8F081C2F80C35E5E7DEF80030EE
:107E00006868C3F84415C3F84805E968C3F8342521
:107E10000022C3F83815C3F81821D3F818210192AD
:107E2000019A14F0010218BF0122C3F8502514F082
:107E3000020218BF0122C3F8402522075CBF0122BD
:107E40001A6124227A43B258B2B9D3F81821002A11
:107E5000FBD0242303FB0766F27FFF2A07D0B07F05
:107E6000012393404FF0A04218B1C2F80C35002016
:107E7000BEE7C2F80835BBE714F004004FF040023B
:107E800002D0C3F80823F2E7C3F80423B0E71120B7
:107E9000AEE700BFF43100204FF0402382B0D3F8AA
:107EA0001821EAB10022C3F81821D3F81831019340
:107EB000019B0C4BD97FFF2907D0987F01228A4074
:107EC0004FF0A04148B1C1F80C2500225A771A7230
:107ED000D3E90021044802B01047C1F80825F4E7AF
:107EE00002B07047F4310020FC3100207FB50378E8
:107EF0008DF804304368029383688DF80C30C368B2
:107F000004930369064A8DF81430064B01A853F810
:107F1000213052F82110984707B05DF804FB00BFEC
:107F20001832002020320020F0B50546174615F81B
:107F300004CB124A42F82C70114A42F82C30114BF3
:107F40000C460FCB85B06E4686E80F002368009381
:107F500023798DF8053063798DF80630A368029394
:107F6000002FA389084AADF80C3008BF3A46634693
:107F700031462846FFF738FE05B0F0BD203200201C
:107F80001832002034F20200ED7E020000F1804041
:107F9000002382B0036003680193019B02B0704725
:107FA0000C4A13789BB903784FF0804103F001032A
:107FB000C1F87835084B1968C9075FBFC02183F83D
:107FC00000130121196001231370002070478520E0
:107FD000704700BF3032002000E100E0074B1B7803
:107FE0001BB9074B0122C3F88020064A0023136007
:107FF000054A1360054A1370704700BFCC3000205B
:1080000000E100E0283200202C3200203032002035
:108010004FF0804310B5D3F80443610709D5D3F876
:10802000083133B14FF48470FFF7B0FF114B1B6878
:108030009847A2060CD54FF08043D3F814313BB1DA
:108040004FF48A70FFF7A2FF0B4B00201B68984784
:1080500063060ED54FF08043D3F818314BB14FF47F
:108060008C70FFF793FF044BBDE810401B680120A4
:10807000184710BD283200202C32002008B5FFF729
:10808000C7FFBDE80840FFF763B80023435082B044
:1080900043580193019B02B070472DE9F0470E78D9
:1080A000089F9DF824A004460D469846002E5BD1FB
:1080B000D0F82431D2F800903BB14FF49271FFF721
:1080C000E4FF012363612B7014E0D0F81C313BB353
:1080D0004FF48E71FFF7D9FFD0F82431002BECD18B
:1080E00013689F4212D918F80330C0F81C35136882
:1080F00001331360B94535D1D4F8043193B34FF44B
:1081000082712046FFF7C1FF002604E00123BAF187
:10811000000F03D0C3613046BDE8F0874361E9E753
:10812000D0F80831002BE5D04FF48471FFF7ADFF94
:10813000D0F82431002BC0D113689F42DAD9D0F88F
:10814000181508F803101368013313607A1E934260
:1081500005D10223C0F8003201232362CAE79F42FF
:10816000FAD1C7E70126D6E74FF49271FFF78DFFEA
:108170004FF48E71FFF789FF4FF48471FFF785FF8D
:10818000BAE700002DE9FF470C4605461F4620468A
:108190003B4B03934FF482719DF83080FFF775FFDE
:1081A0004FF49271FFF771FF4FF48E71FFF76DFF7F
:1081B0004FF48471FFF769FF0023C4F800326B634A
:1081C00085F82E3001232362A36016466A6B97421E
:1081D0001DD9B35CC4F81C356B6B01336B632B6822
:1081E000E3B905F1340A05F12E09039B002B1FDCCE
:1081F00095F82E3053BB0020039B002B15DC002389
:10820000C4F800350523C4F8003503200DE0B8F1AB
:10821000000F01D0E361E2E76361E0E740F286230B
:10822000AB60AB68C4F80433002004B0BDE8F0874D
:10823000CDE900783346524649462046FFF72DFFE8
:108240000028D5D0039B013B0393CEE7D4F8C43478
:10825000C4F8C434002BCED013F0010F14BF4FF478
:108260000240032048F2012213F0020F18BF10460B
:1082700013F0040F48F2022318BF1846BCE700BFF2
:10828000A08601002DE9FF470C4605461E46204604
:10829000364B03934FF48271FFF7F7FE4FF4927160
:1082A000FFF7F3FE4FF48E71FFF7EFFE4FF484718A
:1082B000FFF7EBFE0023012ED5F800806B6385F8F5
:1082C0002E3017464FF0010306BF0222C4F80022E9
:1082D000C4F8003223622360B8F1000F15D105F114
:1082E000340A05F12E09039B002B18DC95F82E307B
:1082F0001BBB0020039B002B0EDC0023C4F80035C1
:108300000523C4F80035032006E040F28623AB6065
:10831000AB68C4F80433002004B0BDE8F087CDE9B1
:1083200000683B46524649462046FFF7B6FE002805
:10833000DCD0039B013B0393D5E7D4F8C434C4F8E5
:10834000C434002BD5D013F0010F14BF4FF40240FA
:10835000032048F2012213F0020F18BF104613F059
:10836000040F48F2022318BF1846C3E7A086010095
:10837000F0B506792B4D4FF03C0C0CFB06FC05EBE1
:108380000C0494F82D70002F49D1A76084F8307048
:1083900084F82F700F6863604B7B84F838304FF09F
:1083A000A04307F5E07445F80C2040F20C6C43F84C
:1083B00024C04C6804F5E07E43F82EC0036888684A
:1083C000C3F80875C3F80C45C3F82405FAB143F3A4
:1083D000073000280A7BB4BF134900F16041C3F3A2
:1083E0000733B8BF03F00F044FEA4212A8BF01F5EC
:1083F0006141D2B2B4BF0A5581F8002303F01F03D4
:10840000012202FA03F34009084A42F820303C23D3
:1084100003FB0655012385F82D300020F0BD082010
:10842000FCE700BF3432002014ED00E000E100E082
:10843000036802790521C3F80015044B3C2101FBB8
:108440000233022283F82D20704700BF343200200F
:108450002DE9F74F2D4F0679D0F800902C4BC9F835
:1084600008333C2505FB0675C6EB061C95F82F3036
:108470008E46144607EB8C0C03F0FF0B33B1AB6850
:10848000C9F80433112003B0BDE8F08F82F0040373
:10849000C3F3800385F82F302A628A46BAE80F00BA
:1084A00005F10C08A8E80F00DAF80030C8F8003031
:1084B000DEF80430AB62DEF80C206A629EF8011030
:1084C000C9F888159EF80010012917D0A1B9C4F386
:1084D00040143C2101FB0671604681F82C40009459
:1084E0004946FFF74FFE3C235E43BA19BB59002BA8
:1084F000C9D182F82F30C6E70124EAE785F82CB00D
:1085000049466046FFF7BEFEEDE700BF343200206B
:1085100086420400F0B587B004460F461546002198
:10852000142201A81E4605F057FE9DF830308DF844
:108530000570002B14BF2022002201A920460296BC
:108540000495FFF785FF07B0F0BDF0B587B004468E
:108550000F4615460021142201A81E4605F03CFED8
:108560000123002201A920468DF804308DF8057002
:1085700002960495FFF76CFF07B0F0BDF0B52D4CE7
:108580002D4894F82C3089B004F134020193A36A89
:10859000009304F12E01636AFFF77FFDE0B994F8C0
:1085A0002EC0276ABCF1000F1FD1217B8B1E012B2F
:1085B0001BD8626AA3699A4217D1E2696369626251
:1085C000C7F340170329A36284F82C7006D11A4917
:1085D00000972046FFF7D6FD09B0F0BD16492046AA
:1085E00009B0BDE8F040FFF74DBE144E0FCE03AD0D
:1085F0000FC533682B60BCF1000F17D00E4AD2F8BC
:10860000C434C2F8C43499070CD501238DF808305E
:10861000002384F82F307B07DED4D4E9003102A890
:108620009847D9E75A07F3D50223EFE78DF808C03A
:10863000EEE700BF3432002000300040403200201E
:108640001FB503788DF800308388ADF80430836857
:108650008DF80630C3688DF80730036902934369CB
:10866000054A0393054B684653F8213052F8211010
:10867000984705B05DF804FB70320020743200208A
:10868000024B4FF4807043F00103184750F2020090
:108690002DE9F047154690F80090324A42F82950EB
:1086A000314A42F829304B7B07460C466BB30868C9
:1086B000496882008B0002F1A04203F1A04340F21E
:1086C0000C66C2F800674FF0010AC3F800674FF06C
:1086D000A0460AFA00F00AFA01F1C6F80805C6F841
:1086E000081540F20D61C2F80017C3F80017FFF734
:1086F000C7FF4FF00008D6F81025636822FA03F38D
:10870000DB070DD5B8F1000F1DD1002D174A4B46E0
:1087100008BF2A462146381DBDE8F047FFF728BEAE
:1087200023680AFA03F3C6F80C35FFF7A9FF23689C
:108730000AFA03F3C6F8083508F10108FFF7A0FFAD
:10874000B8F1090FD7D1636801264FF0A04806FAA7
:1087500003F3C8F80C35FFF793FF63689E40C8F831
:108760000865D2E774320020703200204186020092
:10877000704709B103F0D8B87047000013B52D4B0E
:108780002D492E48019303F019FC0446002002F005
:10879000BEF8044303F05CFC044303F085FB044390
:1087A00003F0A2FA044304F0B3FC0443012003F0F5
:1087B00063FC044304F098FC044300F0A7FA04436C
:1087C000012000F0BBFA00F0BFF8044300F0BFFA4C
:1087D000044300F0F7FA044300F0B4FA044301A89C
:1087E00000F0E2FB012000F03BF9044300F0E6FB5F
:1087F000044300F017FA044300F032FA04430DD1A9
:10880000204600F09BFA012000F090FA4FF47A70B5
:1088100003F05EFC0446002000F088FA084804F0EB
:108820002FF9084A63230021204604F0BDF802B066
:1088300010BD00BF6F12833D71870200407E0500AE
:108840007387020056F2020008B5FFF797FF03F0A6
:1088500063FA03F02DFCFAE707B504210190074AFB
:108860000DEB010003F064FA054A98236FF0004114
:1088700004F09AF803B05DF804FB00BFC988020059
:1088800095F20200007810F0010010B504D000212C
:10889000054A084603F04CFABDE81040034A4D2350
:1088A000002104F081B800BFB188020095F20200F7
:1088B00008B500F0E9F900F049FA03F03AF8BDE82C
:1088C000084003F031B8000038B5A0B3042932D114
:1088D00043880D2B2FD04FF6FF7293422BD1007897
:1088E000154C164D032814D1154902F014F82378BD
:1088F000012043F00103237000F01CFA286803F004
:1089000047FB2868224641F28831BDE8384003F031
:108910001DBB0C49032001F0FEFF237800206FF3FC
:108920000003237000F006FA286803F031FBBDE86D
:10893000384000F091B838BD783200207C320020F9
:10894000DAF20200F2F2020010B5054A05480021F1
:1089500003F0D2FA0446044804F094FB204310BD0F
:10896000858802007C3200205C2D00200378DB0724
:1089700010B504460AD5064B022240F205501A7083
:1089800002F0ACFB23786FF30003237010BD00BF2F
:10899000803200202DE9FF41274B284E284FDFF879
:1089A000A4800722CDE9012301A840F29943039353
:1089B00004F0EEFA32464FF4FA736FF000410446C9
:1089C00003F0F2FF002002F0E9FB044332466FF0AF
:1089D000004120464FF4FB7303F0E6FF1A4BD8F832
:1089E000000019221A703B7843F001033B7003F03A
:1089F000CFFA5C2332466FF00041054603F0D4FF06
:108A00003A46D8F8000041F2883103F09FFA054356
:108A1000324628462C435E236FF0004103F0C4FF2A
:108A200020464FF4FD7332466FF0004103F0BCFF67
:108A3000204604B0BDE8F0816400040014F3020095
:108A4000883200208432002080320020014B1878C8
:108A5000704700BF803200204FF4001070470000C4
:108A600038B50546002002F0CBFB0A4A0446002137
:108A7000094803F041FA044309D1002D08BF4FF41F
:108A80000014FFF787FF0443044802F043FC20462C
:108A900038BD00BF6D89020084320020558D020070
:108AA0000021024A084603F043B900BFB18A020020
:108AB000B0B59AB000AF1A220021182507F11C00AA
:108AC00005F08AFB2A460021384605F085FB00F0B8
:108AD00015FAB860384603F07BFC03B29B000733FD
:108AE00023F00703ADEB030D3846C7F810D000F0B4
:108AF0001DFA012000F01AF93022002107F1380098
:108B000005F06AFB0121384603F0DAFB02217864A4
:108B1000384603F0D5FB0421B864384603F0D0FB97
:108B20008021F864384603F0CBFB4FF48031B86302
:108B3000384603F0C5FB4FF48021F863384603F054
:108B4000BFFB354C38642388A7F8543000F026FA70
:108B500087F8560007F1580002F09EFB07F160000D
:108B600002F014FB07F1500004F004FA07F1380199
:108B700007F11C0004F004FC238887F8345001330B
:108B80009BB24FF6FF72934208BF00232380FFF78A
:108B90005DFF044600283CD0FF2808BF002407F1F1
:108BA0001C0087F8354004F02DFA04467323204654
:108BB0001A4A6FF0004103F0F7FE0125122307F176
:108BC0001C0087F8343087F8355004F095FA10B15E
:108BD000B4FA84F56D0907F11C0004F037FB00B10D
:108BE00035B103F01BFA02F0FDFE0D4BC3E90001A5
:108BF000384600F0A9F80446002000F097F8074A2C
:108C000094236FF00041204603F0CEFE6837BD4646
:108C1000B0BD04F0E1F9C9E79832002058F3020032
:108C20009032002010B503F061F908B9202010BD82
:108C300003F090F80028F9D0074C084A012120469B
:108C400003F05AF90028F2D1024640F60A212068C2
:108C5000BDE8104003F07AB98C320020A18A0200EE
:108C600010B5084C23685BB100210846FFF720FFD0
:108C700020680022BDE8104040F60A2103F066B9E2
:108C8000202010BD8C320020034B186808B103F07F
:108C90007FB92020704700BF8C320020194A70B580
:108CA000136859B140EA03011160CA0628D40B07C2
:108CB00007D50121112004F0ABFA17E023EA0001E7
:108CC000F2E711F0040503D001214FF6FF70F2E73F
:108CD0000329F9D0012911D02946112004F098FA6E
:108CE00029460446132004F093FA2043BDE870405F
:108CF000054A4B236FF0004103F056BE1320DAE71C
:108D00000020F3E79C320020A0F3020008B50449DC
:108D10000448022204F026FA034B00221A6008BD20
:108D2000E2F30200E4F302009C320020014601203D
:108D3000FFF7B4BF01460420FFF7B0BF014608208B
:108D4000FFF7ACBF0020704700207047704701203C
:108D500002F0C2BD37B5194D044602F043FED5E915
:108D6000002382428B410ED27CB9F3236846CDE9C1
:108D700000448DF8053004F0B9F8114AAF236FF0C4
:108D8000004103F011FE03B030BD04F04BF80028A1
:108D9000F9D002F027FE4EF66023C01841F1000121
:108DA000C5E9000104F0BAF8054AB8236FF00041A4
:108DB00003B0BDE8304003F0F7BD00BFB032002083
:108DC000E8F302002DE9F041464C474B2360474B46
:108DD0006360474B88B01868464B03931D23ADF87A
:108DE00010300323ADF81C30002302264FF0040896
:108DF00005278DF808300C230090CDF814D0069686
:108E0000ADF80480ADF80670ADF80A3002F0C8FA8B
:108E100020B92025284608B0BDE8F08102F0AEFB5D
:108E20000028F6D003A802F09BFF054601A802F037
:108E300039FC08210543404602F0B8FA08210543F1
:108E4000384602F0B3FA0543E4D102F09DFD2A480A
:108E500003F0ECF90A2003F03BF94FF6FF7854F8E1
:108E6000043BB3F86A0040450DD0052102F09EFA9C
:108E700054F8043C93F86C10B3F86A0002F0EAFA74
:108E80000A2003F025F9062754F8040C04F0E1F950
:108E9000013F04D0B0F5003FF6D0D0B900E0A8B94A
:108EA00054F8040C04F0FFF938B954F8040C04F039
:108EB00011FA012EAED00126D1E754F8040C04F0CB
:108EC00009FA54F8040C04F0D7F9F2E7B0F5003FC2
:108ED00005D054F8043CFF2283F86820E9E70546F2
:108EE000E7E700BFA4320020E02D00206C2D002019
:108EF0002EF4020019001C00E5B9020038B50A4D35
:108F0000286850B90024686828B103F067FA10B1E6
:108F10006B689B681C43204638BD03F05FFA00284D
:108F2000F0D02B689C68EEE7A4320020F8B50B4D1A
:108F300006460227002455F8040B40B103F04EFA10
:108F400028B155F8043C30465B6C98470443012F28
:108F500001D12046F8BD0127EDE700BFA432002073
:108F600038B50D4D0446286838B103F037FA20B102
:108F70002868836834EA030302D0686808B90020CF
:108F800038BD03F02BFA0028F9D06868836834EA0A
:108F90000303F4D1F4E700BFA4320020014B1868AA
:108FA000704700BFA032002008B5034B1868FFF7D8
:108FB000D7FF082008BD00BF34F4020013B500231A
:108FC000CDE900336846F3238DF8053003F08EFFBA
:108FD000044603F0A3FF204302B010BD6DDF7047CD
:108FE00079DF70477DDF704764DF70472DE9F04F10
:108FF00085B000250E9CBDF83CB0B4F800A00191EE
:10900000074690461E46A9463A884A450DDC45B1BA
:109010002388013BA3EB0A039BB2FF2B3AD806F847
:109020000A30002005B0BDE8F08F7A6852F82900B8
:10903000039000220DF10B0103A8FFF7D5FF0028D4
:10904000F0D19DF80B20424521D12288002D14BF7C
:109050000020022002EB0801014459451ADC3DB909
:10906000013292B2019B2280B354228801322280C5
:1090700022880DF10B01324403A8FFF7B5FF002849
:10908000D0D121889DF80B200A442280012509F1C6
:109090000109B9E70C20C5E72DE9F341089FBDF8A8
:1090A00024801546CDE90078022204461E46FFF7CB
:1090B0009DFF50B93346102229462046CDE9087855
:1090C00002B0BDE8F041FFF791BF02B0BDE8F0810A
:1090D0002DE9F04F00231788138090F82D3085B0CC
:1090E00006460D4614465BB3082F01D80C2028E134
:1090F00002A8FFF773FF002840F023812388DDF8E2
:1091000009100822EA54238801339BB21B222380D2
:10911000EA54238801339BB2EA182380E950BDF852
:109120000D30938023889DF8082006339BB212F0FF
:10913000FE0218BF01222380EA54238801332380D2
:10914000B378FBB123880433BB42CFD802A8FFF722
:1091500047FF002840F0F58023880322EA54238843
:1091600001339BB219222380EA542388BDF80820DA
:1091700001339BB2E9182380EA54120A4A7023880B
:1091800002332380F2789AB12388D91CB942ADD832
:109190000221E954238801339BB201212380E95441
:1091A00023880B449BB22380EA5423880B442380FA
:1091B0007268AAB12388D91CB94297D8022192F9C2
:1091C0000020E954238801339BB20A212380E9540B
:1091D000238801339BB22380EA5423880133238000
:1091E0003389002B40F0A180338A5BB1CDE9004781
:1091F0002B460722032106F11000FFF74DFF002840
:1092000040F09F80338B5BB1CDE900472B461522A0
:10921000142106F11800FFF73FFF002840F091806D
:10922000326A002A40F09080D6F82480B8F1000F0E
:1092300030D0B8F804302188981C8A1C0244BA4205
:109240003FF654AFFE283FF651AF03336B542388EB
:1092500001339BB2FF222380EA54238801339BB25F
:109260002380B8F80020EA54E918120A4A702088CE
:10927000023080B22080B8F804205AB1D8F8081023
:1092800000296BD0284404F07EFF2388B8F804201E
:109290001344238096F82C30002B40F098803078CF
:1092A00000284ED03388012B58D0228802F1020CBE
:1092B000BC453FF61BAF012805D173780233134438
:1092C0009F42FFF413AF023FBF1ABFB202A905EBE2
:1092D0000C00ADF80870FFF785FE90BB3178BDF843
:1092E0000830022900F0B98072789A4202D39F4276
:1092F00080F0B180012940F0B280974293B2C0F073
:10930000AE80ADF808300821BDF80830FE2B3FF6DE
:10931000EDAE22880133AB542288013292B2228012
:10932000A9542288134423800BE0CDE900472B4643
:109330000622022106F10800FFF7AEFE00283FF4E6
:1093400053AF05B0BDE8F08FB4F800C00CF10603D0
:10935000BB423FF6CBAE1188052901D80720F0E7C4
:109360006FF4486E01EB0E039BB24FF27D3E7345E6
:10937000F4D95388052BF1D96FF44860181880B2DE
:109380007045EBD94FF6FF70814201D09942E5D884
:10939000052305F80C30238801339BB2122123806A
:1093A000E954238801339BB223801188E954E818DB
:1093B000090A4170238802339BB223805288EA5401
:1093C000E918120A4A702388023323802CE7B36A13
:1093D000002BC3D04FF000084FF00C0A4FF0160BD3
:1093E000B16A5FFA88F20AFB02F201EB0209B9F8EE
:1093F0000430981CFE283FF679AE208803332B54A6
:10940000238801339BB2238005F803B023880133FE
:109410009BB223808A5AEA54E918120A4A702088BB
:10942000023080B22080B9F804205AB1D9F808106F
:10943000002993D0284404F0A6FE2388B9F804201C
:109440001344238096F82C2008F101085FFA88F372
:109450009A42C5D823E7092156E79F42FBD2ADF8CF
:10946000087050E773B50191019C06466CB1002568
:109470002C46294601A8FDF77CFB18B106EB4403F6
:1094800001349D800135142DF3D13046346002B093
:1094900070BD00002DE9F04703888488112B8CB043
:1094A00005463DD01A2B42D0102B19D1DFF8AC80E5
:1094B000D8F80830DB430093D8F804106846FDF76D
:1094C0006DFB009901A8FFF7CDFF0DF108090027FA
:1094D000019B9F4207D3132C12D90420FCF774FF81
:1094E0000CB0BDE8F08739F802AB002601365146D2
:1094F00008EB8600FDF733FB1D2EF7D10137E7E7B8
:1095000017482146FDF722FB16482146FDF71EFBB2
:10951000EB7B012BE4D014482146FDF717FBDFE776
:109520000F4821460CB0BDE8F047FDF718BB037AA1
:109530000E481F2B4FEA131521460AD9FDF706FBEB
:10954000022D0B482146EDD00CB0BDE8F047FDF7E9
:10955000FDBAFDF704FB06482146E3E7B8320020D8
:10956000C0320020BC320020C4320020C8320020AB
:10957000CC32002045DF7047044B187880F00100A2
:109580001870034B1B6803B1184770473433002031
:1095900030330020144B30B41A60144B4FF40014D5
:1095A0000728C3F880411AD8EC2242FA00F5ED07EB
:1095B00015D54001C0B283F8150393F8150340098F
:1095C0000241D2070BD50A4A906830B11368234391
:1095D000136030BC0320FFF7CDBF1C60F9E742F2F7
:1095E000020030BC704700BF3033002000E100E0D3
:1095F0009430002010DF704713B5044609496846CF
:10960000FDF712FB019808B902B010BDD0E9003196
:109610002046984718B16846FDF710FBF2E7112085
:10962000F2E700BF3CF4020013B504460749684660
:10963000FDF7FAFA019B0BB902B010BD2046D3E941
:10964000002190476846FDF7F9FAF3E754F4020069
:109650000B4991F816335A09EC231341DB0706D561
:10966000084B9A683AB94FF480030B60704742F296
:109670000200FCF7A9BE1A6842F480021A60704723
:1096800000E100E094300020F7B5194F3C7864BB4E
:10969000184E012520463570FFF7AEFF112821D066
:1096A0002046FFF7C1FF144B8DF803401868019066
:1096B0000DF10300FDF710FA104901A8FFF79AFF1A
:1096C0000446B0FA80F0400938709DF80300FDF7B9
:1096D00027FA3CB90A4B34701C70FFF7B9FF2846D3
:1096E000FFF7A2FF204603B0F0BD0824FAE700BF51
:1096F000363300203533002038F40200E5630200E1
:1097000037330020014B1878704700BF36330020F4
:1097100007B508496846FDF787FA019B13B903B0FE
:109720005DF804FBD3E9002090476846FDF786FA10
:10973000F3E700BF48F40200FFF7EABF60DF7047BD
:1097400069DF704761DF704730B5134B1B7891B00C
:10975000FBB1124D34240DF1020103A8ADF8024013
:10976000FFF7F0FF70B9294601A8FDF75DFA029BEB
:10977000002BF0D003A8D3E90021904701A8FDF702
:109780005DFAF4E7052804D011B0BDE83040FCF7DD
:109790001BBE11B030BD00BF3833002060F40200A2
:1097A0007FB50D46002936D000241C4A0A600623E6
:1097B000CDE9014401268DF8040001A92020ADF86F
:1097C000083003948DF80660FFF7BAFF2A68039407
:1097D00001A94020CDE90144FFF7B2FF2A680394B4
:1097E00001A93046CDE90144FFF7AAFF4FF4B06369
:1097F0002A68019301A9A120CDE90244FFF7A0FF47
:109800002A68039401A9A020CDE90144FFF798FF3D
:10981000204604B070BD0E20FBE700BF582D00208D
:1098200008B5FFF78BFF10B9014B01221A7008BD74
:10983000383300204BDF70471FB50E4C01A8FFF7EF
:10984000F9FF70B9214602A8FDF7EEF9039B002B42
:10985000F4D00198D3E90021904702A8FDF7EEF972
:10986000F4E7052804D004B0BDE81040FCF7ACBD17
:1098700004B010BD6CF4020060B1084B1B79F22BF0
:1098800005D0F42B03D0E22303700120704703704E
:10989000002070474FF40060704700BF4033002045
:1098A0002DE9F7430024054664200094ADF80440F8
:1098B00002F00EFC1448DFF85090694602F0C2FF37
:1098C0004FF00508264627466946484602F0BAFF8B
:1098D000BDF900301F44BDF9023008F1FF381E44C5
:1098E000BDF9043018F0FF081C44EDD1052397FBA7
:1098F000F3F796FBF3F694FBF3F42F806E80AC80C5
:1099000003B0BDE8F08300BF5033002038B50446F3
:1099100058B3174DA91C05F1100002F0BBFEAB783F
:10992000003803F1FF3318BF0120082B19D8DFE8F6
:1099300003F005080A0C0E10121614000123237000
:1099400038BD0A23FBE71923F9E73223F7E764233D
:10995000F5E7C823F3E7C923F1E7F123EFE7CA23CB
:10996000EDE7E22323700120EAE74FF40060E7E728
:109970004033002038B50446C8B10E4D294605F1E4
:10998000100002F052FE2B78003818BF0120012B86
:1099900007D0022B02D033B90C2300E00823237038
:1099A00038BD0A23FBE7E02323700120F8E74FF4DA
:1099B0000060F5E74033002038B50446E0B1104DB3
:1099C000691C05F1100002F00FFF6B78003818BF1A
:1099D0000120032B0CD8DFE803F00205070902235E
:1099E000237038BD0423FBE70823F9E71023F7E7CA
:1099F000E22323700120F4E74FF40060F1E700BF99
:109A00004033002073B505460C4616480DF107019A
:109A100002F0A6FE0DF106010646124802F07BFE9A
:109A200056EA00039DF8063014BF01200020002BE9
:109A300018BF04232B709DF80730032B0DD8DFE8E7
:109A400003F00A0806020023237002B070BD012350
:109A5000FAE70223F8E70323F6E7E2232370012065
:109A6000F3E700BF5033002073B5044600283ED012
:109A70000378F32B29D10DF10700FFF7FDFE9DF8C8
:109A80000730F42B03D12370202002B070BD1A4D93
:109A9000072105F11000A97002F0E5FD064612202D
:109AA00002F016FB02F0C8FBC5E90201002105F136
:109AB0001000A97002F0D7FD56EA00034FF0F20340
:109AC00014BF012000202370DFE7F22B09D10A48E0
:109AD00000210371103002F0C6FD003818BF0120CC
:109AE000D3E7F42B06D1044881780371F2E74FF4F1
:109AF0000060CAE71020C8E7403300202DE9F84392
:109B0000374FDFF8E08005460C4601F10C090026CE
:109B10007B78032B60D8DFE803F00220354A3B78DE
:109B2000012B15D0022B06D0002B55D1B5F9000022
:109B300002F06AFC03E0B5F9000002F0D9FC2060F5
:109B400004344C4505F10205E2D13046BDE8F88306
:109B5000B5F9000002F098FCF1E73B78012B0CD03E
:109B6000022B05D0C3BBB5F9000002F055FCE6E7B7
:109B7000B5F9000002F0C8FCE1E7B5F9000002F019
:109B80008FFCDCE73B78012B0CD0022B05D01BBBF4
:109B9000B5F9000002F04BFCD1E7B5F9000002F086
:109BA000BFFCCCE7B5F9000002F086FCC7E73B78C4
:109BB000012B0CD0022B05D073B9B5F9000002F0CF
:109BC00043FCBCE7B5F9000002F0B6FCB7E7B5F915
:109BD000000002F07DFCB2E7C4F800800126AFE788
:109BE000403300200000C07F2DE9F043074693B0CA
:109BF00000287FD0DFF804814FF0000903A908F1A5
:109C00001000CDF80C90ADF8109002F01BFE02A9E8
:109C1000044608F1100002F0ABFC05A954EA000369
:109C200003A814BF01264E46FFF768FF9DF80930D0
:109C300098F8005006439DF80800012D00EB032022
:109C400000B240D0022D39D0002D3FD02C4C012540
:109C50000DF10700FFF710FE9DF807303543F22B9A
:109C600045EA000536D1D8E90223C7E90023D7E940
:109C70000023B3F1FF3F08BFB2F1FF3F1AD0CDB9C7
:109C800008AB20490598109303F066FE1D49089023
:109C900006981D4E03F060FE1A490990079803F0DC
:109CA0005BFEBA680A900CA93846CDE90E660B94A3
:109CB00002F060FB284613B0BDE8F08302F04AFCD6
:109CC00004464D46C4E702F011FCF9E702F0CAFB76
:109CD0000446BDE7F42B04D102F0AEFAC7E9000157
:109CE000C5E70A4A4FF476736FF00041012002F095
:109CF0005BFEBCE74FF40065DCE700BF40330020AB
:109D00000000C07F00007A440700040078F40200DD
:109D100038B5011E084814BF0225002502F0F0FDE9
:109D200029460446044802F019FE54EA000314BF11
:109D30000120002038BD00BF503300202DE9F04F36
:109D40000E468DB0054600285BD0002959D000236F
:109D50002D488DF803300DF1030102F016FE9DF839
:109D6000034024B92C6020460DB0BDE8F08F2B686D
:109D7000DFF89490DFF894800134E4B29C428DF8CF
:109D8000034088BF8DF80330041E18BF012402F081
:109D900053FAC6E9000100279DF80330BB4201D801
:109DA0002B60E0E701A9484602F04CFD0DF10C0BD9
:109DB0008246594601A8FFF7A1FEBAF1000F18BF6D
:109DC00040F0010041460443039803F0C5FD4146BD
:109DD0000390049803F0C0FD41460490059803F0F9
:109DE000BBFD0590182000FB07604FF0070A826852
:109DF000CDF820A006A9CDE909AB013702F0BAFAE7
:109E0000CAE74FF40064AEE75033002000007A4404
:109E100013B500238DF80430044660B10B481F21B0
:109E200002F085FD9DF80430041E43F0040318BFC2
:109E300001248DF8043001A9044802F057FD0028E0
:109E40000CBF204644F0010002B010BD503300208A
:109E5000F7B5002304468DF800308DF804300D4628
:109E6000002952D02868002103F05EFE18B1002CB2
:109E70004ED1214635E0002CFBD02A238DF804304A
:109E80000DF1070040238DF80030FFF795FD9DF898
:109E90000730043BDBB20C2B96BF1F4A1F4F52F812
:109EA000237004463946286803F056FD03F06EFE21
:109EB000461C7F2E06D9201E18BF012040F010003E
:109EC00003B0F0BD304603F089FE394603F0DEFCF6
:109ED000F1B22860124802F0DBFC50EA040319D109
:109EE00001210F4802F0EBFC01A904460C4802F0E6
:109EF000CAFC694605460A4802F0FDFC2C4354EAB8
:109F0000000314BF01200020DAE74FF40060D7E718
:109F10001020D5E70120D3E7F8F402006F12833C4C
:109F20005033002030B504460020024631F812506C
:109F300034F812305B1B1BB29D099B1144BF6B426E
:109F40001BB2102B08DDB3F5B47FC8BF4FF400304F
:109F50000132032AEAD130BD4FF40030F8E70000A7
:109F600070B598B10B4D002602F0A8F9314605F105
:109F70001000AE7002F077FB2022044631462846DE
:109F800004F02AF9A01B18BF012070BD4FF4006037
:109F9000FBE700BF4033002037B50446002853D00C
:109FA00000230DF107008DF80730FFF765FC9DF8E1
:109FB0000730F22B02D0202003B030BD2378FF2BD6
:109FC00004D0F02B10D1224B01229A7020488178C6
:109FD000103002F048FB05462046FFF797FC002DA5
:109FE00018BF40F00100E7E7F12B02D1184B09221E
:109FF000EBE7012BE7D90A2B02D8154B0222E4E745
:10A00000192B02D8124B0322DFE7322B02D8104B58
:10A010000422DAE7642B02D80D4B0522D5E7C82BC2
:10A0200002D80B4B0622D0E7C92B02D1084B0722DE
:10A03000CBE7CA2B02D1064B0822C6E7CB2BD5D0E3
:10A04000E22323700820B7E74FF40060B4E700BFB5
:10A050004033002037B50446B0B300230DF10700AC
:10A060008DF80730FFF708FC9DF80730F22B02D07F
:10A07000202003B030BD2378FF2B04D0F02B10D16B
:10A08000134B02221A70124810F8101B02F08CFABF
:10A0900005462046FFF76EFC002D18BF40F001007A
:10A0A000E7E7F12B02D10A4B0022EBE713B9084B8B
:10A0B0000122E7E7082BE3D90A2BF8D90C2BF2D9B8
:10A0C000E22323700820D4E74FF40060D1E700BFFB
:10A0D0004033002037B5044600283AD000230DF164
:10A0E00007008DF80730FFF7C7FB9DF80730F22B0C
:10A0F00002D0202003B030BD2378FF2B04D0F02BFA
:10A1000010D1154B00225A7013484178103002F0DC
:10A1100054FB05462046FFF74FFC002D18BF40F0CA
:10A120000100E7E7F12B02D10B4B0322EBE7022BF7
:10A13000E7D9042B02D8084B0122E4E7082B02D808
:10A14000054B0222DFE7102BEED9E2232370082013
:10A15000D0E74FF40060CDE740330020F7B50D465F
:10A160000646002863D0002961D000230DF10500C8
:10A170008DF80530FFF780FB9DF80530F22B03D0FA
:10A180002024204603B0F0BD0DF107010DF10600BB
:10A19000FFF738FC3378FF2B04BF9DF8063033708F
:10A1A0002B78FF2B04BF9DF807302B703778042FD6
:10A1B000044630D12B78032B1BD8013B022B20D82F
:10A1C000DFE803F02702230001211A4802F0B1FA68
:10A1D00002210546174802F0D9FA01210646154822
:10A1E00002F082FA354355EA000318BF44F0010437
:10A1F000C7E7F02B05D0F12B07D008232B700824DC
:10A20000BFE700232B700321DFE703232B7000211E
:10A21000DBE70221D9E7002FF1D10648394602F0E9
:10A2200063FA3770002818BF44F00104A9E74FF41F
:10A230000064A6E7503300202DE9FF470C46154681
:10A240000646002800F00D8102F0C8F8002840F012
:10A250000B81012C854F00F0EB80022C14BF0824E9
:10A260004FF48034F2237D713046814D3B71BD61E6
:10A2700001F0ECFF7F4B3360002C40F0E0800A20BF
:10A2800001F026FF0446002840F0D9808DF8080030
:10A2900002A905F10B0002F0DAFA9DF80830332B21
:10A2A00040F0CC80002320460293FFF731FD80462A
:10A2B0002046FFF7ADFD02A948EA00082046FFF757
:10A2C000C7FD032148EA000405F10B0002F055F92F
:10A2D0000121804605F10B0002F09DFA002148EAB9
:10A2E000000805F10B0002F0FFF958EA000340F006
:10A2F000AF80002C40F0A380072105F10B004FF048
:10A300000109B9700094ADF804400294ADF80C4016
:10A3100002F0A9F9214605F10B007C7002F04DFA1C
:10A32000494605F10B0087F8009002F03DF92146FF
:10A3300005F10B00FC7002F08FFA80466846FFF7CB
:10A34000AFFA494605F10B0087F8039002F084FA52
:10A3500002A8FFF7A5FA3B884B457CD1694602A8C5
:10A36000FFF7E0FD041E18BF4FF4003402214248FD
:10A37000F97002F071FA02A8FFF792FA3B88012BFC
:10A380006CD1694602A8FFF7CDFD051E18BF4FF43A
:10A3900000354FF0000A5146374887F803A002F015
:10A3A0005BFA51468146344887F802A002F05BF917
:10A3B00049EA00092C4359EA080318BF44F0010494
:10A3C000002C3CD12D4BF3602D4B33612D4B736131
:10A3D0002D4BB3612D4BF3612D4B33622D4B7362CB
:10A3E0002D4BB3622D4B73632D4BB3632D4BF36237
:10A3F0002D4B33632D4B73642D4BF3632D4B336423
:10A400002D4BB3642D4BF3642D4B33652D4B73658E
:10A41000B36843F4802343F00703B3604FF0FF3287
:10A420004FF0FF33C7E90223204604B0BDE8F087B0
:10A43000254B3B61254B7B61044613E704243046E2
:10A4400001F03CFF20220021084803F0C5FEEBE7A5
:10A4500044F00104F3E74FF4003487E74FF400358C
:10A4600097E74FF40064DFE72024DDE74033002066
:10A47000453300202CF502005033002039A20200A1
:10A48000619F0200999F02000D99020055A00200F1
:10A4900075990200D5A00200B99902005DA10200E1
:10A4A000059A0200699A020079980200E99B02006D
:10A4B00093C10200E9C10200119D0200119E020039
:10A4C0003D9D0200519E02001FA9020079A90200D1
:10A4D000034610B10020187070474FF400607047B9
:10A4E000034620B119B100201870087070474FF46E
:10A4F00000607047034630B1064A107830B1F4224C
:10A500001A70002070474FF400607047F2221A70F2
:10A51000704700BF6033002050B1C31C07D0023029
:10A5200080B2022834BF4FF48070012070470420AD
:10A530007047000038B50546E0B1012002F0A4FBE9
:10A5400002F063FBFFF7E8FF0446284601F0B6FE81
:10A550000A4B0B4A4FF0FF304FF0FF31C3E90001C7
:10A560004FF000431360074A1360074B00221A7034
:10A57000204638BD4FF40064FAE700BF7033002076
:10A5800068330020643300206033002007B50146A3
:10A59000F8B100230DF107008DF80730FFF7AAFF8F
:10A5A0009DF80730F22B03D0202003B05DF804FBA8
:10A5B00008780028F9D0FF2802D100200870F4E7BD
:10A5C00000F11003DBB2012BF7D9E2230B70082056
:10A5D000EBE74FF40060E8E713B50446D8B100217B
:10A5E0000DF107008DF80710FFF784FF9DF8073085
:10A5F000F22B02D0202002B010BD2078217000285C
:10A60000F9D000F11003DBB2012B07D9FF280CBFF2
:10A6100000200820EFE74FF40060ECE70846EAE787
:10A62000FFF7DABF13B50446D0B1C9B100230DF16D
:10A6300007008DF80730FFF75DFF9DF80730F22B1C
:10A6400002D0202002B010BD0B781BB11033DBB25A
:10A65000012B08D82378002B14BF08200020F1E735
:10A660004FF40060EEE70820ECE7000038B50D4637
:10A67000044600284DD001F0B1FE00284CD1204600
:10A6800001F0E4FD254B2360022D01D0042038BDEC
:10A69000052502F036FBFFF73FFFB0F5807F04D1C0
:10A6A000013D15F0FF05F4D1F0E70028EED102F0EE
:10A6B000EBFA1B4BE3601B4B23611B4B63611B4B92
:10A6C000A3611B4BE3611B4B23621B4B63621B4B60
:10A6D000A3621B4B63631B4BA3631B4BE3621B4BCC
:10A6E00023631B4B63641B4BE3631B4B2364A36813
:10A6F00043F4802343F08003A36002F086FAFFF75F
:10A700000BFF164B4FF0FF344FF0FF35C3E9004508
:10A71000BDE74FF40060BAE72020B8E735F5020046
:10A720006DA6020035A502008DA50200D1A402008D
:10A73000D9A50200B5A8020021A60200C5A8020002
:10A7400025A60200E1A40200CDA70200F5A40200A4
:10A7500019A8020093C10200E9C102007033002071
:10A7600013B501460DF10700FFF7C4FE9DF8073051
:10A77000F42B03D10B70202002B010BD0F4B002230
:10A780001A70F2230B7001F057FD0D4BC3E9000165
:10A7900002F040FAFFF7C0FE0446F02001F0D2FCC0
:10A7A0000849094802F05FFAFFF7B6FE044302F0D9
:10A7B0002CFAFFF7B1FE2043DEE700BF6033002034
:10A7C00070330020643300206833002008B503464E
:10A7D000D8B10278F22A00D052B90E4A0021117085
:10A7E000F2221A7002F011FABDE80840FFF794BE99
:10A7F000F32A03D1BDE80840FFF7B2BFF42A07D11E
:10A80000044B01221A70002008BD4FF40060FBE7E2
:10A810001020F9E76033002070B5044688B00028A6
:10A8200038D01E4D2B7853B91D4BD3E90065B5F1D7
:10A83000FF3F08BFB6F1FF3F0FD100200BE0002320
:10A840002B7002A8F3238DF80830FFF789FF01234E
:10A850002B700028E8D008B070BD124B186803F0C8
:10A86000A5F9114903F078F8104B0090186803F02F
:10A870009DF90D4903F070F80D4B0190A268CDF8D9
:10A8800018D002A92046CDE90433CDE9026501F0D4
:10A8900071FDD2E74FF40060DDE700BF60330020B8
:10A8A000703300206433002000007A4468330020B5
:10A8B00080000400034610B10020187070474FF468
:10A8C00000607047034610B10020187070474FF4C5
:10A8D00000607047B0F57A7F034601D201F032BCC8
:10A8E0004FF47A70B3FBF0F0023001F0F1BB08B521
:10A8F00000F09CFF003818BF012008BD08B50123F7
:10A9000000F048FF003818BF0120404208BD002079
:10A910007047002070477047104670477047F7B582
:10A920001E460378DD00012E01F07F0103F01F03B6
:10A9300005F4E06588BF41F040011D438DF8071024
:10A9400028460021174600F085FD00231A460446DC
:10A9500001210DF1070001F085FA00231A46314666
:10A960000443384601F07EFA01210443284600F0F2
:10A9700071FD204303B0F0BDF7B51D460378DF003D
:10A98000012D03F01F0307F4E06794BF61F07F011E
:10A9900061F03F011F438DF807103846002116462D
:10A9A00000F058FD00231A46044601210DF107006E
:10A9B00001F058FA00212B4632460443084601F0C4
:10A9C00051FA01210443384600F044FD204303B00E
:10A9D000F0BD704710B50A4C23786BB920B1094B14
:10A9E00042781A7002785A7007490648FCF7E0FE70
:10A9F00020B90123237010BD0020FCE72020FAE7D6
:10AA0000C0330020542E0020D3A9020038B5094DD0
:10AA10002B78044663B1FDF76BF83CB1064B074A4F
:10AA20001A6007482022002103F0D6FB00232B7078
:10AA3000002038BDC0330020542E00200100070044
:10AA4000C43300200E4A127838B50AB9002038BD48
:10AA5000072812D80B4A52F820100029F6D000EB34
:10AA6000C001094C094D6550002142F82010FDF746
:10AA700015F80028EAD02020E9E71020E7E700BF1A
:10AA8000C0330020C43300207833002001000700C9
:10AA9000F8B5274B1B7804460E461546002B40D0D0
:10AAA000FCF78EFF08B1FCF793FF002E3BD0002D82
:10AAB00039D0072C3AD81F4F57F82410B1BB68780B
:10AAC00096F800C01C4E012808BF0221A97004EBB3
:10AAD000C40506EB05024FF00003735547F8242028
:10AAE00018BF08469170134F53700221D070117136
:10AAF0005371937182F807C013721C461D4657F8B4
:10AB0000043B33B131462046FCF796FE002818BFBF
:10AB10002025631CDCB2082C06F10906EFD128467B
:10AB2000F8BD2025FBE74FF40065F8E71025F6E7B0
:10AB3000C0330020C43300207833002013B50C4606
:10AB40000DF10601FCF7D2FE20B9BDF806302380D6
:10AB500002B010BD2020FBE7144B2DE9F04153F863
:10AB6000207005460C461646E7B12068002102F029
:10AB70007DFFB8B9D4F804800021404602F076FF8A
:10AB800080B9404603F08AF860B9206803F086F87F
:10AB900010B1FB78012B05D031462846BDE8F041C5
:10ABA000FFF7CCBF1020BDE8F08100BFC433002008
:10ABB0002DE9F743074616460D4600293AD00DF118
:10ABC0000602FFF7C9FF044638BB1C4BBDF906005F
:10ABD00053F8279002F0EAFF194B1A4A1B78D35C0E
:10ABE00007460120984080B202F0F8FF014638463F
:10ABF00002F0B2FE144B99F802206F6853F82280DD
:10AC000099F803306BB9114902F040FE414602F059
:10AC10003DFE394602F03AFE3060204603B0BDE802
:10AC2000F083296802F032FE414602F02FFE4FF019
:10AC30007A51ECE74FF40064EFE700BFC433002023
:10AC4000542E00203BF5020040F502009A99193F6E
:10AC50002DE9F341074616460D46002934D00DF183
:10AC60000602FFF779FF044650BB194BBDF90600F9
:10AC700053F8278002F09AFF164B174A1B78D35CD3
:10AC800007460120984080B202F0A8FF01463846EE
:10AC900002F062FE98F80320034682B90F4998F843
:10ACA000027002F0F3FD0E4B53F8271002F0EEFD98
:10ACB000696802F0EBFD296802F04EFE034633603E
:10ACC000204602B0BDE8F0814FF40064F8E700BF11
:10ACD000C4330020542E00203BF502009A99193FFE
:10ACE00040F5020007288CBF00200120704707B5FF
:10ACF00081F001030A4601A90193FBF75BFF03B052
:10AD00005DF804FB72DF704773DF704774DF7047D4
:10AD100077DF70477CDF7047054B00221A70054BC8
:10AD20001B681BB11B690BB111461847704700BF68
:10AD300011360020143600204FF480307047000098
:10AD4000F8B51A48FCF706F8044668BB184F3A787D
:10AD500012BB184D15482946FCF703F8B5F84C30DE
:10AD60002D6413B105F11F03AB64134E134A304633
:10AD7000A2F11001FFF7C6FF95F96820317804466B
:10AD80000120FFF7C5FF012104433078FFF7BCFF26
:10AD9000044306D101233B702046BDE8F84000F093
:10ADA00053BFFFF7CDFFF7E70024F5E7ECF1020012
:10ADB00011360020E4330020582E002034340020C7
:10ADC00038B50D4C237805462BB10C4B1878FFF79E
:10ADD0009DFF002323700024094B1422214628469E
:10ADE0001C7003F0F9F9074B07481C70074B1C70E7
:10ADF000FBF79DFF204638BD11360020582E00205D
:10AE000010360020F4360020ECF10200F636002067
:10AE100008B50388112B15D0262B17D0102B1CD169
:10AE20000E48FBF784FF0E4B1A78022A06D1032244
:10AE30001A70BDE808400520FFF76EBF012AF8D15F
:10AE40000022F5E70548FBF772FFF2E70220FFF763
:10AE500063FFBDE80840FFF773BF08BDECF10200D7
:10AE6000F736002010B50446D8B100F065FAD8B125
:10AE70000E4B1878C0B901221A700D4B0D4A1C6098
:10AE80000D4BA3600D4BE3600D4B23600D4B6360D6
:10AE90000D4B1870137823F0070343F0070313706A
:10AEA00010BD4FF40060FBE72020F9E710360020CA
:10AEB000143600203436002065AE0200C1AD020019
:10AEC000CDAE020039AD0200F43600202DE9F0418C
:10AED0000446B4B0002800F0E38019AFDFF8C88161
:10AEE0006C220021384603F077F998F80020299762
:10AEF0001F23ADF8A83022B10DF183022B92ADF8DB
:10AF0000B030257E182D5DD83C2200210AA803F020
:10AF100063F904AB2A461846214603F034F9634B23
:10AF2000039006221B888DF82B2001AAADF808504B
:10AF3000ADF8043013921BB94FF6FF73ADF804302F
:10AF40002AAA39460AA8FEF7C3F800F07DFE98F851
:10AF500000300646F3B13C2200210AA803F03CF978
:10AF6000022353488DF8283003F069F9504982B222
:10AF70005048FFF7CFFE504B1B7805460BB140F011
:10AF800008052B992CAA0AA8FEF7A2F8284300F07E
:10AF90005BFE06430AA800F0D1F99DF82820217E27
:10AFA000012A05461AD0022A21D072B1182994BF6D
:10AFB00000230123414A1278032A6ED8DFE802F009
:10AFC0001F6256514FF40076E4E7042318298DF8E8
:10AFD000C93001D98DF8CA300123EBE718298DF863
:10AFE000C92001D80023E5E78DF8CA20F4E7012342
:10AFF00018298DF8C930F5D98DF8CA20DAE773B36E
:10B000000A238DF8B430637E8DF8C2300023ADF88A
:10B01000C0308DF8C8302A4B1B884FF47A725343E6
:10B0200040F27122B3FBF2F32F93264B0DF1C300D4
:10B03000196800F095F9244B24481B788DF8CC3022
:10B040003946FBF71FFE0446FFF77AFE05433543FA
:10B05000204600F0F9FD284334B0BDE8F081052317
:10B06000CFE70BB10823CCE70423CAE743B1182983
:10B0700006D9174945F400750120FFF74CFCC2E7DB
:10B080000123BEE74FF0060813B18DF8B480BAE78C
:10B0900010490220FFF73FFCF7E70F490220ECE7D9
:10B0A0004FF40065D4E700BFF436002018360020C6
:10B0B0001A360020F53600200C360020F736002026
:10B0C0000E36002034360020F6360020ECF1020067
:10B0D00060F502008FF50200B4F50200A0F16402F1
:10B0E00042F2AC639A429DBF024B188000201020B0
:10B0F000704700BF0E360020014B188000207047BB
:10B1000018360020002837D01E4B1B78002B35D076
:10B1100090F9003013F1270F08DA1B4BD8221A7070
:10B12000194B1B780370002000F08EBD13F1130F34
:10B1300002DA154BEC22F2E713F10F0F02DA124B91
:10B14000F022ECE713F10B0F02DA0F4BF422E6E7E3
:10B15000D91D02DA0C4BF822E1E7DA1C02DA0A4BBD
:10B16000FC22DCE7002B02DC074B0022D7E7042B94
:10B1700006DC054B0422D2E70E20D5E70820D3E7F2
:10B180000720D1E710360020F6360020024B1B784E
:10B1900003700020704700BFF6360020044B0128E2
:10B1A0001870044B94BF00200120187000207047D5
:10B1B000F7360020F436002010B5074B1878FFF75B
:10B1C000A5FD00F041FD054B054800241C70FBF770
:10B1D000AEFD204610BD00BF582E002011360020C5
:10B1E000ECF102006DDF704767DF7047034B1B68AF
:10B1F00013B180F001001847704700BFFC360020F3
:10B20000F7B50746FEF77EFA0446002836D1022F2E
:10B2100037D8FEF739FA1C4A4A232146054601F081
:10B22000C3FB01A901200194FEF7BAFA0543164AAF
:10B2300051232146284601F0B7FB01A8FEF7F0FA9A
:10B2400012490B78064643F0010302200B70FFF70A
:10B25000CBFF064335435C230B4A2146284601F0C9
:10B26000A3FB0B4A01210220FEF794F9094B284366
:10B270001F7000F0E9FC204303B0F0BD0020202443
:10B28000F7E71024F5E700BFD1F5020000370020F2
:10B29000EDB10200F8360020F7B50446FEF732FAA9
:10B2A00028BB4FF08051D1F8A430D1F8A470D1F868
:10B2B000A460D1F8A420D1F8A850DBB202F07F42FC
:10B2C0001A4307F47F431A43D1F8A83003F47F43AD
:10B2D00005F0FF0506F47F0643F4404332432B4359
:10B2E000C4E9002303B0BDE8F04000F0ADBC9DF818
:10B2F0000030012262F3470368468DF80030FFF703
:10B3000071FF9DF805309DF80610DDF8012043EA35
:10B310000123E5E7064B40B11A6832B1054AB02374
:10B320006FF00041202001F03FBB1860704700BF64
:10B33000FC360020D1F50200FEF7E4B910B5044652
:10B3400038B1FEF7DFF938B1044B1B7823700020C9
:10B3500010BD4FF40060FBE72020F9E7F83600202D
:10B36000002311F0010F036008BF202311F0020F2A
:10B370000CBF4022002211F0040F43EA02030CBF6D
:10B380006FF07F020022134303717047034B18785C
:10B3900010B901221A70704720207047083700202A
:10B3A000014B1878704700BF083700204FF6FF7335
:10B3B000984215D0C30800F01F0203F0E0001043CC
:10B3C000092945D8DFE801F0050E161C22282F3D7B
:10B3D000363D00F5E0704FF0A043022243F82020F4
:10B3E0000020704700F5E0704FF0A042002342F8C3
:10B3F0002030F5E700F5E0704FF0A0430C22EDE7B8
:10B4000000F5E0704FF0A0430422E7E700F5E0709C
:10B410004FF0A0430322E1E700F5E0704FF0A043B6
:10B4200040F20332DAE700F5E0704FF0A04340F25B
:10B430000D62D3E700F5E0704FF0A04340F20D72CB
:10B44000CCE700F5E0704FF0A04340F20162C5E7A1
:10B450001020704703464FF6FF72934208460DD006
:10B46000D90801F0E00103F01F03012843EA0103BA
:10B4700006D198404FF0A043C3F80805002070475C
:10B4800038B9012202FA03F34FF0A042C2F80C359A
:10B49000704710207047B1B14FF6FF73984210D03B
:10B4A0004FF0A043C208D3F8103500F01F0002F09F
:10B4B000E002104323FA00F010F0010006D001234F
:10B4C0000B70002070474FF40060704708707047A1
:10B4D00073B5174B1B788342044623D9154E336846
:10B4E00053F82030F3B1C50005F4E063012900F002
:10B4F0001F0545EA03050CD0022915D00DF1030103
:10B500002846FFF7C8FF9DF80330003B18BF012312
:10B510000BE08DF804103368ADF8065053F8243072
:10B520000198984702B070BD00238DF80430F2E70F
:10B53000093700200C370020F8B50E46054698B1B3
:10B54000FFF72EFF98B10B4F3C7884B9FBF7A0FEB4
:10B5500040B9FBF76DFE084B3E701D60BDE8F8403A
:10B5600000F072BB2046F6E74FF40060F8BD2020E3
:10B57000FCE700BF093700200C370020024B187889
:10B58000003818BF012070470937002073B5224CDE
:10B590002478002C3CD04FF6FF75A8423AD000F03A
:10B5A0001F0505EB1020C5B2AC4202D8102002B036
:10B5B00070BD02299DBF19480024405C032088BF4C
:10B5C0001024022A20D0032A20D0012A4FF00001A3
:10B5D00018BF102400228DF80620114A8DF80400AF
:10B5E00012688DF80510284642F8253001A90D4A49
:10B5F000FBF758FE012106462846FBF7CBFE3046F6
:10B6000000F022FB2043D2E70321E3E70121E1E739
:10B610002020CCE70020CAE70937002066F60200A8
:10B620000C370020D1B402004FF6FF73984270B57A
:10B6300014D00B4D2B688BB100F01F0404EB1024C9
:10B64000E6B253F826304BB13046FBF7E9FE304600
:10B65000FBF708FF2B68002243F82620002070BD6E
:10B660000C3700200D4B00221A700378012B05D1F6
:10B670000B4A136843F0050313607047022B06D191
:10B68000074A136843F4024343F00203F4E7002B34
:10B69000F3D0034A136843F00303EDE711370020AA
:10B6A0001437002030B5037987B00446002B5DD0F5
:10B6B000012B14BF4FF0CD624FF080622E4BE0881B
:10B6C000C8211980618801F01F0303EB1123218831
:10B6D000DBB2029301F01F0303EB1123DBB2CDE9D0
:10B6E000033205214FF483730593FFF75FFE0221B8
:10B6F0006088FFF75BFE02212088FFF757FE0121DB
:10B70000E088FFF7A7FE4FF47A7000F01BFD0DF103
:10B7100007012088FFF7BFFE60880DF10601FFF7E3
:10B72000BAFE9DF80700012823D19DF80630012BB1
:10B730001AD1124A1248002302A9FCF7A9FF237963
:10B74000022B02BF0F4B4FF0C462C3F824250546FD
:10B750000D48FCF76DFE0D4B01221A700C4B0022B8
:10B7600028461A7000F070FA07B030BD4FF0CC7266
:10B77000A4E70120F8E700BF5A2E002065B60200BA
:10B780006CF602000030004070F602001037002016
:10B7900011370020F0B515461F4A127885B0002AEF
:10B7A00030D0002931D01D4E327802F0FF077ABB2D
:10B7B00001225340327000930A46EBB2014618480A
:10B7C000FCF7A8FE0397174F04463B8832786B437B
:10B7D00012B1039A9A420ED3039A9A42124B1868F6
:10B7E00028BF44F00D04002220431A6005B0BDE8D4
:10B7F000F04000F029BA039B01200133039300F0CD
:10B80000A1FCE2E7202005B0F0BD4FF40060FAE7AC
:10B810004FF48040F7E700BF1037002011370020B9
:10B8200070F602005A2E0020143700201A4B1B78A5
:10B83000F7B5154653B361B3184E194F0123337052
:10B84000D3B20A4601461748FCF77FFE00230446A0
:10B8500001933B8832786B4312B1019A9A420ED31E
:10B86000019A9A42104B186828BF44F00D04002238
:10B8700020431A6003B0BDE8F04000F0E5B9019B39
:10B8800001200133019300F05DFCE2E7202003B0CA
:10B89000F0BD4FF40060FAE71037002011370020A8
:10B8A0005A2E002070F6020014370020BFF34F8F8D
:10B8B0000549064BCA6802F4E0621343CB60BFF34C
:10B8C0004F8F00BFFDE700BF00ED00E00400FA0568
:10B8D0003CDF70473DDF704737B59DF80430114CB1
:10B8E0006FF30003C1078DF8043042BFDBB243F0B1
:10B8F00001038DF80430C2B2237812F0020F0CBF9E
:10B90000002508251BB1FCF769FB0023237001A863
:10B91000FCF746FB01232843237000F095F903B0A0
:10B9200030BD00BF1837002008B5FDF7EBFEFFF76C
:10B93000BDFF08B5FDF7E6FE50B14FF0FF31002026
:10B94000FFF7C8FFB1210020FFF7C2FFFFF7AEFFEE
:10B950004FF08043B122C3F81C25F7E7094930B501
:10B96000D1E9004524F47F722B4622F00302C1E99D
:10B970000023D1E9002312F5806443F10005C1E9F9
:10B98000004530BD2037002038B5124B0020002183
:10B99000C3E9000110490220FEF7BDFF00F0A6FA3E
:10B9A000A8B900F081FA04460C4D2B682BB90C4A5B
:10B9B0000121284600F0A0FA0443286800224FF431
:10B9C000806100F0C3FA204318BF082038BD00246E
:10B9D000EAE700BF203700207CF602001C37002079
:10B9E0005DB9020010B5044CD4E90001421C41F1DC
:10B9F0000003C4E9002310BD203700208ADF704710
:10BA00008BDF70478CDF7047007BC0F3C00070474E
:10BA10002DE9F04106468AB036F8082B1D2A054666
:10BA20000C4620D006D8102A75D01B2A5DD00AB04B
:10BA3000BDE8F081202AFAD114220DEB020000218A
:10BA400002F0CAFBE269002AF1D0A86871680523F8
:10BA50008DF814300C3406AB099403C3317A197095
:10BA600005A89047E3E710220021684602F0B4FBE6
:10BA700004F10C082046CDF81080FFF7C5FF04F153
:10BA80004007E36928B302228DF80020684601963A
:10BA9000984739460020FFF7B1FF2378002BC6D026
:10BAA000A67AFFF7ADFF142200210DEB020002F091
:10BAB00093FB3346A21C414605F10A00FFF7A2FFA3
:10BAC00006238DF8143006900028B0D0E369FBB946
:10BAD000ADE703228DF8002001960BB16846984728
