:020000022000DC
:1060000000000420756302005D6302005F6302000C
:106010006163020063630200656302000000000028
:1060200000000000000000000000000067630200A4
:1060300069630200000000006B6302006D630200F0
:10604000B54004006F630200C54004006F630200A6
:106050006F6302006F6302006F6302006F630200F0
:106060006F6302006F630200251204006F63020079
:106070006F6302006F6302006F6302006F630200D0
:106080006F630200ADC102006F6302006F63020024
:106090006F6302006F630200B9A704006F63020020
:1060A0006F6302006F6302006F6302006F630200A0
:1060B0006F6302006F630200000000000000000038
:1060C0006F6302006F6302006F6302006F63020080
:1060D0006F6302006F6302006F630200997F040028
:1060E0006F6302006F6302006F6302000000000034
:1060F000000000006F630200000000006F630200F8
:10610000000000000000000000000000000000008F
:10611000000000000000000000000000000000007F
:10612000000000000000000000000000000000006F
:10613000000000000000000000000000000000005F
:10614000000000000000000000000000000000004F
:10615000000000000000000000000000000000003F
:10616000000000000000000000000000000000002F
:10617000000000000000000000000000000000001F
:10618000000000000000000000000000000000000F
:1061900000000000000000000000000000000000FF
:1061A00000000000000000000000000000000000EF
:1061B00000000000000000000000000000000000DF
:1061C00000000000000000000000000000000000CF
:1061D00000000000000000000000000000000000BF
:1061E00000000000000000000000000000000000AF
:1061F000000000000000000000000000000000009F
:10620000354936480A1A02D0072291438D4634494F
:1062100034480A1A06D00722914381F309880222E2
:1062200082F3148830483149314A00F044F831484B
:106230003149324A00F03FF831483249324A00F0E1
:106240003AF832483249334A00F035F83248334997
:10625000334A00F030F833483349344A00F02BF821
:1062600033483449344A00F026F83448344900228F
:1062700000F02CF833483449002200F027F8334866
:106280003349091A082902DB002202604160314AC1
:1062900090471F481F49884205D00268043003B464
:1062A000904703BCF7E700208646EC46002000211B
:1062B000294A9047FEE7884207D0521A05D0037852
:1062C00001300B700131013AF9D17047884202D098
:1062D00002700130FAE770470000042000F8032044
:1062E00000000420000004208CD0040058AD0120E0
:1062F0004CAE0120D4630200D4630200F8B1040064
:106300008CD0040058AD012058AD012074B20400B7
:1063100074B2040074B2040074B2040074B20400D5
:1063200074B2040074B2040074B204008BD0040090
:1063300080D104004CAE01204CAE01204CAE0120B7
:106340001CFA01201CFA01201CFA01201CFA012071
:106350001CFC01209D63020049900400FEE7FEE75B
:10636000FEE7FEE7FEE7FEE7FEE7FEE7FEE7FEE705
:10637000704700BF1048804710484FF0070188431E
:1063800085460F4880470F48016841F4700101605D
:10639000BFF34F8FBFF36F8FFFF732BF0A480B4930
:1063A0000B4A884207D0521A05D0037801300B708F
:1063B0000131013AF9D170477163020000000420F5
:1063C00059CD020088ED00E074B2040058AD012000
:0463D00058AD0120A3
:1063D40000B583B002900091019244F2010071462D
:1063E4006A461AF01BF903B000BD00BF82B00190E9
:1063F400019B03F00303002B0CBF01230023DBB23A
:10640400184602B07047000082B003468DF807308A
:106414009DF807309AB2064B1B889A4204D29DF825
:1064240007300133DBB200E00023184602B07047A6
:1064340058AE012000B583B00B4B1B788DF80730A4
:106444000A4B1B78DBB21846FFF7DEFF03461A46F9
:106454009DF8073093420CBF01230023DBB218469A
:1064640003B05DF804FB00BF54AE012055AE01201B
:1064740082B0084B1B788DF80730074B1B78DBB2D2
:106484009DF807209A420CBF01230023DBB2184673
:1064940002B0704754AE012055AE012000B585B05E
:1064A40003460092ADF806300B46ADF80430BDF853
:1064B400043001339BB2DB00ADF80E300098FFF7D7
:1064C40095FF034683F00103DBB2002B01D00723C1
:1064D4001AE00F4A009B1360BDF80E30009A134473
:1064E4000C4A13600C4B00221A700C4B00221A70D9
:1064F4000B4ABDF8063013800A4ABDF804301380F5
:10650400094B00221A800023184605B05DF804FBED
:106514004CAE012050AE012055AE012054AE0120F6
:1065240056AE012058AE01205AAE012082B0164B5F
:106534001B78DBB2ADF80630144B1B78DBB2ADF838
:106544000430134B1A88BDF80410BDF80630994284
:1065540006D3BDF80410BDF80630CB1A9BB20BE08D
:106564000B4B1988BDF80630CB1A99B2BDF804302C
:106574000B449BB201339BB2D31AADF80230BDF881
:106584000230184602B0704754AE012055AE0120C7
:1065940058AE012082B0194B1B78DBB2ADF806303F
:1065A400174B1B78DBB2ADF80430BDF80420BDF8FE
:1065B40006309A4206D3BDF80420BDF80630D31A3B
:1065C4009BB20BE00F4B1A88BDF80630D31A9AB26F
:1065D400BDF8043013449BB201339BB2ADF80230D2
:1065E400094B1B88BDF802209A4203D9064ABDF81C
:1065F4000230138000BF02B0704700BF54AE0120C8
:1066040055AE012058AE01205AAE012000B587B026
:1066140003900B460192ADF80A30384B1B88BDF845
:106624000A209A4262D84FF6FF73ADF81230002365
:106634008DF811300DF11103184605F009FAFFF732
:10664400F9FE0346002B10D12D4B1B78DBB2ADF8BD
:1066540012302B4B1B78DBB21846FFF7D5FE0346EE
:106664001A46274B1A70FFF795FF9DF8113018460C
:1066740005F004FABDF812304FF6FF72934232D09F
:10668400204B1A68BDF81230DB001344019A1A60DB
:10669400039B002B1CD0BDF80A30002B18D01A4BDA
:1066A4001B68BDF812201549098801FB02F2134446
:1066B400BDF80A200399184624F0F2F9114B1A6820
:1066C400BDF81230DB001344BDF80A209A8007E0BD
:1066D4000C4B1A68BDF81230DB00134400229A8078
:1066E4000023059304E00423059301E009230593A3
:1066F400059B184607B05DF804FB00BF56AE0120A9
:1067040055AE01204CAE012050AE012000B583B03F
:1067140000238DF807300DF10703184605F098F9AA
:10672400094B1B68B3F1FF3F04D0074B1B680133CF
:10673400054A13609DF80730184605F09FF900BF1D
:1067440003B05DF804FB00BF5CAE012000B583B06C
:1067540000238DF807300DF10703184605F078F98A
:10676400084B1B68002B04D0064B1B68013B054AF1
:1067740013609DF80730184605F080F900BF03B098
:106784005DF804FB5CAE0120044B1B68002B14BFB6
:1067940001230023DBB21846704700BF5CAE012022
:1067A40000B585B02FE0204B1B78DBB2ADF80E307E
:1067B4001E4B1B68BDF80E201D49098801FB02F21F
:1067C400134402931B4B1A68BDF80E30DB001344CC
:1067D4009B88ADF80630174B1A68BDF80E30DB0005
:1067E40013441B680093BDF80620009B11460298D1
:1067F40098470D4B1B78DBB21846FFF705FE03469E
:106804001A46094B1A70FFF7BFFF034683F00103D2
:10681400DBB2002B04D0FFF72BFE0346002BC2D0C3
:1068240000BF05B05DF804FB54AE012050AE01205A
:1068340056AE01204CAE012086B001900091019B20
:106844000593009B0493059B5B680393049B5B681F
:106854000293039A029B9A4294BF01230023DBB262
:10686400184606B07047000000B585B00190019B42
:10687400DB68002B03D11F49872019F0F1FE0023A8
:106884008DF80F301C4B1B78002B2CD0019B002B58
:1068940029D0019B1B7DDBB2002B24D0019B9B687C
:1068A400002B02D1019B00221A75019BDB68019A1F
:1068B400126910469847019B9B68002B13D0019BDB
:1068C4001B7DDBB2002B0ED0019B5A68019B9B6899
:1068D4001A44019B5A60019B1946084806F062F964
:1068E40001238DF80F309DF80F30184605B05DF880
:1068F40004FB00BF80B2040064AE012074B2040043
:1069040000B585B00190009100230393009B002201
:106914001A70019B5A684FF4960300210E4805F043
:106924001FFB0390039B002B01D101230FE0039B6A
:106934000D2B07D10198FFF797FF03461A46009BDA
:106944001A7003E00549C22019F08AFE0023184694
:1069540005B05DF804FB00BF58AD012080B204000F
:1069640000B583B0044806F057F90190019B18461E
:1069740003B05DF804FB00BF74B2040000B583B03B
:10698400044806F06BF90190019B184603B05DF8CA
:1069940004FB00BF74B2040000B585B00190019BF4
:1069A400184606F06FF90390039B184605B05DF88E
:1069B40004FB00B583B0FFF7D3FF0190019B002BCC
:1069C40002D0019B00221A75019B002BF3D100BF5A
:1069D40000BF03B05DF804FB00B583B0164B1B6821
:1069E400002B09D0144B1B685B680093124B1B6887
:1069F400009A22F07F425A60FFF7C0FF019012E034
:106A0400019B5B68B3F1807F03D20198FFF72CFFF1
:106A140005E0019B5B6823F07F42019B5A6001986B
:106A2400FFF7BAFF0190019B002BE9D100BF00BF23
:106A340003B05DF804FB00BF60AE012000B583B075
:106A44000190134B1B68002B1DD0019805F091FB9E
:106A540002460F4B1B685B6823F07F4319461046C0
:106A640000F0EEF90346B3F5960F04D3094940F25A
:106A74000F1019F0F5FD064B1B681846FFF7F4FEDE
:106A8400034B00221A6000BF03B05DF804FB00BF93
:106A940060AE012080B2040000B589B00190FFF718
:106AA4006DFF069000238DF81F30069B002B48D005
:106AB400069B5B6805932A4B1B685B680493284B11
:106AC4001B68002B03D101238DF81F3016E0244BE3
:106AD4001B68002B12D0049A059B9A420ED90123FD
:106AE4008DF81F301E4B1B681B7DDBB2002B05D0BD
:106AF4001B4B1B6819461B4806F054F89DF81F30C1
:106B0400002B26D0FFF72CFF06900DF10F0319463A
:106B14000698FFF7F5FE0346002BC0D0104B1B6808
:106B2400002B02D1019805F0EFF90D4A069B136082
:106B34009DF80F3083F00103DBB2002BAFD000BF10
:106B44000AE0074B1B68002B05D1019805F0F2F908
:106B540001E000BF00E000BF00BF09B05DF804FB26
:106B640060AE012074B2040010B584B00190334AC1
:106B740002AB1946104605F0FAFB039057E0039B5D
:106B84001B78022B3DD0022B41DC002B02D0012BC1
:106B940027D03CE0039B5B681B7DDBB283F00103E1
:106BA400DBB2002B35D0039B5B6801221A75039B73
:106BB4005B685C68019805F0DCFA0346E31AB3F5F8
:106BC400350F07D3039B5B685A68039B5B6822F00D
:106BD4007F425A60039B5B681946194805F0E2FF3F
:106BE40017E0039B5A68174B1B689A4202D1154B56
:106BF40000221A60039B5B681946114806F054F89A
:106C040008E0FFF7D6FE104B01221A7002E000BF25
:106C140000E000BF094A02AB1946104605F0C0FB6C
:106C2400064A02AB1946104605F0A1FB0390039BEC
:106C3400002BA4D100BF00BF04B010BDC0AE012022
:106C440074B2040060AE012064AE012000B583B0CC
:106C54000190019805F06BFA0346002B01D0FFF771
:106C6400BBFE0021019805F06FFA0346002B02D009
:106C74000198FFF7E3FE0198FFF776FF0198FFF70D
:106C84000BFF00BF03B05DF804FB000008B5024829
:106C940005F07CFA00BF08BD58AD012000B585B0F1
:106CA400034600918DF80730114A02AB194610468D
:106CB40005F030FB0390039B002B13D0039B9DF83E
:106CC40007201A70039B009A5A60094A02AB1946BE
:106CD400104605F038FB0346002B01D0FFF7D6FF22
:106CE400002300E00423184605B05DF804FB00BF50
:106CF400C0AE012000B583B0134B1B68009313484A
:106D040008235822124905F0D2FA0190019B002B66
:106D140001D0019B13E06B460E4A19460E4805F05C
:106D240093F80190019B002B01D0019B07E0012106
:106D3400094805F0EBF9094B01221A70019B18462A
:106D440003B05DF804FB00BF04B30400C0AE01202F
:106D540068AE0120516C020058AD012064AE0120E0
:106D640000B587B003900B4601928DF80B30039B5E
:106D7400002B04D1134940F2EF1019F071FC019B70
:106D8400002B04D10F494FF4F87019F069FC019BF2
:106D9400002B01D1072310E0039B1B680593059B7F
:106DA400019ADA609DF80B30012B0CBF01230023FC
:106DB400DBB21A46059B9A600023184607B05DF8BB
:106DC40004FB00BF80B2040000B587B003900291B9
:106DD4000192039B002B04D1174940F2FF1019F0D4
:106DE4003FFC039B0593029BB3F5350F01D30723A7
:106DF4001DE0059B1B7DDBB2002B01D0002316E0B8
:106E0400059B019A1A610D4805F0B3F90246029BED
:106E14001A44059B5A60059B9B68002B02D0059B76
:106E2400029A9A6005990020FFF738FF0346184636
:106E340007B05DF804FB00BF80B2040058AD012028
:106E440082B001900091019A009BD31A23F07F43F2
:106E5400184602B070470000024BD3F88034DBB20E
:106E64001846704700700240024BD3F88434DBB2FA
:106E7400184670470070024008B521F071FA0023EB
:106E8400184608BD00B585B003468DF807300B469B
:106E94008DF8063013468DF805309DF8073003F061
:106EA4001F029DF806305B0103F060031A439DF84E
:106EB4000530DB01DBB213430393039BFF2B04D99F
:106EC40005494FF4AC7019F0CBFB039BDBB21846B9
:106ED40005B05DF804FB00BF08B3040082B0019064
:106EE400019B1B7A184602B07047000000B585B0BC
:106EF40001900B468DF80330019B002B04D10F4900
:106F04004FF4887019F0ACFB0198FFF7E7FF0346D4
:106F14001A469DF80330934201D3002309E0019BF4
:106F2400093303939DF8032013465B001344039A2B
:106F34001344184605B05DF804FB00BF84B3040095
:106F440082B00190019B1B78184602B0704782B052
:106F54000190019B5B78184602B0704700B585B07C
:106F640001900B468DF80330019B002B04D10D4991
:106F740040F2431019F074FB019B5B789DF80320E9
:106F84009A4201D3002309E0019B9B781A46019B96
:106F9400134403939DF80330039A1344184605B031
:106FA4005DF804FB84B3040082B00190019B1B785C
:106FB400184602B0704782B00190019B1B681846C6
:106FC40002B0704700B583B00190019B002B04D13F
:106FD400064940F2432019F043FB0198FFF7EBFF09
:106FE40003461B68184603B05DF804FB00B40400B4
:106FF40000B583B00190019B002B04D1064940F2F7
:107004005F2019F02DFB0198FFF7D5FF03465B685D
:10701400184603B05DF804FB00B4040000B583B067
:107024000190019B002B04D1064940F27B2019F00A
:1070340017FB0198FFF7BFFF03465B68184603B0D0
:107044005DF804FB00B40400014B1846704700BF10
:1070540054B704004FF08043D3F8383418467047CF
:1070640008B5FFF7F7FF034603F00103002B14BF35
:1070740001230023DBB2184608BD08B5FFF7EAFF79
:10708400034603F00203002B14BF01230023DBB2E9
:10709400184608BD00B583B001900091019B002BF8
:1070A40004D1114940F20F1019F0DAFA019B5B6820
:1070B400002B04D10C494FF4887019F0D1FA019BCC
:1070C4005B681B68002B04D1074940F2111019F0CA
:1070D400C7FA019B5B681B680099019898470346AF
:1070E400184603B05DF804FB74B4040000B583B023
:1070F40001900091019B002B04D1114940F2191019
:1071040019F0AEFA019B1B68002B04D10C494FF413
:107114008D7019F0A5FA019B1B689B68002B04D1A4
:10712400074940F21B1019F09BFA019B1B689B68EE
:10713400009A52881046984700BF03B05DF804FBDC
:1071440074B4040000B583B001900B468DF803308D
:10715400074B1B68002B06D0054B1B689DF80320CA
:1071640011460198984700BF03B05DF804FB00BFC7
:1071740094B0012000B583B003468DF80730074B67
:107184005B68002B05D0054B5B689DF80720104613
:10719400984700BF03B05DF804FB00BF94B0012022
:1071A40010B58EB0039001930B468DF80B30134647
:1071B4008DF80A300023099300230D9302E00D9B00
:1071C40001330D93039B5B685C6809A801230022CB
:1071D4000399A0470346002BF1D100238DF82330F7
:1071E40000230C9300238DF82F30002306934FE0E7
:1071F400039B5B685C680DF1230206A801230399D5
:10720400A047039B5B685C680DF1170206A8012385
:107214000399A0479DF817309DF80B209A4227D177
:107224009DF82F209DF80A309A421CD19DF82330F6
:107234001A46109B1A60019B5A1C01929DF8232048
:107244001A70019B5A1C01929DF80B201A70039B23
:107254005B685C689DF82330023B06A8019A039999
:10726400A047002319E09DF82F3001338DF82F300B
:10727400039B5B685C689DF82330023B06A80022F0
:107284000399A0479DF823301A460C9B13440C9392
:107294000C9A0D9B9A42ABD3052318460EB010BD31
:1072A40000B585B003468DF807309DF90730002BF3
:1072B40014DA9DF8073003F00F038DF80E309DF8B3
:1072C4000E30082B04D911494FF4CC7019F0C8F9C9
:1072D4009DF80E30DB000E4A134413E09DF807308E
:1072E40003F00F038DF80F309DF80F30082B04D9ED
:1072F40006494FF4CF7019F0B3F99DF80F30DB0055
:10730400044A1344184605B05DF804FB74B4040041
:10731400F4AF01203CB0012000B583B003468DF8E2
:1073240007309DF807301846FFF7BAFF03461B687D
:10733400184603B05DF804FB00B585B00346009120
:107344008DF807309DF807301846FFF7A9FF039022
:10735400039B009A1A60009B002B10D19DF8073004
:10736400002B03D09DF80730802B04D108494FF43B
:10737400E17019F075F9039B00225A6004E0009B48
:107384005B681A68039B5A6000BF05B05DF804FB94
:1073940074B4040000B583B00190064B5B68054AE1
:1073A40012680199104698470346184603B05DF8E1
:1073B40004FB00BF3CB0012000B58BB00190019BE1
:1073C4000993099B1B78052B1AD1FFF74DFD034642
:1073D4008DF81F30FFF740FD03468DF81E30002264
:1073E40000210020FFF74EFD03461A469DF81E308B
:1073F400934205D19DF81F30052B01D13A4B0993D7
:10740400099B1B78002B2ED100F056FF089007E053
:1074140009990898FFF76AFE0898FFF7FFFD08909E
:10742400089B002BF4D100238DF80F300DF10F03CE
:10743400184604F00DFB2D4B1B68002B03D1099B50
:107444005A882B4B1A800121284804F0ECFF9DF840
:107454000F30184604F012FB01210998FFF772FE61
:10746400224B1B683CE0234A04AB1946104604F047
:1074740051FF0690069B002B32D0069A099B1B688D
:10748400136000238DF80E300DF10E03184604F03E
:10749400DFFA174B1A88154B1B689BB2D31A9BB2A1
:1074A40001339AB2069BDA800021104804F08CFF65
:1074B40003469AB2069B9A809DF80E30184604F053
:1074C400DDFA0C4A04AB1946104604F03CFF0346AF
:1074D4008DF817309DF8173019460998FFF732FEDA
:1074E4000BB05DF804FB00BFF4B40400ECAF012062
:1074F400F0AF0120DCAF012000B583B003468DF866
:1075040007309DF80730022B0ED0022B10DC002B25
:1075140002D0012B04D00BE00A48FFF74DFF0DE029
:107524000948FFF749FF09E00848FFF745FF05E070
:10753400074940F2622019F093F800BF00BF03B07E
:107544005DF804FBE8B40400ECB40400F0B40400F7
:1075540074B4040000B583B001900198FFF72CFFC8
:1075640000BF03B05DF804FB00B583B003468DF89B
:1075740007309DF80730002B04D0064940F27B20E9
:1075840019F06EF80448FFF717FF00BF03B05DF869
:1075940004FB00BF74B40400F8B4040082B00346D2
:1075A4008DF807309DF80730082B27D801A252F830
:1075B40023F000BFDD750200E1750200E5750200ED
:1075C400E9750200ED750200F1750200F57502001F
:1075D400F9750200FD750200002310E000230EE09F
:1075E40001230CE000230AE0002308E0012306E065
:1075F400012304E0012302E0012300E000231846F4
:1076040002B0704782B003468DF807309DF807300A
:10761400082B27D801A252F823F000BF45760200B8
:10762400497602004D76020051760200557602003A
:10763400597602005D7602006176020065760200EA
:10764400002310E000230EE001230CE000230AE0F5
:10765400002308E0002306E0002304E0002302E006
:10766400012300E00023184602B07047014B1B7849
:107674001846704790B0012010B582B003468DF8CB
:1076840007309DF807301846FFF788FF03461C466D
:107694001C4B1B781846FFF781FF03469C420DD014
:1076A4009DF807301846FFF779FF0346002B03D0F7
:1076B40015481BF031FC01E01BF08CFC9DF80730F1
:1076C4001846FFF79FFF03461C460E4B1B781846CF
:1076D400FFF798FF03469C420CD09DF807301846EC
:1076E400FFF790FF0346002B02D021F071F801E070
:1076F40021F064F8034A9DF80730137000BF02B00C
:1077040010BD00BF90B0012060AD012000B587B06E
:1077140001900B468DF8033013468DF80230019822
:10772400FFF7DCFB03461A469DF80330934204D965
:107734001B4940F2F92018F093FF9DF80230002B0A
:1077440001D0072328E09DF8033019460198FFF77C
:10775400CDFB04900498FFF7FAFB03468DF80F3035
:1077640000238DF8173010E09DF81730194604985F
:10777400FFF7F4FB0290029B1B78184600F064FDAF
:107784009DF8173001338DF817309DF817209DF8B8
:107794000F309A42E8D30023184607B05DF804FB83
:1077A40074B4040000B587B001900B468DF8033023
:1077B4000198FFF793FB03461A469DF80330934262
:1077C40004D919494FF4467018F04AFF9DF8033064
:1077D40019460198FFF78AFB04900498FFF7B7FB5A
:1077E40003468DF80F3000238DF8173010E09DF814
:1077F400173019460498FFF7B1FB0290029B1B78DF
:10780400184600F03FFD9DF8173001338DF817300E
:107814009DF817209DF80F309A42E8D300BF00BFAF
:1078240007B05DF804FB00BF74B4040000B589B070
:1078340001901BF0D9FA0346002B04D1484940F2C9
:10784400313018F00DFF474808234FF4847246493D
:1078540004F02DFD0690069B002B01D003237BE052
:10786400424820F0F9FC0690069B002B01D0069BB1
:1078740072E03F4B00221A703E4B00221A603E4BCE
:1078840000221A60482200213C4823F032F94822A1
:1078940000213B4823F02DF9019B002B09D1394BE2
:1078A40000221A60374B00225A60364B00221A72AB
:1078B40004E0344B019A07CA83E8070000201BF058
:1078C4001FFD0690069B002B08D0069B852B05D038
:1078D400234A40F25F310698FEF77AFDFFF7B4FBC6
:1078E400059000238DF81F3018E000238DF81E301A
:1078F40007E00398FFF758FB034605991846FFF77E
:107904001BFD9DF81E305A1C8DF81E201946049844
:10791400FFF724FB0390039B002BEAD19DF81F3053
:107924005A1C8DF81F2019460598FFF7DFFA0490BA
:10793400049B002BD9D10B238DF8083002AB1946D8
:107944000598FFF7A7FB0690069B002B03D0FFF7D3
:1079540093FA069B00E00023184609B05DF804FB87
:1079640074B40400DCAF0120D4AE012059750200C8
:1079740090B0012084B0012088B00120F4AF012030
:107984003CB0012094B0012000B583B020F06CFE1F
:10799400034683F00103DBB2002B04D120F070FE18
:1079A4000346002B01D008230FE00A481BF00EFD0C
:1079B4000190019B0093009B002B05D0064A40F2E6
:1079C400C2310098FEF704FD0023184603B05DF8A9
:1079D40004FB00BFFCB4040074B4040008B520F038
:1079E400D7FC00BF08BD000008B520F055FE0346D3
:1079F40083F00103DBB2002B04D1044940F2D130FF
:107A040018F02EFE20F0B4FD00BF08BD74B40400CD
:107A140008B520F035FE0346002B0DD10D494FF477
:107A2400767018F01DFE07E0FFF71AFB034683F09B
:107A34000103DBB2002B0BD1FFF71FFB034683F0DE
:107A44000103DBB2002BEFD10348FFF7B5FC00E0E4
:107A540000BF08BD74B4040000B5040000B583B0D1
:107A640082238DF8043001AB1846FFF7A5FC00BF54
:107A740003B05DF804FB000000B587B00190DD4B56
:107A84001B68002B04D1DC4940F2254018F0E8FDC6
:107A940004F02BF80346052B04D8D74940F22C40B8
:107AA40018F0DEFD019B1B78852B00F26A8201A28F
:107AB40052F823F0D17D02002F7E0200BD7E020029
:107AC400517E0200817E0200E57E0200F57E020006
:107AD400877F02005D7F02006B7F0200797F0200D6
:107AE400877F0200877F0200877F0200877F020072
:107AF400D77E0200877F0200877F0200877F020013
:107B0400877F0200877F0200877F0200877F020051
:107B1400877F0200877F0200877F0200877F020041
:107B2400877F0200877F0200877F0200877F020031
:107B3400877F0200877F0200877F0200877F020021
:107B4400877F0200877F0200877F0200877F020011
:107B5400877F0200877F0200877F0200877F020001
:107B6400877F0200877F0200877F0200877F0200F1
:107B7400877F0200877F0200877F0200877F0200E1
:107B8400877F0200877F0200877F0200877F0200D1
:107B9400877F0200877F0200877F0200877F0200C1
:107BA400877F0200877F0200877F0200877F0200B1
:107BB400877F0200877F0200877F0200877F0200A1
:107BC400877F0200877F0200877F0200877F020091
:107BD400877F0200877F0200877F0200877F020081
:107BE400877F0200877F0200877F0200877F020071
:107BF400877F0200877F0200877F0200877F020061
:107C0400877F0200877F0200877F0200877F020050
:107C1400877F0200877F0200877F0200877F020040
:107C2400877F0200877F0200877F0200877F020030
:107C3400877F0200877F0200877F0200877F020020
:107C4400877F0200877F0200877F0200877F020010
:107C5400877F0200877F0200877F0200877F020000
:107C6400877F0200877F0200877F0200877F0200F0
:107C7400877F0200877F0200877F0200877F0200E0
:107C8400877F0200877F0200877F0200877F0200D0
:107C9400877F0200877F0200877F0200877F0200C0
:107CA400877F0200877F0200877F0200877F0200B0
:107CB400877F02004F7D0200D17C0200157D020007
:107CC400837D0200A37D0200ED7E02004B48FFF796
:107CD40061FB4A4800F07AFB0D20FFF74BFA00F0F5
:107CE40099FC03F06EF8464B1B68002B03D1454BFF
:107CF4001B7A002B01D0012300E0002303F00103D1
:107D0400DBB2184620F054FC0120FFF7B5FC45E136
:107D140000F080FC20F084FC0020FFF7ADFC3A4822
:107D240000F054FB3848FFF735FB0E20FFF722FA2A
:107D3400FFF79CFC03461846FFF730FC0346002B74
:107D440000F025811BF046F921E1FFF78FFC034683
:107D5400072B0ED0072B10DC052B02D0062B04D0EA
:107D64000BE00220FFF788FC08E00820FFF784FC02
:107D740004E00220FFF780FC00E000BF0EE1FFF703
:107D840075FC0346032B40F0048120F099FC034664
:107D9400002B00F0FE800420FFF76EFCF9E0FFF7F3
:107DA40065FC0346032B07D120F08AFC0346002B15
:107DB40002D00420FFF760FC20F0BAFC0346002B3D
:107DC40000F0E9800620FFF757FCE4E0FFF74EFCE3
:107DD4000346032B04D0FFF749FC0346082B02D1CA
:107DE4000A48FFF749FE0020FFF7C4F900F05EFAE5
:107DF400059016E084B0012074B4040004B50400B6
:107E040088B0012094B0012008B504000CB504002A
:107E140001990598FFF73EF903900598FFF7E8F8F4
:107E24000590059B002BF3D1B8E000F0F3FB02F0C2
:107E3400BFFF0220FFF720FC0120FFF79BF9019808
:107E4400FFF7A8FA019800F0C1FAA7E0FFF70EFCCB
:107E54000346082B05D10220FFF70EFC20F0C2FCDC
:107E640002E00520FFF708FC0320FFF783F90198DF
:107E7400FFF790FA019800F0A9FA8FE00320FFF7CA
:107E840079F94848FFF786FA464800F09FFAFFF769
:107E9400EDFB0346062B02D0082B04D007E0072095
:107EA400FFF7EAFB07E00220FFF7E6FB03E002200E
:107EB400FFF7E2FB72E071E00320FFF7DDFB022035
:107EC400FFF758F9019800F081FA0198FFF762FA78
:107ED40064E00F20FFF74EF9019800F077FA5DE0B7
:107EE4000198FFF757FA59E00198FFF753FA55E064
:107EF400019B9B781846FFF7D3F90490049B1B68F9
:107F0400002B04D1284940F2025018F0A9FB049B2D
:107F14005B68002B04D1244940F2035018F0A0FB05
:107F2400049B5B68049A12680199104698470346BB
:107F3400002B32D0019B9B7803F00F03002B2CD035
:107F4400019B9B7803F00803002B26D1019B9B78AF
:107F5400184620F092FE20E00820FFF70BF9019864
:107F640000F034FA1AE00920FFF704F9019800F050
:107F74002DFA13E00A20FFF7FDF8019800F026FA25
:107F84000CE0094940F2265018F06AFB06E000BFF5
:107F940004E000BF02E000BF00E000BF00BF07B084
:107FA4005DF804FB10B5040074B4040000B583B09C
:107FB40000230193394B1B68002B07D1384B3949F7
:107FC400184604F0D4F90346344A1360334B1B6853
:107FD400002B32D0314B1B689B88002B1ED02F4BBB
:107FE4001B68DB88B3F5006F03D32C4B1B6800229E
:107FF400DA802A4B1B68DA88511C89B2D98013466F
:10800400ADF80630254B1B689A88013A92B29A80E3
:1080140001AB1846FFF730FD01233AE01F4B1B6804
:108024001846FFF729FD1E4B1E49184604F0B8F9FF
:108034001A4B00221A6001232BE01B4B1B68002BF8
:1080440026D000238DF803300DF10303184603F006
:10805400FFFC164B1B88B3F5006F02D3134B0022B1
:108064001A80124B1B885A1C91B2104A1180ADF829
:10807400063001210C4804F0EEF99DF8033018464F
:1080840003F0FCFC01AB1846FFF7F6FC012300E00B
:108094000023184603B05DF804FB00BFA0B0012024
:1080A400DCAF0120A4B00120ECAF0120F0AF01202F
:1080B40000B589B00190019B002B04D15A4940F2CC
:1080C4006A5018F0CDFA019B5B68002B04D1564925
:1080D40040F26B5018F0C4FA019B5B681B68002BDC
:1080E40004D1514940F26C5018F0BAFA0198FEF7E5
:1080F40062FF03461B68002B04D04B4940F26D50CD
:1081040018F0AEFA20F0BCFA034683F00103DBB2A8
:10811400002B04D020F0A8FA0346002B04D14249D6
:1081240040F2715018F09CFA00238DF81F301CE0C7
:1081340000238DF81E300BE00398FEF735FF03464D
:108144001846FFF7E9F80346002B01D0112367E036
:108154009DF81E305A1C8DF81E2019460598FEF70E
:10816400FDFE0390039B002BE6D19DF81F305A1CA3
:108174008DF81F2019460198FEF7B8FE0590059B5F
:10818400002BD5D100238DF81F3018E000238DF883
:108194001D3007E00498FEF707FF034601991846CF
:1081A400FFF7CAF89DF81D305A1C8DF81D2019469A
:1081B4000598FEF7D3FE0490049B002BEAD19DF8AA
:1081C4001F305A1C8DF81F2019460198FEF78EFEA9
:1081D4000590059B002BD9D1144B069310E0069B08
:1081E4001B68019A9A4204D10F4940F2975018F043
:1081F40037FA069B1B681846FEF7DDFE0346069316
:10820400069B1B68002BEAD1069B019A1A600B237C
:108214008DF8083002AB19460198FEF73BFF034680
:10822400184609B05DF804FB74B4040084B001205E
:10823400044B1B78002B14BF01230023DBB2184628
:10824400704700BF91B0012000B583B003468DF89C
:1082540007309DF8073003F00803002B09D19DF87F
:108264000730184620F051FD9DF80730184620F0DD
:1082740016FD9DF80730184620F028FB00BF03B018
:108284005DF804FB00B583B003468DF807309DF814
:108294000730184620F072FB00BF03B05DF804FB02
:1082A400014B1B681846704784B00120014B1B68C2
:1082B4001846704788B00120014B1B681846704768
:1082C4008CB0012000B587B0034600918DF80730CB
:1082D400FFF7E6FF059031E00598FEF7FFFD034642
:1082E4008DF8123000238DF813301DE09DF8133003
:1082F40019460598FEF7FAFD03900398FEF720FE51
:1083040003461A469DF80730934208D1009B002B80
:1083140003D0009B9DF813201A70059B12E09DF872
:10832400133001338DF813309DF813209DF812306B
:108334009A42DBD30598FEF745FE0590059B002B7A
:10834400CAD10023184607B05DF804FB00B585B018
:1083540003900B4601928DF80B3001990398FEF7B8
:1083640099FE0346184605B05DF804FB00B585B0D8
:10837400034600918DF807309DF90730002B05DA8C
:108384009DF8073003F00F03082B09DD9DF9073032
:10839400002B16DB9DF8073003F00F03082B10DCCD
:1083A4009DF807301846FEF77BFF03461B680393CE
:1083B400039B002B05D000990398FEF76BFE034640
:1083C40000E01023184605B05DF804FB00B585B045
:1083D4000190FFF765FF039007E001990398FEF70A
:1083E40059FE0398FEF7EEFD0390039B002BF4D196
:1083F40000BF00BF05B05DF804FB00B585B0019077
:1084040006230293FFF74CFF03900BE001990398B6
:10841400FEF740FE0290029B062B07D10398FEF75D
:10842400D1FD0390039B002BF0D100E000BF029B21
:10843400184605B05DF804FB00B583B0034600910F
:108444008DF807309DF80730184620F02CFA0346C3
:1084540083F00103DBB2002B01D008230CE0084BAE
:108464001B78022B01D0082306E09DF80730009901
:10847400184620F0A3FA0346184603B05DF804FB3F
:1084840090B0012000B583B0034600918DF8073009
:108494009DF80730184620F006FA034683F00103DE
:1084A400DBB2002B01D008230CE0084B1B78022B15
:1084B40001D0082306E09DF807300099184620F003
:1084C40051FB0346184603B05DF804FB90B001204D
:1084D40000B585B001900B468DF8033013468DF836
:1084E400023006230393019B5B689B68002B09D031
:1084F400019B5B689B689DF802209DF8031001981E
:1085040098470390039B062B08D19DF802209DF801
:10851400033019460198FFF7F9F80390039B1846B6
:1085240005B05DF804FB00B583B001900B468DF8EF
:108534000330019B5B68DB68002B07D0019B5B6801
:10854400DB689DF803201146019898479DF8033095
:1085540019460198FFF726F900BF03B05DF804FB44
:1085640000B585B001900B468DF8033000238DF8DB
:108574000F30019B5B681B69002B0AD0019B5B6871
:108584001B699DF8032011460198984703468DF80E
:108594000F309DF80F30184605B05DF804FB00005D
:1085A40000B585B0FFF77CFE039028E00398FEF742
:1085B40095FC03468DF80A3000238DF80B3014E047
:1085C4009DF80B30002219460398FFF781FF0190B4
:1085D400019B002B04D00E4940F26A7018F040F859
:1085E4009DF80B3001338DF80B309DF80B209DF86E
:1085F4000A309A42E4D30398FEF7E4FC0390039B09
:10860400002BD3D100BF00BF05B05DF804FB00BF51
:1086140074B4040000B583B0FFF742FE01901EE07D
:108624000198FEF75BFC03468DF8023000238DF8B9
:1086340003300AE09DF8033019460198FFF773FFF1
:108644009DF8033001338DF803309DF803209DF825
:1086540002309A42EED30198FEF7B4FC0190019BDC
:10866400002BDDD100BF00BF03B05DF804FB82B076
:1086740003468DF807309DF8073003F01F03DBB283
:10868400184602B0704782B003468DF807309DF853
:1086940007305B0903F00303DBB2184602B07047EE
:1086A40082B003468DF807309DF80730DB09DBB252
:1086B400184602B0704782B00190019B1B7A18469D
:1086C40002B0704700B585B001900B468DF80330B9
:1086D400019B002B04D10F494FF4887017F0C0FFA1
:1086E4000198FFF7E8FF03461A469DF803309342CA
:1086F40001D3002309E0019B093303939DF8032070
:1087040013465B001344039A1344184605B05DF8FE
:1087140004FB00BF54B5040082B00190019B1B7898
:10872400184602B0704782B00190019B5B781846EE
:1087340002B0704700B585B001900B468DF8033048
:10874400019B002B04D10D4940F2431017F088FF20
:10875400019B5B789DF803209A4201D3002309E032
:10876400019B9B781A46019B134403939DF80330A5
:10877400039A1344184605B05DF804FB54B504008D
:1087840082B00190019B1B78184602B0704782B0FA
:108794000190019B184602B07047000000B583B0F9
:1087A4000190019B002B03D10449522017F058FF7C
:1087B400019B184603B05DF804FB00BF98B50400A4
:1087C40000B583B00190019B002B03D109495F20C0
:1087D40017F046FF019B1B68002B03D1054960205D
:1087E40017F03EFF019B1B680C33184603B05DF87D
:1087F40004FB00BF98B5040000B585B001900B469A
:108804008DF803300198FFF7C9FF0390039BDB69E0
:10881400002B06D0039BDB699DF8032011460198C9
:10882400984700BF05B05DF804FB00B585B0019022
:1088340000210198FFF746FF039000210398FFF7FA
:1088440079FF02900298FFF79BFF0346184605B094
:108854005DF804FB00B585B0019001210198FFF794
:1088640031FF039000210398FFF764FF0290029800
:10887400FFF786FF0346184605B05DF804FB00B514
:1088840085B0019001210198FFF71CFF039001219D
:108894000398FFF74FFF02900298FFF771FF03461A
:1088A400184605B05DF804FB00B589B00390029149
:1088B400029B5B781846FFF7DAFE0346012B28D1AA
:1088C400029B9B78062B24D10023059304AB184606
:1088D40002F0F2FA0790029B1979029BDA7805AB51
:1088E4000093079B0398FEF75BFC0690069B052B01
:1088F4000FD0059B3F2B03D90849C92017F0B0FEC0
:10890400029B0133059A0799184602F063FA03465D
:1089140000E00623184609B05DF804FB98B504008E
:1089240082B00190009100BF0623184602B0704740
:1089340000B585B0019000910198FFF72FFF0390D7
:108944000398FFF73DFF0290009B9B78212B11D1E8
:10895400009BB3F807309BB2072B01D006230BE032
:10896400009B581C029B0C330722194602F032FA72
:10897400034601E000BF0623184605B05DF804FB7A
:1089840000B585B0034600918DF807309DF8073097
:10899400002B01D0032316E0009B03930398FFF7F9
:1089A4000FFF0290029B1B78202B0BD1029B03F13B
:1089B4000C00029B02330722194622F071F800BF13
:1089C400002300E00623184605B05DF804FB000010
:1089D40000B58DB0019000910198FFF7DFFE0A9079
:1089E4000A98FFF7EDFE0990009B9A78099B1A708C
:1089F400009BB3F807309BB2DAB2099B5A70099B0B
:108A040002330693099B5B780793002308930023A2
:108A14008DF817300DF11703184603F019F806AB5B
:108A240019460020FFF708FD0B900B9B002B09D182
:108A3400094B03930A9B049303AB1946002002F0ED
:108A44001DFA0B909DF81730184603F017F80B9B8E
:108A540018460DB05DF804FB8589020000B585B0A9
:108A640001900198FFF79AFE03900398FFF7A8FE80
:108A74000290029B00229A82029B00229A61029B2E
:108A840000221A62029B0022DA66029B00221A6705
:108A9400029B00225A67029B00229A67029B03F101
:108AA4002802029B9A6600BF05B05DF804FB00B57E
:108AB40087B0019000910198FFF770FE059005982A
:108AC400FFF77EFE0490009B9B78202B04D0222B82
:108AD40010D000BF06237BE0009BB3F807309BB2A5
:108AE400072B01D0062373E000990198FFF770FF6C
:108AF40003466DE0009BB3F807309BB2002B01D016
:108B0400062365E0049B9B8A03F00103002B14BF3A
:108B1400012300238DF80F30009BB3F803309AB281
:108B2400049B9A82049B9B8A03F00103002B14BFCD
:108B3400012300238DF80E309DF80F209DF80E3090
:108B44009A4201D1002343E09DF80E30002B01D05E
:108B5400022300E003238DF80D309DF80D301946F3
:108B64000198FFF749FE9DF80E3083F00103DBB254
:108B7400002B2CD00198FFF76DFE03468DF80C30C6
:108B84009DF80C3018461EF037FC0198FFF777FE6D
:108B940003468DF80C309DF80C3018461EF02CFC62
:108BA400049B00229A61049B00221A62049B002207
:108BB400DA66049B00221A67049B00225A67049B0E
:108BC40000229A67049B03F12802049B9A660023FF
:108BD400184607B05DF804FB00B583B0019000911E
:108BE400019B002B04D124494FF4E47017F038FDA5
:108BF400009B002B04D1204940F2C91017F030FD2E
:108C0400009B5B781846FFF74BFD0346012B16D1FA
:108C1400009B5B781846FFF736FD0346002B02D015
:108C2400012B06D022E000990198FFF73DFE034690
:108C34001DE000990198FFF77BFE034617E0009BB7
:108C44005B781846FFF71FFD0346002B02D0012B6B
:108C540006D00BE000990198FFF762FE034606E098
:108C640000990198FFF723FF034600E00623184606
:108C740003B05DF804FB00BF98B5040086B0039010
:108C8400029101920093029B0593039B009A5A6000
:108C9400059BDB69009A9A421DD8059B9A69039B40
:108CA4001A60059B9A69009B1A44059B9A61059B6F
:108CB4001A6F009B1A44059B1A67059BDA69009B8F
:108CC400D21A059BDA61059BDB69002B14BF0123D3
:108CD4000023DBB208E0059B03F12802039B1A6022
:108CE400059B009A9A670023184606B07047000057
:108CF40000B58BB001900198FFF750FD08900898DB
:108D0400FFF75EFD07900198FFF7B9FD03468DF864
:108D14001B306C4B0393079B0493079BDB69002B6D
:108D240026D1079B1A6F079B5A67079B00221A6775
:108D3400079B0022DA66079B1B6A002B13D0079B54
:108D4400079A1833203292E8030083E80300079B54
:108D540000221A6203AA9DF81B3011461846FFF739
:108D640091FB0346A9E0079B00229A610023A4E03B
:108D7400079B9B6F0593059B0993079BDB69059AEA
:108D84009A4202D9079BDB690993079B9869079B61
:108D94002833099A194621F083FE079B1A6F099B11
:108DA4001A44079B5A67079B00221A67059A099B76
:108DB400D21A079BDA66079B03F12802099B1A441F
:108DC400079B9A66079B1B6A002B65D0079B079A33
:108DD4001833203292E8030083E80300079B002243
:108DE4001A6254E0079BDA6E079BDB699A4232D31E
:108DF400079B9869079B996E079BDB691A4621F0CC
:108E04004FFE079BDA6E079BDB69D21A079BDA6673
:108E1400079B9A6E079BDB691A44079B9A66079B1C
:108E2400DA69079B5A6700210198FFF7E5FC079B65
:108E34001B6A002B0BD0079B079A1833203292E849
:108E4400030083E80300079B00221A621FE0079BCC
:108E540000229A6123E0079B9869079B996E079B00
:108E6400DB6E1A4621F01CFE079BDA6E079B1A671D
:108E7400079BDA69079BDB6ED21A079BDA61079BB3
:108E84009A69079BDB6E1A44079B9A6107E0079B6C
:108E9400DB6E002BA6D102E0079B00229A61079BA0
:108EA4009B69002B08D003AA9DF81B301146184675
:108EB400FFF7E8FA034600E0002318460BB05DF81C
:108EC40004FB00BF818C020000B585B001900091C5
:108ED4000198FFF7AAFC03461A46009B9B789A4226
:108EE40001D1002334E0009B9B785BB2002B10DAA5
:108EF400009BDB78002B02D0032B06D007E0012176
:108F04000198FFF779FC002322E0002320E00323EB
:108F14001EE0009B9B785BB2002B18DB009BDB7888
:108F2400032B10D0032B10DC002B02D0012B0AD012
:108F34000BE00198FFF7DCFE039000210198FFF796
:108F44005BFC039B04E0002302E0032300E0062310
:108F5400184605B05DF804FB00B585B0019000919A
:108F6400019B002B04D1294940F2DD2017F078FB46
:108F7400009B002B04D1254940F2DE2017F070FB42
:108F840000230393009B1B780E2B35D801A252F8C3
:108F940023F000BF03900200D58F0200039002006B
:108FA40003900200FD8F0200DD8F0200E98F0200B2
:108FB400FD8F0200FD8F0200F58F0200FD8F02007D
:108FC4000390020003900200039002000390020049
:108FD4000198FFF743FD13E000990198FFF7FCFDAA
:108FE40003900DE000990198FFF76EFF039007E0EE
:108FF4000198FFF733FD03E00623039300E000BF6D
:10900400039B184605B05DF804FB00BF98B5040047
:1090140010B58AB003900291019200930298FFF771
:109024004AFB03461A46C34B1A700298FFF7B6FB75
:109034000990039B002B04D1BF4940F20F3017F075
:109044000FFB019B059300230693009B0793039B4F
:109054000893089B1B68002B00F00C8140F28E32B1
:10906400934200F2D88640F212329342C0F0D38683
:10907400A3F212337C2B00F2CE8601A252F823F025
:1090840097920200CD9202000593020043930200DE
:1090940079930200AF930200E79302001D9402004B
:1090A4001B9E02001B9E02001B9E02001B9E0200D0
:1090B4001B9E02001B9E02005D940200939402001A
:1090C4001B9E02001B9E02001B9E02001B9E0200B0
:1090D400E59402001B9502005B9502001B9E0200B2
:1090E4001B9E02001B9E0200A5950200DB95020058
:1090F400139602001B9E02001B9E02001B9E020090
:109104001B9E02005D9602009B960200CF96020011
:109114001B9E02001B9E02001B9E02001B9E02005F
:109124001B9E02001B9E02000F9702001B9E020062
:109134001B9E02001B9E02001B9E02005997020008
:109144008D970200C1970200F5970200299802004A
:109154001B9E02001B9E02005D9802009198020073
:10916400C5980200F9980200379902001B9E02007C
:109174001B9E02006B9902009F990200D399020082
:10918400079A02001B9E02001B9E02003B9A0200EB
:109194006F9A0200A39A0200D99A02000F9B020060
:1091A4001B9E02001B9E02001B9E02001B9E0200CF
:1091B4001B9E02001B9E02001B9E02001B9E0200BF
:1091C4001B9E02001B9E02001B9E02001B9E0200AF
:1091D4001B9E02001B9E02001B9E02001B9E02009F
:1091E4001B9E02001B9E02001B9E02007D9B020030
:1091F400B19B02001B9E02001B9E02001B9E0200EC
:10920400059C02001B9E02001B9E02001B9E020086
:109214001B9E02004D9C02001B9E02001B9E02002E
:109224001B9E02001B9E0200979C02001B9E0200D4
:109234001B9E02001B9E02001B9E02001B9E02003E
:109244001B9E0200D79C02000B9D02001B9E020085
:109254001B9E02001B9E02001B9E0200579D0200E3
:109264001B9E02001B9E02001B9E02001B9E02000E
:10927400B79D0200089B08221A71069A079B9A421E
:1092840006D3089B40F212321A60012300F0C7BDD6
:1092940000BF059B002B05D0089A0599069B0B443B
:1092A40012791A70069B01330693089B0B221A71DC
:1092B400069A079B9A4206D3089B40F213321A601F
:1092C400012300F0ACBD00BF059B002B05D0089A1C
:1092D4000599069B0B4412791A70069B0133069379
:1092E400089B099A127D1A71069A079B9A4206D323
:1092F400089B4FF445721A60012300F090BD00BF33
:10930400059B002B05D0089A0599069B0B441279FE
:109314001A70069B01330693089B02221A71069A5F
:10932400079B9A420AD3089B40F215321A60012324
:1093340000F075BDA8B0012098B5040000BF059BDE
:10934400002B05D0089A0599069B0B4412791A70D4
:10935400069B01330693089B02221A71069A079B07
:109364009A4206D3089B40F216321A60012300F099
:1093740056BD00BF059B002B05D0089A0599069B96
:109384000B4412791A70069B01330693089B022240
:109394001A71069A079B9A4206D3089B40F2173229
:1093A4001A60012300F03BBD00BF059B002B05D0D4
:1093B400089A0599069B0B4412791A70069B01338F
:1093C4000693089B099A527E1A71069A079B9A4241
:1093D40006D3089B4FF446721A60012300F01FBDA8
:1093E40000BF059B002B05D0089A0599069B0B44EA
:1093F40012791A70069B01330693089B00221A7196
:10940400069A079B9A4206D3089B40F219321A60C7
:10941400012300F004BD00BF059B002B05D0089A72
:109424000599069B0B4412791A70069B0133069327
:10943400964B00221A7000F0E1BC089B09221A71B5
:10944400069A079B9A4206D3089B4FF448721A6007
:10945400012300F0E4BC00BF059B002B05D0089A53
:109464000599069B0B4412791A70069B01330693E7
:10947400089B04221A71069A079B9A4206D3089BFA
:1094840040F221321A60012300F0C9BC00BF059BE1
:10949400002B05D0089A0599069B0B4412791A7083
:1094A400069B01330693794B1B7819460298FFF704
:1094B40009F90346764A1360754B1B68089C1846E5
:1094C400FFF72AF903462371069A079B9A4206D3AB
:1094D400089B40F226321A60012300F0A0BC00BFB2
:1094E400059B002B05D0089A0599069B0B4412791D
:1094F4001A70069B01330693089B00221A71069A80
:10950400079B9A4206D3089B40F227321A60012334
:1095140000F085BC00BF059B002B05D0089A059977
:10952400069B0B4412791A70069B01330693584B21
:109534001B68089C1846FFF7F6F803462371069A41
:10954400079B9A4206D3089B4FF44A721A60012380
:1095540000F065BC00BF059B002B05D0089A059957
:10956400069B0B4412791A70069B01330693099BE0
:109574001C7D474B1B681846FFF7CEF803469C42F8
:1095840052D1089B02221A71069A079B9A4206D36B
:10959400089B4FF44B721A60012300F040BC00BFDB
:1095A400059B002B05D0089A0599069B0B4412795C
:1095B4001A70069B01330693089B02221A71069ABD
:1095C400079B9A4206D3089B40F22D321A6001236E
:1095D40000F025BC00BF059B002B05D0089A059917
:1095E400069B0B4412791A70069B01330693089B61
:1095F400099A527E1A71069A079B9A4206D3089BCF
:1096040040F22E321A60012300F009BC00BF059B12
:10961400002B05D0089A0599069B0B4412791A7001
:10962400069B0133069362E0099B9C7D184B1B68E3
:109634001846FFF771F803469C4253D1089B0A224F
:109644001A71069A079B9A4205D3089B40F233325B
:109654001A600123E3E300BF059B002B05D0089AA1
:109664000599069B0B4412791A70069B01330693E5
:10967400089B00221A71069A079B9A420AD3089BF8
:109684004FF44D721A600123C9E300BFA9B0012051
:10969400ACB0012000BF059B002B05D0089A0599AA
:1096A400069B0B4412791A70069B01330693089BA0
:1096B40000221A71069A079B9A4205D3089B40F22E
:1096C40035321A600123AAE300BF059B002B05D0A5
:1096D400089A0599069B0B4412791A70069B01336C
:1096E400069304E0904940F2393016F0B9FF089B24
:1096F40000221A71069A079B9A4205D3089B4FF4DD
:109704004F721A6001238AE300BF059B002B05D02A
:10971400089A0599069B0B4412791A70069B01332B
:109724000693099B1C7D814B1B681846FEF7F4FFCA
:1097340003469C4240F0F681089B05221A71069A62
:10974400079B9A4205D3089B40F241321A600123D9
:1097540065E300BF059B002B05D0089A0599069B7D
:109764000B4412791A70069B01330693089B24223A
:109774001A71069A079B9A4205D3089B40F242321B
:109784001A6001234BE300BF059B002B05D0089A08
:109794000599069B0B4412791A70069B01330693B4
:1097A400089B00221A71069A079B9A4205D3089BCC
:1097B40040F243321A60012331E300BF059B002BC2
:1097C40005D0089A0599069B0B4412791A70069BDA
:1097D40001330693089B10221A71069A079B9A423A
:1097E40005D3089B4FF451721A60012317E300BF9D
:1097F400059B002B05D0089A0599069B0B4412790A
:109804001A70069B01330693089B01221A71069A6B
:10981400079B9A4205D3089B40F245321A60012304
:10982400FDE200BF059B002B05D0089A0599069B15
:109834000B4412791A70069B01330693089B052288
:109844001A71069A079B9A4205D3089B4FF45272E9
:109854001A600123E3E200BF059B002B05D0089AA0
:109864000599069B0B4412791A70069B01330693E3
:10987400089B24221A71069A079B9A4205D3089BD7
:1098840040F249321A600123C9E200BF059B002B54
:1098940005D0089A0599069B0B4412791A70069B09
:1098A40001330693089B01221A71069A079B9A4278
:1098B40005D3089B40F24A321A600123AFE200BF8D
:1098C400059B002B05D0089A0599069B0B44127939
:1098D4001A70069B01330693089B03221A71069A99
:1098E400079B9A4205D3089B40F24B321A6001232E
:1098F40095E200BF059B002B05D0089A0599069BAD
:109904000B4412791A70069B01330693089B099A3B
:10991400927D1A71069A079B9A4209D3089B4FF4C9
:1099240053721A6001237AE298B50400ACB00120A6
:1099340000BF059B002B05D0089A0599069B0B4494
:1099440012791A70069B01330693089B04221A713C
:10995400069A079B9A4205D3089B40F24F321A603D
:1099640001235CE200BF059B002B05D0089A0599F2
:10997400069B0B4412791A70069B01330693089BCD
:1099840024221A71069A079B9A4205D3089B4FF426
:1099940054721A60012342E200BF059B002B05D0DC
:1099A400089A0599069B0B4412791A70069B013399
:1099B4000693089B02221A71069A079B9A4205D3C2
:1099C400089B40F251321A60012328E200BF059B34
:1099D400002B05D0089A0599069B0B4412791A703E
:1099E400069B01330693089B02221A71069A079B71
:1099F4009A4205D3089B40F252321A6001230EE2C8
:109A040000BF059B002B05D0089A0599069B0B44C3
:109A140012791A70069B01330693089B05221A716A
:109A2400069A079B9A4205D3089B40F255321A6066
:109A34000123F4E100BF059B002B05D0089A05998A
:109A4400069B0B4412791A70069B01330693089BFC
:109A540024221A71069A079B9A4205D3089B40F266
:109A640056321A600123DAE100BF059B002B05D0B2
:109A7400089A0599069B0B4412791A70069B0133C8
:109A84000693089B06221A71069A079B9A4205D3ED
:109A9400089B40F257321A600123C0E100BF059BC6
:109AA400002B05D0089A0599069B0B4412791A706D
:109AB400069B01330693089B099A127D1A71069A34
:109AC400079B9A4205D3089B4FF456721A600123F0
:109AD400A5E100BF059B002B05D0089A0599069BBC
:109AE4000B4412791A70069B01330693089B099A5A
:109AF400927D1A71069A079B9A4205D3089B40F2FD
:109B040059321A6001238AE100BF059B002B05D05E
:109B1400089A0599069B0B4412791A70069B013327
:109B240006930EE0099B9C7D9C4B1B681846FEF730
:109B3400F3FD03469C4204D0994940F2623016F08A
:109B44008FFD964B1B681846FEF7EDFD03461A463B
:109B5400944B1A70944B00221A7042E1089B07221E
:109B64001A71069A079B9A4205D3089B40F26D32FC
:109B74001A60012353E100BF059B002B05D0089A0E
:109B84000599069B0B4412791A70069B01330693C0
:109B9400089B05221A71069A079B9A4205D3089BD3
:109BA40040F26E321A60012339E100BF059B002B9D
:109BB40005D0089A0599069B0B4412791A70069BE6
:109BC40001330693754B1B68774A12781146184681
:109BD400FEF7B0FD0346754A1360744B1B68089C7E
:109BE4001846FEF7CDFD03462371069A079B9A4259
:109BF40005D3089B40F272321A6001230FE100BFC3
:109C0400059B002B05D0089A0599069B0B441279F5
:109C14001A70069B01330693099B1C7D5F4B1B68DE
:109C24001846FEF779FD03469C421AD1089B03228D
:109C34001A71069A079B9A4205D3089B40F2773221
:109C44001A600123EBE000BF059B002B05D0089AA6
:109C54000599069B0B4412791A70069B01330693EF
:109C640029E0099B9C7D4D4B1B681846FEF754FD6B
:109C740003469C421AD1089B02221A71069A079B3A
:109C84009A4205D3089B4FF45F721A600123C6E021
:109C940000BF059B002B05D0089A0599069B0B4431
:109CA40012791A70069B0133069304E03C494FF481
:109CB400607016F0D5FC089B40221A71069A079B27
:109CC4009A4205D3089B40F283321A600123A6E02E
:109CD40000BF059B002B05D0089A0599069B0B44F1
:109CE40012791A70069B01330693089B00221A719D
:109CF400069A079B9A4205D3089B4FF461721A6037
:109D040001238CE000BF059B002B05D0089A059920
:109D1400069B0B4412791A70069B01330693099B28
:109D24001C7D1E4B1B681846FEF7F6FC03469C423E
:109D34001CD1099B1A6A089B12781A71069A079B10
:109D44009A4205D3089B40F289321A60012366E0E7
:109D540000BF059B002B05D0089A0599069B0B4470
:109D640012791A70069B0133069334E0099B9C7D9B
:109D74000A4B1B681846FEF7CFFC03469C4225D1CC
:109D8400089B00221A71069A079B9A4210D3089BDB
:109D940040F28E321A60012341E000BFACB00120D2
:109DA40098B50400B0B00120B1B00120B4B00120D6
:109DB40000BF059B002B05D0089A0599069B0B4410
:109DC40012791A70069B0133069304E0154940F298
:109DD400923016F045FC144B1B780133DAB2124B67
:109DE4001A70114B1A78114B1B789A42FFF4B6AED5
:109DF4000F4B1B780133DAB20D4B1A700C4B1A78E7
:109E04000C4B1B789A42FFF418AB089B40F2993232
:109E14001A60012303E0089B00221A6000231846FD
:109E24000AB010BD98B50400B1B00120B0B0012053
:109E3400A9B00120A8B0012000B58FB00390029111
:109E440001920398FEF7A3FC0D900398FEF7B8FC6B
:109E54000C900C9B9B8A03F00103002B14BF01237D
:109E640000238DF82F309DF82F3083F00103DBB2EF
:109E7400002B01D0082327E00D98FEF7EBFC0346E6
:109E84008DF82E30019B03F03F03002B0ED1029B73
:109E94000893019B099301230A9308AA9DF82E3085
:109EA40011461846FEF7C8FA03460DE0029B0593D7
:109EB400019B06930023079305AA9DF82E301146B3
:109EC4001846FEF7B9FA034618460FB05DF804FBCE
:109ED40000B58BB0039002910192029B002B04D138
:109EE400454940F2D63016F0BBFB0398FEF768FCF8
:109EF4000890089B9B8A03F00103002B01D10823DF
:109F040075E0089B9B69002B61D1089BDB6E019A6D
:109F14009A4218D8089B9B6E019A1946029820F021
:109F2400BFFD089BDA6E019BD21A089BDA66089B78
:109F34009A6E019B1A44089B9A66089B019A5A6779
:109F44000023099352E0089B029A9A61089B019AA4
:109F5400DA610398FEF71BFC03461846FEF78FFCF4
:109F640003468DF81F30254B0593089B0693089BE9
:109F7400DB6E002B1DD0089B9869089B996E089B8B
:109F8400DB6E1A4620F08CFD089BDA69089BDB6EB9
:109F9400D21A089BDA61089B9A69089BDB6E1A4403
:109FA400089B9A61089BDA6E089B1A67089B00223B
:109FB400DA6605AA9DF81F3011461846FEF762FAC4
:109FC4000990099B002B11D1922309930EE0089B61
:109FD4001B6A002B08D1089B029A1A62089B019AFB
:109FE4005A629223099301E011230993099B1846AD
:109FF4000BB05DF804FB00BF98B50400818C02002F
:10A0040082B00190019B03F1804303F51C33184691
:10A0140002B0704700B583B003468DF807309DF851
:10A0240007301846FFF7ECFF034601221A60BFF31E
:10A034006F8F00BFBFF34F8F00BF00BF03B05DF849
:10A0440004FB0000044B1B68082B0CBF01230023F6
:10A05400DBB21846704700BF3001001008B5FFF7A7
:10A06400F1FF0346002B05D0054B1B68002B01D0E4
:10A07400012300E0002303F00103DBB2184608BD0E
:10A084003401001008B5FFF7E9FF0346002B14BFA5
:10A0940001230023DBB283F00103DBB203F00103ED
:10A0A400DBB2184608BD82B003468DF807309DF830
:10A0B400073003F01F03DBB2184602B0704782B0CA
:10A0C40003468DF807309DF807305B0903F003035E
:10A0D400DBB2184602B0704782B003468DF80730F1
:10A0E4009DF80730DB09DBB2184602B0704782B036
:10A0F4000190019B1B7A184602B0704782B0019010
:10A10400019B1B68184602B07047000000B583B07D
:10A114000190019B002B04D1064940F2432016F024
:10A124009FFA0198FFF7EAFF03461B68184603B03D
:10A134005DF804FB34B6040082B00190019B1B78E7
:10A14400184602B07047000000B583B003468DF88E
:10A1540007300E4B1B789DF807209A4211D00B4A0A
:10A164009DF8073013709DF80730052B06D0084B77
:10A174001B7823F00203DAB2054B1A700548FDF789
:10A184007BFC00BF03B05DF804FB00BFB8B0012046
:10A19400B9B0012074B70400014B1B78184670470E
:10A1A400B8B001204FF08043D3F8383403F00103F2
:10A1B400002B14BF01230023DBB2184670470000B4
:10A1C400024B00221A6000BF704700BF00B101209B
:10A1D40000B585B003468DF807300B4B1B6803931D
:10A1E400039B002B0AD0FFF7EBFF074B59689DF840
:10A1F4000720039B10469847034600E00E231846A9
:10A2040005B05DF804FB00BF00B10120044B1B68DE
:10A21400002B14BF01230023DBB21846704700BF94
:10A2240000B1012082B0034600918DF8073000236D
:10A23400184602B07047000010B58EB0039002912A
:10A24400019201238DF83730029B0993099B5B68C7
:10A25400002B15D1099B1B681846FFF757FF0346CF
:10A26400002B0DD1099B9B68002B09D100238DF88D
:10A274003730039B00221A60039B00225A60AAE035
:10A28400019B402B04D956494FF4CB7016F0E8F9E2
:10A2940000230C9300238DF82B301EF0D5FC08907E
:10A2A400099BDB68019A934228BF13460B9386E00F
:10A2B400099B9B680B9A934228BF13460793099BFB
:10A2C4005B68002B0CD0089A0C9BD018099B5B6828
:10A2D400079A194620F0E4FB099B00225A6014E017
:10A2E400099B9B68002B10D0099B1B685B685C680A
:10A2F400099B03F11000099B1968089A0C9B1A44E6
:10A30400079BA04701238DF82B30099B9A68079B74
:10A31400D21A099B9A60099BDA68079BD21A099B97
:10A32400DA600B9A079BD31A0B930C9A079B13447E
:10A334000C93099B9B68002B0BD19DF82B30002BB1
:10A3440007D0099B1B681846FFF7E0FE0246099BED
:10A354001A60099BDB68002B03D100238DF837308A
:10A364002DE0099B9B68002B29D1099B1B68002BBE
:10A374000DD1099B00225A600C9B002B24D00C9A0F
:10A38400019B9A4220D200238DF837301CE0002331
:10A39400059304E0099B9B685A1C099B9A60099BDE
:10A3A4001B685B685C68099B196805A80123002287
:10A3B400A0470346002BEDD1099B00221A610B9B99
:10A3C400002B7FF475AF00E000BF039B089A1A606E
:10A3D400039B0C9A5A609DF8373018460EB010BD96
:10A3E400A8B6040000B587B00190019B5B781846BD
:10A3F400FFF765FE0346002B01D006237FE0019B97
:10A404005B798DF81730FFF7C7FE03468DF81630D9
:10A41400019B9B78032B29D0032B6ADC002B02D0F1
:10A42400012B42D065E09DF81630052B05D09DF830
:10A43400173003F00F03002B16D103AB184600F0BE
:10A444003BFD04909DF8173018461EF04BFC034664
:10A454009AB2049B1A80019B013302220499184684
:10A4640000F0B8FC03464AE0082348E09DF81730A2
:10A4740003F00803002B3ED1019BB3F803309BB2D9
:10A48400002B38D19DF81630052B05D09DF81730D8
:10A4940003F00F03002B06D19DF8173018461EF069
:10A4A400ECFB00232BE0082329E09DF8173003F090
:10A4B4000803002B21D1019BB3F803309BB2002B7E
:10A4C4001BD19DF81630052B05D09DF8173003F0ED
:10A4D4000F03002B0BD19DF8173018461EF015FC06
:10A4E4009DF8173018461EF0DAFB002307E0082316
:10A4F40005E000BF02E000BF00E000BF06231846ED
:10A5040007B05DF804FB00B58BB003900B460192D5
:10A514008DF80B30019B5B781846FFF7D0FD03469E
:10A52400002B01D006236AE0FFF736FE03468DF8C0
:10A534002730019B5B781846FFF7CEFD0346012BBD
:10A544003BD1019B9B78002B02D00A2B17D055E0FE
:10A554009DF82730052B01D0082350E006AB1846A0
:10A5640000F0AAFC0790079B00221A80019B01338C
:10A5740002220799184600F02DFC03463FE09DF89F
:10A584002730052B01D0082339E005AB184600F02D
:10A5940093FC08909DF80B3019460398FDF7E0FFF3
:10A5A40003461A46089B1A70019B0133012208993D
:10A5B400184600F00FFC034621E0019B9B780B2B0F
:10A5C4001BD19DF82730052B01D0082317E0019BF0
:10A5D400B3F803309BB2FF2B01D907230FE0019B93
:10A5E400DB788DF826309DF826209DF80B3019462F
:10A5F4000398FDF76DFF034601E000BF06231846EC
:10A604000BB05DF804FB000000B585B0019000912B
:10A6140002AB184600F050FC0390029B012B04D8B7
:10A6240018494FF4257016F01BF8022200210398F4
:10A6340020F05FFAC02303F04003002B06D0039BF5
:10A644001B7843F00103DAB2039B1A700E4B1B789C
:10A654005B08DBB203F00103002B06D0039B1B78DD
:10A6640043F00203DAB2039B1A70009B0133022207
:10A674000399184600F0AEFB0346184605B05DF892
:10A6840004FB00BFA8B60400B9B0012010B590B017
:10A6940001900091009B1B79032B00F0C380032BD6
:10A6A40000F3EE80012B02D0022B11D0E8E0009BD6
:10A6B400B3F807309BB2002B01D10023E2E0009BEA
:10A6C400013312227149184600F084FB0346D9E095
:10A6D400009BB3F807309BB2002B01D10023D1E0DB
:10A6E400009BB3F807309BB2092B28BF09239BB208
:10A6F400089309230F9300238DF83B30FDF7D0FD19
:10A704000D9037E00D9B5B68002B04D1604940F24B
:10A71400C62015F0A5FF0D9B5B685B68002B04D178
:10A724005B4940F2C72015F09BFF00230C930023E4
:10A73400049302E00C9B01330C930D9B5B685C68F3
:10A7440004A8012300220D99A0470346002BF1D150
:10A754000F9A0C9B13440F930D98FFF7C8FC034604
:10A764001A469DF83B3013448DF83B300D98FFF7A3
:10A77400CDFC0D900D9B002BC4D106AB184600F008
:10A784009BFB0790069B089A9A4204D940494FF4D0
:10A79400377015F065FF089A3E49079820F080F954
:10A7A400079B9DF83B201A710F9B9AB2079B5A8016
:10A7B400FDF73EFD0346002B06D0079BDB7943F0F3
:10A7C4002003DAB2079BDA71FDF76AFD0346324AC9
:10A7D4001360314A079B53602F4A089B9360009B88
:10A7E400B3F807309BB21A462B4BDA6000238DF87E
:10A7F4000F300DF10F03184601F02AF92749802084
:10A80400FDF740FE0B900B9B002B04D124498020C4
:10A8140000F034FB0B909DF80F30184601F02EF930
:10A824000B9B2FE0009BB3F807309BB2002B01D1A8
:10A83400002327E0009BDB788DF82B30009B5A79AE
:10A844009B791B021343ADF82830BDF828209DF8EE
:10A854002B301146184601F01DF80990099B002B76
:10A8640001D106230EE0009B5C1C0998FFF764FCF1
:10A8740003461A460999204600F0ACFA034601E063
:10A8840000BF0623184610B010BD00BF20B7040057
:10A89400A8B6040034B7040014B101206CB7040056
:10A8A40064B7040000B587B00190009103AB18466B
:10A8B40000F002FB0590FFF76FFC03468DF81330A0
:10A8C4009DF81330052B03D1059B01221A7009E072
:10A8D4009DF81330042B03D1059B00221A7001E06C
:10A8E400062307E0009B013301220599184600F076
:10A8F40071FA0346184607B05DF804FB00B585B04D
:10A9040001900091FFF748FC03468DF80F309DF845
:10A914000F30052B05D09DF80F30042B01D00823F0
:10A9240016E0009BDB78002B05D1FDF773FE0420B5
:10A93400FFF70AFC0BE0009BDB78012B05D1FDF748
:10A944002FFE0520FFF700FC01E0072300E00023B1
:10A95400184605B05DF804FB00B583B00190009182
:10A96400019B002B04D1504940F25D3015F078FE74
:10A97400009B002B04D14C4940F25E3015F070FE70
:10A98400009B5B781846FFF79AFB0346002B01D027
:10A99400062385E0009B5B781846FFF79DFB034682
:10A9A400012B1FD1009B9B78082B12D0082B16DC9F
:10A9B400002B02D0062B06D011E000990198FFF776
:10A9C40023FE03466CE000990198FFF75FFE0346FF
:10A9D40066E000990198FFF765FF034660E000BF59
:10A9E40006235DE0009B9B78013B082B52D801A213
:10A9F40052F823F05BAA020099AA020029AA0200D5
:10AA040099AA02001DAA020099AA020099AA0200AA
:10AA140099AA02008DAA0200234940F2813015F060
:10AA24001FFE3CE0009BB3F803309BB2012B33D1F3
:10AA3400FDF7FEFB034683F00103DBB2002B01D0DC
:10AA44000F232DE0194B1B7843F00203DAB2174BA6
:10AA54001A70002324E0009BB3F803309BB2012B4F
:10AA64001CD1FDF7E5FB034683F00103DBB2002BA9
:10AA740001D00F2314E00D4B1B7823F00203DAB24C
:10AA84000A4B1A7000230BE000990198FFF736FF78
:10AA9400034605E000BF02E000BF00E000BF06235C
:10AAA400184603B05DF804FBA8B60400B9B0012051
:10AAB40000B58BB001900623099305238DF810305F
:10AAC40004AB013318461EF02FF9FFF79FFBFFF785
:10AAD40077FB9DF811301846FFF7E5FA0346032B80
:10AAE40063D801A252F823F0FDAA02001BAB0200B6
:10AAF40069AB0200A3AB020004AB19460198FFF74F
:10AB04002BFF0990099B062B51D104AB1846FDF786
:10AB140074FC09904BE09DF815308DF822300DF14E
:10AB24000F029DF8223011461846FDF7CBFB079023
:10AB3400079B002B02D1102309933AE09DF80F30B4
:10AB440004AA19460798FDF701FC0990099B062BF6
:10AB54002FD19DF80F3004AA19460798FFF7D3FCAC
:10AB6400099026E0062309939DF815308DF82330CB
:10AB74009DF8233003F00F03002B07D004AA9DF89F
:10AB8400233011461846FDF7F1FB0990099B062B6B
:10AB940011D104AB1846FFF725FC09900BE004AB78
:10ABA4001846FDF72AFC099006E000BF04E000BF48
:10ABB40002E000BF00E000BF099B002B0FD1FFF7AC
:10ABC40025FB0346002B07D01EF006F90346002B95
:10ABD40007D11EF0D3F804E01EF0F2F801E01EF0F5
:10ABE400F5F8099B18460BB05DF804FB00B585B079
:10ABF4000190009106230393009B1B780E2B25DC08
:10AC0400002B40F3C580013B0D2B00F2C18001A253
:10AC140052F823F057AC02005FAC020065AC0200AE
:10AC240095AD0200ABAC02002DAD020095AD020063
:10AC340095AD020095AD020095AD0200B5AC0200E1
:10AC4400CFAC0200EFAC02000DAD0200852B1DD08D
:10AC54009EE00320FFF778FAA1E0002303939EE02F
:10AC6400514801F012FC0346002B02D05C20FFF790
:10AC7400D1F9FFF791FA0346002B04D14B4940F276
:10AC8400374015F0EDFC0023039388E0FFF784FAC6
:10AC940003468DF80B309DF80B30032B7AD104203A
:10ACA400FFF752FA76E00198FFF702FF039076E08F
:10ACB400FFF772FA0346002B04D03C4940F24B40A4
:10ACC40015F0CEFC0023039369E0FFF765FA034611
:10ACD400012B04D0354940F2514015F0C1FC00204D
:10ACE400FFF732FA0023039359E0FFF75BFA0346B8
:10ACF400002B03D00220FFF727FA02E00120FFF720
:10AD040023FA002303934AE0FFF746FA0346012B94
:10AD140004D8264940F2654015F0A2FC0120FFF753
:10AD240013FA002303933AE0009BDB78032B33D020
:10AD3400009B9B78002B08D0009B9B78802B04D031
:10AD44001A4940F2734015F08BFC009BDB781846DF
:10AD5400FFF73EFA0390039B002B16D1FFF756FA38
:10AD64000346002B06D0009B9B78002B16D11EF0C7
:10AD740005F813E0FFF786F9034683F00103DBB21D
:10AD8400002B0BD01EF01CF808E01EF01FF805E0A5
:10AD940000BF04E000BF02E000BF00E000BF039B6F
:10ADA400184605B05DF804FBBCB00120A8B6040049
:10ADB40008B50020FDF748FA8020FDF745FA00BFEA
:10ADC40008BD08B50020FDF75DFA8020FDF75AFAAA
:10ADD40000BF08BD00B58DB0039002910192039BA2
:10ADE400DB889BB20A93019A0A9B934228BF1346BD
:10ADF4000993019A0A9B9A420ED280201DF042FDCB
:10AE040003461A46019BB3FBF2F101FB02F29B1AC3
:10AE1400002B01D1012300E000238DF823309DF89D
:10AE2400233003F001038DF82330029B0593099B23
:10AE340006939DF82330079300238DF813300DF10A
:10AE44001303184600F004FE05AB19468020FDF7F5
:10AE5400F3FA0B900B9B002B04D10749802000F0E0
:10AE64000DF80B909DF81330184600F007FE0B9B6D
:10AE740018460DB05DF804FB64B7040000B583B058
:10AE8400034600918DF807301DF0A6FF03461A46CD
:10AE94009DF80730934201D0102306E0054B009A39
:10AEA40092E8030083E803000023184603B05DF82A
:10AEB40004FB00BF00B1012082B00190019B002B74
:10AEC40002D0019B40221A60014B184602B0704721
:10AED400C0B0012082B003468DF807309DF80730DA
:10AEE40003F01F03DBB2184602B0704782B003467A
:10AEF4008DF807309DF807305B0903F00303DBB2DC
:10AF0400184602B0704782B003468DF807309DF8AA
:10AF14000730DB09DBB2184602B0704782B00190FB
:10AF2400019B1B7A184602B07047000000B585B03B
:10AF340001900B468DF80330019B002B04D10F497F
:10AF44004FF4887015F08CFB0198FFF7E7FF034678
:10AF54001A469DF80330934201D3002309E0019B74
:10AF6400093303939DF8032013465B001344039AAB
:10AF74001344184605B05DF804FB00BF78B704001D
:10AF840082B00190019B1B78184602B07047000004
:10AF940000B583B00190019B002B03D104494E20DE
:10AFA40015F05EFB019B184603B05DF804FB00BF7F
:10AFB400BCB7040000B583B00190019B002B03D102
:10AFC40009495C2015F04CFB019B1B68002B03D145
:10AFD40005495D2015F044FB019B1B680C331846A2
:10AFE40003B05DF804FB00BFBCB7040000B589B032
:10AFF40003900291029B5B781846FFF76BFF0346B0
:10B00400012B28D1029B9B78062B24D10023059386
:10B0140004AB1846FFF750FF0790029B1979029B77
:10B02400DA7805AB0093079B0398FCF7B9F8069010
:10B03400069B052B0FD0059B3F2B03D908497F2086
:10B0440015F00EFB029B0133059A07991846FFF78A
:10B05400C1FE034600E00623184609B05DF804FB70
:10B06400BCB7040082B00190009100BF06231846CB
:10B0740002B0704700B585B001900B468DF80330DF
:10B084000198FFF785FF0390039B1B6A002B06D0F2
:10B09400039B1B6A9DF8032011460198984700BF43
:10B0A40005B05DF804FB00B585B0019000910198EE
:10B0B400FFF76EFF0390009B9B78072B04D0082BAF
:10B0C40014D000BF06231BE0009BB3F807309BB2EB
:10B0D400182B01D0062313E0009B581C039BDB694B
:10B0E40018221946FFF776FE034609E0009B581C18
:10B0F400039B9969039BDB681A46FFF76BFE0346C3
:10B10400184605B05DF804FB00B585B001900091C8
:10B114000198FFF73DFF03900398FFF74BFF029060
:10B12400009B9B78002B08D1029B01221A700021FE
:10B134000198FFF79FFF002301E000BF0623184694
:10B1440005B05DF804FB000000B583B001900091E8
:10B15400019B002B04D124494FF4807015F080FA30
:10B16400009B002B04D1204940F2011015F078FA1D
:10B17400009B5B781846FFF7C6FE0346012B16D1E9
:10B18400009B5B781846FFF7B1FE0346002B02D004
:10B19400012B06D022E000990198FFF727FF034610
:10B1A4001DE000990198FFF77EFF034617E0009B1E
:10B1B4005B781846FFF79AFE0346002B02D0012B5A
:10B1C40006D00BE000990198FFF74CFF034606E018
:10B1D40000990198FFF798FF034600E006231846FC
:10B1E40003B05DF804FB00BFBCB7040000B585B034
:10B1F40001900091019B002B04D1224940F22510BB
:10B2040015F02EFA009B002B04D11E494FF49370C5
:10B2140015F026FA00230393009B1B780E2B27D8E6
:10B2240001A252F823F000BF7BB202007BB20200FD
:10B234007BB202007BB2020075B2020069B2020066
:10B244007BB2020075B2020075B2020075B2020050
:10B2540075B202007BB202007BB202007BB2020034
:10B264007BB2020000990198FFF76EFF039003E0A0
:10B274000623039300E000BF039B184605B05DF866
:10B2840004FB00BFBCB7040010B58AB00390029160
:10B294000192009300210298FFF748FE03469B4A5F
:10B2A40013600298FFF774FE0990039B002B04D1EE
:10B2B40097494FF4AA7015F0D3F9019B0593002325
:10B2C4000693009B0793039B0893089B1B68002B22
:10B2D4003AD0B3F5B67F80F02C82B3F5AB7F40F261
:10B2E4002882A3F25713142B00F2238201A252F8EE
:10B2F40023F000BF69B302009DB30200DBB3020078
:10B304000FB4020043B4020077B40200ABB40200ED
:10B31400DFB402001BB5020037B7020037B70200E2
:10B324004FB5020083B50200B7B5020037B702007B
:10B33400EFB502002BB6020063B602009FB602000E
:10B34400D7B6020013B70200089B09221A71069AA5
:10B35400079B9A4205D3089B40F257121A600123B7
:10B36400EBE100BF059B002B05D0089A0599069BCD
:10B374000B4412791A70069B01330693089B04222E
:10B384001A71069A079B9A4205D3089B4FF4AC7234
:10B394001A600123D1E100BF059B002B05D0089A58
:10B3A4000599069B0B4412791A70069B0133069388
:10B3B400564B1B68089C1846FFF7E2FD03462371B1
:10B3C400069A079B9A4205D3089B40F259121A60C9
:10B3D4000123B2E100BF059B002B05D0089A059913
:10B3E400069B0B4412791A70069B01330693089B43
:10B3F40000221A71069A079B9A4205D3089B4FF4C0
:10B40400AD721A60012398E100BF059B002B05D0A3
:10B41400089A0599069B0B4412791A70069B01330E
:10B424000693089B00221A71069A079B9A4205D339
:10B43400089B40F25B121A6001237EE100BF059B6A
:10B44400002B05D0089A0599069B0B4412791A70B3
:10B45400069B01330693089BFF221A71069A079BE9
:10B464009A4205D3089B4FF4AE721A60012364E13B
:10B4740000BF059B002B05D0089A0599069B0B4439
:10B4840012791A70069B01330693089B01221A71E4
:10B49400069A079B9A4205D3089B40F25D121A60F4
:10B4A40001234AE100BF059B002B05D0089A0599AA
:10B4B400069B0B4412791A70069B01330693089B72
:10B4C40001221A71069A079B9A4205D3089B4FF4EE
:10B4D400AF721A60012330E100BF059B002B05D039
:10B4E400089A0599069B0B4412791A70069B01333E
:10B4F4000693089B00221A71069A079B9A4209D365
:10B50400089B40F25F121A60012316E12CB101205E
:10B51400BCB7040000BF059B002B05D0089A059911
:10B52400069B0B4412791A70069B01330693089B01
:10B5340009221A71069A079B9A4205D3089B4FF475
:10B54400B1721A600123F8E000BF059B002B05D0FF
:10B55400089A0599069B0B4412791A70069B0133CD
:10B564000693089B21221A71069A079B9A4205D3D7
:10B57400089B40F263121A600123DEE000BF059BC2
:10B58400002B05D0089A0599069B0B4412791A7072
:10B59400069B01330693089B09221A71069A079B9E
:10B5A4009A4205D3089B4FF4B2721A600123C4E097
:10B5B40000BF059B002B05D0089A0599069B0B44F8
:10B5C40012791A70069B01330693099B1A8A089B09
:10B5D400D2B21A71069A079B9A4205D3089B4FF47C
:10B5E400B3721A600123A8E000BF059B002B05D0AD
:10B5F400089A0599069B0B4412791A70069B01332D
:10B604000693099B1B8A1B0A9AB2089BD2B21A7131
:10B61400069A079B9A4205D3089B40F267121A6068
:10B6240001238AE000BF059B002B05D0089A0599E9
:10B63400069B0B4412791A70069B01330693099BEF
:10B644005A8A089BD2B21A71069A079B9A4205D36A
:10B65400089B4FF4B4721A6001236EE000BF059B8F
:10B66400002B05D0089A0599069B0B4412791A7091
:10B67400069B01330693099B5B8A1B0A9AB2089BBB
:10B68400D2B21A71069A079B9A4205D3089B40F2DC
:10B6940069121A60012350E000BF059B002B05D0FE
:10B6A400089A0599069B0B4412791A70069B01337C
:10B6B4000693099B9A8A089BD2B21A71069A079B31
:10B6C4009A4205D3089B4FF4B5721A60012334E003
:10B6D40000BF059B002B05D0089A0599069B0B44D7
:10B6E40012791A70069B01330693099B9B8A1B0AE5
:10B6F4009AB2089BD2B21A71069A079B9A4205D352
:10B70400089B40F26B121A60012316E000BF059BF0
:10B71400002B05D0089A0599069B0B4412791A70E0
:10B72400069B01330693089B40F26D121A600123B5
:10B7340003E0089B00221A60002318460AB010BDDB
:10B7440000B585B00190002303930BE0019A039B9D
:10B7540013441978094A039B13440A461A70039B3D
:10B764000133039301981FF0F7F90246039B9342B8
:10B77400ECD300BF00BF05B05DF804FB30B101207D
:10B7840000B589B04FF08053D3F8A8309BB26FEA6C
:10B7940083436FEA9343ADF81E304FF08053D3F8E0
:10B7A400A4300693BDF81E2002A8069B00931346FE
:10B7B400054A0D211FF04FF902AB1846FFF7C0FFF1
:10B7C40000BF09B05DF804FB68B8040000B587B099
:10B7D40003460A468DF807301346ADF804309DF849
:10B7E4000720BDF804302949134451F823301B784D
:10B7F400002B09D19DF80720BDF8043023491344D8
:10B8040051F8233002333DE00020FFF755FB03904D
:10B8140000238DF817309DF80720BDF804301B492C
:10B82400134451F82330049318E09DF817301E2B6D
:10B8340003D91749E62014F013FF9DF8173001339C
:10B844008DF81730049B19789DF817305B00039A24
:10B8540013448AB21A80049B01330493049B1B781B
:10B86400002BE2D19DF8173001339BB25B009BB2F1
:10B874001BB2DBB21BB243F440731BB29AB2039BFC
:10B884001A80039B184607B05DF804FB68AD0120DD
:10B89400D0B8040000B585B003460A468DF80730D9
:10B8A4001346ADF804309DF80730002B05D1002174
:10B8B4000020FFF78BFF03462AE000238DF80F30AA
:10B8C4009DF80730052B01D9002321E09DF80730AE
:10B8D400114AD35C8DF80E309DF80E30002B01D147
:10B8E400002315E09DF80E209DF80F300B491344FA
:10B8F40051F82330002B01D1002309E09DF80F30CB
:10B904009AB29DF80E3011461846FFF75FFF0346C2
:10B91400184605B05DF804FB74B8040068AD012056
:10B9240082B003468DF807309DF90730002B0BDAFF
:10B934000B4A9DF8073003F00F03043B13441B7EAE
:10B94400DBB25B09DBB208E0064A9DF90730134419
:10B9540093F80033DBB25B09DBB2184602B07047E0
:10B9640000ED00E000E100E082B0EFF3108300930B
:10B97400009B019372B600BF019B184602B070474A
:10B9840062B600BF00BF704700B585B00190FFF7F5
:10B99400EBFF0390164B9B68002B1BD1144B012229
:10B9A4009A60144BD3F88020134B1340104A136051
:10B9B400104B114AC3F880200E4BD3F884300C4A44
:10B9C40053600C4B4FF0FF32C3F88420019B0022DC
:10B9D4001A7002E0019B01221A70039B002B01D113
:10B9E400FFF7CEFF0023184605B05DF804FB00BF47
:10B9F40040B1012000E100E0FC06FFBD00B585B0C8
:10BA040003468DF80730104B9B68002B16D09DF829
:10BA14000730002B12D1FFF7A7FF03900B4A0A4B04
:10BA24001B681360094A084B5B685360064B00228D
:10BA34009A60039B002B01D1FFF7A2FF0023184655
:10BA440005B05DF804FB00BF40B1012000E100E057
:10BA540000B583B0019000F02BF80346012B03D00E
:10BA64000549432014F0FCFD0198FFF78DFF00BF4A
:10BA740003B05DF804FB00BF50B9040000B583B007
:10BA840003468DF8073000F013F80346012B03D06A
:10BA94000649512014F0E4FD9DF807301846FFF7DD
:10BAA400ADFF00BF03B05DF804FB00BF50B9040054
:10BAB40084B0EFF305830193019BC3F3080303935D
:10BAC400039B002B0DD1EFF314830093009B02938F
