:020000022000DC
:1060000000000420756302005D6302005F6302000C
:106010006163020063630200656302000000000028
:1060200000000000000000000000000067630200A4
:1060300069630200000000006B6302006D630200F0
:10604000CDEF02006F63020021CA020055E4020096
:106050000DFE02006F63020039C7020015CF020077
:106060006F630200210203006F6302006F6302008E
:106070006F6302006F6302006F6302006F630200D0
:10608000DD5A0400B18402006F6302006F630200F6
:10609000F184020099A3030091B203006F63020030
:1060A0006F6302006F6302006F6302006F630200A0
:1060B00085D902006F6302000000000000000000AC
:1060C0006F6302006F6302006F6302006F63020080
:1060D000C9EA02006F6302003D6604000000000090
:1060E00000000000000000000000000000000000B0
:1060F00000000000000000000000000000000000A0
:10610000000000000000000000000000000000008F
:10611000000000000000000000000000000000007F
:10612000000000000000000000000000000000006F
:10613000000000000000000000000000000000005F
:10614000000000000000000000000000000000004F
:10615000000000000000000000000000000000003F
:10616000000000000000000000000000000000002F
:10617000000000000000000000000000000000001F
:10618000000000000000000000000000000000000F
:1061900000000000000000000000000000000000FF
:1061A00000000000000000000000000000000000EF
:1061B00000000000000000000000000000000000DF
:1061C00000000000000000000000000000000000CF
:1061D00000000000000000000000000000000000BF
:1061E00000000000000000000000000000000000AF
:1061F000000000000000000000000000000000009F
:10620000354936480A1A02D0072291438D4634494F
:1062100034480A1A06D00722914381F309880222E2
:1062200082F3148830483149314A00F044F831484B
:106230003149324A00F03FF831483249324A00F0E1
:106240003AF832483249334A00F035F83248334997
:10625000334A00F030F833483349344A00F02BF821
:1062600033483449344A00F026F83448344900228F
:1062700000F02CF833483449002200F027F8334866
:106280003349091A082902DB002202604160314AC1
:1062900090471F481F49884205D00268043003B464
:1062A000904703BCF7E700208646EC46002000211B
:1062B000294A9047FEE7884207D0521A05D0037852
:1062C00001300B700131013AF9D17047884202D098
:1062D00002700130FAE770470000042000E003205C
:1062E0000000042000000420D07805006424002071
:1062F000B4260020D4630200D4630200CC20050041
:10630000D07805006424002064240020E4220500E5
:10631000E4220500E4220500E4220500E422050051
:10632000E4220500E4220500E4220500D0780500FF
:10633000207B0500B4260020B4260020B4260020CF
:10634000206F0020206F0020246F0020246F002089
:10635000248F00209D6302007D030300FEE7FEE71B
:10636000FEE7FEE7FEE7FEE7FEE7FEE7FEE7FEE705
:10637000704700BF1048804710484FF0070188431E
:1063800085460F4880470F48016841F4700101605D
:10639000BFF34F8FBFF36F8FFFF732BF0A480B4930
:1063A0000B4A884207D0521A05D0037801300B708F
:1063B0000131013AF9D170477163020000000420F5
:1063C00049AE020088ED00E0D022050050240020F4
:0463D0006424002021
:1063D40000487047186F002000B585B00190019BFC
:1063E400002B0AD0074B43F001030393019B9B014D
:1063F4000293039B0298984700E000BF05B05DF844
:1064040004FB00BFF022050000B583B00190019B9E
:10641400002B0AD04FF47A70FFF7DEFF019B013B9B
:106424000193019B002BF5D100E000BF03B05DF8A0
:1064340004FB08B50CF0D4FE00BF08BD00B589B05C
:10644400039002910192019B002B33D00023079308
:1064540003230693029A079B1344019A19460020CA
:106464000CF06EFE0590079A059B13440793019A5E
:10647400059BD31A0193059B002B13D10F4B1B785B
:1064840083F00103DBB2002B13D10120FFF7BCFF23
:10649400069B013B0693069B002B03D1074B00226E
:1064A4001A7007E0054B01221A70019B002BD1D111
:1064B40000E000BF00BF09B05DF804FBB426002073
:1064C40000B585B003900291054B00934023054A23
:1064D4000299039800F012F800BF05B05DF804FBC0
:1064E40041640200B826002082B0019000BF02B0CF
:1064F400704782B0019000BF02B0704700B5A1B0F0
:106504000590049103920293049803F0F7FE039B11
:106514001593029B16930023179300238DF8603084
:1065240000231993229B1A9300231F930FA91F9BE7
:106534000822049803F0BCFF08231F93119B1293B5
:10654400BDF84030ADF84C30BDF84230ADF84E30B7
:1065540000238DF851309DF83C3003F00303DBB287
:10656400012B26D10F9BC3F395231C939DF83C303C
:10657400C3F3C203DBB28DF85030BDF83C30C3F333
:106584008313DBB21B931B9B9A0009A91F9B0498DE
:1065940003F08EFF1B9B9B001F9A13441F9312AAA8
:1065A40009A915AB009313461B9A1C9800F0ECFE46
:1065B4002FE09DF83C3003F00303DBB2022B28D11B
:1065C400BDF83E30C3F389139BB21E939DF83C3053
:1065D400C3F3C203DBB28DF850301E9B082B28BFD7
:1065E40008231D9307A91F9B1D9A049803F060FFBD
:1065F4001F9A1D9B13441F931E9A1D9BD31A1E930F
:1066040015AB12AA07A81D9900F060FF1E9B002B72
:10661400E3D1049803F081FE00BF21B05DF804FBD0
:1066240082B00190019BDB6801225A7100BF02B065
:106634007047000000B583B04FF0FF330193FFF7BC
:10664400F8FE0421084800F0B9FD0190019B002BDD
:1066540003DA0649412002F0D8F80348FFF7E0FFC7
:1066640000BF03B05DF804FB6822050008230500A1
:1066740000B583B001900091019B1B681B680099D1
:106684000198984700BF03B05DF804FB00B583B0E0
:106694000190019B1B685B680198984700BF03B099
:1066A4005DF804FB00B583B00190019B1B689B68F7
:1066B4000198984700BF03B05DF804FB82B00190D5
:1066C4000B468DF80330019BDB689DF803201A719B
:1066D40000BF02B0704782B00190019BDB681B7958
:1066E400184602B0704782B00190019BDB6801221A
:1066F4005A7100BF02B0704782B00190019BDB6801
:106704005B79184602B0704700B585B001900091DE
:10671400154BFF229A60144B00221A60124B002280
:106724005A60114B0022C3F818240F4B0022C3F8FF
:1067340014240D4B012283F820240C4803F042FD5D
:106744000390039B002B01D0039B08E0084804F04E
:10675400C1F8084A084BD31ADB08029300231846F1
:1067640005B05DF804FB00BF60280020342205005A
:106774008C230500342205003C210500024A034B0A
:10678400D31ADB0818467047342205003C21050063
:1067940000B587B001900B468DF803309DF80330A7
:1067A400002B1FD0FFF7EAFF04900023059313E0AA
:1067B400059B9B000E4A13440393039B1B881A46B4
:1067C400019B1B689A4204D1019B059A1A6000231D
:1067D40009E0059B01330593059A049B9A42E7D38C
:1067E400052300E00023184607B05DF804FB00BF52
:1067F4005024002000B585B001900B468DF803307D
:106804009DF8032001AB11461846FFF7C1FF03466C
:10681400002B07D1019BDB00054A13440393039B20
:106824001B6800E00023184605B05DF804FB00BFB8
:106834003C21050084B001900B468DF80330019B88
:10684400DB00174A134402939DF80330013B032BEA
:106854001CD801A252F823F06D680200756802008A
:106864007D6802008768020002238DF80F3011E072
:1068740004238DF80F300DE0029B1B798DF80F3047
:1068840008E0029B5B798DF80F3003E000238DF85C
:106894000F3000BF9DF80F30184604B0704700BF9A
:1068A4003C21050084B00190009100238DF80F3045
:1068B400019B1B7803F00403DBB2002B24D0019B63
:1068C4001B78C3F30103DBB2012B02D0022B0CD0E3
:1068D40017E0009B1B68019A1288C2F38312D2B29C
:1068E40013449A1C009B1A600BE0009B1B68019ADE
:1068F4005288C2F3891292B213449A1C009B1A6004
:1069040000BF01238DF80F309DF80F30184604B0F6
:106914007047000000B58BB00023ADF826303E4828
:1069240002F089FA3D4802F086FA3D4B5B68049315
:106934003B4B9B680693049A069B134002339B00CF
:10694400374A13440433089304AB19460898FFF7F5
:10695400A9FF0346002B09D0049A069B1340023377
:106964009B002F4A134404330893EDE700BF002330
:10697400079311E0049B5A1C0492069A1340079A49
:10698400920001A90A44264902339B000B445B6828
:106994001360079B01330793079B012BEAD99DF8EA
:1069A4000430C3F30103DBB2012B10D0022B1CD142
:1069B400BDF80A30ADF82630BDF80630C3F38913AC
:1069C4009BB203339A08049B1344049313E0BDF869
:1069D4000A30ADF82630BDF80430C3F38313DBB2BC
:1069E4001A46049B1344049305E00E494FF4BF7008
:1069F40001F00BFF00BF094802F029FA0590059B3E
:106A0400002B02D0049B064A5360BDF8263018467A
:106A14000BB05DF804FB00BF782C0020742C002020
:106A2400602800209C23050000B585B0002107489C
:106A340002F027F90390039B0293029B83F3100354
:106A44000193019B184605B05DF804FB7C2C0020E3
:106A540000B589B00390029101920093039B1B0C33
:106A64000793FFF7E1FF0690FFF788FE0246079BB6
:106A7400934204D3214940F2A31001F0C6FE069BC1
:106A84001904009B5A1C0A9B1340079A0A431C4989
:106A940002339B000B445A60009A0A9B1340023352
:106AA4009B00174A134404330593039B03F0070325
:106AB400D9B2059A137861F3C5031370019B03F0EF
:106AC4000F03D9B2059A138861F389131380029BCB
:106AD400C3F31501059A136861F39F231360059AA4
:106AE4001378012161F301031370059A13786FF38E
:106AF4008203137000BF09B05DF804FB9C230500FA
:106B04006028002000B58DB00390029113468DF8E3
:106B14000730039B02330A9301238DF827300023A7
:106B24008DF81B300DF11B03184601F021FE404B7C
:106B34001A68029B1A603E4B9A683D4B59683C4B5D
:106B44001B68CB1A134401330B9314E00121394819
:106B540002F026F9FFF7DEFE07900799354802F0A8
:106B64001FF9334B9A68324B5968314B1B68CB1A67
:106B7400134401330B930A9A0B9B9A42E6D89DF86F
:106B84002730002B48D0002305939DF80730002BB5
:106B940017D09DF81430012262F301038DF81430EC
:106BA4009DF8143043F004038DF81430039B03F074
:106BB4000F03DAB2BDF8143062F38913ADF8143060
:106BC40016E09DF81430022262F301038DF81430AC
:106BD4009DF8143043F004038DF81430039BC3F381
:106BE40009039AB2BDF8163062F38F13ADF816306C
:106BF4000F4B1A680E4B9B68134002339B000C4AE0
:106C0400134404330893059A089B1A60084B1A68C6
:106C14000A9B1344064A13609DF81B30184601F082
:106C2400BDFD9DF8273018460DB05DF804FB00BF8C
:106C3400602800207C2C002000B58BB005900491C6
:106C4400039202931F4B9B68079306AB01221946DC
:106C54000298FFF757FF0346002B24D0069B02330C
:106C640009930023089311E0089B9B00039A1A449C
:106C7400099B591C099107990B4012681149023369
:106C84009B000B445A60089B01330893089A029BAB
:106C94009A42E9D3069A079B00931346029A0499F1
:106CA4000598FFF7D5FE074B93F82034002B05D049
:106CB40000BF00F07BF80346002BFAD100BF0BB0F5
:106CC4005DF804FB6028002000B583B001900091BA
:106CD4000023002200990198FFF7AEFF00BF03B024
:106CE4005DF804FB00B587B0039002910192019B0B
:106CF400059305AA012302990398FFF79DFF00BF9E
:106D040007B05DF804FB00B587B0039002910192CF
:106D14000093019B0493009B059304AA0223029908
:106D24000398FFF789FF00BF07B05DF804FB00B5C7
:106D340089B00390029101920093019B0593009BFB
:106D440006930A9B079305AA032302990398FFF766
:106D540073FF00BF09B05DF804FB00B58BB003906E
:106D6400029101920093019B0593009B06930C9B57
:106D740007930D9B08930E9B099305AA052302997B
:106D84000398FFF759FF00BF0BB05DF804FB000048
:106D9400054B5A68044B1B689A420CBF012300231D
:106DA400DBB21846704700BF6028002000B599B0D8
:106DB400FFF7EEFF0346002B01D00023BEE19B4BFF
:106DC4000022C3F81824BFF34F8F00BF974B5B68B2
:106DD4000493964B9B681093049A109B13400233C0
:106DE4009B00924A13440433119300231793002306
:106DF400169300230F9304AB19461198FFF752FD25
:106E04000346002B19D0894BD3F81834002B14D126
:106E1400864B1A68049B9A4205D8844B1B68834AA4
:106E2400536000238AE1049A109B134002339B00B1
:106E34007E4A134404331193DDE70023159311E0D4
:106E4400049B5A1C0492109A1340159A920001A9AB
:106E54000A44764902339B000B445B681360159B1C
:106E640001331593159B012BEAD99DF8043003F0E7
:106E74000303DBB2022B40F09C80BDF80630C3F361
:106E840089139BB20D93BDF80630C3F389139BB2EB
:106E9400502B28BF50239BB20C930C9BC3F30903C4
:106EA4009AB2BDF8063062F38F13ADF806300C9B2E
:106EB40008330B939DF80430C3F3C203DBB20F9382
:106EC4000B995B4803F089F91790179B002B00F08E
:106ED400D180179803F012FA01A9169B082217987B
:106EE40003F0C8FA169B08331693049BDA43109BED
:106EF400134001339B000A930C9A0A9B9A4242D98D
:106F04000A9B002B08D0049A109B134002339B0069
:106F1400464A1344043300E0464B08930A9B002B73
:106F240002D00A9BDBB201E00C9BDBB28DF81F3070
:106F34000A9B002B01D03F4B00E0002306930A9BE1
:106F4400002B06D00C9BDAB20A9BDBB2D31ADBB25D
:106F540000E000238DF817309DF81F20169B089938
:106F6400179803F087FA9DF81F30169A1344169366
:106F7400069B002B16D09DF81720169B0699179890
:106F840003F078FA0EE0049A109B134002339B003E
:106F9400264A134404330993169B0C9A09991798AB
:106FA40003F068FA0D9B03339A08049B134404937B
:106FB40060E09DF8043003F00303DBB2012B59D1E8
:106FC400BDF80430C3F38313DBB2062B28BF0623BA
:106FD400DAB2BDF8043062F38913ADF80430BDF8B9
:106FE4000430C3F38313DBB202330E939DF80430F1
:106FF400C3F3C203DBB20F930E9B9B0019460C48EC
:1070040003F0EBF81790179B002B33D0179803F07D
:1070140075F901A9169B0822179803F02BFA169B01
:1070240008331693002315931BE000BF602800204B
:10703400342205006C280020049B5A1C0492109AE8
:10704400134002339B003F4A1344191D169B04222C
:10705400179803F00FFA169B04331693159B01330C
:107064001593BDF80430C3F38313DBB21A46159BA2
:107074009342E1D3179B002B40D0324BD3F810340A
:107084001493304BD3F81834002B1BD0179803F00B
:1070940044F94DE000238DF84F301498FFF72CFB92
:1070A4000346002B02D001238DF84F309DF84F305A
:1070B400002B03D017991498FFF7DAFA149BDB68B6
:1070C4001B681493149B002BE4D1179803F025F943
:1070D40000238DF803300DF10303184601F048FB3B
:1070E400184BD3F81834002B02D1049B154A536073
:1070F4009DF80330184601F051FB19E0114BD3F809
:107104001034129306E01298FFF7CCFA129BDB6856
:107114001B681293129B002BF5D10B4A0B4BD31A0D
:10712400DB081B0443F0020309491846FFF7CCFDB2
:10713400FFF72EFE034683F00103DBB2184619B0B5
:107144005DF804FB602800209C2105003C2105001B
:107154001824050000B585B00023039323E0164BE3
:10716400D3F81034029301238DF807300FE002980E
:10717400FFF7B1FA03461A46039B934203D1002357
:107184008DF8073006E0029BDB681B680293029BC4
:10719400002BECD19DF80730002B01D0039B07E0B6
:1071A400039B01330393039B092BD8DD4FF0FF337B
:1071B400184605B05DF804FB6028002000B585B0D2
:1071C40001900B468DF80330FFF7C4FF0390039B37
:1071D400B3F1FF3F01D1039B22E0039BDBB21946CD
:1071E4000198FFF76BFA104BD3F81034002B08D139
:1071F4000D4A019BC2F81034019BDB6800221A601F
:107204000DE0094BD3F81034DA68019BDB6812688F
:107214001A60054BD3F81034DB68019A1A60039B9B
:10722400184605B05DF804FB6028002000B583B063
:107234000D4BD3F8103401930B4B012283F8202417
:1072440009E00198FFF74FFA0198FFF71FFA019B35
:10725400DB681B680193019B002BF2D100BF00BFC8
:1072640003B05DF804FB00BF6028002082B00190E9
:10727400009100BF02B0704710B584B00390029132
:10728400039BDB88002B0AD0039BDB881A461F4B29
:10729400009313461E4A1F49029801F015FF039BF1
:1072A4001B7A052B2ED0039B5B7A002B12D0039BF9
:1072B4009B881A46039B1B7A19461046FFF7BAFAB5
:1072C40003461A46144B53F822301A4613490298BF
:1072D40001F0FAFE039B1B6819460298FFF7C6FFEC
:1072E400039B1B7A1A460E4B53F82240039B9B8840
:1072F40000211846FFF77EFA034622460949029800
:1073040001F0E2FE00BF04B010BD00BF4C24050034
:107314005C2405009424050080240020AC2405008E
:107324006C240020B024050000B585B003900291C0
:1073340013468DF80730039B1B7A052B0FD0039B54
:107344005B7A002B06D00D4B1B681A460C49029839
:1073540001F0BAFE0B49029801F0B6FE07E09DF871
:107364000730002B03D00749029801F0ADFE0298C4
:1073740001F088FE00BF05B05DF804FB8024002006
:10738400AC240500BC24050030B58BB007900691F1
:10739400059204930E9B1B7B8DF827300E9B0022D5
:1073A4001A730E990498FFF767FF059B062B7FD885
:1073B40001A252F823F000BFD9730200E373020064
:1073C400F373020007740200257402004D74020076
:1073D4007D74020007990E9801F076FE69E0069B21
:1073E4001B681A4607990E9801F06EFE61E0069B31
:1073F4001A68069B04331B6807990E9801F064FE13
:1074040057E0069B1A68069B04331968069B0833E9
:107414001B6800930B4607990E9801F055FE48E04F
:10742400069B1968069B04331868069B08331B687F
:10743400069A0C3212680192009303460A46079991
:107444000E9801F041FE34E0069B1868069B043355
:107454001C68069B08331B68069A0C32126806994E
:10746400103109680291019200932346024607995C
:107474000E9801F029FE1CE0069B1C68069B043351
:107484001D68069B08331B68069A0C32126806991D
:107494001031096806981430006803900291019233
:1074A40000932B46224607990E9801F00DFE00E04A
:1074B40000BF00220E990498FFF736FF0E9B9DF83B
:1074C40027201A7300BF0BB030BD00BF00B587B0D2
:1074D4000390029101920093029B082B60D8009BB9
:1074E4001B7B8DF81330009B00221A7300990198BE
:1074F400FFF7C2FE0023059314E0059A029B9A420B
:1075040009D2039A059B13441B781A46264900980E
:1075140001F0DAFD03E02549009801F0D5FD059B53
:1075240001330593059B072BE7D92149009801F006
:10753400CBFD0023059326E0059A029B9A421BD2B9
:10754400039A059B13441B788DF812309DF8123072
:107554007E2B0AD89DF81230184629F0ADFC03465C
:10756400002B02D09DF8123000E02E231A46114958
:10757400009801F0A9FD03E00F49009801F0A4FD73
:10758400059B01330593059B072BD5D9012200994F
:107594000198FFF7C9FE009B9DF813201A7300E0C1
:1075A40000BF07B05DF804FBC0240500C824050033
:1075B400CC240500D0240500D424050086B0039013
:1075C4000291019201238DF817309DF81730214A5A
:1075D400039B13601F4A029B53601E4A019B9360E6
:1075E400039B44F20102934213D0039B44F2020230
:1075F400934221D1019B174AD360164BDB681B8849
:107604001A46144B9A61134BDB685B68114AD361C9
:1076140012E0019B0F4A13610E4B1B699B680D4AD4
:1076240053610C4B1B691B680A4A9361094B1B6924
:107634005B68084AD36100BF72B600BF00BF9DF803
:107644001730DBB2002BFAD162B600BF00BF06B020
:10765400704700BF842C002000B583B002900091D5
:10766400019244F2010071466A4600F003F803B047
:1076740000BD00BF30B58BB007900691059272B67D
:1076840000BFFFF7D3FD00BFFFF790FB0346002BBD
:10769400FAD1079B44F2020293422FD0079B44F293
:1076A4000202934269D8079B44F20102934237D005
:1076B400079B44F2010293425FD8079B012B05D03C
:1076C400079B41F2010293420CD056E0394A3A4BEF
:1076D400D31ADB081B0443F0010338491846FFF7AB
:1076E400F3FA57E0334A344BD31ADB081B0443F054
:1076F400010333491846FFF7E7FA4BE0059B09936A
:107704002C4A2D4BD31ADB081B0443F00100099BC0
:107714005B681A46099B1B882A49FFF7F4FA39E08B
:10772400059B0893234A244BD31ADB081B0443F01C
:107734000104089B9D68089B9B68184603F082F827
:1077440003461846089B5B681946089B1B68069A03
:1077540002920193009103462A461B492046FFF7F3
:10776400FCFA144A144BD31ADB081B0443F001033C
:1077740016491846FFF7A8FA0CE00E4A0E4BD31A26
:10778400DB081B0443F00103069A11491846FFF76E
:10779400A9FA00BF0F4B1B6803F00103002B00D0B4
:1077A40000BE059A06990798FFF708FF00BF0BB0C3
:1077B40030BD00BF9C2105003C210500D8240500F4
:1077C400F82405001C250500382505006025050062
:1077D40074250500F0ED00E082B00190019B03F0F8
:1077E4000303002B0CBF01230023DBB2184602B0B5
:1077F4007047000082B003468DF807309DF80730CB
:107804009AB2064B1B889A4204D29DF80730013382
:10781400DBB200E00023184602B07047B02C002011
:1078240000B583B00B4B1B788DF807300A4B1B78DF
:10783400DBB21846FFF7DEFF03461A469DF8073011
:1078440093420CBF01230023DBB2184603B05DF85A
:1078540004FB00BFAC2C0020AD2C002082B0084BF0
:107864001B788DF80730074B1B78DBB29DF8072097
:107874009A420CBF01230023DBB2184602B07047C2
:10788400AC2C0020AD2C002000B585B0034600923E
:10789400ADF806300B46ADF80430BDF804300133C2
:1078A4009BB2DB00ADF80E300098FFF795FF03465E
:1078B40083F00103DBB2002B01D0072317E00E4A4B
:1078C400009B1360BDF80E30009A13440B4A1360FA
:1078D4000B4B00221A700B4B00221A700A4ABDF897
:1078E40006301380094ABDF804301380002318467B
:1078F40005B05DF804FB00BFA42C0020A82C0020D8
:10790400AD2C0020AC2C0020AE2C0020B02C00208C
:1079140000B587B003900B460192ADF80A30374B9F
:107924001B88BDF80A209A4260D84FF6FF73ADF861
:10793400123000238DF811300DF11103184600F0B8
:1079440017FFFFF76DFF0346002B0ED12C4B1B785E
:10795400DBB2ADF812302A4B1B78DBB21846FFF7C6
:1079640049FF03461A46264B1A709DF811301846F3
:1079740000F014FFBDF812304FF6FF72934232D07C
:10798400204B1A68BDF81230DB001344019A1A60C8
:10799400039B002B1CD0BDF80A30002B18D01A4BC7
:1079A4001B68BDF812201549098801FB02F2134433
:1079B400BDF80A200399184629F030FB114B1A68C8
:1079C400BDF81230DB001344BDF80A209A8007E0AA
:1079D4000C4B1A68BDF81230DB00134400229A8065
:1079E4000023059304E00423059301E00923059390
:1079F400059B184607B05DF804FB00BFAE2C0020C1
:107A0400AD2C0020A42C0020A82C00200023184614
:107A14007047000000B585B02FE0204B1B78DBB227
:107A2400ADF80E301E4B1B68BDF80E201D490988A9
:107A340001FB02F2134402931B4B1A68BDF80E308B
:107A4400DB0013449B88ADF80630174B1A68BDF869
:107A54000E30DB0013441B680093BDF80620009B26
:107A64001146029898470D4B1B78DBB21846FFF776
:107A7400C1FE03461A46094B1A70FFF7C7FF0346B7
:107A840083F00103DBB2002B04D0FFF7E7FE0346CB
:107A9400002BC2D000BF05B05DF804FBAC2C002065
:107AA400A82C0020AE2C0020A42C002082B0034679
:107AB4008DF807309DF8073003F01F0205499DF942
:107AC40007305B09012000FA02F241F8232000BFCD
:107AD40002B0704700E100E082B003468DF8073041
:107AE4009DF8073003F01F0206499DF907305B0932
:107AF400012000FA02F2203341F8232000BF02B033
:107B0400704700BF00E100E082B003468DF8073003
:107B14009DF8073003F01F0206499DF907305B0901
:107B2400012000FA02F2403341F8232000BF02B0E2
:107B3400704700BF00E100E082B003468DF80730D3
:107B44009DF8073003F01F0206499DF907305B09D1
:107B5400012000FA02F2603341F8232000BF02B092
:107B6400704700BF00E100E082B0034600918DF849
:107B740007309DF90730002B0CDA009BDAB20C4970
:107B84009DF8073003F00F03043B5201D2B20B44BB
:107B94001A7609E0009BDAB206499DF907305201D2
:107BA400D2B20B4483F8002300BF02B0704700BF79
:107BB40000ED00E000E100E000B585B00190019B1C
:107BC400002B0AD0074B43F001030393019B9B0155
:107BD4000293039B0298984700E000BF05B05DF84C
:107BE40004FB00BF9025050000B583B00190064A50
:107BF400019BC2F8083506211120FFF7B5FF00BF2D
:107C040003B05DF804FB00BF0010014008B50D4B44
:107C14004FF48032C3F844230A4B4FF48032C3F844
:107C240004231120FFF788FF1120FFF73FFF054BC6
:107C340001221A602F20FFF7BFFF034B01221A70A5
:107C440000BF08BD00100140C22E002008B511205D
:107C5400FFF742FF0E4B4FF48032C3F848230C4B1E
:107C64004FF48032C3F80823094B01225A602F20B5
:107C7400FFF7A2FF064B01229A60064B00221A600E
:107C84002F20FFF799FF044B00221A7000BF08BD94
:107C940000100140B42E0020C22E0020024BD3F865
:107CA40004351846704700BF0010014082B00190AF
:107CB4000091019A009BD31A23F07F43184602B027
:107CC4007047000082B00190034A019BC2F840351E
:107CD40000BF02B0704700BF0010014086B00190A1
:107CE400284B1B68002B03D1264A019B136045E0F7
:107CF400019B1A68234B1B681B689A4210D8214BBE
:107D04001B681968019B1A681E4B1B688A1A1A6043
:107D14001C4B1A68019BDA611A4A019B13602DE01F
:107D2400019B1B680393174B1B680593154B1B683A
:107D3400049309E0049B1B68039AD31A0393049BDE
:107D44000593049BDB690493049B002B04D0049BE0
:107D54001B68039A9A42EDD8049B002B05D0049B20
:107D64001A68039BD21A049B1A60019B039A1A6037
:107D7400019B049ADA61059B019ADA6100BF06B09F
:107D8400704700BFB02E002000B587B001902A4B89
:107D94001B680393284B1B680593059B049308E019
:107DA400049A019B9A4208D0049B0593049BDB69C7
:107DB4000493049B002BF3D100E000BF049B002B31
:107DC40001D1002333E0059A049B9A4214D11A4B43
:107DD4001B68DB69184A1360174B1B68002B0BD117
:107DE400164B01229A60164B00221A60154B012291
:107DF4001A702F20FFF7E0FE049B1B680293049B7C
:107E0400DA69059BDA61059BDB690493049B002B0B
:107E140005D0049B1A68029B1A44049B1A60064B03
:107E24001B68039A9A4214BF01230023DBB218464D
:107E340007B05DF804FB00BFB02E00200010014025
:107E4400B42E0020C32E002008B51120FFF75CFEDD
:107E540000BF08BD08B51420FFF756FE00BF08BDDB
:107E640000B583B00190019B5B69019A9269104649
:107E7400984700BF03B05DF804FB000000B585B06F
:107E84002B4B1B68002B4ED000230193FFF706FFFA
:107E94000246284B1B6819461046FFF707FF02905D
:107EA400234B1B6803931DE0039B1B68029A9A42B1
:107EB4001CD3039B1B68029AD31A0293039B1B686F
:107EC400019A13440193039B0093039BDB6903937F
:107ED400009B1B7C002B05D0009B00221A74009889
:107EE400FFF7BEFF039B002BDED100E000BF124B67
:107EF4001A78124B1B789A420CD1104B1B78013321
:107F0400DAB20E4B1A700D4B1B78022B02D10B4BBD
:107F140000221A70094B1B781946094A019B42F842
:107F24002130FFF797FF00BF05B05DF804FB00BFE9
:107F3400B02E0020B42E0020C02E0020C12E002020
:107F4400B82E002082B00190184B1A78184B1B7879
:107F54009A4223D0154B1B780133DAB2134B1A70B3
:107F6400124B1B78022B02D1104B00221A700F4BBC
:107F74001B781A460F4B53F82220019B1A60019B71
:107F84001A680D4B1B6813440B4A13600A4B1B6899
:107F940023F07F43084A1360012303E0019B00227E
:107FA4001A600023184602B0704700BFC02E00209C
:107FB400C12E0020B82E0020B42E002088B00390DB
:107FC400029101920023079338E0204B1B6806932B
:107FD400069B1B68039A9A4206D2069B1A68039B67
:107FE400D21A069B1A602EE0069B1B68039AD31ACA
:107FF4000393069B1B68079A13440793069B00226E
:108004001A60124B1B680593069BDB690F4A1360C9
:10801400069BDB68002B11D0029A079B134423F0C4
:108024007F42069B5A60069BDA68069B9A60019B16
:108034001A68069BDA61019B059A1A60034B1B6858
:10804400002BC2D100BF00BF08B07047B02E002083
:1080540000B589B0019000238DF81F30664B1B6872
:108064000593AAE0019B002B05D0019B0693069B78
:10807400DB69019361E0614B1B781A4613465B0090
:108084001344DB005D4A1344043304935B4B1B78B5
:108094000133DAB2594B1A70584B1A78574B9B7804
:1080A4009A4202D1554B00221A70049B5B680693D6
:1080B400049B1B78032B1ED0032B7EDC012B1FD0CB
:1080C400022B7AD1049B5B681846FFF75DFE0346DA
:1080D400002B02D001238DF81F30069B00221A7456
:1080E4006BE0454B1B680393039B00221A74039BAC
:1080F400DB69414A1360404B1B68002BF1D15CE003
:1081040000BF069B1B7C002B00D056E0049B9A68A2
:10811400069B5A60049BDA68069B9A60049B1A6962
:10812400069BDA60049B5A69069B9A61344B1B7860
:10813400002B02D0069B00225A60069B5A68314BE2
:108144001B68D31A23F07F432F4A93420ED8069B11
:108154005B682C4A126811461846FFF7A7FD0246D1
:10816400069B9B681A44069B1A6017E0254B1A6805
:10817400069B5B6819461046FFF798FD0290069B24
:108184009B68029A9A4206D2069B9A68029BD21A6C
:10819400069B1A6002E0069B00221A60069B0022DE
:1081A4005A60069B00229A60069B01221A74069B61
:1081B4000022DA610698FFF791FD019B002B7FF402
:1081C40051AF0E4B1A780D4B5B789A427FF44AAF4D
:1081D4009DF81F30002B04D1074B1B68059A9A4267
:1081E40001D0012300E0002303F00103DBB21846B1
:1081F40009B05DF804FB00BFB02E0020B42C0020B1
:10820400C32E0020B42E0020FEFF7F0010B588B0DE
:108214000190274B1B68002B44D0254B1B681B681F
:108224000793FFF73BFD0690224B1B6805930599C6
:108234000698FFF73BFD0346033304931E4B1B785C
:1082440083F00103DBB2002B01D0FFF7DFFC049ABB
:10825400079B934238BF1346059A13440593059B25
:1082640023F07F4305930598FFF72CFDFFF716FDD8
:10827400039006990398FFF719FD0346DC1C069941
:108284000598FFF713FD03469C420DD9FFF706FD41
:1082940003461846FFF716FD2F20FFF78DFCFFF766
:1082A400D3FD01E0FFF7D2FC00BF08B010BD00BF52
:1082B400B02E0020B42E0020C22E002000B587B0BE
:1082C4000023019300238DF81730194B1B68049386
:1082D400184B1B6803936B461846FFF733FE03469F
:1082E4008DF80B309DF80B30002B08D0009B01AAB1
:1082F40004991846FFF762FE01238DF81730019B9D
:108304001846FFF7A5FE0346002B02D001238DF883
:1083140017309DF81730002B02D00398FFF776FF33
:10832400054B00221A7000BF07B05DF804FB00BFC4
:10833400B42E0020B02E0020C32E002082B00346AD
:108344008DF80730034A9DF80730537000BF02B020
:10835400704700BFB42C002084B00190144B5B78AC
:1083640001338DF80F30124B9B789DF80F209A4201
:1083740002D100238DF80F300D4B1B789DF80F2090
:108384009A4201D100230FE0019B9DF80F201A703F
:10839400074B5B781A4613465B001344DB00044A20
:1083A400134404330293029B184604B0704700BF81
:1083B400B42C002000B589B003900291019200937F
:1083C4000023079300238DF816300DF11603184689
:1083D40000F0CEF90DF117031846FFF7BDFF069024
:1083E400069B002B02D10423079318E0069B01226D
:1083F4001A70069B039A5A60FFF750FC0246069BCC
:108404009A60069B029ADA60069B019A1A61069B9F
:10841400009A5A619DF817301846FFF78FFF9DF8B0
:108424001630184600F0BAF9079B002B01D1FFF76C
:1084340011FD079B184609B05DF804FB00B587B031
:1084440001900B468DF803300023059300238DF82B
:108454000E300DF10E03184600F08AF90DF10F03EA
:108464001846FFF779FF0490049B002B02D10423E4
:1084740005930BE0049B9DF803201A70049B019A5A
:108484005A609DF80F301846FFF758FF9DF80E30DC
:10849400184600F083F9059B002B01D1FFF7DAFCA5
:1084A400059B184607B05DF804FB000008B50E4BA9
:1084B4000022C3F840210C4B0022C3F844210A4B8C
:1084C4000022C3F84821084B0022C3F84C21064B74
:1084D4000022C3F80021044B0022C3F80421FFF753
:1084E400CDFC00BF08BD00BF0010014008B5FFF778
:1084F400E5FE00BF08BD000008B5FFF7A7FB134B5E
:1085040000221A70114B00225A70104B15229A70D7
:108514000F4B00221A600F4B00221A700E4B0022E0
:108524001A701420FFF708FB06211420FFF71CFB28
:108534001420FFF7BBFA0020FFF756FBFFF7AEFB52
:108544000346064A13600023184608BDB42C0020D5
:10855400B02E0020C02E0020C12E0020B42E0020FA
:1085640086B003900B4601928DF80B30134B9B7829
:10857400002B01D108231EE0019B002B01D107230E
:1085840019E0039B002B01D1072314E0039B1B6814
:108594001B7C002B01D008230DE0039B1B68059373
:1085A400059B00221A74059B9DF80B205A74059BA9
:1085B400019A5A610023184606B07047B42C002073
:1085C40000B587B0039002910192039B0593144B6D
:1085D4009B78002B01D108231EE0039B002B01D1C3
:1085E400082319E0029B042B01D8072314E0059B00
:1085F4005B69002B01D108230EE0059B5B7C012BFA
:1086040001D1029B00E000230493019B049A029988
:108614000598FFF7CFFE0346184607B05DF804FB44
:10862400B42C002000B585B00190019B03930D4B41
:108634009B78002B01D1082310E0019B002B03D071
:10864400039B5B69002B01D1082307E0039B0022F5
:108654001A7402210398FFF7F1FE0346184605B089
:108664005DF804FBB42C002008B5064B9B78002B66
:1086740001D1082304E003210020FFF7DFFE0346B5
:10868400184608BDB42C002082B0EFF31083009389
:10869400009B019372B600BF019B184602B070475D
:1086A40062B600BF00BF704700B585B00190FFF708
:1086B400EBFF0390164B9B68002B1BD1144B01223C
:1086C4009A60144BD3F88020134B1340104A136064
:1086D400104B114AC3F880200E4BD3F884300C4A57
:1086E40053600C4B4FF0FF32C3F88420019B0022EF
:1086F4001A7002E0019B01221A70039B002B01D126
:10870400FFF7CEFF0023184605B05DF804FB00BF59
:10871400C42E002000E100E0FC06FFBD00B585B0DA
:1087240003468DF80730104B9B68002B16D09DF83C
:108734000730002B12D1FFF7A7FF03900B4A0A4B17
:108744001B681360094A084B5B685360064B0022A0
:108754009A60039B002B01D1FFF7A2FF0023184668
:1087640005B05DF804FB00BFC42E002000E100E06A
:1087740000B583B0019000F02BF80346012B03D021
:108784000549432000F041F80198FFF78DFF00BF31
:1087940003B05DF804FB00BF9825050000B583B065
:1087A40003468DF8073000F013F80346012B03D07D
:1087B4000649512000F029F89DF807301846FFF7C4
:1087C400ADFF00BF03B05DF804FB00BF98250500B2
:1087D40084B0EFF305830193019BC3F30803039370
:1087E400039B002B0DD1EFF314830093009B0293A2
:1087F400029B03F00103002B0CBF01230023DBB217
:1088040000E00123184604B0704700B585B0034664
:108814000091ADF80630BDF80630ADF80830009B85
:10882400039302AB1A46002144F20200FEF722FF32
:1088340000BF05B05DF804FB86B001900091019B78
:1088440053E8011F8AB2D88902449889824228BF1A
:10885400121A1889824202BFBFF32F8F002307E048
:10886400C2EA010243E801200028E9D14FF00103E4
:108874008DF80F30059002910492029A009B1A60C1
:108884009DF80F30DBB2184606B0704784B00190F3
:10889400019951E8013FC3EA034341E80132002A48
:1088A400F7D10392029300BF04B0704786B00190E1
:1088B4000091019B53E8021F1FFAA1F2D88882425B
:1088C40002BFBFF32F8F00230DE0D889024498899B
:1088D400824228BF121AC1EA024243E80220002859
:1088E400E8D14FF001038DF80F3005900291049206
:1088F400029A009B1A609DF80F30DBB2184606B04E
:10890400704784B00190019951E8023FC3EA2343C0
:1089140041E80232002AF7D10392029300BF04B067
:10892400704786B00190019B53E8021FDA88B1EBCF
:10893400314F4FF0000017BF89B242EA024241EAC8
:10894400024204E05968B1EB314F08BF012043E80B
:1089540002210029E8D18DF80F00059104929DF8B9
:108964000F30DBB2184606B0704784B00390029112
:1089740011461A460B46ADF806301346ADF80430DE
:10898400029B002B01D10E231FE0BDF80630BDF879
:108994000420B3FBF2F101FB02F29B1A9BB2002B01
:1089A40001D0092311E0039B029A1A60039B002261
:1089B4005A60039B00229A60039BBDF806209A81AB
:1089C400039BBDF80420DA810023184604B07047E5
:1089D40000B585B001900198FFF7A3FF03468DF819
:1089E4000F309DF80F30002B01D0002300E011233D
:1089F400184605B05DF804FB00B585B00190009100
:108A0400009B19460198FFF717FF0346002B07D078
:108A1400019B1B68009A128813440393039B00E094
:108A24000023184605B05DF804FB00B583B001903F
:108A34000091009B1A88009B5B889A4204D101989C
:108A4400FFF724FF012300E00023184603B05DF87C
:108A540004FB00B585B001900091009B1946019874
:108A6400FFF724FF0346002B07D0019B1B68009AE5
:108A7400528813440393039B00E00023184605B077
:108A84005DF804FB00B583B001900091009B1A8847
:108A9400009B5B889A4204D10198FFF732FF0123BF
:108AA40000E00023184603B05DF804FB00B585B070
:108AB40001900091009B5B099B00019A1A44009B62
:108AC40003F01F03012101FA03F31946104600F0D5
:108AD40007F9039000BF05B05DF804FB00B583B04F
:108AE40001900091009B5B099B00019A1A44009B32
:108AF40003F01F03012101FA03F31946104600F0A5
:108B0400D7F80246009B03F01F0322FA03F303F095
:108B14000103002B14BF01230023DBB2184603B06A
:108B24005DF804FB00B585B001900091009B5B09E2
:108B34009B00019A1A44009B03F01F03012101FAD0
:108B440003F3DB431946104600F0FAF8039000BF24
:108B540005B05DF804FB82B001900091009B5B09B5
:108B64009B00019A13441A68009B03F01F0322FA26
:108B740003F303F00103002B14BF01230023DBB232
:108B8400184602B0704700B58BB0019000910023E5
:108B940009933BE0099B9B00019A13441B68DB4348
:108BA4000693069B93FAA3F30593059BB3FA83F309
:108BB400089323E0099B5B01089A13440793079ADF
:108BC400009B9A421ED207990198FFF787FF03463C
:108BD40083F00103DBB2002B01D0079B1EE0099B4D
:108BE4009B00019A13441B68DB430493049B93FA90
:108BF400A3F30393039BB3FA83F30893089B1F2BFC
:108C0400D8D900E000BF099B01330993009B013BC5
:108C14005B090133099A9A42BCD3009B18460BB0F6
:108C24005DF804FB70B489B00390029101920023B3
:108C34008DF81F300023069300230593002304932B
:108C44009DF81F10049A059B0298039C019D54E80B
:108C5400003F0268934207BF44E80056012144E8FC
:108C640000360360002E1CBF0021F0E78DF81F10B2
:108C74000492059306969DF81F30184609B070BCFF
:108C8400704710B487B001900091019B009A53E89B
:108C9400004F104643E8000191F0000FF7D105940E
:108CA40004900391059B184607B05DF8044B704788
:108CB40010B487B001900091019B009A53E8004FD3
:108CC40044EA020043E8000191F0000FF6D1059454
:108CD40004900391059B184607B05DF8044B704758
:108CE40010B487B001900091019B009A53E8004FA3
:108CF40044EA020043E8000191F0000FF6D1059424
:108D040004900391049B184607B05DF8044B704728
:108D140010B487B001900091019B009A53E8004F72
:108D240004EA020043E8000191F0000FF6D1059433
:108D340004900391059B184607B05DF8044B7047F7
:108D440010B487B001900091019B009A53E8004F42
:108D540004EA020043E8000191F0000FF6D1059403
:108D640004900391049B184607B05DF8044B7047C8
:108D740010B487B001900091019B009A53E8004F12
:108D840004EB020043E8000191F0000FF6D10594D2
:108D940004900391059B184607B05DF8044B704797
:108DA40010B487B001900091019B009A53E8004FE2
:108DB40004EB020043E8000191F0000FF6D10594A2
:108DC40004900391049B184607B05DF8044B704768
:108DD40010B487B001900091019B009A53E8004FB2
:108DE400A4EB020043E8000191F0000FF6D10594D2
:108DF40004900391049B184607B05DF8044B704738
:108E040000B585B0039002910192019A02990398EA
:108E1400FFF708FF0346184605B05DF804FB00B5EC
:108E240083B0019001210198FFF742FF03461846E1
:108E340003B05DF804FB00B583B0019001210198F3
:108E4400FFF74EFF0346184603B05DF804FB00B578
:108E540083B0019000210198FFF75AFF034618469A
:108E640003B05DF804FB000000B583B001900B462D
:108E74008DF80330019B002B03D10849E820FFF74C
:108E8400C4FC019BDA689DF803300199098A01FB4F
:108E940003F31344184603B05DF804FB14260500DD
:108EA40000B583B001900091019B002B03D10849C8
:108EB400F520FFF7AAFC009B019AD2689B1A019A3D
:108EC400128AB3FBF2F3DBB2184603B05DF804FB7D
:108ED4001426050000B585B00190019B002B01D13B
:108EE4000E234CE0019B1B68002B03D12649FF2075
:108EF400FFF78BFC019B5B68002B04D122494FF4E4
:108F04008070FFF782FC019B9B68002B04D11E49F3
:108F140040F20110FFF779FC019BDB68002B04D1C0
:108F240019494FF48170FFF770FC019B1B8A002BD9
:108F340004D1154940F20310FFF767FC019B9A68BE
:108F4400019B5B68D31A8DF80F30019B1B68019A53
:108F540052681A6007E0019B1A681368591C116073
:108F64009DF80F201A709DF80F305A1E8DF80F20AF
:108F7400002BF0D1019B1B6800221A7100231846B4
:108F840005B05DF804FB00BF1426050000B585B0EC
:108F94000190019B002B04D11F494FF49270FFF7FD
:108FA40034FC0023039300238DF80A300DF10A03E7
:108FB4001846FFF7DDFB019B1B681A68019B5B6881
:108FC4009A421FD9019B1B681A68013A1A601B68F0
:108FD4001B7819460198FFF747FF0390019B9A6895
:108FE400019B1B681B68D31A8DF80B30019B1B680F
:108FF4001B799DF80B209A4204D9019B1B689DF8AC
:109004000B201A719DF80A301846FFF7C7FB039B23
:10901400184605B05DF804FB1426050010B584B0AD
:1090240001900091019B002B04D1154940F2471097
:10903400FFF7EBFB009B002B04D111494FF4A47004
:10904400FFF7E3FB009B039300238DF80B300DF136
:109054000B031846FFF78CFB019B1B681C68621C02
:109064001A6003990198FFF71BFF034623709DF8CC
:109074000B301846FFF792FB00BF04B010BD00BFD1
:109084001426050000B583B00190019B002B03D189
:109094000C493120FFF7B9FB019B9B68002B0CD0D6
:1090A400019B5B69019A1069019A1168019A92689F
:1090B4009847019B00229A6000E000BF03B05DF86E
:1090C40004FB00BF8C2605000EB400B584B00190EB
:1090D400019B002B03D118494220FFF796FB019B0B
:1090E4005B69002B03D114494320FFF78EFB019BDE
:1090F4001B68002B03D110494420FFF786FB019B1A
:109104005B68002B03D10C494520FFF77EFB059BD0
:10911400002B0AD00023039306AB039303AB1A4638
:109124000599019800F0B0F900E000BF04B05DF8C3
:1091340004EB03B0704700BF8C26050000B583B074
:1091440001900B468DF80330019B1A68019B9B68C4
:10915400581C0199886013449DF803201A70019BE0
:109164009A68019B5B689A4202D30198FFF78AFFD1
:1091740000BF03B05DF804FB00B587B00390029113
:109184000192009300230593009B03F00103002B3D
:1091940024D00BE0029B01330293059B013305931A
:1091A4009DF8133019460398FFF7C8FF029B1B78FC
:1091B4008DF813309DF81330002BEBD106E0019BA2
:1091C400013B019320210398FFF7B8FF019A059B07
:1091D4009A422ED9019B002BF1D12AE0029B002B4D
:1091E4000BD0029827F0BFFF059006E0019B013BDE
:1091F400019320210398FFF7A1FF019A059B9A424E
:109204000FD9019B002BF1D10BE0029B0133029398
:10921400059B013305939DF8133019460398FFF716
:109224008DFF029B1B788DF813309DF81330002BB3
:10923400EBD100BF07B05DF804FB000000B589B0B6
:109244000390029101920093029B079301230693DA
:1092540007E0079A019BB2FBF3F30793069B0133E4
:109264000693079A019B9A42F3D2009A069B9A426C
:1092740001D9009B06930B9B03F00103002B22D121
:109284000A9B002B1FD00B9B03F00203002B06D07C
:10929400009B002B03D130238DF8173002E02023EC
:1092A4008DF8173008E00A9B013B0A939DF81730AC
:1092B40019460398FFF742FF0A9B002B03D0069A36
:1092C4000A9B9A42EFD301230793009B012B03D9F6
:1092D400009B013B009309E0029A079BB2FBF3F366
:1092E4000493049A019B9A4200D205E0079B019AD9
:1092F40002FB03F30793E8E7029A079BB2FBF3F33D
:109304000493049B079A02FB03F3029AD31A029371
:10931400154A049B13441B7819460398FFF70EFF64
:10932400079A019BB2FBF3F30793079B002BE3D14E
:109334000B9B03F00103002B11D00A9B002B0ED0D2
:1093440006E00A9B013B0A9320210398FFF7F6FEEF
:109354000A9B002B03D0069A0A9B9A42F1D300BFC2
:1093640009B05DF804FB00BF6C27050000B589B0A7
:109374000590049103920293049B002BB8BF5B42B7
:1093840006930123079307E0039B069A92FBF3F3EA
:109394000693079B01330793039B069A9A42F3DAD9
:1093A400029A079B9A4201D9029B07930A9B002BBE
:1093B4000AD0049B002B04DB0B9B03F00403002B5B
:1093C40002D00A9B013B0A930B9B03F00203002B80
:1093D40002D0029B002B16D00B9B03F00103002B41
:1093E40011D10A9B002B0ED006E00A9B013B0A9385
:1093F40020210598FFF7A2FE0A9B002B03D0079AB1
:109404000A9B9A42F1D3049B002B07DA049B5B422C
:1094140004932D210598FFF791FE08E00B9B03F0C0
:109424000403002B03D02B210598FFF787FE0B9B29
:1094340003F00203002B19D00B9B03F00103002B54
:1094440014D1029B002B11D10A9B002B0ED006E0F5
:109454000A9B013B0A9330210598FFF76FFE0A9B94
:10946400002B03D0079A0A9B9A42F1D304990B9BD1
:1094740001930A9B0093029B039A0598FFF7DEFE73
:1094840000BF09B05DF804FB00B58FB005900491EE
:109494000392059B002B04D1AD494FF4A270FFF752
:1094A400B4F9059B5B69002B04D1A9494FF4A3705F
:1094B400FFF7ABF9059B1B68002B04D1A44940F2CC
:1094C4004710FFF7A2F9059B5B68002B04D1A04964
:1094D4004FF4A470FFF799F9049B002B00F09381DB
:1094E400049B1B788DF83730049B013304939DF85B
:1094F4003730002B00F07E819DF83730252B40F06B
:109504006D8100230A9301230C93049B1B788DF82F
:1095140037309DF83730302B0DD0302B1BDC2B2B04
:1095240011D02D2B17D10A9B43F001030A93049BFE
:109534000133049312E00A9B43F002030A93049B51
:10954400013304930AE00A9B43F004030A93049B47
:109554000133049302E000230C9300BF0C9B002B07
:10956400D3D1002309939DF837302A2B0CD1039BC8
:109574001B68191D039A11601B68099A1344099307
:10958400049B013304931AE0049B1B788DF8373055
:109594009DF837302F2B12D99DF83730392B0ED840
:1095A400049B01330493099A13469B0013445B0004
:1095B4001A469DF837301344303B0993D3E7002310
:1095C4000B93049B1B788DF837309DF837302E2B86
:1095D4001DD1049B01330493049B1B788DF8373011
:1095E4009DF837302F2B12D99DF83730392B0ED8F0
:1095F400049B013304930B9A13469B0013445B00B2
:109604001A469DF837301344303B0B93E4E7049B30
:109614001B788DF837309DF837306C2B03D09DF8CC
:109624003730682B07D1049B01330493049B1B78C8
:109634008DF83730EFE79DF83730252B00F0C480E4
:10964400252BC0F2C680782B00F3C380582BC0F2C0
:10965400C080583B202B00F2BC8001A252F823F0BA
:1096640059970200D7970200D7970200D7970200B4
:10967400D7970200D7970200D7970200D797020026
:10968400D7970200D7970200D7970200E996020005
:109694000B970200D7970200D7970200D7970200D2
:1096A400D79702000B970200D7970200D7970200C2
:1096B400D7970200D7970200D7970200D7970200E6
:1096C40099970200D7970200D79702007D9702006E
:1096D400D79702002F970200D7970200D79702006E
:1096E40059970200039B1B68191D039A11601B689C
:1096F4000C930C9B8DF81F309DF81F30194605986C
:10970400FFF71CFD66E0039B1B68191D039A11609B
:109714001B680C930A9B0193099B00930B9B0A22E1
:109724000C990598FFF722FE54E0039B1B68191D52
:10973400039A11601B680C930C990A9B0193099B73
:1097440000930B9B0A220598FFF778FD42E000BFC7
:10975400F8260500039B1B68191D039A11601B68FA
:109764000C930C990A9B0193099B00930B9B102269
:109774000598FFF763FD2DE0039B1B68191D039AF1
:1097840011601B6808930A9B099A08990598FFF7CA
:10979400F3FC1FE0039B1B68191D039A11601B68EF
:1097A4000C9330210598FFF7C9FC78210598FFF741
:1097B400C5FC0C990023019308230093082310226D
:1097C4000598FFF73BFD05E025210598FFF7B6FC5A
:1097D40000E000BF049B0133049305E09DF837309B
:1097E40019460598FFF7AAFC049B1B78002B7FF40D
:1097F40077AE00E000BF059B1B7B002B04D00598CF
:10980400FFF740FC00E000BF0FB05DF804FB00BFB1
:1098140000B587B0059004910392059B002B10D1ED
:10982400194A1A4BD31ADB081B0443F00100184AE7
:1098340018490E2300930B461749FDF778FA0E23B7
:109844001DE0049B002B10D10F4A104BD31ADB08E8
:109854001B0443F00100114A0E490E2300930B46EA
:109864000D49FDF764FA0E2309E0059B049A1A607A
:10987400059B1B681B68039905989847034618467F
:1098840007B05DF804FB00BFC42105003C210500BE
:109894008C2705003029050094270500C027050002
:1098A40010B586B00590049103920293059B002B9A
:1098B40010D1604A604BD31ADB081B0443F001004B
:1098C4005E4A5F490E2300930B465E49FDF72FFA6B
:1098D4000E23ABE0039B002B10D1564A564BD31AF0
:1098E400DB081B0443F00100574A55490E2300933B
:1098F4000B465449FDF71BFA0E2397E0059B1B68A2
:10990400002B10D14B4A4C4BD31ADB081B0443F0F9
:1099140001004E4A4A49082300930B464949FDF782
:1099240006FA082382E0029B002B10D1414A424BE5
:10993400D31ADB081B0443F00100454A40490923BC
:1099440000930B463F49FDF7F2F909236EE0059BAE
:109954005B685A68029BB3FBF2F101FB02F29B1AAB
:10996400002B10D0334A344BD31ADB081B0443F0CA
:109974000100384A3249092300930B463149FDF767
:10998400D6F9092352E0049800F01EF90346002B8F
:1099940010D1284A284BD31ADB081B0443F00100DA
:1099A4002D4A2749102300930B462649FDF7BFF99A
:1099B40010233BE0039B184600F006F90346002BF6
:1099C40010D11C4A1C4BD31ADB081B0443F00100C2
:1099D400224A1B49102300930B461A49FDF7A7F9A5
:1099E400102323E0029A0499059800F0D3F8034663
:1099F400002B10D10F4A104BD31ADB081B0443F081
:109A04000100174A0E49102300930B460D49FDF738
:109A14008EF910230AE0059B1B68DC68089B009301
:109A2400029B039A04990598A0470346184606B07A
:109A340010BD00BFC42105003C2105008C27050092
:109A4400442905009427050020280500C82705009F
:109A5400DC27050028280500542805006C2805008B
:109A64009028050010B586B00590049103920293E6
:109A7400059B002B10D13E4A3E4BD31ADB081B0436
:109A840043F001003C4A3D490E2300930B463C49F8
:109A9400FDF74DF90E2368E0059B1B68002B10D1E0
:109AA400334A344BD31ADB081B0443F00100354A14
:109AB4003249082300930B463149FDF738F908234E
:109AC40053E0039B002B10D1294A2A4BD31ADB08FD
:109AD4001B0443F001002C4A2849092300930B4638
:109AE4002749FDF724F909233FE00499059800F07C
:109AF40078F80346002B10D11D4A1E4BD31ADB08FD
:109B04001B0443F00100214A1C49102300930B4617
:109B14001B49FDF70CF9102327E0059B5B681B68C4
:109B2400039A02FB03F31A460499059800F032F8ED
:109B34000346002B10D10E4A0E4BD31ADB081B042C
:109B440043F00100124A0D49102300930B460C49BF
:109B5400FDF7EDF8102308E0059B1B681C69029BC8
:109B6400039A04990598A0470346184606B010BD09
:109B7400C42105003C2105008C2705005829050057
:109B840094270500C8270500DC270500B828050030
:109B9400E028050084B0039002910192039BDB68E6
:109BA400029A9A4209D3029A019B13445A1E039BB8
:109BB4001B699A4201D8012300E0002303F001034A
:109BC400DBB2184604B0704782B00190019B03F0E9
:109BD4000303002B0CBF01230023DBB2184602B0A1
:109BE400704782B001900091019B5B681B685A1E0C
:109BF400009B1340002B0CBF01230023DBB218464B
:109C040002B0704729DF704700BF184628DF70474D
:109C140000BF184600B589B001900091019B1B68F4
:109C24009B68002B35D002AB00221A605A609A6000
:109C3400DA601A615A61009B0393019B9B68079346
:109C4400019B1B79002B02D0012B0DD01AE00123BC
:109C54008DF80830019B1B690493019BDB68059315
:109C6400019B5B6906930DE002238DF80830019B8C
:109C7400DB684FF4805202FB03F30493019B5B699E
:109C8400069300BF019B1B689B6802AA1046984775
:109C940000E000BF09B05DF804FB00B587B0019097
:109CA400019B5A69019B9B69D31AB3F5805F28BF56
:109CB4004FF4805305930422059BB3FBF2F3012B6D
:109CC40038BF01230593019B1A69019B9B691344C7
:109CD4000493019BDB681A46019B9B69134403931D
:109CE400059A03990498FFF78DFF0346184607B0B9
:109CF4005DF804FB00B583B00190019BDA68019B19
:109D04001B6913441846FFF781FF0346184603B046
:109D14005DF804FB08B5034B03491846FEF7B2FE91
:109D240000BF08BD5C2F0020842F002008B5084B1D
:109D340008491846FEF78DFE0346074A1360064B92
:109D44001B68002B14BF01230023DBB2184608BD97
:109D54005C2F0020842F0020802F002000B583B0CA
:109D64002A4B1B7A002B0BD1FFF7E0FF034683F04D
:109D74000103DBB2002B03D0244B00225A6042E0E3
:109D8400224B02221A72224B1B681B79002B02D031
:109D9400012B07D00DE01E4B1B681846FFF77DFF13
:109DA400019009E01A4B1B681846FFF7A3FF0190C6
:109DB40002E00323019300BF019B002B03D0019B0E
:109DC400112B0CD00FE0114B1B7C83F00103DBB291
:109DD400002B17D00021022000F060F912E00B4B99
:109DE40001221A720FE00A4B1B6803211846FFF781
:109DF40011FF064B00221A72044B00225A60FFF72F
:109E040089FF00E000BF03B05DF804FB6C2F002065
:109E1400802F002008B50848FFF701F80346002BFF
:109E240008D1064B5B7C83F00103DBB2002B01D02D
:109E3400FFF794FF00BF08BD702F00206C2F002097
:109E440084B001901B4B0022DA60019B1B79002B2C
:109E540002D0012B19D028E0019B5A69019B9B6910
:109E6400D31AB3F5805F28BF4FF480530393019B4B
:109E74009A69039B1A44019B9A61019B9A69019B0D
:109E84005B699A420ED1012310E0019B1B695A1CA5
:109E9400019B1A61019B1A69019B5B699A4203D178
:109EA400012303E000BF00E000BF0023184604B014
:109EB400704700BF6C2F002082B00190084BDB6814
:109EC4000133074AD360064BDB68082B04D9044BE3
:109ED4000022DA60012300E00023184602B0704734
:109EE4006C2F002000B583B001900091019B0C4AB7
:109EF4005A600C48FEF793FF0346002B0BD111F078
:109F040097F903461A46074B1A7407481C238C22F8
:109F14000649FEF72AFD0023184603B05DF804FB4A
:109F24006C2905006C2F00205C2F0020D02E00200F
:109F340000B583B00190009114220021054827F058
:109F440096F8054B1846FEF743FD0023184603B068
:109F54005DF804FB6C2F00205C2F002000B587B057
:109F64000390029101920093174A04AB19461046DC
:109F7400FEF742FD0590059B002B01D104231FE051
:109F84001C220021059827F072F8059B00221A7103
:109F9400059B039A1A60059B089A9A60059B029A8E
:109FA4001A61059B019ADA60059B009A5A61064A78
:109FB40004AB19461046FEF738FDFFF72BFF0023CC
:109FC400184607B05DF804FB5C2F002000B585B08F
:109FD4000390029101920093029B009A1946019802
:109FE40027F01CF80023184605B05DF804FB0000B8
:109FF40000B587B00390029101920093184A04AB14
:10A0040019461046FEF7F8FC0590059B002B01D17C
:10A01400042320E01C220021059827F028F8059B42
:10A0240001221A71059B039A1A60059B009A9A6093
:10A034004FF48052029BB3FBF2F2059BDA60059B5E
:10A04400019A5A61064A04AB19461046FEF7EDFC24
:10A05400FFF7E0FE0023184607B05DF804FB00BFDD
:10A064005C2F002082B001900091009B184602B042
:10A07400704782B0019000910023184602B07047E7
:10A0840082B00190044B1B7A002B14BF01230023E0
:10A09400DBB2184602B070476C2F002000B585B0C3
:10A0A40001900091019B022B02D0019B032B48D10C
:10A0B400274B1B7A022B05D0022B35DC002B42D018
:10A0C400012B31E000238DF80F30019B022B03D0CC
:10A0D400019B032B09D011E01E4B1B681846FFF7A8
:10A0E400AFFE03468DF80F3008E01A4B1B68184684
:10A0F400FFF7E2FE03468DF80F3000BF9DF80F30E6
:10A10400002B10D0124B00221A72124B1A68019BBA
:10A11400022B01D1002300E00D2319461046FFF75E
:10A1240079FDFFF7F7FD00BF094B5B7C83F001036A
:10A13400DBB2002B02D0FFF711FE05E011F05CF852
:10A1440002E000BF00E000BF05B05DF804FB00BF03
:10A154006C2F0020802F002082B0034600918DF8E0
:10A164000730064B01225A74044B1B7A002B0CBF98
:10A1740001230023DBB2184602B070476C2F002085
:10A1840000B583B0034600918DF807309DF8073081
:10A19400012B03D09DF80730032B0DD1084B00226F
:10A1A4005A749DF80730012B0CBF01230023DAB247
:10A1B400034B1A74FFF7D2FD00BF03B05DF804FB34
:10A1C4006C2F002000B583B001900198FEF782FE49
:10A1D4000346184603B05DF804FB00B58BB001904C
:10A1E4000091019B1B8A043B0793009A079B13442D
:10A1F400DA1C079BB2FBF3F38DF81B300198FEF7D2
:10A20400C5FE0590059B002B01D1002338E0059B7A
:10A2140000221A71059B01225A71079B9AB2059B71
:10A22400DA80059B09939DF81B30013B0493099B3D
:10A23400019A1A60002308931DE00198FEF7A6FE18
:10A244000390039B002B0ED0059B5B790133DAB29C
:10A25400059B5A71099B039A1A60039B019A1A6021
:10A26400039B099304E0059800F00EF8002307E02F
:10A27400089B01330893089A049B9A42DDD3059BFB
:10A2840018460BB05DF804FB00B58BB00190019B40
:10A294000793079B5B798DF81B30019B08939DF80E
:10A2A4001B30013B05930023099305E0089B1B68C1
:10A2B4000893099B01330993099A059B9A42F5D3A4
:10A2C400089B1B680493019B0893002309930BE0EC
:10A2D400089B1B68039308990498FEF79FFE039B51
:10A2E4000893099B013309939DF81B30099A9A42FC
:10A2F400EED300BF00BF0BB05DF804FB00B585B022
:10A304000190019B0393039B043301211846FEF73C
:10A3140047FD00BF05B05DF804FB00B587B00190B0
:10A32400019B0593059B043301211846FEF750FD5C
:10A334000346039303AB0493049B1B78002B02D1C5
:10A344000198FFF7A1FF00BF07B05DF804FB000010
:10A3540000B591B00390029101920093039B002BEE
:10A3640003D14349B620FEF750FA039B0993039B9C
:10A374000F93099BDB881A46099B5B7902FB03F365
:10A38400043B0893009A089B9A4203D33849C4209B
:10A39400FEF73BFA099BDB880793009B1A1D079B7A
:10A3A400B2FBF3F30E93009B0433079AB3FBF2F270
:10A3B400079901FB02F29B1A0D93019B1A68009BFB
:10A3C4001344089A9A4203D2089A009BD31A01E0D4
:10A3D400019B1B680C93019B0C9A1A6005E00F9B70
:10A3E4001B680F930E9B013B0E930E9B002BF6D123
:10A3F40000230B93079A0D9BD31A0A930A9A0C9B7A
:10A40400934228BF13460A932AE0029A0B9B1344F3
:10A4140006930F9A0D9B1344043305939DF848301B
:10A42400002B05D00A9A0599069826F0F7FD04E05A
:10A434000A9A0699059826F0F1FD00230D930F9BC7
:10A444001B680F930C9A0A9BD31A0C930B9A0A9BC2
:10A4540013440B93079A0C9B934228BF13460A9309
:10A464000C9B002BD1D100BF00BF11B05DF804FBE1
:10A474009829050000B589B00590049103920293D0
:10A48400039B079307AA00230093029B0499059852
:10A49400FFF75EFF079B039A9A4203D00349F62015
:10A4A400FEF7B3F900BF09B05DF804FB9829050075
:10A4B40000B589B00590049103920293039B07931E
:10A4C40007AA01230093029B04990598FFF740FF14
:10A4D400079B039A9A4204D004494FF48070FEF714
:10A4E40094F900BF09B05DF804FB00BF982905008A
:10A4F400BFF34F8F00BF074BDB6803F4E0620549ED
:10A50400054B1343CB60BFF34F8F00BF00BF00BFA9
:10A51400FCE700BF00ED00E00400FA0500B583B0DD
:10A524000190019B002B03D10449C420FEF76DF96F
:10A53400019B5B68184603B05DF804FB102A050014
:10A5440000B583B00190019B002B03D10649722012
:10A55400FEF75BF9019B00221A60BFF35F8F00BF17
:10A5640000BF03B05DF804FB702A050000B585B098
:10A574000190019B002B03D10A498520FEF745F980
:10A5840001210198FEF77DFB0390BFF35F8F00BFAD
:10A59400039B002B0CBF01230023DBB2184605B03C
:10A5A4005DF804FB702A050000B583B00190019B9F
:10A5B400002B03D10A499220FEF727F9019B1B685F
:10A5C400012B03D006499320FEF71FF9BFF35F8FD9
:10A5D40000BF019B00221A6000BF03B05DF804FBBA
:10A5E400702A050033DF704700BF184641DF70470B
:10A5F40000BF18464FF080430122C3F80025BFF383
:10A604004F8F00BF20BF00BFFCE7000008B5064B1A
:10A6140000221A700548FFF793FF0549054800F02A
:10A62400B5F80023184608BD902F00208C2F002079
:10A63400382B0500942F002000B583B010F0F8FDEE
:10A644000346002B0ED0FFF7D1FF0190019B002B96
:10A654000ED0019B022B0BD007494FF4B070FEF7CC
:10A66400D4F805E020BF00BF40BF00BF20BF00BF3B
:10A6740000BF03B05DF804FBBC2A050000B583B03D
:10A684000FE02148FFF74AFF0190019B1B681F4A16
:10A694001278104698470346002B31D01A4800F030
:10A6A4009FF81948FFF73AFF0346002BE9D1FCF75E
:10A6B400BDFD00BFFCF77AFB0346002BFAD1134B18
:10A6C4001B78032B03D0114B1B78022B02D1FFF70D
:10A6D4000FFF16E010F0ACFD0346002B0DD0FFF782
:10A6E40081FF0090009B002B07D0009B022B04D01D
:10A6F40007494FF4D170FEF788F8FFF77BFF00E0BD
:10A7040000BF03B05DF804FB942F0020882F0020C5
:10A71400BC2A050000B583B003468DF807301748FE
:10A72400FFF724FF034683F00103DBB2002B21D1A2
:10A734009DF80730042B0ED0114B1B78002B03D04F
:10A744000E48FFF731FF16E00E4A9DF807301370EC
:10A754000B4B01221A700A4B1B78002B04D10A49B7
:10A7640040F2CB10FEF751F8FFF788FF0348FFF7DC
:10A774001BFF00E000BF03B05DF804FB8C2F00203A
:10A78400902F0020882F0020BC2A050000B583B03C
:10A7940001900091019B002B03D110495020FEF73A
:10A7A40034F8009B002B03D10C495120FEF72DF8FF
:10A7B400019B009A1A60019B1B681A68019B5A60EE
:10A7C400019B5A68019B1B685B689A4202D1019BFA
:10A7D40000225A6000BF03B05DF804FB442B05005F
:10A7E40000B583B00190019B002B03D11449632071
:10A7F400FEF70BF8019B1B68002B03D11049642062
:10A80400FEF703F8019B5B68002B14D0019B5B6887
:10A814001A46019B1B689B6813441A46019B5A60A5
:10A82400019B5A68019B1B685B689A4204D1019B97
:10A8340000225A6000E000BF03B05DF804FB00BFD3
:10A84400442B050000B585B00190019800F00EF886
:10A854000390039B002B01D0039B00E0024B18469E
:10A8640005B05DF804FB00BFD42B050086B0019051
:10A87400164B0593164B04931FE0049A059BD31AB9
:10A88400DB10DA0F13445B10DB00059A13440393C7
:10A89400039B1B680293029A019B9A4202D9039B71
:10A8A40004930AE0029A019B9A4203D2039B083361
:10A8B400059302E0039B5B6804E0059A049B9A42BB
:10A8C400DBD30023184606B0704700BFD42F050021
:10A8D400FC30050082B00190019B9B6800229A60C5
:10A8E400019B9B6800221A61019B9B6800225A61AC
:10A8F400019B9B680022DA60019B9B6800225A60DE
:10A90400019B9B6800221A6000BF02B0704713DFEE
:10A91400704700BF1846000000B583B040F6F873D6
:10A924001B68B3F1FF3F02D11E4B1B6802E040F6E7
:10A93400F8731B680193019BB3F1FF3F21D01A4ABE
:10A944001A4BD31ADB081B0443F00303019A18497A
:10A954001846FCF7C7F90198FFF7D9FF0090009B50
:10A96400002B0CD0104A114BD31ADB081B0443F004
:10A97400010310491846FCF7A7F9009B0DE00023DA
:10A984000BE0094A094BD31ADB081B0443F001030B
:10A9940009491846FCF798F90423184603B05DF8F2
:10A9A40004FB00BF141000109C2105003C2105008D
:10A9B400FC300500283105005C31050000B583B08A
:10A9C400124A134BD31ADB081B0443F00303114A46
:10A9D40011491846FCF786F90E4B1846FFF797FF06
:10A9E4000190019B002B0CD0084A094BD31ADB08B9
:10A9F4001B0443F0010309491846FCF765F9019B60
:10AA040000E00023184603B05DF804FB9C21050018
:10AA14003C21050000600200743105002831050066
:10AA240000B583B001900091019B002B03D108492C
:10AA34007720FDF7EAFE019B9B68009A9A4202D2B6
:10AA4400009B013300E00023184603B05DF804FBCB
:10AA5400A031050084B00190019B1B681B6803931F
:10AA6400019B1B685B680293029A039B9A4203D37F
:10AA7400029A039BD31A06E0019B9A68039BD21A9D
:10AA8400029B13440133184604B0704700B585B0E7
:10AA94000190019B002B03D10D498A20FDF7B5FEDF
:10AAA400019B1B681B680393019B1B685B680293F3
:10AAB40002990198FFF7B4FF0246039B93420CBF2F
:10AAC40001230023DBB2184605B05DF804FB00BF88
:10AAD400A031050010B588B00190009100230793C0
:10AAE400019B002B03D156499520FDF78EFE009B58
:10AAF400002B03D152499620FDF787FE00238DF8E1
:10AB04000F300DF10F031846FDF732FE0198FFF7E1
:10AB1400BDFF03468DF81B309DF81B3083F0010305
:10AB2400DBB2002B03D1019B1B7C002B7BD1019B4F
:10AB34001B685B680593019B1B685A68019B1C6832
:10AB440011460198FFF76CFF034663609DF81B30C4
:10AB5400002B0AD0019B1B681A68019B1C681146D4
:10AB64000198FFF75DFF03462360019BDB68013B0F
:10AB7400072B38D801A252F823F000BFA1AB020082
:10AB8400B1AB0200EBAB0200C3AB0200EBAB0200C3
:10AB9400EBAB0200EBAB0200D5AB0200019B5A68A1
:10ABA400059B1344009A12781A702DE0019B5A6891
:10ABB400059B5B001344009A12881A8024E0019BD1
:10ABC4005A68059B9B001344009A12681A601BE0A4
:10ABD400019B5A68059BDB00D118009BD3E9002335
:10ABE400C1E9002310E0019B5B681946019BDB6807
:10ABF400059A02FB03F30B441846019BDB681A46D3
:10AC0400009926F00BFA00BF0198FFF723FF049088
:10AC1400019B1B689B68049A9A4207D9019B1B6895
:10AC2400049A9A6002E00423079300E000BF9DF8B1
:10AC34000F301846FDF7B2FD079B184608B010BD4B
:10AC4400A031050010B588B00390029113468DF829
:10AC5400073000230793039B002B03D14549D920D8
:10AC6400FDF7D3FD029B002B03D14249DA20FDF707
:10AC7400CCFD00238DF817300DF117031846FDF7AE
:10AC840077FD039800F09EF8034683F00103DBB2DE
:10AC9400002B63D0039B1B681B6806939DF8073049
:10ACA40083F00103DBB2002B0AD0039B1B681A68F4
:10ACB400039B1C6811460398FFF7B2FE034623600A
:10ACC400039BDB68013B072B37D801A252F823F022
:10ACD400F5AC020005AD02003FAD020017AD020065
:10ACE4003FAD02003FAD02003FAD020029AD0200BE
:10ACF400039B5A68069B13441A78029B1A702FE030
:10AD0400039B5A68069B5B0013441A88029B1A80B3
:10AD140026E0039B5A68069B9B0013441A68029B17
:10AD24001A601DE0039B5A68069BDB001344D3E9B9
:10AD340000230299C1E9002312E0039B5B681946D2
:10AD4400039BDB68069A02FB03F30B441946039B3F
:10AD5400DB681A46029826F061F901E0052307939F
:10AD64009DF817301846FDF719FD079B184608B0E3
:10AD740010BD00BFA031050000B585B00190019B56
:10AD8400002B04D10E4940F2EF10FDF73EFD0023E5
:10AD94008DF80F300DF10F031846FDF7E9FC019B08
:10ADA4001B680C220021184626F061F99DF80F302B
:10ADB4001846FDF7F3FC00BF05B05DF804FB00BFC7
:10ADC400A031050000B585B00190019B002B04D192
:10ADD4000B4940F20A20FDF718FD019B1B681B6814
:10ADE4000393019B1B685B680293039A029B9A423C
:10ADF4000CBF01230023DBB2184605B05DF804FB49
:10AE0400A0310500BFF34F8F00BF074BDB6803F48D
:10AE1400E0620549054B1343CB60BFF34F8F00BF7E
:10AE240000BF00BFFCE700BF00ED00E00400FA052E
:10AE3400024B034A1A6000BF704700BFA4240020DD
:10AE44000090D00308B500F069F90346002B06D042
:10AE5400A04B1B681B0AA04A03F01F03136000F0F9
:10AE640089F90346002B02D09C4B9D4A1A6000F0DE
:10AE74009DF90346002B06D09A4B1B685B0B9A4A3C
:10AE840003F00703136000F0BDF90346002B05D05F
:10AE9400964BDB68954A23F08073D36000F0CEF9BB
:10AEA4000346002B0ED04FF080430022C3F80C2140
:10AEB4004FF080430022C3F810214FF0804300225A
:10AEC400C3F8382500F0E6F90346002B02D0884B7E
:10AED40003221A6000F0FAF90346002B0BD0854BCD
:10AEE40005221A60844B01221A60844B00221A60E6
:10AEF400834B3F221A6000F005FA0346002B76D0FC
:10AF04004FF080537F4AD3F80434C2F820354FF011
:10AF140080537C4AD3F80834C2F824354FF0805368
:10AF2400784AD3F80C34C2F828354FF08053754A68
:10AF3400D3F81034C2F82C354FF08053714AD3F84B
:10AF44001434C2F830354FF080536E4AD3F81834B5
:10AF5400C2F834354FF080536A4AD3F81C34C2F82F
:10AF640040354FF08053674AD3F82034C2F8443553
:10AF74004FF08053634AD3F82434C2F848354FF075
:10AF84008053604AD3F82834C2F84C354FF08053CC
:10AF94005C4AD3F82C34C2F850354FF08053594AE8
:10AFA400D3F83034C2F854354FF08053554AD3F8AF
:10AFB4003434C2F860354FF08053524AD3F83834F1
:10AFC400C2F864354FF080534E4AD3F83C34C2F88B
:10AFD40068354FF080534B4AD3F84034C2F86C358F
:10AFE4004FF08053474AD3F84434C2F8703500F028
:10AFF400A5F90346002B05D0434B1B68434A03F0D5
:10B004004F03136000F0C6F90346002B0DD04FF038
:10B014008043D3F8003403F00103002B05D04FF034
:10B0240080436FF00102C3F8002400F0DFF9034607
:10B03400002B05D0364B1B68354A43F480631360FC
:10B04400344BD3F88830334A43F47003C2F8883061
:10B05400BFF34F8F00BFBFF36F8F00BF4FF01023BC
:10B06400D3F80032002B05DB4FF01023D3F8043261
:10B07400002B2BDA284B0122C3F8042500BF264BF2
:10B08400D3F80034002BFAD04FF010231522C3F864
:10B09400002200BF204BD3F80034002BFAD04FF02D
:10B0A40010231522C3F8042200BF1B4BD3F800342D
:10B0B400002BFAD0184B0022C3F8042500BF164B0E
:10B0C400D3F80034002BFAD0FFF79CFEFFF7B0FE54
:10B0D40000BF08BD240300104035014074C0074080
:10B0E4000DF0ADBA440200103C050040F0ED00E064
:10B0F400A0050040105600408856004018560040F5
:10B104001456004000C0004058020010E40E0040F5
:10B114003C17004000ED00E000E00140124B1B68CA
:10B12400DBB2062B1DD1114B1B6803F00F03002B60
:10B1340017D10F4B1B6803F0F003302B01D101230F
:10B1440010E00B4B1B6803F0F003402B01D10123EB
:10B1540008E0074B1B6803F0F003502B01D10123D7
:10B1640000E0002318467047E00F00F0E40F00F001
:10B17400E80F00F00A4B1B68DBB2062B0DD1094B1C
:10B184001B6803F00F03002B07D1074B1B6803F068
:10B19400F003302B01D1012300E00023184670474F
:10B1A400E00F00F0E40F00F0E80F00F0124B1B6812
:10B1B400DBB2062B1DD1114B1B6803F00F03002BD0
:10B1C40017D10F4B1B6803F0F003302B01D101237F
:10B1D40010E00B4B1B6803F0F003402B01D101235B
:10B1E40008E0074B1B6803F0F003502B01D1012347
:10B1F40000E0002318467047E00F00F0E40F00F071
:10B20400E80F00F00A4B1B68DBB2062B0DD1094B8B
:10B214001B6803F00F03002B07D1074B1B6803F0D7
:10B22400F003302B01D1012300E0002318467047BE
:10B23400E00F00F0E40F00F0E80F00F0124B1B6881
:10B24400DBB2062B1DD1114B1B6803F00F03002B3F
:10B2540017D10F4B1B6803F0F003302B01D10123EE
:10B2640010E00B4B1B6803F0F003402B01D10123CA
:10B2740008E0074B1B6803F0F003502B01D10123B6
:10B2840000E0002318467047E00F00F0E40F00F0E0
:10B29400E80F00F00A4B1B68DBB2062B0DD1094BFB
:10B2A4001B6803F00F03002B07D1074B1B6803F047
:10B2B400F003302B01D1012300E00023184670472E
:10B2C400E00F00F0E40F00F0E80F00F00A4B1B68F9
:10B2D400DBB2062B0DD1094B1B6803F00F03002BC7
:10B2E40007D1074B1B6803F0F003302B01D1012376
:10B2F40000E0002318467047E00F00F0E40F00F070
:10B30400E80F00F00A4B1B68DBB2062B0DD1094B8A
:10B314001B6803F00F03002B07D1074B1B6803F0D6
:10B32400F003502B01D1012300E00023184670479D
:10B33400E00F00F0E40F00F0E80F00F0124B1B6880
:10B34400DBB2062B1DD1114B1B6803F00F03002B3E
:10B3540017D10F4B1B6803F0F003302B01D10123ED
:10B3640010E00B4B1B6803F0F003402B01D10123C9
:10B3740008E0074B1B6803F0F003502B01D10123B5
:10B3840000E0002318467047E00F00F0E40F00F0DF
:10B39400E80F00F0124B1B68DBB2062B1DD1114BDA
:10B3A4001B6803F00F03002B17D10F4B1B6803F02E
:10B3B400F003302B01D1012310E00B4B1B6803F089
:10B3C400F003402B01D1012308E0074B1B6803F075
:10B3D400F003502B01D1012300E0002318467047ED
:10B3E400E00F00F0E40F00F0E80F00F0064B1B68DC
:10B3F400062B05D1054B1B68062B01D1012300E068
:10B4040000231846704700BF3001001034010010BB
:10B4140082B003468DF807309DF8073003F01F0211
:10B4240006499DF907305B09012000FA02F2203336
:10B4340041F8232000BF02B0704700BF00E100E0E4
:10B4440008B50FF0F5FE034683F00103DBB2002BD1
:10B4540003D105497920FDF7D8F900F02DFB034B02
:10B4640000229A7000BF08BD1C3205009C2F0020EA
:10B47400014B1B78184670479C2F002000B583B001
:10B4840000230193144B1B78002B02D085230193D6
:10B494001CE0114B00229A600F4B00225A600E4BA5
:10B4A40000221A610C4B0022DA600C4800F0AAFA60
:10B4B40001900FF0BDFE034683F00103DBB2002BC5
:10B4C40001D000F0C5FA044B01221A70019B184602
:10B4D40003B05DF804FB00BF9C2F0020A9B6020056
:10B4E40084B001900091019B1B68039306E0039ACA
:10B4F400009B9A420DD0039B1B680393039B002B74
:10B50400F5D1019B1A68009B1A60019B009A1A608E
:10B5140000E000BF04B0704784B00190019B1B6839
:10B524000393039B002B03D0039B1A68019B1A60AF
:10B53400039B184604B0704700B585B00190294BB1
:10B544001B78002B03D12849E920FDF75EF9254B30
:10B554009B78DBB2002B19D0019B002B03D0019BFD
:10B564005B680120984700238DF80F300DF10F031D
:10B574001846FDF7FDF81B4BDB680133194AD3600D
:10B584009DF80F301846FDF709F91EE000238DF8E9
:10B594000E300DF10E031846FDF7EAF8019B002B5F
:10B5A40003D001991148FFF79BFF0E4BDB68002B7A
:10B5B40001D100F067FA0B4BDB680133094AD36011
:10B5C4009DF80E301846FDF7E9F8064BDB68002BB2
:10B5D40004D1054940F20510FDF717F900BF05B085
:10B5E4005DF804FB9C2F00201C320500AC2F0020CA
:10B5F40000B583B0164B1B78002B04D115494FF4CA
:10B604008570FDF702F9124BDB68002B04D1114958
:10B6140040F20B10FDF7F9F800238DF807300DF117
:10B6240007031846FDF7A4F8094BDB68013B084AF9
:10B63400D360074BDB68002B01D1FFF701FF9DF8B6
:10B6440007301846FDF7AAF800BF03B05DF804FB05
:10B654009C2F00201C32050000B585B003468DF8F0
:10B6640007309DF80730002B02D10C4B039301E007
:10B674000B4B03930398FFF74FFF0290029B002BA1
:10B6840006D0029B5B689DF8072010469847F1E7B7
:10B6940000BF00BF05B05DF804FB00BFA42F00206D
:10B6A400AC2F002000B583B003468DF807309DF819
:10B6B4000730002B05D10A4B01225A700020FFF7F6
:10B6C400CBFF9DF80730012B05D1054B01229A7061
:10B6D4000120FFF7C1FF00BF03B05DF804FB00BF0A
:10B6E4009C2F002000B583B001900091019B002B9A
:10B6F40005D1054B01225A700020FFF7ADFF00BFB2
:10B7040003B05DF804FB00BF9C2F002000B585B09A
:10B71400034600918DF807309DF80730032B29D09C
:10B72400032B35DC002B02D0012B04D030E00020A9
:10B73400FFF76EFE2DE000238DF80F300DF10F039F
:10B744001846FDF715F8154B1B7883F00103DBB29F
:10B75400002B01D0FFF792FE104BDB6801330F4A38
:10B76400D3600E4B01229A709DF80F301846FDF7F6
:10B7740015F80EE0094B1B78002B04D1084940F260
:10B784004520FDF742F800F063F9FFF731FF00E0D0
:10B7940000BF00BF05B05DF804FB00BF9C2F002074
:10B7A4001C32050082B003468DF807309DF807303F
:10B7B40003F01F0205499DF907305B09012000FAD7
:10B7C40002F241F8232000BF02B0704700E100E01C
:10B7D40082B0034600918DF807309DF90730002BA5
:10B7E4000CDA009BDAB20C499DF8073003F00F0322
:10B7F400043B5201D2B20B441A7609E0009BDAB240
:10B8040006499DF907305201D2B20B4483F8002354
:10B8140000BF02B0704700BF00ED00E000E100E0AF
:10B8240082B00190019B1B0B5BB2184602B07047BB
:10B8340000B583B003460A468DF8073013468DF8E9
:10B8440006309DF80630012B03D99DF80630032BF2
:10B854000BD99DF80630042B03D99DF80630072B2D
:10B8640003D908496B20FCF7D0FF9DF806209DF909
:10B87400073011461846FFF7ABFF00BF03B05DF871
:10B8840004FB00BF9032050000B583B003468DF879
:10B8940007309DF907301846FFF784FF00BF03B057
:10B8A4005DF804FB82B003468DF807300F4A9DF91A
:10B8B4000730002B00DA1F335B115BB252F82320F0
:10B8C4009DF90730594203F01F0301F01F0158BFCF
:10B8D4004B425BB222FA03F303F00103002B14BFC3
:10B8E40001230023DBB2184602B0704700E100E0F8
:10B8F40082B001904FF08042019BC2F8043300BF34
:10B9040002B0704782B001904FF08042019BC2F8B0
:10B91400083300BF02B0704782B003468DF8073089
:10B924009DF8073003F1804301221A6000BF02B082
:10B93400704784B00346ADF80630BDF8063003F115
:10B94400804300221A60BDF8063003F180431B686F
:10B954000393039B00BF04B0704782B00346ADF865
:10B964000630BDF8063003F180431B68002B14BF7A
:10B9740001230023DBB2184602B0704782B0019065
:10B984004FF08042019BC2F8183500BF02B07047E7
:10B994004FF08043D3F818341B0C03F00103002B41
:10B9A40014BF01230023DBB21846704700B583B0EF
:10B9B40006238DF807304FF08040FFF731FF034630
:10B9C4001846FFF76FFF034683F00103DBB2002B39
:10B9D40013D04FF08040FFF723FF03461A469DF82B
:10B9E400073019461046FFF723FF4FF08040FFF75A
:10B9F40017FF03461846FFF747FF00BF03B05DF883
:10BA040004FB000000B585B00190019B002B03D11D
:10BA14000D49A020FCF7F9FE002303930B4B1B797F
:10BA2400002B02D08523039308E0084A019B13608E
:10BA3400064B01221A71054B00225A71039B1846CA
:10BA440005B05DF804FB00BFD0320500B02F002024
:10BA540008B5094B1B79002B03D10849B920FCF721
:10BA6400D4FEFFF7A3FF0120FFF788FF044B012258
:10BA74001A7000BF08BD00BFB02F0020D0320500EF
:10BA8400B82F002008B50A4B1B79002B03D10949B4
:10BA9400E620FCF7BAFE4FF48270FFF74AFF02205B
:10BAA400FFF726FF0820FFF737FF00BF08BD00BFE0
:10BAB400B02F0020D032050008B50A4B1B79002BAB
:10BAC40003D10949F320FCF7A0FE0C20FFF724FF63
