:020000022000DC
:1060000000000120756302005D6302005F6302000F
:106010006163020063630200656302000000000028
:1060200000000000000000000000000067630200A4
:1060300069630200000000006B6302006D630200F0
:1060400005AA02006F6302006199020075A10200B7
:1060500021AD02000D7F0300E1970200119A0200BA
:106060006F63020005B602006F6302006F630200F7
:106070006F6302006F6302006F6302006F630200D0
:10608000E9800300057102006F6302006F63020084
:10609000A171020059040300890D03006F6302001F
:1060A0006F6302006F6302006F63020019B60200A3
:1060B000A5A002006F6302000000000000000000C5
:1060C0006F6302006F6302006F6302006F63020080
:1060D00029A802006F630200CD86030000000000C3
:1060E00000000000000000000000000000000000B0
:1060F00000000000000000000000000000000000A0
:10610000000000000000000000000000000000008F
:10611000000000000000000000000000000000007F
:10612000000000000000000000000000000000006F
:10613000000000000000000000000000000000005F
:10614000000000000000000000000000000000004F
:10615000000000000000000000000000000000003F
:10616000000000000000000000000000000000002F
:10617000000000000000000000000000000000001F
:10618000000000000000000000000000000000000F
:1061900000000000000000000000000000000000FF
:1061A00000000000000000000000000000000000EF
:1061B00000000000000000000000000000000000DF
:1061C00000000000000000000000000000000000CF
:1061D00000000000000000000000000000000000BF
:1061E00000000000000000000000000000000000AF
:1061F000000000000000000000000000000000009F
:10620000354936480A1A02D0072291438D4634494F
:1062100034480A1A06D00722914381F309880222E2
:1062200082F3148830483149314A00F044F831484B
:106230003149324A00F03FF831483249324A00F0E1
:106240003AF832483249334A00F035F83248334997
:10625000334A00F030F833483349344A00F02BF821
:1062600033483449344A00F026F83448344900228F
:1062700000F02CF833483449002200F027F8334866
:106280003349091A082902DB002202604160314AC1
:1062900090471F481F49884205D00268043003B464
:1062A000904703BCF7E700208646EC46002000211B
:1062B000294A9047FEE7884207D0521A05D0037852
:1062C00001300B700131013AF9D17047884202D098
:1062D00002700130FAE770470000012000E0002062
:1062E00000000120000001206866040064240020F2
:1062F000FA270020D4630200D4630200E81B0400E4
:10630000686604006424002064240020081E040041
:10631000081E0400081E0400081E0400081E0400D5
:10632000081E0400081E0400081E0400686604001D
:10633000006A0400FC270020FC270020FC27002026
:1063400018770020187700201C7700201C77002089
:106350001C9700209D630200E9B60200FEE7FEE7FD
:10636000FEE7FEE7FEE7FEE7FEE7FEE7FEE7FEE705
:10637000704700BF1048804710484FF0070188431E
:1063800085460F4880470F48016841F4700101605D
:10639000BFF34F8FBFF36F8FFFF732BF0A480B4930
:1063A0000B4A884207D0521A05D0037801300B708F
:1063B0000131013AF9D170477163020000000120F8
:1063C000C58C020088ED00E0F41D0400502400207C
:0463D0006424002021
:1063D40000487047107700207047000007B5044B51
:1063E4000093044A402300F032F803B05DF804FB44
:1063F400FD630200FD2700202DE9F843884614467A
:10640400B2B10F4B0F4E0325002743F0010922467A
:1064140008EB0701002006F079FC0744241A48B968
:1064240033782BB14FF47A40C847013D02D135701F
:10643400BDE8F88301233370002CE8D1F8E700BFEE
:10644400101E0400FC270020704706F08FBCF0B536
:1064540095B01D46164608460C4602F086F81A9B6F
:106464000D93CDE9086500252B46082205A9204691
:106474000A958DF82C500C9502F09EF8079B029318
:10648400069B03939DF814308DF8115003F003021A
:10649400012A1DD1BDF81420059DC3F3C203C2F324
:1064A40083168DF81030B20008230EA9204602F09E
:1064B40083F8C5F3952508AB0093324602AB0EA9C9
:1064C400284600F099FB204602F053F815B0F0BDC1
:1064D400022AF8D1BDF81650C3F3C203C5F38915D7
:1064E4008DF810300827082D2E4628BF08263B4675
:1064F40032460EA9204602F05FF8AD1B08AB02AA93
:1065040031460EA8374400F0DBFB002DEBD1DAE76F
:1065140008B5FFF79AFF0748042100F0D7FA0028CE
:1065240003DA0549412001F099F8044B01225A711C
:1065340008BD00BF8C1D0400241E04006424002038
:10654400037813F0040216D003F00303012B03D0E5
:10655400022B09D0012070470A6800880232C0F378
:10656400831002440A60F5E70B684288023303EBA8
:1065740092130B60EEE71046704700002DE9F04FD0
:10658400DFF844A189B00F4600230446861C0DF1B0
:106594000F0015468DF80F3001F010F8DAF80010EE
:1065A4003960DAE90132134401335B1A0AF21C47F9
:1065B4000AF583690AF21448B3421CD30020002D63
:1065C4007BD004F00F039B0143F0050363F30F003A
:1065D400DAF80020DAF808301340033332444AF87A
:1065E40023009DF80F00CAF8002001F017F80120DD
:1065F40009B0BDE8F08F0121384601F084F948461E
:1066040001F0B1F9404601F0AEF9DAF80400DAF825
:1066140008B0049000EA0B0003300AEB800004A9E0
:10662400FFF78EFF049B0246F8B90BEA03010AEB5D
:10663400810103F1020CC8680590013303EA0B0BD6
:106644000AEB8B0B00F003000128DBF80C10CDF8EB
:1066540010C02AD002280BD01A4901924FF4BF70FF
:1066640000F0FCFF019A93460CE00BEA0300D3E729
:10667400BDF81630C3F3891303334FEA114B0CEB07
:1066840093030493404601F071F910B1049BCAF8D6
:1066940004305946384601F036F9DAE90123134447
:1066A400DAF8002001339B1A86E7BDF81430C3F3EF
:1066B40083134FEA114B6344E3E7A40544F0060057
:1066C40086E700BFB81E0400102900200B4B0C48BD
:1066D400FF2210B59A600022C3F81824C3E90022EF
:1066E400C3F81424012283F8202401F0F7FE0446A1
:1066F40010B9044802F074F8204610BD1029002097
:10670400581D04004C1F040030B50A4C71B10A4AEC
:106714000A49121BD20800239A4201D1002030BD3D
:1067240031F82350854202D00133F5E7034654F88B
:106734003300F4E7581C0400581D040050240020C2
:10674400094B013903EBC000032909D8DFE801F044
:106754000A020406042070470079704740797047A4
:106764000020704702207047581C0400034BD3E9F3
:106774000030C31A58425841704700BF1029002006
:106784002DE9F04387B0FFF7F1FF0646002840F0FB
:10679400FE80804CC4F81804BFF34F8F6368A5686B
:1067A40002932B40033304EB830002A9FFF7C8FED6
:1067B400029B18B1D4F81824002A62D005EA030217
:1067C400991C013304EB82022B4004EB8303D2684F
:1067D400DB68049302F00303022B0392029163D15A
:1067E400BDF80E306C48C3F38917502FB84628BF44
:1067F4004FF0500808F1080168F38F13C1F3090141
:10680400ADF80E3001F082FE0646002800F0AA80A2
:1068140001F0ABFE0023082203A9304601F0B8FEC4
:10682400029925EA01020132B8EB820F4FEA820392
:1068340033D95FFA88F863B32940DDB2A8EB0508C1
:1068440003315FFA88F9A846544D04EB810108230B
:106854004246304601F09CFE3DB108F10803DBB22C
:106864004A462946304601F093FE029B033703EB68
:1068740097070297D4F81834002B4BD1D4F810544E
:106884005BE0226893428CD36260304607B0BDE877
:10689400F08342491D469946D9E72940033108232C
:1068A400424604EB8101DDE7012B5BD1BDF80C30DE
:1068B4003948C3F38311062928BF062161F38913DC
:1068C400023101F00F018900ADF80C3001F01EFE19
:1068D4000646002846D001F048FE0023082203A9FA
:1068E400304601F055FE0027BDF80C20C2F3831298
:1068F400BB00974203F10803BCD202994A1C294009
:106904000331029204EB81010422304601F040FE7F
:106914000137E9E7304601F02CFEFFF727FF80F04E
:106924000100C6B2B1E7EB685B7923B12B6831464D
:106934001B6828469847EB681D68002DF3D1304644
:1069440001F017FE0DF107008DF8075000F036FE38
:10695400D4F818340BB9029B63609DF8070000F06B
:106964005DFEDAE7D4F8104454B90D4B0D480E49D6
:10697400C01AC008000440F0020000F073F8CCE72D
:10698400236820469B689847E3681C68ECE7002668
:106994007BE700BF10290020581D04001C2900209B
:1069A400581C0400C01C0400341F04002DE9F74FD8
:1069B400274E04460F46914601A901221846D6F8EF
:1069C40008A09846FFF7DAFD78B3019D0023A81CC0
:1069D400434503EB000132D11E48002100F04CFF77
:1069E40080F3100B1C4B1D4A4FEA14499B1AB9EB58
:1069F400D30F04D31A4940F2A31000F02FFE6B1CEE
:106A040003EA0A03E40006EB830304F0380449EACA
:106A14000B4005EA0A0544F00104D860033544EA52
:106A2400881343EA872346F8253096F820341BB1AF
:106A3400FFF7A6FE0028FBD103B0BDE8F08F0AEAF9
:106A4400010106EB810159F82320CA600133BFE735
:106A5400102900202C2D0020581D0400581C04006F
:106A6400B81E040000231A46FFF7A0BF07B5012390
:106A7400019201AAFFF79AFF03B05DF804FB07B582
:106A8400CDE9002302236A46FFF790FF03B05DF8C7
:106A940004FB1FB5CDE90123069B039301AA03233D
:106AA400FFF784FF05B05DF804FB7FB5CDE9012352
:106AB400089B0393099B04930A9B059301AA05234E
:106AC400FFF774FF07B05DF804FB000030B50F4C0E
:106AD400D4F8102403460020114631B9D96808714E
:106AE4004AB9C4F810340A6030BDC9680D798542CA
:106AF40006D00968F1E7D26814680C601360F3E704
:106B040001300A28E8D14FF0FF30EDE710290020CA
:106B140038B5084B0125D3F8104483F8205404B940
:106B240038BDE3685D71236820465B689847E36875
:106B34001C68F4E71029002030B5C38885B00446EA
:106B44000D4633B1144A00921449154A284600F000
:106B5400B5FF217A05291DD0637A4BB1A088FFF7D0
:106B6400EFFD104B104953F82020284600F0A6FFF3
:106B7400227A0E4BA08853F8222003920021FFF7BB
:106B8400C3FD039A0A490346284605B0BDE83040D0
:106B940000F094BF05B030BD781F0400601F0400EE
:106BA400581F0400E01F0400A85904000420040036
:106BB4007D1F040007B503460846197A052911D03C
:106BC4005B7A2BB1094A0A49019000F077FF0198DA
:106BD4000849019000F072FF019803B05DF804EBDE
:106BE40000F05ABF002AF8D0F2E700BF781F040073
:106BF400A8590400584F04002DE9F04385B01F46FE
:106C04000C9D002395F80C902B7306460C46904679
:106C140029463846FFF790FFB8F1060F09D8DFE898
:106C240008F00412181F283340003146284600F0AB
:106C340045FF002229463846FFF7BCFF85F80C9033
:106C440005B0BDE8F08322683146284600F036FFDF
:106C5400EFE7D4E900233146284600F02FFFE8E7A8
:106C6400A36800933146D4E90023284600F026FFA8
:106C7400DFE7E3680193A36800933146D4E9002376
:106C8400284600F01BFFD4E723690293E3680193CD
:106C9400A36800933146D4E90023284600F00EFF90
:106CA400C7E76369039323690293E3680193A368C5
:106CB40000933146D4E90023284600F0FFFEB8E7EC
:106CC40008292DE9F74F80460E4617461C463DD845
:106CD40000251B7B2573214610460193FFF72CFFEB
:106CE400DFF88CA0DFF88CB0AE4232D918F805205A
:106CF4005946204600F0E2FE0135082DF4D11B4927
:106D0400DFF874A0DFF874B0204600F0D7FE4FF02F
:106D140000094E4524D918F809507E2D1ED828465E
:106D240018F038FE002814BF2A462E225946204661
:106D340000F0C4FE09F10109B9F1080FE9D10122FB
:106D440021463846FFF736FF019B237303B0BDE8A5
:106D5400F08F5146204600F0B1FECDE72E22E5E744
:106D64005146204600F0AAFEE4E700BF8D1F040050
:106D7400E24C0400871F0400E44C04008F1F04004D
:106D840082B001238DF807309DF80730114B18604D
:106D9400596044F2010188429A6012D044F202011F
:106DA400884206D1DA60DA6812889A61DA68526831
:106DB400DA6172B69DF80730002BFBD162B602B0DF
:106DC40070471A611A6992685A611A6912689A615D
:106DD4001A69ECE7CC2D002000B583B00290009135
:106DE400019244F2010071466A4600F003F803B0D0
:106DF40000BD0000F0B5064687B00F46154672B6D2
:106E0400FFF786FEFFF7BCFC0028FBD1244B254C82
:106E1400E41AE40844F2010324049E4244F0010409
:106E24002BD00BD8012E14D041F201039E4222D064
:106E34001D493A462046FFF719FE0EE044F20203CC
:106E44009E42F5D12B886A6818492046FFF717FE41
:106E540003E017492046FFF705FE164BD3F8F03040
:106E6400DB0700D500BE2A463946304607B0BDE8E8
:106E7400F040FFF785BF1049ECE7AA680592104679
:106E840001F0A4FC29680297019169680091034606
:106E94000A49059A2046FFF708FE0949DAE700BFC8
:106EA400581C0400C01C0400AB200400572004003C
:106EB4001820040000ED00E03520040071200400D7
:106EC400972004004B1C30B5DB00044612F003008D
:106ED4009BB20DD1074D2A601A44074B1A60074B29
:106EE4001870074B1870074B1C80074B198030BD76
:106EF4000720FCE7F42D0020F02D0020EC2D0020CD
:106F0400FC2D0020F82D0020FA2D00202DE9F74358
:106F1400DFF8BC80B8F800308B4206460D461746B1
:106F240047D300240DF107008DF8074000F046FB1D
:106F3400224B234A23481B78008892F800C08445DA
:106F44005FFA8CF138BF4C1CDBB238BFE4B2A34209
:106F540028D014781178CBB2884286BF0133DBB2D3
:106F6400002313709DF8070000F058FB4FF6FF73E1
:106F74009C4220D0144B1B6843F8347003EBC409C3
:106F84009EB195B1114BB8F800001B682A463146F2
:106F940004FB003018F0DEFDA9F80450002003B013
:106FA400BDE8F0834FF6FF74DCE70020A9F8040085
:106FB400F5E70920F3E70420F1E700BFFC2D0020EA
:106FC400EC2D0020FA2D0020F42D0020F02D0020BF
:106FD400F82D002070B5104C104D22782B789A4271
:106FE40000D170BD0E480F4A2378126806880E48F7
:106FF40002EBC301006852F83320898803FB0600C2
:1070040090470A4922780988D3B2914286BF013356
:10701400DBB200232370E0E7FC2D0020EC2D0020E0
:10702400F82D0020F42D0020F02D0020FA2D002052
:10703400094B5A7899780132D2B2914208BF0022A2
:10704400197891421FBF02705878182202FB003051
:1070540014BF043000207047002E002073B505468D
:1070640000240DF107000E468DF8074000F0A6FA43
:107074000DF10600FFF7DCFF90B10670094B9DF897
:10708400062045605A709DF8070000F0C7FA24B93D
:10709400054B4FF48012C3F80021204602B070BDA6
:1070A4000424F0E7002E002000E100E0024B4FF43E
:1070B4003C6043F001031847D020040038B50C4B62
:1070C4000C4C4FF40032C3F8802001254FF4803378
:1070D400C4F84833C4F808336560FFF7E7FF064B8C
:1070E400A56000241C60FFF7E1FF044B1C7038BD51
:1070F40000E100E0001001400C300020FD2F0020D2
:10710400F8B51F4B1F491B680025C1F84051C1F851
:107114004451C1F84851C1F84C51C1F80051C1F86B
:1071240004514BB3D1F8044517490968641A24F093
:107134007F442F461A68A24209D8A41A15441A7C1F
:10714400DE691AB1D3E905201F749047AEB90F4A1E
:107154000F4B11781B788B4205D10133DBB2022B24
:1071640008BF0023137012780A4B43F822500A4BCD
:107174004FF48012C3F80021F8BD3346DAE700BFAC
:1071840010300020001001400C3000200930002095
:10719400083000200030002000E100E02DE9F04F2D
:1071A400A14AA24913780978A14D994285B03CD0EF
:1071B4000133DBB2022B08BF002313709D49127800
:1071C4009D4B0F6853F822003B1823F07F430022A5
:1071D4000B602B6816461446944613B942B12B60D3
:1071E40006E0196881420ED902B12B60091A1960B0
:1071F40001272B68DFF848A201934FF00008BEB9BD
:10720400DFF844B260E0401A0C44D968D3F81CE0BB
:10721400C3F800C031B13A1922F07F42C3E9012119
:10722400DE611E4673460122D7E700263746E0E7B3
:107234003446F6697F4B60681B68DFF810C2A168AA
:10724400C21A22F07F42624500F2A6800A442260FC
:10725400012222742A680023C4E90133E361002A6D
:1072640040F0A3802C60CAE79BF802105A1CD2B2EB
:1072740091428BF8002004BF00228BF800201822D2
:1072840002FB03B32A6819799C68022975D0032983
:107294007FD0012918D1207CB0B9D3E90312A260B0
:1072A4005A69E2609A69654BA2611A78002A18BF8C
:1072B40001466160BEE78C4200F094808946C9694A
:1072C4000029F8D1002323749BF800309BF8012097
:1072D4009A42C9D12B68B8F1000F04D1019A9A429D
:1072E40001D1002F43D0002B79D0D3F800A0544D06
:1072F400504BD5F804751C68DFF854813E1B98F890
:10730400003026F07F4603369BB94FF48033C5F82E
:107314004433C5F804334B4B4FF400324FF00109AA
:10732400C3F880211A60C5F80090FFF7BFFE88F803
:107334000090B2452CBF5444A41924F07F44C5F8EE
:107344004045D5F80435DB1B23F07F43E41B0333AE
:1073540024F07F44A3420AD9D5F80435C5F8403552
:10736400FFF7A4FE374B4FF40032C3F80021334B30
:1073740000221A7005B0BDE8F08F114691469FE7D0
:107384001174D2690123002AFAD1002B9CD02A60FF
:107394009AE700231946F6E71B1A23F07F438B4232
:1073A40034BFCB1A0023236052E721681368994243
:1073B40013D85B1A1360E26154E7091AD8691A46B4
:1073C40038B1034618688842F7D3401A1860184643
:1073D40013462160E061DC6111E71346F2E7FFF731
:1073E4006DFEC4E74C4511D1D3692B6073B9DFF846
:1073F40044E00120CDE90212CAF80800CEF80030BA
:107404000E4B1870FFF752FEDDE902120B68C969D2
:10741400C9F81C1011B1086803440B602B6893422F
:1074240018BF4FF001084DE7083000200930002054
:10743400103000200C30002000300020FC2F0020F1
:107444000010014000E100E0002E0020FEFF7F005C
:10745400FD2F002008B5FFF731FE104B0020152248
:1074640018809A700E4B18600E4B18700E4B1870E3
:107474000E4B4FF48012C021C3F8802183F81413FB
:107484001A6002F18042A2F56F22C2F8080583F85F
:107494001113074BD2F804251A6008BD002E0020F2
:1074A40010300020083000200930002000E100E006
:1074B4000C300020074B9B784BB132B128B10368E4
:1074C400187C20B959745A61704707207047082006
:1074D400704700BF002E00202DE9F743DFF88480B9
:1074E40098F8023005460E461746ABB3A0B30429FC
:1074F40030D9436983B3437C0024012B0DF1070089
:107504000CBF8946A1468DF8074000F057F80DF1ED
:107514000600FFF78DFDD8B1012303700F4B4560C2
:10752400D3F80435C0E90497C0E902369DF8063063
:1075340088F801309DF8070000F070F824B9084B72
:107544004FF48012C3F80021204603B0BDE8F08355
:107554000424EFE70724F7E70824F5E700100140C7
:1075640000E100E0002E0020064A92783AB130B1E2
:10757400426922B1002202740221FFF76FBD082084
:10758400704700BF002E0020044B9B781BB10321E1
:107594000020FFF763BD0820704700BF002E0020C5
:1075A400EFF30583C3F308032BB9EFF31480C0434F
:1075B40000F00100704701207047000070B50446D8
:1075C400FFF7EEFF012803D01049432000F046F8EE
:1075D400EFF3108672B60E4A9068012398B993604F
:1075E4000C4B0D4DD3F8801029401160C3F8805026
:1075F400D3F8841051604FF0FF32C3F88420207018
:1076040006B962B670BD2370FAE700BFD620040045
:107614001430002000E100E0FC06FFBD10B5044674
:10762400FFF7BEFF012803D00949512000F016F8E6
:10763400084B9A685AB154B9EFF3108172B6064AEE
:1076440018681060586850609C6001B962B610BD3B
:10765400D62004001430002000E100E007B5ADF8A6
:10766400000001916A46002144F20200FFF7C2FBC8
:1076740003B05DF804FB10B561B1B2FBF3F403FB96
:107684001424A4B244B9C0E9001484608281C38183
:10769400204610BD0E20FCE70920FAE782B050E82E
:1076A400022FC188B2EB324F4FF0000317BF92B2E2
:1076B40041EA014142EA014104E04268B2EB324F3F
:1076C40008BF012340E80212002AE8D18DF80730F0
:1076D4009DF80730002B0CBF1120002002B070472A
:1076E40037B550E8013F9DB2C48925448489A54239
:1076F40028BF2D1B0489A54202BFBFF32F8F002290
:1077040007E0C5EA030540E80154002CE9D14FF035
:1077140001028DF803200193019A0A609DF8031079
:1077240001F0FF0321B1006810FA82F003B030BD0C
:107734001846FBE70A884B889A4209D150E8012F82
:10774400C2EA024240E80123002BF7D1012070472E
:107754000020704737B550E8023F1FFAA3F5C488EC
:10776400A54202BFBFF32F8F00220DE0C489254438
:107774008489A54228BF2D1BC3EA054540E802546D
:10778400002CE8D14FF001028DF803200193019AF7
:107794000A609DF8031001F0FF0321B1006800EBBB
:1077A400124003B030BD1846FBE70A884B889A4262
:1077B40009D150E8022FC2EA224240E80223002BFA
:1077C400F7D1012070470020704701F01F024B09D8
:1077D4000121914000EB830000F065B84B0910B51E
:1077E40001F01F040121A14000EB830000F04FF8D9
:1077F400E04000F0010010BD01F01F0301229A4097
:107804004B0900EB8300D14300F065B84B0901F04C
:107814001F0150F82300C84000F0010070472DE913
:10782400F0474F1E7F0980460E460137002558F861
:10783400254008EB8509E44394FAA4F4B4FA84F4EB
:107844004FEA451A202C06D10135AF42EFD8344611
:107854002046BDE8F0875444A642F5D92146404667
:10786400FFF7BCFF0028F3D0D9F80040E44394FAB2
:10787400A4F4B4FA84F4E5E710B5034653E8000F22
:107884000A4643E8002494F0000FF7D110BD10B568
:10789400034653E8000F40EA010243E8002494F051
:1078A400000FF6D110BD10B5034653E8002F42EA8D
:1078B400010043E8000494F0000FF6D110BD10B5A8
:1078C400034653E8000F00EA010243E8002494F061
:1078D400000FF6D110BD10B5034653E8002F02EA9D
:1078E400010043E8000494F0000FF6D110BD10B578
:1078F400034653E8000F00EB010243E8002494F030
:10790400000FF6D110BD10B5034653E8002F02EB6B
:10791400010043E8000494F0000FF6D110BD10B547
:10792400034653E8002FA2EB010043E8000494F05F
:10793400000FF6D110BD002370B51C461D4650E85B
:10794400003F0D68AB4207BF40E80026012440E831
:1079540000360B60002E1CBF0024F0E7E0B270BDBF
:107964000121FFF794BF0121FFF79DBF0021FFF71D
:10797400A6BF000010B50446002834D003681BB924
:107984001A49FF20FFF76AFE636823B917494FF4C9
:107994008070FFF763FEA36823B9144940F2011015
:1079A400FFF75CFEE36823B910494FF48170FFF7D9
:1079B40055FE238A23B90D4940F20310FFF74EFE0A
:1079C400D4E9012321689B1ADBB20A60013BDBB2D4
:1079D400FF2B226802D10020107110BD1168481CD1
:1079E40010600B70F2E70E20F7E700BF502104008F
:1079F40037B5044620B913494FF49270FFF72EFEB1
:107A040000250DF107008DF80750FFF7D7FD226818
:107A14006368116899420ED9481E106011F8013C40
:107A2400E568218A01FB0355A36811791B1ADBB2AF
:107A3400994238BF13719DF80700FFF7EFFD284600
:107A440003B030BD5021040037B50C46054620B9BB
:107A5400104940F24710FFF701FE24B90D494FF4D5
:107A6400A470FFF7FBFD00230DF107008DF807302C
:107A7400FFF7A4FD2A681368591C1160E968641AA9
:107A8400298AB4FBF1F41C709DF80700FFF7C6FDCA
:107A940003B030BD5021040010B5044618B906499E
:107AA4003120FFF7DBFDA2682AB1636921682069F0
:107AB40098470023A36010BDC52104000EB433B55C
:107AC400059D044618B911494220FFF7C7FD6369B3
:107AD4001BB90E494320FFF7C1FD23681BB90B49AD
:107AE4004420FFF7BBFD63681BB908494520FFF735
:107AF400B5FD35B106AB01AA29462046019300F035
:107B040071F802B0BDE8304003B07047C5210400ED
:107B1400826830B40468551C8560A154D0E90132F0
:107B24009A4202D330BCFFF7B7BF30BC70470000A5
:107B34002DE9F84F9846DDE90A43154682460F467B
:107B44000A464FF00109AA420FD2C14538BFC146C7
:107B540013F0010B01D16CB900240126B8F1010F17
:107B64001BD908F1FF386E43F8E709F10109B2FBAC
:107B7400F5F2E8E79B070ED5B8F1000F0CBF3026ED
:107B84002026A145E9D2013C31465046FFF7C0FF0B
:107B9400002CF6D1E0E72026F3E7B7FBF6F39D428D
:107BA400E1D9DFF83C80B7FBF6F3504618F8031030
:107BB40006FB1377FFF7ACFF3346AB42B6FBF5F693
:107BC400F1D2BBF1000F02D00CB1A14501D3BDE845
:107BD400F88F20215046013CFFF79AFFF4E700BFDD
:107BE400A22204002DE9F74F88461746054620B91E
:107BF400AF494FF4A270FFF731FD6B6923B9AC496B
:107C04004FF4A370FFF72AFD2B6823B9A84940F26B
:107C14004710FFF723FD6B6823B9A5494FF4A470FF
:107C2400FFF71CFDB8F1000F00F03E8118F8011BAE
:107C340049B92B7B002B00F03781284603B0BDE8FF
:107C4400F04FFFF729BF252940F0B780002698F8A8
:107C540000302D2B424608F1010823D0302B24D0CC
:107C64002B2B25D000242A2B02F1010123D13B68C0
:107C74001A1D1B683A601C440A4613782E2B26D121
:107C840001324FF0000A104610F8011BA1F1300C2C
:107C9400BCF1090F1DD80A2303FB0A13A3F1300A10
:107CA4000246F0E746F00106D1E746F00206CEE7C9
:107CB40046F00406CBE711F8013CA3F13000092893
:107CC400DBD80A2202FB0434303C0A46CBE74FF0EF
:107CD400000A12F8011B01F0FB0068289046F8D056
:107CE400782909D86F290CD8632962D022D825298C
:107CF40063D0582900F0888098F80030002B95D183
:107D040097E770390829F7D801A353F821F000BF89
:107D1400877E0200FD7C0200FD7C02001D7E0200C5
:107D2400FD7C0200FB7D0200FD7C0200FD7C020064
:107D34000D7E0200642901D06929DDD13A68D2F8A8
:107D44000090111D89EAE9723960A2EBE9724FF0E3
:107D5400010B092A35DCD34538BFD3462CB1B9F120
:107D6400000F01DB720700D5013CB30702D5BAF15D
:107D7400000F03D0F00701D44CBB0024B9F1000F6D
:107D84002DDAC9F100092D212846FFF7C1FE06F0BE
:107D94000302022A04D1BAF1000F01D11CBB002452
:107DA400CDE9004653460A2249462846FFF7C0FE5D
:107DB400A2E73B681A1D19783A602846FFF7A8FE27
:107DC4009AE70A230BF1010BB2FBF3F2C1E7A345D7
:107DD400D4D220212846013CFFF79AFECCE7710754
:107DE400D5D52B21D0E7A345DAD230212846013C52
:107DF400FFF78EFED2E73968CDE900460A1D3A60E6
:107E040053460A220968D0E739680A1D3A60CDE969
:107E1400004653461022F5E73B681A1D3A6016F0F7
:107E24000106D3F8009024D1B9F1000F03D04846DD
:107E340017F035FF0646B4421DD809F1FF3919F889
:107E4400011F00293FF458AF2846FFF761FEF6E70B
:107E540028460136FFF75CFE19F806100029F7D111
:107E6400A642BFF449AF20212846013CFFF750FE4B
:107E7400F6E70026F0E720212846013CFFF748FEFC
:107E8400D9E73B681A1D3A60302128461C68FFF781
:107E94003FFE78212846FFF73BFE00220823CDE968
:107EA40000322146102280E703B0BDE8F08F00BF06
:107EB4003022040013B50B46114680B9104B11480B
:107EC400114AC01A0E23C0080093104B0004104935
:107ED40040F00100FEF7DDFD0E2002B010BD4BB9ED
:107EE400074B08480B4AC01AC0080E23009300042D
:107EF400064BECE703601B6802B0BDE8104018476E
:107F0400581C0400E81C0400B22204006E2404007F
:107F1400B7220400E62204002DE9F743DDF82880A7
:107F240088B93E4B3E483F4AC01AC0080E243E4B17
:107F3400009400043D4940F00100FEF7AAFD2046EC
:107F440003B0BDE8F0834AB9344B3548384AC01A07
:107F5400C0080E24344B00940004EBE7D0F800E092
:107F6400BEF1000F09D12D4B2D48324AC01AC0086A
:107F740008242D4B00940004DCE74BB9274B284818
:107F84002D4AC01AC0080924274B00940004D1E7E5
:107F94004568D5F80490B3FBF9F509FB15354DB1E7
:107FA4001E4B1F48254AC01AC00809241E4B0094C2
:107FB4000004BFE78D0709D0184B1948204AC01A9E
:107FC400C0081024184B00940004B3E712F0030F08
:107FD40009D0124B12481B4AC01AC0081024124B75
:107FE40000940004A6E7C568A9420DD34D1EEC1801
:107FF4000569AC4208D8CDF82880DEF80C40A446C8
:1080040003B0BDE8F0436047044B05480E4AC01A6C
:10801400C0081024044B009400048BE7581C04008F
:10802400E81C0400B22204005B240400B72204000C
:1080340034230400E0220400F32204003A23040061
:10804400642304007C2304009F230400F7B580B953
:108054002A4B2B482B4AC01AC0080E242A4B0094E2
:1080640000042A4940F00100FEF713FD204603B046
:10807400F0BDD0F800C0BCF1000F09D11F4B20485F
:10808400234AC01AC00808241F4B00940004E8E7E0
:108094004AB91A4B1A481F4AC01AC00809241A4B75
:1080A40000940004DDE74568D5F800E00EF1FF35E3
:1080B4000D4209D0114B1248174AC01AC0081024A7
:1080C400114B00940004CCE7C568A9420CD34D1EA3
:1080D4000EFB02540569AC4206D8DCF81040A446F5
:1080E40003B0BDE8F0406047044B05480B4AC01A92
:1080F400C0081024044B00940004B2E7581C040088
:10810400E81C0400B222040048240400B72204003E
:10811400E0220400F3220400C6230400EC2304003C
:1081240029DF704728DF704770B503689E6886B002
:1081340004460D466EB114220021684617F033FD43
:10814400A3680593237901952BB1012B0DD06846C3
:10815400B04706B070BD01238DF800302369029347
:10816400E368039363690493F1E702238DF8003015
:10817400E3681B030293F5E7084670470020704745
:10818400024B187A003818BF01207047BC30002019
:10819400034B187A0122B0FA80F05A7440097047F0
:1081A400BC30002008B510461A4617F0D3FC002056
:1081B40008BD000008B514220021044817F0F3FCA0
:1081C4000348FFF76BFA002008BD00BFBC30002055
:1081D400AC30002010B5094C094B43602046FFF732
:1081E400BFFB40B908F0B4FD064920741C230648BF
:1081F4008C22FFF740FA002010BD00BFBC300020E5
:108204008024040020300020AC30002038B5234DF9
:10821400234C2B7A3BB923492348FFF79BFA206070
:1082240008B9686038BD022324682B72237973B1BE
:10823400012B24D020460321FFF776FF00232B7265
:108244006B6018491848BDE83840FFF7AEBAD4E966
:108254000523D21AB2F5805FD4E9031028BF4FF486
:1082640080529208012A38BF012219441844FFF7AA
:1082740057FF50B11128DDD101232B72D2E7D4E985
:1082840003031844FFF74EFFF3E72B7C002BC9D1FF
:10829400BDE83840022000F009B800BFBC3000201F
:1082A400D4300020D0300020AC30002038B5234C2E
:1082B400237A002B41D0022B09D1032830D0204B44
:1082C40000221B68E2601A793AB1012A22D0637C49
:1082D4007BBBBDE83840FFF799BFD3E905128D1A7F
:1082E400B5F5805F94BF521902F580529A619142AC
:1082F400EDD102284FF0000308BF19462372104B3A
:1083040018BF0D211868FFF70FFF0E490E48FFF73D
:108314004CFADCE71A6901321A615B699A42E7E7B1
:10832400E3680133082B01D8E360D0E70023E3605E
:10833400DFE7BDE8384008F0FBBC38BDBC300020A6
:10834400D4300020D0300020AC300020831E012B1C
:1083540001D8FFF7ABBF704700F0FD03012B08D134
:10836400044B00225A74421E504250411874FFF7C5
:108374004DBF7047BC30002010B5064C201DFFF7E0
:10838400EFFA28B9637C1BB9BDE81040FFF73EBF84
:1083940010BD00BFBC3000202DE9F34180460D46DE
:1083A400104801A916461F46FFF79AF90446B0B1D2
:1083B40018220021043017F0F6FB2D0B0123237142
:1083C40001A90848C4F80080A760E5606661FFF76A
:1083D400B1F9FFF7D1FF002002B0BDE8F08104201D
:1083E400FAE700BFAC3000202DE9F34180460F4688
:1083F4000F4801A916461D46FFF772F90446A8B1B5
:1084040018220021043017F0CEFB089BA36001A9B9
:10841400C4E903670648C4F800806561FFF78AF978
:10842400FFF7AAFF002002B0BDE8F0810420FAE7BC
:10843400AC3000202DE9F74F99469DF83030009379
:1084440088469346064618B92349B620FFF706F92D
:10845400F28871794A43043A4A4505D81E49019283
:10846400C420FFF7FBF8019ADBF80070B6F806A009
:1084740007EB0901914209F1040488BFA2EB090743
:10848400B4FBFAF5CBF800700AFB154445B9AAEB26
:10849400040BBB4528BFBB462FB903B0BDE8F08F22
:1084A4003668013DF2E7009B043408EB05003444D0
:1084B4005A466BB12146A7EB0B0717F04BFBBA45A5
:1084C4005D443668D3464FF0000428BFBB46E3E75B
:1084D40001462046EFE700BFAC240400FFF74ABA88
:1084E400F8B546790146721E0546002393422D686D
:1084F40003D30024A64202D8F8BD0133F6E70F687F
:108504002846FFF7A1FA01343946F3E72DE9F84389
:10851400068ACD1C0746FFF76BFA043E3544044631
:10852400B5FBF6F5F0B14FF48073EDB28380C680ED
:10853400013D076081464FF00008A84512D2384635
:10854400FFF756FA064648B163790133637108F1BF
:108554000108C9F8000007608146EEE72046FFF7EE
:10856400BFFF34462046BDE8F88301210430FFF7FD
:10857400CAB910B5012104460430FFF7D0F9C0B2DE
:1085840020B92046BDE81040FFF7AABF10BD000087
:108594001FB5144603920022009203AAFFF74AFF74
:1085A400039BA34203D00349F620FFF757F804B016
:1085B40010BD00BFAC2404001FB514460392012271
:1085C400009203AAFFF736FF039BA34204D003499A
:1085D4004FF48070FFF742F804B010BDAC240400DF
:1085E40033DF704741DF7047064B10B500241C7021
:1085F400054B1C60BFF35F8F0449054800F092F8F7
:10860400204610BDE1300020E4300020E4250400C1
:10861400D830002008B508F09BFB58B1FFF7E2FF03
:1086240030F0020309D0BDE8084004494FF4B070AB
:10863400FFF714B820BF40BF20BF08BD21250400A8
:1086440070B5304C054601212046FFF715F9BFF3FC
:108654005F8F78B92C4A042D13782CD05BB1236832
:10866400012B03D029499320FEF7F8FFBFF35F8F56
:108674000023236070BD264B1D7001231370254D0C
:10868400234E6B68FBB9FEF743FAFEF779F800282E
:10869400FBD11F4B1B78023B012B1DD8BFF34F8F1F
:1086A4001D491E4BCA6802F4E0621343CB60BFF35A
:1086B4004F8F00BFFDE7002BE1D1194940F2CB10E9
:1086C400FEF7CCFFDBE71B68307898470028C6D05C
:1086D400284600F041F8D4E708F03AFB48B1FFF728
:1086E4007FFF30F0020304D00D494FF4D170FEF740
:1086F400B5FF4FF080430122C3F80025BFF34F8F2D
:1087040020BFFDE7E4300020E13000209A2504007A
:10871400E0300020D830002000ED00E00400FA052D
:108724002125040038B50D46044618B909495020DE
:10873400FEF794FF1DB907495120FEF78FFF2B6800
:108744006A686360934208BF0023256008BF6360C2
:1087540038BD00BFF025040010B5044618B90B4914
:108764006320FEF77BFF23681BB908496420FEF7EA
:1087740075FF636843B12268916852680B44934261
:10878400636004BF0023636010BD00BFF0250400D4
:1087940010B50D49A1F59472914201D800200FE063
:1087A4008C1AE30F03EBE4035B1002EBC30452F8EF
:1087B4003330834205D802D204F10802ECE7606842
:1087C40010BD2146E8E700BF742B040008B5FFF78D
:1087D400DFFF024B002808BF184608BD382A0400F2
:1087E400836800225A60C3E904229A60DA601A603E
:1087F400704713DF7047000038B50023134CD3F8DB
:10880400F85F134BE41AE4086A1C4FEA044404D1E9
:108814004FF010235D696B1C11D02A460D4944F0BA
:108824000300FEF723F92846FFF7E3FF054620B1CE
:10883400094944F00100FEF715F9284638BD0749F7
:1088440044F00100FEF70EF90425F6E7C01C04000D
:10885400581C0400742B04009F2B0400D22B04002A
:1088640038B50B4B0B4C0C4A0C49E41AE4082404AD
:1088740044F00300FEF7FAF80748FFF7BAFF05468D
:1088840020B1074944F00100FEF7ECF8284638BD52
:10889400581C0400C01C040000600200EA2B040001
:1088A4009F2B040030B585B0144601AA1D4600F084
:1088B4004EF820B92A46214601A800F002F805B076
:1088C40030BD2DE9FF47D0E90198156804460E46EE
:1088D40017460DF10C0A9DB1CDF800A033460DF1F9
:1088E4000B0241464846039500F050F848B9206809
:1088F4009DF80B30826803F0BF032AB9802B05D0A2
:108904000B2004B0BDE8F087002BF9D1414608F0F4
:1089140076F80028F5D19DF80B30039A03F07F0315
:10892400402BA5EB020104D13B6813445D1B3D6061
:10893400E7E72368D3E90130984206D0164409F1E9
:10894400080908F118080D46C5E70420D9E70B68A3
:108954002F2B30B518D900F10C052424303BB3FB80
:10896400F4F3013305EB8304546004EBC304106097
:108974009460C0E90053182505FB034300221B1A29
:1089840082600B60104630BD0420FCE7F0B5DDF8D2
:1089940014C0DCF80040022C01D80920F0BD1C787A
:1089A40004F00704072C08BF05240C701C7824F07D
:1089B4003F0414701D785E780E7215F0100FDCF809
:1089C40000E024D09C78DA1C032715F0080527D092
:1089D40001377745E1D812F8013B4B704D78731994
:1089E40023443B447345D8D8EEB117463244CF6094
:1089F4000DB14A602A44002C08BF0022C0E90024BB
:108A04000A4A48610A610020CCF80030C6E7BEF18A
:108A1400050FC2D9D3F802409A1D24BA0627D4E719
:108A24004D704D60DAE73746E1E700BFC30A030043
:108A3400026813685268934291BFD01A806801306B
:108A4400801888BFC01A704738B50C46054618B957
:108A540004497720FEF702FEAB68A3428CBF601C7A
:108A6400002038BD132C040038B5044618B9074952
:108A74008A20FEF7F3FD236820461D685968FFF736
:108A8400E3FF431B5842584138BD00BF132C040078
:108A94002DE9F3410D46044618B92F499520FEF7F8
:108AA400DDFD1DB92C499620FEF7D8FD00230DF1FC
:108AB40007008DF80730FEF781FD2046FFF7D4FF4D
:108AC400074610B1237C002B3DD1D4F8008020460A
:108AD400D8F80460D8F80410FFF7B6FFC8F804000B
:108AE4002FB1276820463968FFF7AEFF3860E26887
:108AF4006068531E072B20D8DFE803F004101F140E
:108B04001F1F1F182B7883552046FFF791FF2368FA
:108B14009A68824200D29860002415E02B8820F8DD
:108B24001630F1E72B6840F82630EDE7D5E900234D
:108B340000EBC600C0E90023E6E7294606FB020075
:108B440017F008F8E0E704249DF80700FEF766FD37
:108B5400204602B0BDE8F081132C040037B5054669
:108B640020B90B4940F2EF10FEF778FD00240DF117
:108B740007008DF80740FEF721FD2B681C609DF867
:108B840007005C609C60FEF749FD03B030BD00BF88
:108B9400132C040010B5044620B9064940F20A20FB
:108BA400FEF75CFD236818685B68C31A5842584195
:108BB40010BD00BF132C04002DE9F3410C46904670
:108BC400054618B92549D920FEF748FD1CB92349A3
:108BD400DA20FEF743FD00230DF107008DF807307E
:108BE400FEF7ECFC2846FFF7D5FF002834D12F68A8
:108BF4003E68B8F1000F04D139682846FFF724FF16
:108C04003860EA686968531E072B1FD8DFE803F051
:108C1400040F1E131E1E1E178B5D237000249DF867
:108C24000700FEF7FBFC204602B0BDE8F08131F8F6
:108C340016302380F2E751F826302360EEE701EB8B
:108C4400C601D1E90023C4E90023E7E706FB0211CA
:108C5400204616F07FFFE1E70524E0E7132C04002B
:108C64004FF0704393F8E02F062A10D1D3F8E42F85
:108C740012070CD1D3F8E80F00F0F003302B08D022
:108C840000F0E000A0F14003584258417047002032
:108C94007047012070474FF0704393F8E02F062A85
:108CA4000CD1D3F8E42F120708D1D3F8E80F00F061
:108CB400F000A0F13003584258417047002070473B
:108CC40008B5FFF7CDFF40B14FF08053884AD3F881
:108CD4002433C3F30423C2F84035FFF7DCFF10B19B
:108CE400844B854A5A67FFF7BBFF48B14FF0805366
:108CF4004FF08042D3F84432C3F34233C2F83C35D8
:108D0400FFF7C9FF30B17D4AD2F8FC3023F08073FD
:108D1400C2F8FC30FFF7A4FF40B14FF080430022BB
:108D2400C3F80C21C3F81021C3F83825FFF7B3FFAB
:108D340020B14FF080430322C3F8A025FFF7ABFF17
:108D440060B16F4B0522C3F810260122C3F88826B0
:108D54000022C3F818263F22C3F814264FF07043AC
:108D640093F8E02F062A50D1D3F8E42F11074CD101
:108D7400D3F8E83F03F0F003502B46D14FF0805274
:108D8400604BD2F80414C3F82015D2F80814C3F8C1
:108D94002415D2F80C14C3F82815D2F81014C3F80B
:108DA4002C15D2F81414C3F83015D2F81814C3F8DB
:108DB4003415D2F81C14C3F84015D2F82014C3F8A3
:108DC4004415D2F82414C3F84815D2F82814C3F86B
:108DD4004C15D2F82C14C3F85015D2F83014C3F83B
:108DE4005415D2F83414C3F86015D2F83814C3F803
:108DF4006415D2F83C14C3F86815D2F84014C3F8CB
:108E04006C15D2F84424C3F87025FFF729FF48B144
:108E14004FF080534FF08042D3F8583203F04F03A1
:108E2400C2F8E43EFFF71CFF48B14FF08043D3F88B
:108E34000024D20744BF6FF00102C3F800244FF0AE
:108E44008053D3F83021062A0AD1D3F83431062BC3
:108E540001BF2D4AD2F83C3743F48063C2F83C3753
:108E6400264AD2F8883043F47003C2F88830BFF33E
:108E74004F8FBFF36F8F4FF01023D3F80022002AD7
:108E840003DBD3F80432002B2EDA204B0122C3F883
:108E94000425D3F80024002AFBD04FF0102215211A
:108EA400C2F80012D3F80024002AFBD04FF010239C
:108EB4001522C3F80422154BD3F80024002AFBD052
:108EC4000022C3F80425D3F80024002AFBD0BFF302
:108ED4004F8F0A490E4BCA6802F4E0621343CB6019
:108EE400BFF34F8F00BFFDE70A4B0B4A1A6008BD62
:108EF4000030014000C007400DF0ADBA00ED00E0C5
:108F04000050004000C000400010004000E001405C
:108F14000400FA056C2400200090D00342DF70475F
:108F240043DF704738B5074C051E04F1080318BF2A
:108F34001C4623682BB11A6822605B682846984750
:108F4400F7E738BDF030002020B9054B01225A70F4
:108F5400FFF7E8BF012802D1014A9070F8E7704793
:108F6400E830002020B9034B01225A70FFF7DABF22
:108F7400704700BFE8300020014B1878704700BFED
:108F8400E830002038B50B4C237883B90A48636075
:108F9400A3602361E36000F03FF9054607F0D8FEC3
:108FA40008B900F04DF901232370284638BD852502
:108FB400FBE700BFE83000204D8F020037B5204C9E
:108FC400237805461BB91F49E920FEF747FBA37820
:108FD40003F0FF02DBB115B16B6801209847002351
:108FE4000DF107008DF80730FEF7E8FAE3689DF805
:108FF40007000133E360FEF711FBE368EBB91149A5
:1090040040F2051003B0BDE83040FEF727BB0DF178
:1090140007008DF80720FEF7D1FA25B1226913461F
:109024003BB92A602561E368002BDFD100F02AF9FF
:10903400DCE79D42F7D01B68F2E703B030BD00BF08
:10904400E8300020862C040013B5164C237823B98D
:1090540015494FF48570FEF701FBE36823B9124903
:1090640040F20B10FEF7FAFA00230DF107008DF819
:109074000730FEF7A3FAE368013BE360E36853B902
:1090840007F066FE18B108497920FEF7E7FA00F008
:1090940031F90023A3709DF80700FEF7BFFA02B070
:1090A40010BD00BFE8300020862C0400012813B551
:1090B40008D003281CD018B9154B0122C3F880200E
:1090C40002B010BD134C00230DF107008DF80730DA
:1090D400FEF774FA23780BB9FFF754FFE3689DF8A1
:1090E40007000133E3600123A370FEF797FAE7E773
:1090F400084B1B7823B9084940F24520FEF7AEFA25
:1091040000F09EF802B0BDE81040FFF79DBF00BF1D
:1091140000E100E0E8300020862C040037B5234C41
:109124002378054623B922494FF49370FEF796FA43
:10913400637803F0FF02DBB115B16B680020984738
:1091440000230DF107008DF80730FEF737FA636846
:109154009DF8070001336360FEF760FA63681BBB88
:1091640013494FF4A17003B0BDE83040FEF776BA5E
:109174000DF107008DF80720FEF720FA25B1A2684B
:10918400134653B92A60A5606368002BDFD107F04A
:10919400DFFD30B1FFF7C2FED9E79D42F4D01B6872
:1091A400EFE700F0BDF8D2E703B030BDE8300020AF
:1091B400862C040073B5164C237823B9154940F264
:1091C4004710FEF74BFA636823B912494FF4A470B1
:1091D400FEF744FA00230DF107008DF80730FEF77F
:1091E400EDF96368013B6360666836B907F0B0FD6A
:1091F400054640B1FFF794FE66709DF80700FEF740
:109204000DFA02B070BD00F0A7F86570F5E700BF75
:10921400E8300020862C040010B5044618B906492D
:10922400A020FEF71BFA054A107918B90121146031
:10923400918010BD8520FCE7002D0400FC30002047
:1092440008B50C4B1B791BB90B49B920FEF706FA7C
:109254000A4B1A68D2075FBFC02283F80023012299
:109264001A604FF080420123C2F81835044A137083
:1092740008BD00BFFC300020002D040000E100E028
:1092840004310020174B1B7937B51BB91649E6206A
:10929400FEF7E4F94FF080430022C3F80421D3F829
:1092A40004210192019A0222C3F804230F4AD2F83E
:1092B400FC0040F08073C2F8FC300D4B1C6844F095
:1092C400010119605D685968491BB1F50A5FFAD359
:1092D4001C604FF08043C2F8FC0001229A6003B086
:1092E40030BD00BFFC300020002D040000ED00E084
:1092F400001000E008B5084B1B791BB90749F3209F
:10930400FEF7ACF94FF080430122DA60D3F8182459
:10931400D203FBD408BD00BFFC300020002D0400A4
:109324000B4B1B7907B51BB90A49FB20FEF796F9CD
:109334004FF080430022C3F80021D3F800210192AA
:10934400019A0122C3F804231A6003B05DF804FBF8
:10935400FC300020002D040010B50B4C237923B9F8
:109364000A4940F20310FEF779F94FF080420123D5
:109374005360D2F80C3403F00113B3F1011FF8D099
:109384000023637110BD00BFFC300020002D0400D9
:109394004FF0804307B5D3F800217AB10022C3F817
:1093A4000021D3F800210092009A0122C3F8082377
:1093B4000F4B587910B95A711B6898474FF0804386
:1093C400D3F8042182B10022C3F80421D3F8042184
:1093D4000192019A0222C3F80823054B1B6801205D
:1093E40003B05DF804EB184703B05DF804FB00BF5D
:1093F400FC30002000F1804000F5C040002382B022
:10940400036003680193019B02B07047C208012303
:1094140000F0070003FA00F08B5C1843885470478F
:10942400054B4FF0FF32072843F8202084BFC018B3
:1094340080F8BC20704700BF08310020C2080549ED
:1094440000F0070001238340885C20EA030088546D
:10945400704700BFED3100201F2808B504D9044926
:109464004FF4F370FEF7FAF84FF0A04008BD00BFC8
:10947400782D040038B505460C46FFF7EDFF00EBE8
:109484008500D0F8003723F44033C0F80037D0F813
:10949400003743EA0443C0F8003738BD38B5144DEB
:1094A40095F8E94014BB2022FF2105F1A40016F031
:1094B4007AFBE0B20134FFF7B3FF292CF9D10D4B4D
:1094C4000022C021C5F8E52083F806134021196065
:1094D4004FF4BE70FFF78EFF074B4FF00041C3F807
:1094E4000413012385F8E930104638BD0820FCE751
:1094F4000831002000E100E000600040034B93F8D5
:10950400E900003818BF0120704700BF083100206F
:109514001F282DE9F84304460F46914604D93C49D7
:1095240040F20720FEF79AF8DFF8EC8008EB04031A
:1095340093F9A430002B69DABB78C3F34003002B02
:109544000BBF0825002529220822954202D10420B8
:10955400BDE8F88358F8251001313FD108EB040227
:109564006EB248F8259082F8A4601BB908EB050395
:1095740083F8BC40BB785A0710D4D90730D52046AD
:10958400FFF76AFF00EB8400D0F8003723F00203F2
:10959400C0F800371F492046FFF738FFB8783B78FA
:1095A40010F0020028D0AD0005F1804505F5C04556
:1095B4002402D5F8102522F4473222F44072C5F86B
:1095C40010251B04D5F8102504F4F85403F4403393
:1095D4001C431443C5F810450020B9E70135B4E72E
:1095E400204697F80190FFF737FF04F5E0724FEA41
:1095F400890340F82230CDE7083E48FA86F898F807
:10960400C44044EA831388F8C430A1E708209FE7E4
:10961400AF2D0400ED310020083100201F2870B563
:1096240004460D4604D9294940F23720FEF716F8BE
:10963400274E331993F9A430002B04DA23494FF44D
:109644000E70FEF70BF8311991F9A420072A1ADDE0
:10965400083A46FA82F696F8C4309B09032B0DD1DA
:109664002046FFF7F9FED0F81015E14001F00101A2
:1096740002312046BDE87040FFF7FCBE012B0CBF51
:1096840002210321F5E7D3B2072B1DD8930003F180
:10969400804303F5C043D3F8100540F00100C3F83C
:1096A400100502F1400040B2800080B2FFF7A2FE34
:1096B40055B191F9A43056F823302BB1012303FAA4
:1096C40002F2044BC3F8042370BD00BFAF2D0400A5
:1096D40008310020006000401F2838B5044604D932
:1096E40017494FF41970FDF7B9FF164D2B1993F96B
:1096F400A430002B04DA124940F26520FDF7AEFFD6
:10970400254495F9A420072A05DD20460021BDE85B
:109714003840FFF7AFBED3B2072B10D8930003F144
:10972400804303F5C043D3F8101521F00101C3F8B9
:109734001015012303FA02F2034BC3F8082338BDC2
:10974400AF2D040008310020006000401F2838B508
:10975400044604D91E4940F27520FDF77FFF1D4DD4
:109764002B1993F9A430002B04DA194940F276201E
:10977400FDF774FF2046FFF7AFFF2A1992F9A430D2
:1097840092F8A420072A9FBF134A03F5A27300216D
:1097940042F8231005EBD40304F0070193F8E52005
:1097A40001238B401A420AD02046FFF755FE04F5E8
:1097B400E073022240F823202046FFF73FFE2C44AA
:1097C40094F8A400FFF72CFEFF2384F8A43038BDDE
:1097D400AF2D040008310020006000402DE9F04F57
:1097E40085B000245A4D01944FF48072012102F196
:1097F400804303F5C04390B21B68012B06D1D5F812
:1098040004330B4202D0FFF7F5FD0C430432B2F5EA
:10981400907F4FEA4101EAD14D4BD3F87C31012BC3
:109824000AD14FF4BE70FFF7E5FD4FF0A04344F0BA
:109834000044D3F810350193E3B2D3B1454F00256A
:109844000126344210D0AB0003F1804303F5C0433A
:10985400D3F81005D3F8101557F8253023B1C1F308
:109864000141C0F3042098470135082D4FEA46060C
:10987400E7D1002C65DA002302934FF0FF33002672
:10988400DFF8D4A0039335461AF9014B631C4DD07D
:10989400C4F3C2070122E3B204F03F0B04F007044F
:1098A40002FA04F407F110020DEB020717F8041C86
:1098B40021423BD04FEA9319264B03EB0B0191F95C
:1098C400A41053F82180B8F1000F07D1B9F1030FA8
:1098D4002CD102A95846FFF799FD02E0B9F1030F14
:1098E400F7D05846FFF7B8FD0BF5E07150F821109A
:1098F40017F80C0C2042C1F3014106D0022915D1FE
:10990400B9F1030F0CD1494605E003290ED1B9F191
:10991400030F05D102215846FFF7ACFD0135EDB226
:10992400B8F1000F02D049465846C0470136212EEF
:10993400AAD135B14FF0A043019AD3F81035934220
:1099440002D105B0BDE8F08F0193029B97E700BFF9
:109954000060004008310020CC31002010B5054CD7
:1099640023681BB904495120FDF778FE2368BDE83C
:1099740010401847F4310020292E040037B50D4655
:1099840030B90F497720FDF769FE002003B030BDE0
:109994000C4B9842F9D100230DF107008DF80730E4
:1099A400FDF70CFE084B1C7914B901221D601A71D5
:1099B4009DF80700FDF732FE002CE6D01120E5E704
:1099C400292E040000200040F431002018B9064973
:1099D4009B20FDF743BE054B984201BF044B002278
:1099E4001A601A71704700BF292E0400002000403D
:1099F400F431002000F1804000F5E040002382B003
:109A0400036003680193019B02B07047F0B5524BA9
:109A1400524CD3F8043185B0002B3DD094F82E205D
:109A24004FF48270FFF7E6FF2AB394F82F3013BB8C
:109A3400494AD2F80031002B32D04FF48070FFF73E
:109A4400D9FF638B94F82D00834250D921891B1AC6
:109A54009BB289B26383CB1A616801EB4303C2F8FA
:109A64002C36C2F830064FF48270FFF7C3FF3A4B2E
:109A740001225A6014E0636802932389ADF80C3024
:109A8400E36800218DF8041033BB2374236801A814
:109A94009847002384F82F3094F82E30002BC7D138
:109AA4002D4BD3F810315BB14FF48870FFF7A2FF50
:109AB4000023237402238DF8043001A823689847F7
:109AC400254BD3F81431EBB14FF48A70FFF792FFB2
:109AD4000023237405B0F0BD208B60836360208174
:109AE400E160002AD2D11C4B01221A60CEE7BAD120
:109AF400E368012184F82F1013B100216183AEE7DC
:109B04006383B0E766694FF000470125002EE1D07A
:109B1400B6FA86F227FA02F34632920026EA0306E0
:109B240002F1804303F5E0431B68002BEED010469E
:109B3400A2F58C72FFF75EFFD30882F00402C2F331
:109B440080028DF808308DF8045023688DF80920C0
:109B540001A89847DAE700BF00700040FC310020FC
:109B640070B50E46054618B92949D620FDF776FD8D
:109B74001EB92749D720FDF771FD264C94F82C30E7
:109B8400002B43D1244A29782660C2F8F01569785D
:109B9400C2F8F415E97884F82E10237484F82D3073
:109BA400636184F82F3001216FF0004384F82C1096
:109BB4004FF48270C2F80833FFF71CFF4FF4807033
:109BC400FFF718FF4FF48A70FFF714FFAD78AB1E50
:109BD4008B4206D96B1F022B03D910496B20FDF76A
:109BE4003DFD0F4B6D01EDB283F8075380221A60DF
:109BF40094F82E10084B0222C3F80423012209B161
:109C0400C3F80423C3F80025002070BD0820FCE736
:109C1400A72E0400FC31002000700040192F04001E
:109C240000E100E070B5414E96F82C3004460D4634
:109C340023B93F4940F22310FDF710FD072C04D946
:109C44003B494FF49270FDF709FD3A4BD3F8F435D4
:109C5400DBB23BB196F82D3023B135494FF4937004
:109C6400FDF7FCFCEB79013B082B04D930494FF498
:109C74009470FDF7F3FC2B7A092B04D92C494FF48B
:109C84009570FDF7EBFC337C03F0FF01002B4BD107
:109C94002A79012A9CBF274BC3F8001504F10C0351
:109CA40006EB4301097921B996F82D10013186F8A4
:109CB4002D1006EB4303E9792E7AA87819715E71A9
:109CC4006B7800021B0100F4E06003F030030343EF
:109CD400287800F003000343E878000300F4805080
:109CE4000343100400F4E02003436879000500F402
:109CF40080100343A879000600F0807003430D48E8
:109D040000EB0415240104F1804404F5E044012A25
:109D1400C5F81835C4F81465C4F8101502D8012321
:109D2400C0F80035002000E0112070BDFC31002097
:109D3400A72E04000070004070B5364C227C02F05F
:109D4400FF03002A63D1344A012503262574C2F88F
:109D54000863C2F82C16C2F8305694F82D20AA4293
:109D64000CD919461A0102F1804202F5E04201338E
:109D7400082BC2F81415C2F81015F3D100F10C0326
:109D8400000104EB430300F1804000F5E0401A7940
:109D94005B79C0F81435C0F810251F4A01231360FD
:109DA400536042F21073D2F8041131B9013BFAD175
:109DB4001A4940F29B10FDF751FC4FF48070FFF7F5
:109DC40019FE4FF48270FFF715FE94F82D30012B25
:109DD40011D910490022130103F1804303F5E04334
:109DE4000132087F4D7FC3F81455082AC3F81005C3
:109DF40001F10201EFD194F82E20074B2AB103227E
:109E04000020C3F80423207470BD0222F8E7112057
:109E1400FAE700BFFC31002000700040A72E0400C8
:109E2400024B187C003818BF01207047FC31002019
:109E340010B5134C237CABB14FF48A70FFF7DAFDF5
:109E4400104B2022C3F8042301229A60237C022BA6
:109E540009D1002323740B4B2022C3F808230023C9
:109E64006360E36010BD42F21073227C002AF2D0DA
:109E7400013BFAD1044940F25220FDF7EFFBEAE737
:109E8400FC31002000700040A72E04002DE9F041B1
:109E94003B4C94F82C3006460F46154623B93949F5
:109EA4004FF41870FDF7DAFB236823B9354940F203
:109EB4006120FDF7D3FB17F5006F04DA314940F256
:109EC4006220FDF7CBFBB5F5006F04DB2D4940F2B2
:109ED4006320FDF7C3FBAF4204DB2A494FF419703A
:109EE400FDF7BCFB330103F18043BAB203F5E04351
:109EF40042EA0542072EC3F81C2504D9224940F240
:109F0400B920FDF7ABFB4FEA4608616908F101008F
:109F14004FF0004217F5006F22FA00F24FF0800371
:109F24001A4803FA08F30BBF21EA02020A436261EA
:109F340062610CBFC0F80833C0F80433072E04D99B
:109F4400114940F2B920FDF789FB616940F2FF70C5
:109F54004FF00043854223FA08F30C484FF04002C7
:109F640002FA08F20BBF21EA03030B436361636146
:109F74000CBFC0F80823C0F80423BDE8F08100BF7B
:109F8400FC310020A72E0400512F04000070004073
:109F9400072870B5064604D9184940F25910FDF750
:109FA4005DFB174C94F82C3023B914494FF4AD7071
:109FB400FDF754FB237CFBB906F10C0204EB4203CE
:109FC4001B7923B194F82D30013B84F82D303301F3
:109FD40003F1804303F5E04304EB42040025A5802C
:109FE4003046C3F814550749C3F8105540F2FF72C0
:109FF400FFF74CFF284670BD1120FCE7A72E040094
:10A00400FC31002000F8FFFF70B51D4D95F82C3091
:10A0140023B91C4940F20510FDF720FB1A4A6FF0E2
:10A024000043C2F80833194B8021C3F88010012380
:10A03400936042F21073D2F8141131B9013BFAD192
:10A0440010494FF48770FDF709FB0F4B0D4E0024A8
:10A05400C3F800452C7405EB44031B7F43B1E0B205
:10A06400FFF796FF20B131464FF48C70FDF7F6FAF6
:10A074000134082CEFD1002385F82C3070BD00BFCB
:10A08400FC310020A72E04000070004000E100E035
:10A094000023435082B043580193019B02B07047A0
:10A0A4002148D0F8103110B55BB14FF48871FFF737
:10A0B400EFFF1E4B5A79510703D51B680BB10120E2
:10A0C40098471948D0F814315BB14FF48A71FFF7FF
:10A0D400DFFF164B5A79120703D51B680BB1022018
:10A0E40098471148D0F81C315BB14FF48E71FFF7DB
:10A0F400CFFF0E4B587910F0100002D11B6803B14A
:10A1040098470948D0F8043163B14FF48271FFF7DE
:10A11400BFFF064B01221A711B681BB1BDE810403A
:10A124000320184710BD00BF00C001402C3200209E
:10A134001F2808B504D904494FF4F370FDF78EFACB
:10A144004FF0A04008BD00BF782D040010B50446B0
:10A15400FFF7EEFF0122A240C0F8082510BD10B59C
:10A164000446FFF7E5FF0122A240C0F80C2510BD0C
:10A17400144BD3F8182113B512B30022C3F81821D5
:10A18400D3F81831104C0193019B236823B90F496C
:10A194004FF42770FDF762FAE07FFF2803D0A37F16
:10A1A4005BB1FFF7DCFF002363772372D4E900314E
:10A1B400074802B0BDE810401847FFF7C7FFF2E7B1
:10A1C40002B010BD0030004034320020932F040050
:10A1D4003C3200202DE9F74F0746CDE900230C4619
:10A1E40019B97449AD20FDF739FA97F80480724D16
:10A1F400242303FB08FB05EB0B0A9AF81C10002927
:10A2040040F0D380D7F800906C494846FFF7B6FB7E
:10A214000646002840F0CB80009B45F80B30019B9C
:10A22400CAF80430237B2078012B00F2AC80FFF7BE
:10A2340096FF94F800A05046FFF77AFF0AF5E07AFB
:10A24400012340F82A3094F801A0BAF1FF0F00F07E
:10A254009D805046FFF783FF5046FFF769FF0AF5DC
:10A26400E073032240F8232094F802B0BBF1FF0FFF
:10A2740000F08F805846FFF75BFF0BF5E073002278
:10A2840040F82320242303FB0853A27883F82020DA
:10A29400E078D877FF2814D02379002B7CD0FFF7FF
:10A2A4005EFFE37800931846FFF742FF009B03F537
:10A2B400E073032240F82320242303FB085322796C
:10A2C4009A772378C9F80835A368C9F80CA5C9F8A2
:10A2D40010B5C9F82435637B227B003B18BF0123EA
:10A2E400022A5CD0032A5DD0012A01D143F0020383
:10A2F400C9F85435A379C9F8C035242303FB08F3FE
:10A30400EB5813B14022C9F804230722C9F80025E9
:10A3140073B33B6864794FEA133A43F30739A31ED6
:10A32400012B06D9631F022B03D925496B20FDF7A6
:10A3340095F9B9F1000FACBF09F16043214B4FEA25
:10A344004414B8BF0AF00F0AE4B2AABF03F561438C
:10A3540003F80A4083F800433B68012143F30732C2
:10A36400C3F3043301FA03F35209174941F82230C5
:10A37400242303FB085500236B7701232B773046F6
:10A3840003B0BDE8F08FFFF7E1FE52E74FF0FF3A6C
:10A394006AE74FF0FF3B75E7FFF7D8FE81E743F02C
:10A3A4000403A5E743F00603A2E70826E7E711261E
:10A3B400E5E700BF932F04003432002075A10200AA
:10A3C400192F040014ED00E000E100E02DE9F04154
:10A3D400264C0679242303FB064307461B7F23B937
:10A3E400234940F26110FDF739F924237343E0183F
:10A3F400E3583D68DBB145F307335B092033DFF8ED
:10A4040078C0C5F30432012101FA02F24CF823208A
:10A41400184BC5F80833437F4BB16961D5F8043153
:10A42400002BFBD0242303FB064300225A7724236A
:10A4340003FB064393F82080B8F1FF0F07D0404692
:10A44400FFF776FE08F5E078022340F828304FF055
:10A4540000083868C5F80085FFF7B8FA242303FB21
:10A46400064484F81C80BDE8F08100BF343200202B
:10A47400932F04005201080000E100E02DE9F341AC
:10A48400574E0779242303FB076380461B7F0D4641
:10A49400144623B9534940F23220FDF7DFF82B6804
:10A4A40033B96B6823B14F4940F23320FDF7D6F836
:10A4B400AB6833B9EB6823B14A494FF40D70FDF72B
:10A4C400CDF898F804302BB9EB68FF2B02D86B68F1
:10A4D400FF2B04D9434940F23520FDF7BFF824236C
:10A4E4007B43F218517F002978D1F35823B114F03B
:10A4F400140F04BF0123537795E80F004FF0240C89
:10A504000CFB076C0CF10C0E8EE80F009CF81F007E
:10A51400FF2804D09CF81E30C3B1FFF717FE29684A
:10A5240021B101F06043B3F1005F06D1AA6882B1A2
:10A5340002F06043B3F1005F0BD0242303FB0766F2
:10A5440000237377102002B0BDE8F081FFF707FE07
:10A55400E5E7D8F800306868C3F84415C3F848053F
:10A56400E968C3F834250022C3F83815C3F8182164
:10A57400D3F818210192019A14F0010218BF0122A4
:10A58400C3F8502514F0020218BF0122C3F8402575
:10A5940022075CBF01221A6124227A43B25892B97D
:10A5A400D3F81821002AFBD0242303FB0766F07F8D
:10A5B400FF2803D0B47F1CB1FFF7D1FD0020C2E710
:10A5C400FFF7C4FDFAE714F004004FF0400202D094
:10A5D400C3F80823F2E7C3F80423B4E71120B2E771
:10A5E40034320020932F04007FB503788DF80430B3
:10A5F4004368029383688DF80C30C368049303693D
:10A60400064A8DF81430064B01A853F8213052F84D
:10A614002110984707B05DF804FB00BF58320020B2
:10A6240064320020F0B50546174615F804CB124AEB
:10A6340042F82C70114A42F82C30114B0C460FCBC7
:10A6440085B06E4686E80F002368009323798DF861
:10A65400053063798DF80630A3680293002FA3892F
:10A66400084AADF80C3008BF3A46634631462846DE
:10A67400FFF7B0FD05B0F0BD643200205832002071
:10A684000C300400EDA502000023435082B043586F
:10A694000193019B02B070472DE9F041074614462F
:10A6A4000E4619B92C495120FCF7D8FF1CB92A4988
:10A6B4005220FCF7D3FF7B79284ADFF8B48042F8B4
:10A6C400234003EB430318F80330002B42D1B57841
:10A6D40097F90440AB1E012B06D96B1F022B03D93B
:10A6E4001F496B20FCF7BAFF002CAEBF04F1604495
:10A6F4001C4B04F00F044FEA4515EDB2AABF04F554
:10A7040061441D5584F8005397F9043034883D683A
:10A714005909012203F01F0302FA03F3124AB4F5A4
:10A72400805F42F8213004D310494FF4BA70FCF72B
:10A7340095FFC5F808457B79317903EB430308EBB2
:10A74400030200205170F1789170012208F803206F
:10A75400BDE8F0810820FBE71C30040074320020BF
:10A76400192F040014ED00E000E100E08C30040037
:10A774007032002038B54379114D03EB430304468E
:10A78400EB5C1BB90F497420FCF768FF94F90430A3
:10A794000D485A090121203203F01F0301FA03F383
:10A7A40040F822302368094A5960C3F84823C3F8A3
:10A7B4000823637903EB43030022EA5438BD00BF46
:10A7C400703200201C30040000E100E003000F00A0
:10A7D40038B54379094D03EB43030446EB5C012B85
:10A7E40003D007498220FCF739FF236801221A604D
:10A7F400637903EB43030222EA5438BD703200202C
:10A804001C300400024610B500680C464FF48271F7
:10A81400FFF73AFF13680222C3F844230CB1C3F8CC
:10A82400042310BD2DE9F041224E234FDFF88C8024
:10A8340000244FF48035D7F80433A6F580412B4229
:10A8440089B20CD0336853B1C7F848533846C7F8B7
:10A854000853FFF719FFD8F80030E0B298470134E5
:10A86400042C4FEA450506F10406E4D11248D0F859
:10A874000433DA070AD5D0F800313BB14FF48071C4
:10A88400FFF702FF0D4B20461B6898470A48D0F893
:10A8940004339B070CD5D0F804314BB14FF48271CB
:10A8A400FFF7F2FE054BBDE8F0411B680520184791
:10A8B400BDE8F08140410240004002407432002073
:10A8C40000F18040002382B0036003680193019B80
:10A8D40002B0704710B5044618B90E497020FCF751
:10A8E400BDFE0D4A13789BB923784FF0804103F0E5
:10A8F4000103C1F87835094B1968C9075FBFC02146
:10A9040083F800130121196001231370002010BD86
:10A914008520FCE7C63004008032002000E100E01E
:10A9240010B50A4C23781BB909498820FCF796FE18
:10A93400084B1B781BB9084B0122C3F88020074A37
:10A9440000231360064A2370136010BD8032002078
:10A95400C63004000431002000E100E07832002019
:10A964007C3200204FF0804370B5D3F80443610774
:10A9740010D5D3F808316BB11E4D4FF48470FFF736
:10A984009FFF2B6823B91C494FF48A70FCF766FEBD
:10A994002B689847A20613D54FF08043D3F814319F
:10A9A40073B1164D4FF48A70FFF78AFF2B6823B9F1
:10A9B400114940F21D10FCF751FE2B680020984706
:10A9C400630615D54FF08043D3F8183183B10B4C8F
:10A9D4004FF48C70FFF774FF236823B906494FF4D2
:10A9E4009270FCF73BFE23680120BDE870401847D5
:10A9F40070BD00BF78320020C63004007C320020D5
:10AA040008B5FFF7AFFFBDE80840FEF7C1BC00235F
:10AA1400435082B043580193019B02B070472DE923
:10AA2400F0470E78089F9DF824A004460D469846EA
:10AA3400002E5BD1D0F82431D2F800903BB14FF412
:10AA44009271FFF7E4FF012363612B7014E0D0F8E7
:10AA54001C313BB34FF48E71FFF7D9FFD0F824318A
:10AA6400002BECD113689F4212D918F80330C0F8B8
:10AA74001C35136801331360B94535D1D4F804315A
:10AA840093B34FF482712046FFF7C1FF002604E020
:10AA94000123BAF1000F03D0C3613046BDE8F0874B
:10AAA4004361E9E7D0F80831002BE5D04FF4847115
:10AAB400FFF7ADFFD0F82431002BC0D113689F42BB
:10AAC400DAD9D0F8181508F80310136801331360A5
:10AAD4007A1E934205D10223C0F800320123236277
:10AAE400CAE79F42FAD1C7E70126D6E74FF492712D
:10AAF400FFF78DFF4FF48E71FFF789FF4FF48471D8
:10AB0400FFF785FFBAE700002DE9FF470C4605462D
:10AB14001F4620463B4B03934FF482719DF83080CF
:10AB2400FFF775FF4FF49271FFF771FF4FF48E71C9
:10AB3400FFF76DFF4FF48471FFF769FF0023C4F83A
:10AB440000326B6385F82E3001232362A36016461E
:10AB54006A6B97421DD9B35CC4F81C356B6B013327
:10AB64006B632B68E3B905F1340A05F12E09039BE5
:10AB7400002B1FDC95F82E3053BB0020039B002BC9
:10AB840015DC0023C4F800350523C4F80035032080
:10AB94000DE0B8F1000F01D0E361E2E76361E0E7A3
:10ABA40040F28623AB60AB68C4F80433002004B0E1
:10ABB400BDE8F087CDE90078334652464946204641
:10ABC400FFF72DFF0028D5D0039B013B0393CEE76D
:10ABD400D4F8C434C4F8C434002BCED013F0010F1D
:10ABE40014BF4FF40240032048F2012213F0020F75
:10ABF40018BF104613F0040F48F2022318BF18467A
:10AC0400BCE700BFA08601001F2810B5044604D984
:10AC140006494FF4F370FCF721FD04F5E0744FF09E
:10AC2400A043022243F8242010BD00BF782D040065
:10AC34002DE9FF470C4605461E462046364B039336
:10AC44004FF48271FFF7E3FE4FF49271FFF7DFFEDA
:10AC54004FF48E71FFF7DBFE4FF48471FFF7D7FEDC
:10AC64000023012ED5F800806B6385F82E3017463B
:10AC74004FF0010306BF0222C4F80022C4F80032D8
:10AC840023622360B8F1000F15D105F1340A05F1F0
:10AC94002E09039B002B18DC95F82E301BBB0020DB
:10ACA400039B002B0EDC0023C4F800350523C4F8F5
:10ACB4000035032006E040F28623AB60AB68C4F89D
:10ACC4000433002004B0BDE8F087CDE900683B46BA
:10ACD400524649462046FFF7A2FE0028DCD0039BDB
:10ACE400013B0393D5E7D4F8C434C4F8C434002B2F
:10ACF400D5D013F0010F14BF4FF40240032048F2E3
:10AD0400012213F0020F18BF104613F0040F48F28B
:10AD1400022318BF1846C3E7A0860100F0B5314CE2
:10AD2400236889B023B930494FF42070FCF796FCAE
:10AD340094F82C302D4A0193A36A0093911F636AFF
:10AD44004FF04020FFF76BFEE8B994F82EC0276A55
:10AD5400BCF1000F21D1217B8B1E012B1DD8626A0F
:10AD6400A3699A4219D1E26963696262C7F3401721
:10AD74000329A36284F82C7007D11A4800974FF076
:10AD84004021FFF7C1FE09B0F0BD16484FF0402145
:10AD940009B0BDE8F040FFF74BBF154E0FCE03AD31
:10ADA4000FC533682B60BCF1000F18D04FF0402260
:10ADB400D2F8C434C2F8C43499070CD501238DF8F1
:10ADC4000830002384F82F307B07DCD4D4E9003129
:10ADD40002A89847D7E75A07F3D50223EFE78DF87F
:10ADE40008C0EEE78432002038310400B832002075
:10ADF400903200202DE9F74F0746924601938B4687
:10AE040019B94C498920FCF729FCDBE900239A4253
:10AE140003D148498A20FCF721FC97F80480464E68
:10AE24003C2303FB08F906EB090494F82D20002ABF
:10AE34007CD142493868FEF7A1FD0546002877D148
:10AE4400019B63609BF80D30A06084F8300084F8A7
:10AE54002F0084F83830DBF8004046F809A01F2C96
:10AE640004D937494FF4F370FCF7F8FB04F5E074A8
:10AE74004FF0A04940F20C6349F82430DBF8044059
:10AE84001F2C04D92E494FF4F370FCF7E7FB04F5AB
:10AE9400E07440F20C6349F82430DBE900123B68AB
:10AEA400C3F80815C3F80C25DBF80820C3F82425DB
:10AEB4003C2202FB08F2B25872B39BF80C404FEAF2
:10AEC400133A43F30739A31E012B06D9631F022B40
:10AED40003D91C496B20FCF7C1FBB9F1000FACBFCF
:10AEE40009F16043184B4FEA4414B8BF0AF00F0A43
:10AEF400E4B2AABF03F5614303F80A4083F80043B0
:10AF04003B68012143F30732C3F3043301FA03F32B
:10AF140052090E4941F822303C2303FB0863012205
:10AF240083F82D20284603B0BDE8F08F0825F9E703
:10AF34001125F7E7383104008432002021AD0200E6
:10AF4400782D0400192F040014ED00E000E100E066
:10AF540070B50C4C06793C2303FB0643054693F875
:10AF64002D30012B03D00849E820FCF777FB2B6830
:10AF74000522C3F800253C2303FB0644022384F87E
:10AF84002D3070BD843200203831040070B5104C6F
:10AF940006793C2303FB0643054693F82D301BB981
:10AFA4000C49F420FCF75AFB2B680B4AC3F808231E
:10AFB400D3F8002222F00302C3F800220022C3F8CF
:10AFC40000253C2303FB0644012384F82D3070BD87
:10AFD40084320020383104008642040070B51D4DCF
:10AFE40006793C2303FB0653044693F82D301BB922
:10AFF4001949CF20FCF732FB3C237343EB5863B170
:10B00400226842F3073301215B09C2F3043201FAD7
:10B0140002F22033114941F823202046FFF7B6FFFE
:10B024002068FEF7D3FC3C2303FB065393F8383027
:10B034004BB92368D3F80805FFF7E6FD2368D3F876
:10B044000C05FFF7E1FD3C2303FB0655002385F8BF
:10B054002D3070BD843200203831040000E100E05E
:10B064002DE9F74F0779DFF8F4804FF03C0A0AFB2B
:10B0740007FAC7EB071958F80A3005460E46144676
:10B0840008EB8909A3B90B78022B08D03378032B7A
:10B094000ED130494FF41370FCF7E0FA08E02D4963
:10B0A40040F24B20FCF7DAFA58F80A30002BEDD0C6
:10B0B400D5F800E0284BCEF808333C2505FB07857E
:10B0C40095F82F3003F0FF0B33B1AB68CEF804339F
:10B0D400112003B0BDE8F08F84F00403C3F38003B0
:10B0E40085F82F302C62B246BAE80F0005F10C0C3B
:10B0F400ACE80F00DAF80030CCF800307368AB62CB
:10B10400F2686A627178CEF888153178012919D00D
:10B11400B1B9C4F340143C2101FB0781484681F8CE
:10B124002C4000947146FFF7EFFC3C235F4308EB8F
:10B13400070258F80730002BCBD182F82F30C8E72C
:10B144000124E8E785F82CB071464846FFF770FD06
:10B15400EBE700BF3831040086420400843200204B
:10B16400F0B587B004460F4615460021142201A805
:10B174001E4614F018FD9DF830308DF80570002B34
:10B1840014BF2022002201A9204602960495FFF74D
:10B1940067FF07B0F0BDF0B587B004460F4615460B
:10B1A4000021142201A81E4614F0FDFC01230022F4
:10B1B40001A920468DF804308DF805700296049597
:10B1C400FFF74EFF07B0F0BD1FB503788DF80030D0
:10B1D4008388ADF8043083688DF80630C3688DF831
:10B1E4000730036902934369054A0393054B684694
:10B1F40053F8213052F82110984705B05DF804FB4C
:10B20400C0320020C8320020024B4FF4807043F05B
:10B2140001031847B03104001F2810B5044604D9AF
:10B2240006494FF4F370FCF719FA01204FF0A043DC
:10B2340000FA04F4C3F8084510BD00BF782D0400DB
:10B244001F2810B5044604D906494FF4F370FCF7DF
:10B2540005FA01204FF0A04300FA04F4C3F80C45AA
:10B2640010BD00BF782D04002DE9F14F154690F86C
:10B274000090334A42F82950324A42F829304B7B35
:10B2840007460C46BBB30868DFF8C0A04FF0A046E1
:10B2940000F5E07340F20C6246F823204B6803F596
:10B2A400E0734FF0000846F82320FFF7B5FF60680D
:10B2B400FFF7B2FF236803F5E07340F20D6246F82E
:10B2C4002320636803F5E07346F82320FFF79CFF0F
:10B2D400D4F804B0BBF11F0F04D951464FF4F370F6
:10B2E400FCF7BCF9D6F8103523FA0BF3DB070ED5BF
:10B2F400B8F1000F1AD1144A002D4B4608BF2A4654
:10B304002146381D01B0BDE8F04FFFF773BD20683A
:10B31400FFF796FF08F10108FFF776FF2068FFF7B3
:10B324007BFFFFF771FFB8F1090FD1D16068FFF718
:10B3340087FFFFF769FF6068FFF76EFFDBE700BF79
:10B34400C8320020C0320020CDB10200782D0400A4
:10B354002DE9F347002406460F46904600F5A075F4
:10B364004FF48039A246A00000F5A07398B22B6870
:10B374006BB1D6F8043309FA04F21A4207D0C5F8BF
:10B3840000A02B680193019BD7E900319847013451
:10B39400A04505F10405E6D102B0BDE8F087000040
:10B3A4002DE9F347534B90F80480144602689A42FF
:10B3B40006460D4603D150494820FCF74FF91DB904
:10B3C4004D494A20FCF74AF91CB94B494B20FCF77C
:10B3D40045F94A4F0C2303FB08731B7A002B40F0FA
:10B3E40086803368434A93420FD002F580529342D9
:10B3F4000BD002F58052934207D002F5803293427B
:10B4040003D002F58052934202D1AB78032B03D9C7
:10B4140039495F20FCF722F90C2303FB08F3FA18DF
:10B42400FC506B6853607079326800231C46D9B2B3
:10B43400884253D8EC78A31E012B4FEA123A42F308
:10B44400073906D9631F022B03D92D496B20FCF75A
:10B4540005F9B9F1000FACBF09F16042294B4FEA7D
:10B464004414B8BF0AF00F0AE4B2AABF02F561425D
:10B4740003F80A4082F800433168234C41F3073350
:10B484005B090122C1F3043002FA00F044F82300FE
:10B49400D1F804056B7820F0030003F003030343A1
:10B4A400C1F80435D1F80805AB7820F0030003F0A7
:10B4B40003030343C1F808352B78D1F8100503F0D2
:10B4C4000F0320F00F000343C1F810350C2303FBD6
:10B4D400087300201A7202B0BDE8F087990001F5E4
:10B4E400A071013354505158019101999FE70820EC
:10B4F400F1E700BF00800040B6310400D0320020E4
:10B50400192F040014ED00E000E100E038B50B4D04
:10B5140003790C2202FB035304461B7A012B03D04C
:10B5240007498F20FCF79AF8236801221A602379CF
:10B534000C2202FB035502232B7238BDD0320020AB
:10B54400B631040038B50A4D03790C2202FB0353CB
:10B5540004461B7A1BB907499720FCF77FF8226839
:10B564000123136122790C2101FB02552B7238BD92
:10B57400D0320020B631040010B5084B02790C21FA
:10B5840001FB023304461B7A1BB90549B320FCF7BF
:10B5940065F823680122DA6010BD00BFD0320020B4
:10B5A400B631040037B54FF4803400688C407BB169
:10B5B40001F150039B000025C550C3580193019B22
:10B5C400C0F8044301F5A87140F8212003B030BD50
:10B5D400C0F80843F6E770B4046840F20116D4F8E2
:10B5E40000528E4025EA0605C4F80052D4F80052F1
:10B5F4002B43C4F800329DF80C3070BCFFF7D2BF67
:10B60400024903480422FFF7A3BE00BFD032002042
:10B6140000900040024903480622FFF799BE00BF8C
:10B62400DC32002000B0014009B10AF0EDBE7047E1
:10B6340037B5294B01930DF079F804460CF06AFFF5
:10B6440004430CF071FE04430FF07CF80443012022
:10B654000DF08AF804430EF0A1FE044300F03AFD15
:10B664000443012000F052FD00F0BAF8044300F056
:10B674004BFF044301F0DAF844EA000500F0B2FDA0
:10B68400054301A801F022FA012000F009FB05435B
:10B6940001F0A6FA054300F095FC054300F0B0FC68
:10B6A40005430DD1284600F031FD012000F022FDB4
:10B6B4004FF47A700DF084F80546002000F01AFD6E
:10B6C40006480EF07BFA064A6323002128460EF052
:10B6D40009FA03B030BD00BF6F12833D2DB60200DE
:10B6E4003332040008B512F07DFEFFF7A1FF0CF021
:10B6F40037FE0DF055F8FAE707B504210190074A23
:10B704000DEB01000CF038FE054A98236FF0004160
:10B714000EF0E8F903B05DF804FB00BF6DB702005A
:10B7240072320400007810F0010010B504D000213A
:10B73400054A08460CF020FEBDE81040034A4D239C
:10B7440000210EF0CFB900BF55B7020072320400D9
:10B7540008B500F069FC00F0D5FE0AF05AFEBDE819
:10B7640008400AF051BE000038B580B304292ED138
:10B7740043880D2B2BD10378154C164D8BB11649EC
:10B7840003200AF0E1FD237800206FF30003237007
:10B7940000F0B8FC28680CF031FFBDE8384000F038
:10B7A40063BA0E4903200AF0CFFD2378012043F049
:10B7B4000103237000F0A6FC28680CF01FFF286822
:10B7C400224641F28831BDE838400CF0F5BE38BD60
:10B7D400E8320020EC320020CF320400B7320400FB
:10B7E40010B5054A054800210CF0BCFE0446044887
:10B7F4000EF01CFD204310BD29B70200EC320020DE
:10B804007024002010B5064A89B20CF0B5FDBDE8DD
:10B814001040044A4FF4BD7300210EF063B900BF19
:10B8240085BD0200F032040010B5064A89B20CF05E
:10B83400A3FDBDE81040044A40F2631300210EF05A
:10B8440051B900BFC1BD0200F032040010B5064A70
:10B8540089B20CF091FDBDE81040044A40F23F1358
:10B8640000210EF03FB900BF91B90200F03204008C
:10B8740010B5064A89B20CF07FFDBDE81040044AB9
:10B884004FF4987300210EF02DB900BFA5BD02003E
:10B89400F032040010B5084A89B20CF06DFD074B74
:10B8A4001A786FF341021A70BDE81040044A4FF44D
:10B8B4008D7300210EF016B9EDBB0200FC3200209E
:10B8C400F032040070B54FF4907204460E46002125
:10B8D40014F069F9302104F1F0000EF02DFD054655
:10B8E4002EB9302104F1C0000EF041FD0543114989
:10B8F400204614F08BF9104A272104F1090014F0B2
:10B9040090F800F109030D4AC0F12701E01814F082
:10B9140088F80B4904F1600014F078F9094904F13E
:10B92400900014F073F9084904F1300014F06EF932
:10B93400284670BD343304003E330400453304000C
:10B944004C330400563304006C3304000378DA07E4
:10B9540010B5044609D50B4B0422DD201A7008F0FB
:10B9640079FD23786FF30003237023789B0708D5B0
:10B974000021054A08460CF0FFFC23786FF34103CD
:10B98400237010BDF032002039BD020070B50E46A0
:10B99400054660B30A292DD900F046FB47F2305121
:10B9A4000446002009F062FA2B78303BDBB21B2BF3
:10B9B40044EA00040BD8012202FA03F30E4A1A40A7
:10B9C4002AB10E483246294601F0B2F80443002158
:10B9D400022009F04BFA044300F012FB2043BDE8B7
:10B9E4007040074ABB236FF000410EF07BB84FF460
:10B9F4000060F4E71020F2E707043F0C99A6030067
:10BA0400F03204002DE9F041284B294E294FDFF88C
:10BA1400AC8086B00722CDE9032303A840F2994302
:10BA240005930EF053FB32464FF4FA736FF0004166
:10BA340004460EF057F8002008F0F4FD04433246A3
:10BA44006FF0004120464FF4FB730EF04BF81A4B95
:10BA5400D8F8000008221A703B7843F001033B70C9
:10BA64000CF0CCFD5C2332466FF0004105460EF02D
:10BA740039F83A46D8F8000041F288310CF09CFDC0
:10BA84000543324628465E236FF000410EF02AF843
:10BA940044EA05004FF4FD7332466FF00041019013
:10BAA4000EF020F8019806B0BDE8F08164000400AF
:10BAB400F0320400FC320020F0320020F432002086
:10BAC40070B588B0002400220023054602A8CDE901
