:020000022000DC
:1060000000000420756302005D6302005F6302000C
:106010006163020063630200656302000000000028
:1060200000000000000000000000000067630200A4
:1060300069630200000000006B6302006D630200F0
:10604000C98202006F630200A18702006F63020031
:106050006F6302006F630200ED8502006F63020050
:106060006F6302006F6302006F6302006F630200E0
:106070006F6302006F6302006F6302006F630200D0
:106080006F630200157102006F6302006F6302000C
:10609000B17102006F630200B99B02006F630200DE
:1060A0006F6302006F6302006F6302006F630200A0
:1060B0006F6302006F630200000000000000000038
:1060C0006F6302006F6302006F6302006F63020080
:1060D0006F6302006F6302006F6302006F63020070
:1060E0006F6302006F6302006F6302000000000034
:1060F000000000006F630200000000006F630200F8
:10610000000000000000000000000000000000008F
:10611000000000000000000000000000000000007F
:10612000000000000000000000000000000000006F
:10613000000000000000000000000000000000005F
:10614000000000000000000000000000000000004F
:10615000000000000000000000000000000000003F
:10616000000000000000000000000000000000002F
:10617000000000000000000000000000000000001F
:10618000000000000000000000000000000000000F
:1061900000000000000000000000000000000000FF
:1061A00000000000000000000000000000000000EF
:1061B00000000000000000000000000000000000DF
:1061C00000000000000000000000000000000000CF
:1061D00000000000000000000000000000000000BF
:1061E00000000000000000000000000000000000AF
:1061F000000000000000000000000000000000009F
:10620000354936480A1A02D0072291438D4634494F
:1062100034480A1A06D00722914381F309880222E2
:1062200082F3148830483149314A00F044F831484B
:106230003149324A00F03FF831483249324A00F0E1
:106240003AF832483249334A00F035F83248334997
:10625000334A00F030F833483349344A00F02BF821
:1062600033483449344A00F026F83448344900228F
:1062700000F02CF833483449002200F027F8334866
:106280003349091A082902DB002202604160314AC1
:1062900090471F481F49884205D00268043003B464
:1062A000904703BCF7E700208646EC46002000211B
:1062B000294A9047FEE7884207D0521A05D0037852
:1062C00001300B700131013AF9D17047884202D098
:1062D00002700130FAE770470000042000E003205C
:1062E00000000420000004201CAD0200582D0020F6
:1062F000B42D0020D4630200D4630200D2A00200B7
:106300001CAD0200582D0020582D002070A1020065
:1063100070A1020070A1020070A1020070A1020031
:1063200070A1020070A1020070A102001AAD02006B
:1063300078AD0200B42D0020B42D0020B42D002033
:10634000B7360020B8360020B8360020B836002016
:10635000B85600209D630200D5940200FEE7FEE7D8
:10636000FEE7FEE7FEE7FEE7FEE7FEE7FEE7FEE705
:10637000704700BF1048804710484FF0070188431E
:1063800085460F4880470F48016841F4700101605D
:10639000BFF34F8FBFF36F8FFFF732BF0A480B4930
:1063A0000B4A884207D0521A05D0037801300B708F
:1063B0000131013AF9D170477163020000000420F5
:1063C000717D020088ED00E070A10200582D0020D0
:0463D000582D002024
:1063D400F0B595B01D46164608460C4601F00AFC79
:1063E4001A9B0D93CDE9086500252B46082205A9C3
:1063F40020460A958DF82C500C9501F017FC079B4C
:106404000293069B03939DF814308DF8115003F00A
:106414000302012A1DD1BDF81420059DC3F3C20354
:10642400C2F383168DF81030B20008230EA920465B
:1064340001F0FCFBC5F3952508AB0093324602AB93
:106444000EA9284600F0D6FB204601F0D7FB15B074
:10645400F0BD022AF8D1BDF81650C3F3C203C5F348
:1064640089158DF810300827082D2E4628BF0826D8
:106474003B4632460EA9204601F0D8FBAD1B08ABC3
:1064840002AA31460EA8374400F018FC002DEBD1C7
:10649400DAE70000014B01221A707047F52D002045
:1064A4007047000070B50E4D06460FCD88B06C469F
:1064B4000FC495E80F00002E84E80F00094A0A482B
:1064C4004FF0060308BF00226946009301F094FED2
:1064D40008B100F071FD054B1E7008B070BD00BF1F
:1064E40070A1020099640200582D0020B42D0020F0
:1064F40007B5044B0093044A4023FFF769FF03B038
:106504005DF804FB11650200B52D002038B50D4877
:106514000D4C0E4D002323700378EB5CD2B263B1B3
:10652400043002F0B5FD08B100F046FD084B1A78BE
:1065340012B12378002BFBD038BD0C3002F084FB61
:10654400F1E700BF582D0020F52D0020283500204C
:10655400B42D002008B50848084A0378D35C3BB141
:10656400043002F035FDBDE808400020FFF79ABF73
:106574000C3002F009FBF6E7582D002028350020E6
:106584000120FFF78FBF000008B5FFF7F9FF0448AB
:10659400042100F099FA034B01225A7108BD00BF8F
:1065A40060A102006C2D0020037813F0040216D0C1
:1065B40003F00303012B03D0022B09D00120704701
:1065C4000A6800880232C0F3831002440A60F5E7C7
:1065D4000B684288023303EB92130B60EEE710461C
:1065E400704700002DE9F04FDFF830A187B00F4667
:1065F40000230446861C0DF1070015468DF807306C
:1066040000F0CAFFDAF800103960DAE90132134405
:1066140001335B1A0AF21C470AF583690AF214482B
:10662400B3421CD30020002D73D004F00F039B0150
:1066340043F0050363F30F00DAF80020DAF80830BA
:106644001340033332444AF823009DF80700CAF884
:10665400002000F0C5FF012007B0BDE8F08F012144
:10666400384600F0F6FF484601F00BF8404601F0CA
:1066740008F8DAF80400DAF808B0029000EA0B002F
:1066840003300AEB800002A9FFF78EFF029B50BB88
:106694000BEA03020AEB820203F1020CD2680392B2
:1066A400013303EA0B0B0AEB8B0B02F00302012A02
:1066B400DBF80C10CDF808C023D0022A16D083468C
:1066C400404600F0E1FF10B1029BCAF8043059467D
:1066D400384600F0BEFFDAE901231344DAF800205B
:1066E40001339B1A9CE70BEA0300C9E7BDF80E309F
:1066F400C3F3891303334FEA114B0CEB9303029357
:10670400DEE7BDF80C30C3F383134FEA114B634447
:10671400F5E7A40544F006008EE700BFC82E00206C
:106724000B4B0C48FF2210B59A600022C3F81824C2
:10673400C3E90022C3F8142483F8202401F013FAD7
:10674400044610B9044801F0BBFA204610BD00BF4E
:10675400C82E0020F4A00200C4A1020030B50A4CE7
:1067640071B10A4A0A49121BD20800239A4201D184
:10677400002030BD31F82350854202D00133F5E7C3
:10678400034654F83300F4E708A1020060A10200B4
:10679400582D0020094B013903EBC000032909D807
:1067A400DFE801F00A02040604207047007970470C
:1067B40040797047002070470220704708A102000A
:1067C400034BD3E90030C31A58425841704700BF05
:1067D400C82E00202DE9F04387B0FFF7F1FF0646ED
:1067E400002840F0FE80804CC4F81804BFF34F8F9B
:1067F4006368A56802932B40033304EB830002A96A
:10680400FFF7D2FE029B18B1D4F81824002A62D0F4
:1068140005EA0302991C013304EB82022B4004EBCA
:106824008303D268DB68049302F00303022B039210
:10683400029163D1BDF80E306C48C3F38917502F11
:10684400B84628BF4FF0500808F1080168F38F13C9
:10685400C1F30901ADF80E3001F09DF90646002898
:1068640000F0AA8001F0C6F90023082203A93046EB
:1068740001F0D2F9029925EA01020132B8EB820F44
:106884004FEA820333D95FFA88F863B32940DDB253
:10689400A8EB050803315FFA88F9A846544D04EBC8
:1068A400810108234246304601F0B6F93DB108F1B2
:1068B4000803DBB24A462946304601F0ADF9029B93
:1068C400033703EB97070297D4F81834002B4BD106
:1068D400D4F810545BE0226893428CD36260304653
:1068E40007B0BDE8F08342491D469946D9E72940DF
:1068F40003310823424604EB8101DDE7012B5BD120
:10690400BDF80C303948C3F38311062928BF06218A
:1069140061F38913023101F00F018900ADF80C30E5
:1069240001F039F90646002846D001F063F9002346
:10693400082203A9304601F06FF90027BDF80C20A6
:10694400C2F38312BB00974203F10803BCD202993D
:106954004A1C29400331029204EB8101042230468F
:1069640001F05AF90137E9E7304601F047F9FFF73A
:1069740027FF80F00100C6B2B1E7EB685B7923B171
:106984002B6831461B6828469847EB681D68002D24
:10699400F3D1304601F032F90DF107008DF80750BC
:1069A40000F0FAFDD4F818340BB9029B63609DF82B
:1069B400070000F015FEDAE7D4F8104454B90D4B83
:1069C4000D480E49C01AC008000440F0020000F04F
:1069D40063F8CCE7236820469B689847E3681C6803
:1069E400ECE700267BE700BFC82E0020F4A00200DD
:1069F400D42E002008A1020030A10200ADA10200A3
:106A04002DE9F74F224E04460F46924601A9012272
:106A14001846D6F808909B46FFF7E4FD20B3019D85
:106A24004FF00008AA1CD84508EB020126D11948EA
:106A3400002100F0EBFD80F31000000440EA144054
:106A4400E4006B1C04F0380403EA090305EA0905B1
:106A540044F0010406EB8303033544EA881444EA52
:106A64008724D86046F8254096F820341BB1FFF7F8
:106A7400B1FE0028FBD103B0BDE8F08F09EA0101A3
:106A840006EB81015AF82830CB6008F10108CAE707
:106A9400C82E0020E432002000231A46FFF7B0BFBE
:106AA40007B50123019201AAFFF7AAFF03B05DF81D
:106AB40004FB07B5CDE9002302236A46FFF7A0FFD4
:106AC40003B05DF804FB000030B50F4CD4F810247B
:106AD40003460020114631B9D96808714AB9C4F88F
:106AE40010340A6030BDC9680D79854206D0096842
:106AF400F1E7D26814680C601360F3E701300A28E8
:106B0400E8D14FF0FF30EDE7C82E002038B5084B30
:106B14000125D3F8104483F8205404B938BDE36840
:106B24005D71236820465B689847E3681C68F4E756
:106B3400C82E002030B5C38885B004460D4633B155
:106B4400144A00921449154A284600F000FE217A9E
:106B540005291DD0637A4BB1A088FFF71BFE104BAB
:106B6400104953F82020284600F0F1FD227A0E4BFC
:106B7400A08853F8222003920021FFF7EFFD039A27
:106B84000A490346284605B0BDE8304000F0DFBDA1
:106B940005B030BDF0A10200D8A10200D0A10200CE
:106BA4005CA20200F5A1020080A20200F8A102008A
:106BB40007B503460846197A052911D05B7A2BB12B
:106BC400094A0A49019000F0C2FD01980849019060
:106BD40000F0BDFD019803B05DF804EB00F0ACBD1E
:106BE400002AF8D0F2E700BFF0A10200F5A10200EC
:106BF400EDA102002DE9F04385B01F460C9D002352
:106C040095F80C902B7306460C4690462946384658
:106C1400FFF790FFB8F1060F09D8DFE808F0041277
:106C2400181F283340003146284600F090FD00220A
:106C340029463846FFF7BCFF85F80C9005B0BDE83F
:106C4400F08322683146284600F081FDEFE7D4E95D
:106C540000233146284600F07AFDE8E7A368009354
:106C64003146D4E90023284600F071FDDFE7E368EC
:106C74000193A36800933146D4E90023284600F029
:106C840066FDD4E723690293E3680193A368009344
:106C94003146D4E90023284600F059FDC7E763696B
:106CA400039323690293E3680193A3680093314635
:106CB400D4E90023284600F04AFDB8E708292DE965
:106CC400F74F80460E4617461C463DD800251B7BD1
:106CD4002573214610460193FFF72CFFDFF88CA0A3
:106CE400DFF88CB0AE4232D918F805205946204658
:106CF40000F02DFD0135082DF4D11B49DFF874A0F7
:106D0400DFF874B0204600F022FD4FF000094E4534
:106D140024D918F809507E2D1ED8284603F046F9C8
:106D2400002814BF2A462E225946204600F00FFDA3
:106D340009F10109B9F1080FE9D1012221463846C8
:106D4400FFF736FF019B237303B0BDE8F08F514674
:106D5400204600F0FCFCCDE72E22E5E75146204614
:106D640000F0F5FCE4E700BF0CA2020008A2020058
:106D740002A202000AA202000EA202002DE9F84FAC
:106D84002F4F304E4FF000082F4B1B785FFA88F5D9
:106D9400AB4201D8BDE8F88FD7F8009019F8350058
:106DA4000124A0F12002C0F1200304FA02F224FA23
:106DB40003F31343D6E9001204FA00FC01EA0C0BB6
:106DC40002EA030E5BEA0E0E09EBC50A35D021EA8E
:106DD4000C0122EA0303C6E9001301F0F7FB0246A3
:106DE40019F83500194DA0F12003C0F1200124FA4F
:106DF40001F104FA03F30B43D5E900C1C0F1200506
:106E04000B40A0F1200122FA05F5844002FA01F1B9
:106E1400294304EA0C0402FA00F58B4208BFAC4291
:106E24000BD1DAF8043043B19AF801104C1E6142D8
:106E340061418D1A69426941984708F10108A3E745
:106E4400C0330020B833002084330020B033002046
:106E5400F8B507461E4800F08FFBB8BB01251D4E50
:106E6400A7F12004C7F1200325FA03F305FA04F47B
:106E74001C43D6E90023BD4002EA050003EA0401ED
:106E840001431DD1384601F0A1FB134BD3E9001295
:106E940088B129432243C3E90012D6E900232A43D7
:106EA4002343C6E900230D4B094819680022BDE8B5
:106EB400F84000F019BB21EA050122EA0402EAE7DE
:106EC40022EA050223EA0403C6E90023F8BD00BF51
:106ED4008C330020B8330020B033002088330020E6
:106EE400042A2DE9F34105460C4616463BD901F028
:106EF40095FAE8B11D4B1E491D601E4BDFF88880D2
:106F04001C701D4B00221E600023C1E900231B4995
:106F1400C1E90023013CE4B200260327FF2C0ED173
:106F2400174A1848002102B0BDE8F04100F0CABA7F
:106F340001F042FA0028DDD002B0BDE8F08105EB93
:106F4400C40315F834009B788DF80660424601A905
:106F54008DF804708DF8053001F06AFA013CE4B252
:106F64000028DBD0E8E70720E6E700BFC0330020B5
:106F7400B03300208433002088330020B83300204D
:106F8400816D020094A20200556E020070B5084D96
:106F9400084E00242B789C4201D3002070BD336836
:106FA400012113F8340001F0C3FA0134F2E700BF01
:106FB40084330020C03300201FB50021039001AAB0
:106FC40044F20100CDE9011100F004F805B05DF8C8
:106FD40004FB000038B572B6FFF798FDFFF7FAFB23
:106FE4000028FBD1104B114C114D1249E41AE4084E
:106FF400240444F00100FFF74FFDD5F8F030DB071F
:1070040000D500BE0C4944F00200FFF745FDBFF374
:107014004F8FEA68094B02F4E0621343EB60BFF35D
:107024004F8F00BFFDE700BF08A1020030A102009E
:1070340000ED00E098A20200A4A202000400FA05F8
:10704400094B5A7899780132D2B2914208BF002292
:10705400197891421FBF02705878182202FB003041
:1070640014BF043000207047C433002073B50546B4
:1070740000240DF107000E468DF8074000F08CFA4D
:107084000DF10600FFF7DCFF90B10670094B9DF887
:10709400062045605A709DF8070000F0A1FA24B953
:1070A400054B4FF48012C3F80021204602B070BD96
:1070B4000424F0E7C433002000E100E0024B4FF465
:1070C4003C6043F001031847C0A2020038B50C4BE2
:1070D4000C4C4FF40032C3F8802001254FF4803368
:1070E400C4F84833C4F808336560FFF7E7FF064B7C
:1070F400A56000241C60FFF7E1FF044B1C7038BD41
:1071040000E100E000100140E0340020D134002010
:10711400F8B51F4B1F491B680025C1F84051C1F841
:107124004451C1F84851C1F84C51C1F80051C1F85B
:1071340004514BB3D1F8044517490968641A24F083
:107144007F442F461A68A24209D8A41A15441A7C0F
:10715400DE691AB1D3E905201F749047AEB90F4A0E
:107164000F4B11781B788B4205D10133DBB2022B14
:1071740008BF0023137012780A4B43F822500A4BBD
:107184004FF48012C3F80021F8BD3346DAE700BF9C
:10719400E434002000100140E0340020DD340020FD
:1071A400DC340020D434002000E100E02DE9F04F6D
:1071B400A14AA24913780978A14D994285B03CD0DF
:1071C4000133DBB2022B08BF002313709D491278F0
:1071D4009D4B0F6853F822003B1823F07F43002295
:1071E4000B602B6816461446944613B942B12B60C3
:1071F40006E0196881420ED902B12B60091A1960A0
:1072040001272B68DFF848A201934FF00008BEB9AC
:10721400DFF844B260E0401A0C44D968D3F81CE0AB
:10722400C3F800C031B13A1922F07F42C3E9012109
:10723400DE611E4673460122D7E700263746E0E7A3
:107244003446F6697F4B60681B68DFF810C2A1689A
:10725400C21A22F07F42624500F2A6800A442260EC
:10726400012222742A680023C4E90133E361002A5D
:1072740040F0A3802C60CAE79BF802105A1CD2B2DB
:1072840091428BF8002004BF00228BF800201822C2
:1072940002FB03B32A6819799C68022975D0032973
:1072A4007FD0012918D1207CB0B9D3E90312A260A0
:1072B4005A69E2609A69654BA2611A78002A18BF7C
:1072C40001466160BEE78C4200F094808946C9693A
:1072D4000029F8D1002323749BF800309BF8012087
:1072E4009A42C9D12B68B8F1000F04D1019A9A428D
:1072F40001D1002F43D0002B79D0D3F800A0544DF6
:10730400504BD5F804751C68DFF854813E1B98F87F
:10731400003026F07F4603369BB94FF48033C5F81E
:107324004433C5F804334B4B4FF400324FF001099A
:10733400C3F880211A60C5F80090FFF7BFFE88F8F3
:107344000090B2452CBF5444A41924F07F44C5F8DE
:107354004045D5F80435DB1B23F07F43E41B03339E
:1073640024F07F44A3420AD9D5F80435C5F8403542
:10737400FFF7A4FE374B4FF40032C3F80021334B20
:1073840000221A7005B0BDE8F08F114691469FE7C0
:107394001174D2690123002AFAD1002B9CD02A60EF
:1073A4009AE700231946F6E71B1A23F07F438B4222
:1073B40034BFCB1A0023236052E721681368994233
:1073C40013D85B1A1360E26154E7091AD8691A46A4
:1073D40038B1034618688842F7D3401A1860184633
:1073E40013462160E061DC6111E71346F2E7FFF721
:1073F4006DFEC4E74C4511D1D3692B6073B9DFF836
:1074040044E00120CDE90212CAF80800CEF80030A9
:107414000E4B1870FFF752FEDDE902120B68C969C2
:10742400C9F81C1011B1086803440B602B6893421F
:1074340018BF4FF001084DE7DC340020DD34002094
:10744400E4340020E0340020D4340020D034002080
:107454000010014000E100E0C4330020FEFF7F0083
:10746400D134002008B5FFF731FE104B00200B2269
:1074740018809A700E4B18600E4B18700E4B1870D3
:107484000E4B4FF48012C021C3F8802183F81413EB
:107494001A6002F18042A2F56F22C2F8080583F84F
:1074A4001113074BD2F804251A6008BDC433002019
:1074B400E4340020DC340020DD34002000E100E06E
:1074C400E0340020074B9B784BB132B128B10368FC
:1074D400187C20B959745A617047072070470820F6
:1074E400704700BFC43300202DE9F743DFF88480E0
:1074F40098F8023005460E461746ABB3A0B30429EC
:1075040030D9436983B3437C0024012B0DF1070078
:107514000CBF8946A1468DF8074000F03DF80DF1F7
:107524000600FFF78DFDD8B1012303700F4B4560B2
:10753400D3F80435C0E90497C0E902369DF8063053
:1075440088F801309DF8070000F04AF824B9084B88
:107554004FF48012C3F80021204603B0BDE8F08345
:107564000424EFE70724F7E70824F5E700100140B7
:1075740000E100E0C4330020064A92783AB130B109
:10758400426922B1002202740221FFF76FBD082074
:10759400704700BFC433002070B5EFF3108672B695
:1075A4000C4A946801239CB993600B4B0B4DD3F8A0
:1075B400801029401160C3F88050D3F884105160C2
:1075C4004FF0FF32C3F88420047006B962B670BD70
:1075D4000370FAE7E834002000E100E0FC06FFBD98
:1075E400084B9A6810B55AB150B9EFF3108172B6CE
:1075F400054A1C6814605C685460986001B962B6FE
:1076040010BD00BFE834002000E100E010B50346DF
:1076140053E8000F0A4643E8002494F0000FF7D122
:1076240010BD10B5034653E8002F42EA010043E8B9
:10763400000494F0000FF6D110BD10B5034653E8D2
:10764400000F00EA010243E8002494F0000FF6D191
:1076540010BD10B5034653E8002F02EB010043E8C8
:10766400000494F0000FF6D110BD10B5034653E8A2
:10767400002FA2EB010043E8000494F0000FF6D1C0
:1076840010BD0121FFF7CDBF0021FFF7D6BF10B514
:1076940090B1D0E9012301689B1ADBB20A60013B77
:1076A400DBB2FF2B026802D10020107110BD1168FB
:1076B4004C1C14600B70F2E70E20F7E737B5054653
:1076C40000240DF107008DF80740FFF765FF2A68D5
:1076D4006B68116899420ED9481E106011F8013C7C
:1076E400EC68298A01FB0344AB6811791B1ADBB2ED
:1076F400994238BF13719DF80700FFF771FF2046C8
:1077040003B030BD37B5054600230DF107000C4624
:107714008DF80730FFF740FF2A681368591C116081
:10772400E968641A298AB4FBF1F41C709DF8070017
:10773400FFF756FF03B030BD826810B504462AB186
:1077440043690168006998470023A36010BD0EB423
:1077540003B5039921B104AB01AA019300F076F8B3
:1077640002B05DF804EB03B070470A2938B504464B
:107774000D4602D10D21FFF7F8FFA3682268591CBA
:10778400A160D554D4E901329A4204D32046BDE81D
:107794003840FFF7D1BF38BD2DE9F84F9846DDE9F1
:1077A4000A43154682460F460A464FF00109AA428B
:1077B4000FD2C14538BFC14613F0010B01D16CB9DA
:1077C40000240126B8F1010F1BD908F1FF386E43DC
:1077D400F8E709F10109B2FBF5F2E8E79B070ED5DA
:1077E400B8F1000F0CBF30262026A145E9D2013C98
:1077F40031465046FFF7B9FF002CF6D1E0E72026CA
:10780400F3E7B7FBF6F39D42E1D9DFF83C80B7FB21
:10781400F6F3504618F8031006FB1377FFF7A5FF9D
:107824003346AB42B6FBF5F6F1D2BBF1000F02D002
:107834000CB1A14501D3BDE8F88F20215046013C8D
:10784400FFF793FFF4E700BFC6A202002DE9F74F4C
:10785400054617468846002900F03E8118F8011BAA
:1078640049B92B7B002B00F03781284603B0BDE8D3
:10787400F04FFFF761BF252940F0B780002698F844
:1078840000302D2B424608F1010823D0302B24D0A0
:107894002B2B25D000242A2B02F1010123D13B6894
:1078A4001A1D1B683A601C440A4613782E2B26D1F5
:1078B40001324FF0000A104610F8011BA1F1300C00
:1078C400BCF1090F1DD80A2303FB0A13A3F1300AE4
:1078D4000246F0E746F00106D1E746F00206CEE79D
:1078E40046F00406CBE711F8013CA3F13000092867
:1078F400DBD80A2202FB0434303C0A46CBE74FF0C3
:10790400000A12F8011B01F0FB0068289046F8D029
:10791400782909D86F290CD8632962D022D825295F
:1079240063D0582900F0888098F80030002B95D156
:1079340097E770390829F7D801A353F821F000BF5D
:10794400B77A02002D7902002D7902004D7A0200E7
:107954002D7902002B7A02002D7902002D79020084
:107964003D7A0200642901D06929DDD13A68D2F850
:107974000090111D89EAE9723960A2EBE9724FF0B7
:10798400010B092A35DCD34538BFD3462CB1B9F1F4
:10799400000F01DB720700D5013CB30702D5BAF131
:1079A400000F03D0F00701D44CBB0024B9F1000F41
:1079B4002DDAC9F100092D212846FFF7D6FE06F07D
:1079C4000302022A04D1BAF1000F01D11CBB002426
:1079D400CDE9004653460A2249462846FFF7DCFE15
:1079E400A2E73B681A1D19783A602846FFF7BDFEE6
:1079F4009AE70A230BF1010BB2FBF3F2C1E7A345AB
:107A0400D4D220212846013CFFF7AFFECCE7710712
:107A1400D5D52B21D0E7A345DAD230212846013C25
:107A2400FFF7A3FED2E73968CDE900460A1D3A60A4
:107A340053460A220968D0E739680A1D3A60CDE93D
:107A4400004653461022F5E73B681A1D3A6016F0CB
:107A54000106D3F8009024D1B9F1000F03D04846B1
:107A640002F005FB0646B4421DD809F1FF3919F8A6
:107A7400011F00293FF458AF2846FFF776FEF6E7CA
:107A840028460136FFF771FE19F806100029F7D1D0
:107A9400A642BFF449AF20212846013CFFF765FE0A
:107AA400F6E70026F0E720212846013CFFF75DFEBB
:107AB400D9E73B681A1D3A60302128461C68FFF755
:107AC40054FE78212846FFF750FE00220823CDE912
:107AD40000322146102280E703B0BDE8F08F00BFDA
:107AE4002DE9F84FB0F806A04579D2F800B09DF81A
:107AF40028900AFB05F5043D88460BEB0301A942D7
:107B040003F1040488BFA5EB030BB4FBFAF60746A4
:107B14000AFB1644C2F800B04EB9AAEB04055D4551
:107B240028BF5D46BBF1000F04D1BDE8F88F3F6864
:107B3400013EF1E7043408EB06003C442A46B9F15F
:107B4400000F0DD02146ABEB050B02F034FADA45F9
:107B54002E443F6855464FF0000428BF5D46E1E7D8
:107B640001462046EFE7FFF792BDF8B54679014696
:107B7400721E0546002393422D6803D30024A642B7
:107B840002D8F8BD0133F6E70F682846FFF7BAFDBF
:107B940001343946F3E72DE9F843068ACD1C07463C
:107BA400FFF78CFD043E35440446B5FBF6F5F0B111
:107BB4004FF48073EDB28380C680013D0760814637
:107BC4004FF00008A84512D23846FFF777FD064665
:107BD40048B163790133637108F10108C9F8000001
:107BE40007608146EEE72046FFF7BFFF3446204694
:107BF400BDE8F88301210430FFF72BBD10B5012146
:107C040004460430FFF731FDC0B220B92046BDE878
:107C14001040FFF7AABF10BD1FB5039200220092C7
:107C240003AAFFF75DFF05B05DF804FB1FB50392DF
:107C34000122009203AAFFF753FF05B05DF804FB8D
:107C440041DF7047064B10B500241C70054B1C60C7
:107C5400BFF35F8F0449054800F03BF8204610BD90
:107C6400FC34002000350020E0A20200F43400209F
:107C740007B500230DF107008DF80730FFF78CFCE2
:107C8400F1EE103A23F09F03E1EE103ABFF35F8F59
:107C94000A4B4022C3F884219DF80700FFF7A0FC9B
:107CA40001F06EFF20B103B05DF804EBFFF7C8BF2D
:107CB40020BF40BF20BF03B05DF804FB00E100E03B
:107CC400836800225A60C3E904229A60DA601A6069
:107CD40070470B684A684360934208BF0023016001
:107CE40008BF43607047436843B1026891685268B3
:107CF4000B449342436004BF002343607047000079
:107D040010B50D49A1F59472914201D800200FE0FD
:107D14008C1AE30F03EBE4035B1002EBC30452F889
:107D24003330834205D802D204F10802ECE76068DC
:107D340010BD2146E8E700BFE4A7020008B5FFF73D
:107D4400DFFF024B002808BF184608BDA6A60200A4
:107D54004FF08053D3F83021082A03BFD3F83401FD
:107D6400B0FA80F0400900207047000008B54FF0D9
:107D740080430022C3F80C21C3F81021C3F838252E
:107D84004FF0805203F54043D2F80414C3F8201591
:107D9400D2F80814C3F82415D2F80C14C3F8281523
:107DA400D2F81014C3F82C15D2F81414C3F83015F3
:107DB400D2F81814C3F83415D2F81C14C3F84015BB
:107DC400D2F82014C3F84415D2F82414C3F8481583
:107DD400D2F82814C3F84C15D2F82C14C3F8501553
:107DE400D2F83014C3F85415D2F83414C3F860151B
:107DF400D2F83814C3F86415D2F83C14C3F86815E3
:107E0400D2F84014C3F86C15D2F84424C3F8702592
:107E1400FFF79EFF18B13B4B3B4AC3F88C26FFF794
:107E240097FF18B1394BFB22C3F81825FFF790FFD1
:107E340070B14FF080414FF08053D1F8E42ED3F865
:107E4400583222F00F0203F00F031343C1F8E43E4B
:107E5400FFF77EFF20B12E4B4FF40072C3F840268B
:107E64004FF08043D3F80024D20744BF6FF00102DF
:107E7400C3F80024274AD2F8883043F47003C2F8C8
:107E84008830BFF34F8FBFF36F8F4FF01023D3F8B9
:107E94000022002A03DBD3F80432002B2EDA1E4B17
:107EA4000122C3F80425D3F80024002AFBD04FF0A4
:107EB40010221221C2F80012D3F80024002AFBD0A9
:107EC4004FF010231222C3F80422134BD3F80024DA
:107ED400002AFBD00022C3F80425D3F80024002A8A
:107EE400FBD0BFF34F8F0B490C4BCA6802F4E0621E
:107EF4001343CB60BFF34F8F00BFFDE7084B094A24
:107F04001A6008BD005000404881030000F00040A2
:107F14000090024000ED00E000E001400400FA059A
:107F2400742D00200090D003074B1B5C1F2B8ABFCD
:107F3400064A4FF0A04203F01F03D2F80405D840CC
:107F4400C04300F001007047E4A7020000030050A2
:107F5400074B1B5C1F2B86BF064903F01F034FF022
:107F6400A041012202FA03F3C1F80C35704700BFA7
:107F7400E4A7020000030050074B1B5C1F2B86BFC5
:107F8400064903F01F034FF0A041012202FA03F354
:107F9400C1F80835704700BFE4A702000003005091
:107FA40008B50020FFF7E8FF0120FFF7E5FF0220F6
:107FB400FFF7E2FFBDE808400320FFF7DDBF08B587
:107FC4000020FFF7C5FF0120FFF7C2FF0220FFF7E3
:107FD400BFFFBDE808400320FFF7BABF0A4B185C97
:107FE4001F288ABF094B4FF0A04300F01F00D3F8AD
:107FF40004250121814021EA02000A40C3F8080552
:10800400C3F80C25704700BFE4A70200000300502A
:108014000B2809D00C2809D0182809D019280CBF1E
:1080240003204FF0FF307047002070470120704755
:1080340002207047C20710B504460CD54FF0A04388
:108044000322C3F83427C3F83827C3F83C27C3F8FE
:108054004027FFF7A5FFA3070AD54FF0A0430C2242
:10806400C3F82C27C3F83027C3F86027C3F8642764
:1080740010BD000038B5074C051E04F1080318BFF5
:108084001C4623682BB11A6822605B68284698470F
:10809400F7E738BD0C35002020B9054B01225A7092
:1080A400FFF7E8BF012802D1014A9070F8E7704752
:1080B4000435002020B9034B01225A70FFF7DABFC0
:1080C400704700BF0435002038B50B4C237883B9C2
:1080D4000A486360A3602361E36000F0CBF80546BF
:1080E40001F04EFD08B900F0D1F8012323702846B1
:1080F40038BD8525FBE700BF043500209D800200C4
:1081040037B50B4C00230DF107008DF80730FFF74E
:1081140043FAE368013BE360E56815B900F0C8F889
:10812400A5709DF80700FFF75BFA03B030BD00BFF0
:1081340004350020012813B508D003281CD018B931
:10814400114B0122C3F8802002B010BD0F4C002354
:108154000DF107008DF80730FFF71EFA23780BB9ED
:10816400FFF7B2FFE3689DF807000133E3600123E2
:10817400A370FFF735FAE7E700F088F802B0BDE82E
:108184001040FFF7BDBF00BF00E100E00435002050
:108194001FB503788DF800304368019383688DF828
:1081A4000830C368054A0393054B684653F82130E9
:1081B40052F82110984705B05DF804FB18350020EB
:1081C400203500201FB503788DF8003043680193F3
:1081D40083688DF80830C368054A0393054B6846E5
:1081E40053F8213052F82110984705B05DF804FB8C
:1081F4001835002020350020F0B5194B90F800C048
:10820400DFF86CE043F82C20164B16460A6943F855
:108214002C204B7F0EF80C300C4607460FCC89B04F
:108224006D460FC594E80F0085E80F003B78CDF844
:1082340010C01EF803304BB1002E0B4A694608BF2C
:108244003246381D00F0E8FD09B0F0BD002E074AA3
:10825400694608BF324607F10C0000F0C1FBF3E7A2
:10826400203500201835002095810200C9810200C4
:1082740028350020044A137923B901211060918024
:1082840018467047852070472C350020074B1A6824
:10829400D2075FBFC02283F8002301221A604FF087
:1082A40080430122C3F81825704700BF00E100E0B5
:1082B4004FF080430122DA60D3F81824D203FBD4B0
:1082C400704700004FF0804307B5D3F800217AB11E
:1082D4000022C3F80021D3F800210092009A012261
:1082E400C3F808230F4B587910B95A711B68984783
:1082F4004FF08043D3F8042182B10022C3F8042153
:10830400D3F804210192019A0222C3F80823054BF1
:108314001B68012003B05DF804EB184703B05DF857
:1083240004FB00BF2C35002000F1804000F5C04064
:10833400002382B0036003680193019B02B070477D
:1083440003681F2B83BF03F01F03036001484FF032
:10835400A04070470003005007B5019001A8FFF743
:10836400EFFF019B00EB8300D0F8003723F4403388
:10837400C0F80037D0F8003743EA0141C0F80017CD
:1083840003B05DF804FBC208012300F0070003FA00
:1083940000F08B5C1843885470470000054B4FF085
:1083A400FF32072843F8202084BFC01880F85820E3
:1083B400704700BF3435002038B5144D95F86A4035
:1083C40014BB3022FF21A81801F01EFEE0B20134D4
:1083D400FFF7E4FF0C2CF9D10D4B00226A669A805A
:1083E4000C4BC02183F80613402119604FF4BE7072
:1083F400FFF79AFF084B4FF00041C3F80413012321
:1084040085F86A30104638BD0820FCE73435002072
:108414009835002000E100E000600040034B93F831
:108424006A00003818BF0120704700BF34350020AF
:108434002DE9F341DFF8F48008EB0003054693F9D6
:108444003030002B0F466CDA8B78C3F34003002BDB
:108454000BBF082400240C2108218C4203D10420E2
:1084640002B0BDE8F08158F82400013041D108EB96
:10847400050166B248F8242081F830601BB908EB86
:10848400040383F85850BB785A0712D4D90732D55D
:1084940001A80195FFF754FF019B00EB8300D0F87E
:1084A400003723F00203C0F800371F492846FFF7BE
:1084B4006AFFBB783A7813F0020328D0A40004F1D1
:1084C400804404F5C0442D02D4F8103523F44F330E
:1084D40023F44073C4F810351204D4F8103505F4AD
:1084E4007C5502F4403215431D43C4F81055002056
:1084F400B6E70134B1E701A87A780195FFF720FFC8
:10850400019B03F5E073920040F82320CDE7083E79
:1085140048FA86F898F8605045EA821288F8602094
:10852400E5E708209CE700BF98350020343500209B
:1085340073B5244D2E18044696F93020072A1DDD04
:10854400083A45FA82F595F860309B09032B10D15F
:10855400019001A8FFF7F4FE019BD0F81015D94053
:1085640001F001010231204602B0BDE87040FFF77E
:10857400F3BE012B0CBF02210321F4E7D3B2072B76
:108584001DD8930003F1804303F5C043D3F81005CD
:1085940040F00100C3F8100502F1400040B2800031
:1085A40080B2FFF7C1FE51B196F9303055F823304F
:1085B4002BB1012303FA02F2034BC3F8042302B0E4
:1085C40070BD00BF343500200060004007B5019045
:1085D40001A8FFF7B5FE019BD0F81005D84000F0C4
:1085E400010003B05DF804FB2DE9F04F00248BB0CB
:1085F400CDE90444654D4FF48072012102F18043BA
:1086040003F5C04390B21B68012B06D1D5F804339F
:108614000B4202D0FFF788FE0C430432B2F5907F80
:108624004FEA4101EAD1594BD3F87C31012B0ED1E9
:108634004FF4BE70FFF778FE4FF0A04344F00044BF
:10864400D3F810350493524BD3F810350593E3B2A5
:10865400D3B1504F00250126344210D0AB0003F1B2
:10866400804303F5C043D3F81005D3F8101557F829
:10867400253023B1C1F30141C0F3052098470135EA
:10868400082D4FEA4606E7D1002C7BDA0023CDE91A
:1086940006334FF0FF33CDE90833DFF8F8A03E4B43
:1086A400019300263546019B13F9014B0193631C8A
:1086B4004FD0C4F3C2070122E3B204F03F0B04F02D
:1086C400070402FA04F407F128020DEB020717F875
:1086D400081C21423DD00AEB0B014FEA931991F992
:1086E40030105AF82180B8F1000F07D1B9F1030F07
:1086F4002FD106A95846FFF746FE02E0B9F1030F51
:10870400F7D003A8CDF80CB0FFF71AFE039901F5D2
:10871400E07150F8211017F8180C2042C1F3014100
:1087240006D0022915D1B9F1030F0CD1494605E051
:1087340003290ED1B9F1030F05D102215846FFF7E1
:108744000BFE0135EDB2B8F1000F02D04946584690
:10875400C0470136042EA6D1A5B14FF0A043049919
:10876400D3F8102503F540739142D3F8103502D1A4
:108774000599994206D004920593069A079B08929C
:1087840009938CE70BB0BDE8F08F00BF0060004098
:10879400000300503435002094350020014B1B6841
:1087A400184700BFA03500200E4B984237B50C4641
:1087B40002D0002003B030BD00230DF107008DF876
:1087C4000730FEF7E9FE084B1D7915B901221C603C
:1087D4001A719DF80700FEF703FF002DE9D0112060
:1087E400E8E700BF00200040A0350020034B98427A
:1087F40001BF034B00221A601A7170470020004029
:10880400A03500200023435082B043580193019BBC
:1088140002B070470A4610B54FF48E71FFF7F2FFAD
:10882400136A9168C95C136A01331362C0F81C159A
:1088340010BD8B690A4610B54FF4847123B9FFF754
:10884400E1FFD0F8183510BDFFF7DCFF536AD1689B
:10885400D0F81805C854536A01335362F3E7000093
:108864001FB501238DF80030044BCDE90110D3E985
:1088740000126846904705B05DF804FBA835002057
:1088840030B54D4DD5F804339A0585B051D5D5F89A
:108894002431002B4DD04FF492712846FFF7B2FFDC
:1088A4004FF40173C5F80833444B93F829200AB9EF
:1088B40001226A60404902228DF80020D1F8802408
:1088C400C1F8802403929A690292DA680192002224
:1088D400C3E906226846D3E9001290473648D0F827
:1088E4001C315BB1354A116A536999424DD292F8F1
:1088F4002830002B49D11146FFF78CFF2E48D0F8C1
:108904004431002B55D04FF4A271FFF77BFF2B4B62
:1089140093F829200AB1012202609A69002A48D0FA
:10892400586AD96800229A6105B0BDE83040FFF763
:1089340097BFD5F804335B07D0D5D5F80831002BA1
:10894400CCD01E4C1C482146FFF773FF636AA26912
:108954009A42C3D1E369E1684BB1A3612369E3603F
:108964000023606AE3616362FFF77AFFB6E794F875
:1089740029300BB901236B600F4B4FF40172C3F81C
:1089840008230023606AA361EEE74FF48E710A485E
:10899400FFF738FF51690029B0D000230291916894
:1089A4008DF80030019153616846D2E9001398476D
:1089B400A4E705B030BD00BF00200040A83500206A
:1089C4001F2886BF00F01F00044B4FF0A04300F5A2
:1089D400E070022243F82020704700BF00030050DB
:1089E4002DE9F843624D90F804802C2303FB0853CF
:1089F400064693F82A300C469146002B40F0B4808A
:108A04005C490068FFF7D0FE0746002840F0AE80BE
:108A14002268531C10D01F2A87BF574902F01F0336
:108A240013464FF0A0410120984003F5E073C1F8CC
:108A34000805032041F823006168481C0DD01F2954
:108A44008BBF01F01F030B464B484FF0A04003F5CA
:108A5400E0734FF0000C40F823C03068A369C0F8FD
:108A6400243594F814C0637DBCF1010F4CEA030370
:108A7400C0F86C35C0F81415C0F80C252BD1A368C8
:108A8400591C0DD01F2B8BBF03F01F021A463A4905
:108A94004FF0A04102F5E0724FF0000C41F822C003
:108AA400E1684A1C13D01F2987BF334A01F01F0C09
:108AB4008C464FF0A0424FF0010E0EFA0CFE0CF55E
:108AC400E07CC2F808E54FF0030E42F82CE0C0F851
:108AD4000815C0F810352C2202FB08F2AB18C3F8B5
:108AE40004902369AB50B9F1000F2AD04FF48E7172
:108AF400247FFFF787FE30684FF4A271FFF782FEF0
:108B040032681E4BC2F80433130B42F30732002AB7
:108B1400A8BF02F160404FEA4411BABF184803F0FD
:108B24000F0400F56140C9B2B4BF015580F80013C9
:108B340003F01F03012101FA03F35209114941F81B
:108B4400223033680422C3F800252C2303FB085386
:108B54000022C3E9062283F829205A61012283F8FE
:108B64002A203846BDE8F8830827FAE71127F8E7F2
:108B7400A835002085880200000300508000020010
:108B840014ED00E000E100E02DE9F041036805790F
:108B9400244C0022C3F800252C2202FB0542014686
:108BA40052686AB1204AC3F8082343F30732C3F377
:108BB400043652090120B04020321C4E46F82200EF
:108BC400D3F80C05D3F81485D3F80865D3F81075D9
:108BD4004FF0FF329042C3F81425C3F80C25C3F8B4
:108BE4000825C3F8102501D0FFF7EAFEB8F1FF3FCE
:108BF40002D04046FFF7E4FE7A1C02D03846FFF765
:108C0400DFFE731C02D03046FFF7DAFE0868FFF778
:108C1400EDFD2C2303FB0544002384F82A30636014
:108C2400BDE8F081A83500208402020000E100E0E4
:108C34000279044B2C2101FB02335869003818BF18
:108C440001207047A83500202DE9F84F06468946D3
:108C54009246FFF7EDFF044600283DD196F80480C4
:108C64001F4F2C2508FB057B4FF48E71CBF8200099
:108C7400CBF814A08BF82800CBF808903068FFF7E5
:108C8400C1FD3068012383605946FFF7C3FDDBF85B
:108C940004305D4613BB30682A6A6B699A4211D36B
:108CA4003368D3F81C21002AFBD00122DA600020AB
:108CB4002C2303FB087700237B61BDE8F88F95F82C
:108CC40028303BB9D0F81C31002BF8D05946FFF7B7
:108CD400A1FDE1E70F20EBE71120EEE72046ECE7EA
:108CE400A83500200023435082B043580193019BD0
:108CF40002B070471FB501238DF80030044BCDE955
:108D04000110D3E900126846904705B05DF804FBF2
:108D1400D43500207FB5364AD2F82461002E46D0DF
:108D240010464FF49271FFF7DDFF02238DF80030F7
:108D3400D2F88034C2F880340393D2F83C350293DD
:108D44002C4BDA6801920022C3E906226846D3E973
:108D5400001290472648D0F8443173B14FF4A27101
:108D6400FFF7C0FF234B9A693AB10022C3E90622F8
:108D7400D968D0F83C05FFF7BDFF1D48D0F8203175
:108D84009BB14FF49071FFF7ADFF1A4B5A6962B172
:108D9400D0F84C150291002299688DF800200191B9
:108DA4005A616846D3E90012904704B070BDD2F806
:108DB4001031002BCED04FF488711046FFF792FF8C
:108DC4000C4BD2F83C0599698842C3D1DC69D96857
:108DD40064B1D2F8005225F02005C2F800521A6995
:108DE4009C61DA60DE61FFF785FFB3E79C61FAE717
:108DF40000200040D43500201F2886BF00F01F004B
:108E0400044B4FF0A04300F5E070022243F8202009
:108E1400704700BF000300502DE9F843664E90F8F8
:108E24000480242303FB0863054693F820300C4692
:108E34009146002B40F0BC8060490068FFF7B4FC09
:108E44000746002840F0B68021684B1C10D01F292B
:108E540087BF5B4A01F01F030B464FF0A04201207D
:108E6400984003F5E073C2F80805032042F8230094
:108E74006268501C0DD01F2A8BBF02F01F031346DB
:108E84004F484FF0A04003F5E0734FF0000C40F85A
:108E940023C02868A369C0F8243594F814C0637DFE
:108EA400BCF1010F4CEA0303C0F86C35C0F80C1593
:108EB400C0F814252BD1A368591C0DD01F2B8BBFD0
:108EC40003F01F021A463E494FF0A04102F5E0723A
:108ED4004FF0000C41F822C0E1684A1C13D01F294E
:108EE40087BF374A01F01F0C8C464FF0A0424FF069
:108EF400010E0EFA0CFE0CF5E07CC2F808E54FF00A
:108F0400030E42F82CE0C0F80815C0F810352422EE
:108F140002FB08F2B318C3F804902369B350B9F103
:108F2400000F34D04FF48871227FFFF7DBFE2868EE
:108F34004FF49071FFF7D6FE28684FF49271FFF753
:108F4400D1FE28684FF4A271FFF7CCFE2B681D49AF
:108F5400C3F80413190B43F30733002BAEBF03F11B
:108F6400604001F00F0418484FEA4212A8BF00F510
:108F74006140D2B2B4BF025580F8002301F01F0152
:108F8400012202FA01F15B09104A42F823102B680E
:108F94000822C3F80025242303FB08660023C6E93E
:108FA40006337361012386F820303846BDE8F88320
:108FB4000827FAE71127F8E7D4350020198D0200B5
:108FC400000300501003020014ED00E000E100E093
:108FD4002DE9F04103680579244C0022C3F80025EB
:108FE400242202FB0542014652686AB1204AC3F8B2
:108FF400082343F30732C3F3043652090120B04077
:1090040020321C4E46F82200D3F80C05D3F8148500
:10901400D3F80865D3F810754FF0FF329042C3F8C7
:109024000C25C3F81425C3F80825C3F8102501D06E
:10903400FFF7E2FEB8F1FF3F02D04046FFF7DCFE47
:109044007A1C02D03846FFF7D7FE731C02D0304694
:10905400FFF7D2FE0868FFF7C9FB242303FB05448E
:10906400002384F820306360BDE8F081D43500200B
:109074001003020000E100E00279044B242101FB0B
:1090840002335869003818BF01207047D4350020D6
:1090940001F06043B3F1005F2DE9F04706468846CE
:1090A400924635D190F80490FFF7E6FF044688BB5A
:1090B4001A4F3068242505FB09754FF49071C5F8E3
:1090C40014A0C5F80880FFF70DFE4FF4AC713068AA
:1090D400FFF708FE33686A69A968C3F84415C3F842
:1090E400482501229A606A68B2B9D3F82021D3F8DE
:1090F40058014AB90028F8D00F20242303FB09772C
:1091040000237B61BDE8F087002818BF0F20F4E737
:109114001020F7E71120F5E72046F3E7D4350020C7
:109124000220FEF75BBF00002DE9F04780460D46A4
:10913400FEF76EFF0328044610D8012D10D0022D2F
:1091440030D05DB91A48FEF717FA1A4B04EB440203
:1091540013449D78184B1B5DAB4219D0BDE8F087D2
:10916400144E00EB4003F218F55C5378470053B1FA
:10917400DFF84C900E484A464FF40041FEF7B4F92C
:1091840008B989F8008027443E440B4BB2781A553D
:10919400002DE3D0094B1B68002BDFD02846BDE827
:1091A400F047184700EB4004024804446578EFE7B1
:1091B4001C3600205C3600207536002070360020F6
:1091C400F835002000780221FFF7AEBF08B5094B3F
:1091D4001B7853B10020FEF7CFFE0120FEF7CCFE32
:1091E400BDE808400320FEF7C7BEBDE80840FEF70F
:1091F400D7BE00BFF9350020F8B57A4C2378054670
:109204001BB100232370FFF7E1FF172D00F28780C5
:10921400DFE805F00C1717425364757F878C878C41
:10922400949999999999C3C8D0D8E3E3FFF7CEFFED
:109234006D48FEF7A1F96D4B002204461A702046D2
:10924400F8BD0020FEF770FEF0B10020FEF794FE9A
:10925400022D0CBF4FF4E1644FF47A64634B1D702C
:1092640000254FF400464FF4FA7029464FF47A7201
:109274000023E4FB060100F0D9FD2A460146BDE8BF
:10928400F8405948FEF730B9FEF762FE022D0CBFD4
:10929400C8244FF4C874E1E70020FEF745FE40B14E
:1092A4000020FEF769FE4FF44874504B03221A70F5
:1092B400D6E7FEF74DFEC824F7E70020FEF734FE9C
:1092C40038B10020FEF758FE4FF47A64474B04226D
:1092D400EDE7FEF73DFE4FF4C874F7E70020FEF714
:1092E40023FE48B10020FEF747FE404B05221A70CA
:1092F40041F69A110022C2E7FEF72AFEF5E70020A4
:10930400FEF76CFE394B06221A70002240F6CD415E
:10931400B5E70020FEF71CFE344B07221A70002428
:109324008DE701202070FEF759FEEEE70120207042
:10933400FEF754FE00224FF48041A0E7FEF73FFE03
:109344002A4B0C22EAE72A482A4EFEF715F9D5F1F2
:10935400110504461CD0D8B9012D13D0C8204543AB
:1093640021464FF400474FF4FA704FF47A72002309
:10937400C5FB070100F05AFD224601461C48FEF7D2
:10938400B3F804460220FEF7E3FD0123337056E7E9
:109394000220FEF7F1FD0023F8E7FFF717FF134B58
:1093A4001222BBE7FFF712FF0020FEF7D1FD0F4B9F
:1093B4001322B3E7FFF70AFF0120FEF7C9FD0B4BA9
:1093C4001422ABE7FFF702FF0020FEF7C1FD0120E6
:1093D400FEF7BEFD054B1522A0E7FEF7F0FD034B9B
:1093E4001D709CE76C3600203C360020743600204B
:1093F400FC350020F9350020044B1B68DB0703D53E
:10940400034B1878FFF7F8BE704700BF683600209A
:1094140074360020044B1B6813F0010301D0FFF7DE
:10942400EBBE1846704700BF6836002038B51C4BA9
:1094340018601C4B10F00204054619601AD01A4B30
:109444001A480E221A700F22DA7010229A71112211
:109454005A72042140F26662FDF742FD044648B99F
:10946400FDF794FD044628B90146114A1148FEF758
:1094740029F80446EB0711D50120FEF7DBFD6CB992
:1094840021460D4A0D48FEF71DF8044630B9BDE8E3
:1094940038400B4A0B480121FEF714B8204638BD6A
:1094A40068360020703600205C3600200CA80200CC
:1094B400C991020030A80200FD93020034A8020002
:1094C400259102002CA8020072DF704773DF7047F9
:1094D40000B54FF4004193B00020FDF721F908B125
:1094E400FDF76AFDFDF750F8FDF7BCFF08B1FDF785
:1094F40063FD00210120FFF799FF08B1FDF75CFD32
:10950400FEF7A0FB08B1FDF757FD00F0FBFA08B128
:10951400FDF752FD002303A90120039300F07EFB15
:1095240008B1FDF749FD03A800F012FC08B1FDF7EE
:1095340043FD5923ADF80030244B02933C221723FA
:10954400002103A8ADF8043000F05EFD04238DF87B
:109554000F301F4BCDF830D018220021184600F0F0
:1095640053FD05220270A02282601A4A03A852F811
:10957400041B00F0B3F808B1FDF71EFD144A1549A9
:109584001548FFF7A1FF08B1FDF716FD134B14486A
:109594001449C01AC008000440F00300FDF77CFA27
:1095A4000D4B01211878FFF791FF08B1FDF704FD79
:1095B4000220FFF72FFF08B1FDF7FEFCFDF70AF9C3
:1095C4000028FBD1FEF754FBF8E700BF892D0020EB
:1095D4007C360020782D0020882D002008A1020070
:1095E40030A1020038A802006DDF704779DF7047B0
:1095F4007DDF704764DF70472DE9F04F85B00025AB
:109604000E9CBDF83CB0B4F800A00191074690460A
:109614001E46A9463A884A450DDC45B12388013BDC
:10962400A3EB0A039BB2FF2B3AD806F80A300020BA
:1096340005B0BDE8F08F7A6852F829000390002243
:109644000DF10B0103A8FFF7D5FF0028F0D19DF819
:109654000B20424521D12288002D14BF0020022076
:1096640002EB0801014459451ADC3DB9013292B2BA
:10967400019B2280B35422880132228022880DF17A
:109684000B01324403A8FFF7B5FF0028D0D121888D
:109694009DF80B200A442280012509F10109B9E74C
:1096A4000C20C5E72DE9F341089FBDF82480154639
:1096B400CDE90078022204461E46FFF79DFF50B90B
:1096C4003346102229462046CDE9087802B0BDE889
:1096D400F041FFF791BF02B0BDE8F0812DE9F04FF2
:1096E40000231788138090F82D3085B006460D4668
:1096F40014465BB3082F01D80C2028E102A8FFF719
:1097040073FF002840F023812388DDF80910082224
:10971400EA54238801339BB21B222380EA54238812
:1097240001339BB2EA182380E950BDF80D309380D1
:1097340023889DF8082006339BB212F0FE0218BF5E
:1097440001222380EA54238801332380B378FBB1B8
:1097540023880433BB42CFD802A8FFF747FF002871
:1097640040F0F58023880322EA54238801339BB216
:1097740019222380EA542388BDF8082001339BB2C0
:10978400E9182380EA54120A4A702388023323809A
:10979400F2789AB12388D91CB942ADD80221E95490
:1097A400238801339BB201212380E95423880B448D
:1097B4009BB22380EA5423880B4423807268AAB1A5
:1097C4002388D91CB94297D8022192F90020E95480
:1097D400238801339BB20A212380E954238801336F
:1097E4009BB22380EA542388013323803389002BDE
:1097F40040F0A180338A5BB1CDE900472B460722B4
:10980400032106F11000FFF74DFF002840F09F8070
:10981400338B5BB1CDE900472B461522142106F1A9
:109824001800FFF73FFF002840F09180326A002AB9
:1098340040F09080D6F82480B8F1000F30D0B8F80A
:1098440004302188981C8A1C0244BA423FF654AF63
:10985400FE283FF651AF03336B54238801339BB288
:10986400FF222380EA54238801339BB22380B8F873
:109874000020EA54E918120A4A702088023080B2A3
:109884002080B8F804205AB1D8F8081000296BD009
:10989400284400F090FB2388B8F804201344238064
:1098A40096F82C30002B40F09880307800284ED069
:1098B4003388012B58D0228802F1020CBC453FF6B4
:1098C4001BAF012805D17378023313449F42FFF480
:1098D40013AF023FBF1ABFB202A905EB0C00ADF8EB
:1098E4000870FFF785FE90BB3178BDF80830022977
:1098F40000F0B98072789A4202D39F4280F0B1801E
:10990400012940F0B280974293B2C0F0AE80ADF826
:1099140008300821BDF80830FE2B3FF6EDAE228852
:109924000133AB542288013292B22280A954228896
:10993400134423800BE0CDE900472B460622022185
:1099440006F10800FFF7AEFE00283FF453AF05B060
:10995400BDE8F08FB4F800C00CF10603BB423FF63B
:10996400CBAE1188052901D80720F0E76FF4486EC3
:1099740001EB0E039BB24FF27D3E7345F4D953883D
:10998400052BF1D96FF44860181880B27045EBD9F3
:109994004FF6FF70814201D09942E5D8052305F8BE
:1099A4000C30238801339BB212212380E95423888D
:1099B40001339BB223801188E954E818090A4170E5
:1099C400238802339BB223805288EA54E918120A8E
:1099D4004A702388023323802CE7B36A002BC3D058
:1099E4004FF000084FF00C0A4FF0160BB16A5FFA03
:1099F40088F20AFB02F201EB0209B9F80430981C60
:109A0400FE283FF679AE208803332B542388013394
:109A14009BB2238005F803B0238801339BB22380D3
:109A24008A5AEA54E918120A4A702088023080B22D
:109A34002080B9F804205AB1D9F80810002993D02D
:109A4400284400F0B8FA2388B9F80420134423808A
:109A540096F82C2008F101085FFA88F39A42C5D8D9
:109A640023E7092156E79F42FBD2ADF8087050E77F
:109A740010DF704713B5044609496846FEF729F913
:109A8400019808B902B010BDD0E9002120469047E2
:109A940018B16846FEF727F9F2E71120F2E700BF94
:109AA4005CA8020013B5044607496846FEF711F99D
:109AB400019B0BB902B010BD2046D3E900219047A9
:109AC4006846FEF710F9F3E774A802000B4991F811
:109AD40016335A09EC231341DB0706D5084B9A6861
:109AE4003AB94FF480030B60704742F20200FDF76D
:109AF40063BA1A6842F480021A60704700E100E019
:109B0400E8340020F7B5194F3C7864BB184E0125A2
:109B140020463570FFF7AEFF112821D02046FFF70D
:109B2400C1FF144B8DF80340186801900DF1030038
:109B3400FDF732FD104901A8FFF79AFF0446B0FA79
:109B440080F0400938709DF80300FDF749FD3CB9E9
:109B54000A4B34701C70FFF7B9FF2846FFF7A2FFC9
:109B6400204603B0F0BD0824FAE700BFB436002055
:109B7400B336002058A80200D96F0200B536002081
:109B8400014B1878704700BFB436002007B5084968
:109B94006846FEF79EF8019B13B903B05DF804FB19
:109BA400D3E9002090476846FEF79DF8F3E700BF2D
:109BB40068A80200FFF7EABF60DF704769DF7047FB
:109BC40061DF704730B5134B1B7891B0FBB1124D78
:109BD40034240DF1020103A8ADF80240FFF7F0FFB1
:109BE40070B9294601A8FEF774F8029B002BF0D047
:109BF40003A8D3E90021904701A8FEF774F8F4E71D
:109C0400052804D011B0BDE83040FDF7D5B911B036
:109C140030BD00BFB6360020B8AA020030B50C46ED
:109C240085B0002900F082800023CDE90133404A49
:109C3400039301230A608DF804008DF8063001A90E
:109C440006232020ADF80830FFF7B8FF60B1FEF717
:109C540075F8384B3849024638481B1ADB081B0490
:109C640043F00100FCF71CFF00232268039301A9C1
:109C74004020CDE90133FFF7A1FF60B1FEF75EF8A4
:109C84002C4B2F4902462D481B1ADB081B0443F0BA
:109C94000100FCF705FF00232268039301A90120BA
:109CA400CDE90133FFF78AFF60B1FEF747F8214B96
:109CB4002449024621481B1ADB081B0443F0010017
:109CC400FCF7EEFE0023CDE902332268F82301A954
:109CD400A1200193FFF772FF60B1FEF72FF8154B37
:109CE4001949024615481B1ADB081B0443F00100FE
:109CF400FCF7D6FE00252268039501A9A020CDE932
:109D04000155FFF75BFF034668B1FEF717F8094BEF
:109D14000E49024609481B1ADB081B0443F00100E4
:109D2400FCF7BEFE2B46184605B030BD0E23FAE7FD
:109D3400582D002048A1020080A8020008A10200BA
:109D4400C6A8020012A902005EA90200AFA902007F
:109D540073B505460668FFF72FFF2B68B342044628
:109D64001DD91A481A4B1B491B1ADB081B0443F064
:109D740002000190FCF790FE2B68174901983246C7
:109D8400FCF797FE4FF080532A68D3F80C3113493F
:109D940001989B0203F100539A1AFCF781FE2CB937
:109DA4000F4B01221A70204602B070BD2046FDF709
:109DB400C5FF074B0B49024604481B1ADB081B046A
:109DC40043F00100FCF76CFEEDE700BF08A10200C0
:109DD40048A1020002AA020031AA020062AA0200FB
:109DE400B63600208CAA02004BDF70471FB50E4C1C
:109DF40001A8FFF7F9FF70B9214602A8FDF769FF32
:109E0400039B002BF4D00198D3E90021904702A8CA
:109E1400FDF769FFF4E7052804D004B0BDE810405D
:109E2400FDF7CAB804B010BDD0AA020053EA020C70
:109E340061D02DE9F04BB3FA83F51E0007BFB2FAE7
:109E440082F502FA05F403FA05F41646C5F1200575
:109E54001EBF22FA05F73C43203556EA044C4FEA6C
:109E6400144418BF0134A3464FF00009C846904279
:109E740071EB030C39D3094207BFB0FA80F700FA3B
:109E840007F6B1FA81F701FA07F6C7F120071EBFFA
:109E940020FA07FC46EA0C062037B6FBFBFC7F1BC6
:109EA400103F07F01F04C4F120060CFA04F42CFA46
:109EB40006F644BF34460026202FA4BF26460024BD
:109EC40054EA060C08BF012418EB040849EB060900
:109ED400A4FB027CC01B06FB02CC04FB03CC71EB8D
:109EE4000C01904271EB030CC5D20B460246494665
:109EF4004046BDE8F08BB2FBF3F200007F2805D8A2
:109F0400034B185C034B5B5C1840704700207047A0
:109F1400E8AA020068AB0200A0F16103192B98BF04
:109F240020387047A0F14103192B98BF20307047A7
:109F34007F2805D8034B185C034B5B5C18407047C3
:109F440000207047E8AA020068AB0200A0F1610398
:109F5400192B98BF20387047A0F14103192B98BFE3
:109F6400203070477F299ABF017001206FF02E00C6
:109F740070475AB10A787F2A0AD800B102600021DA
:109F840019605960501A18BF0120704700207047AB
:109F94006FF02E007047000008B5034B5B689B68A8
:109FA4001B68984708BD00BFA02D002008B50921F3
:109FB400FFF7F2FF08BD844640EA010313F0030FE4
:109FC40018D18446202A0BD32DE9F007B1E8F8070D
:109FD400A0E8F807A2F12002202AF7D2BDE8F00792
:109FE400042A07D351F8043B40F8043BA2F10402CD
:109FF400042AF7D2002A05D011F8013B00F8013BEE
:10A00400013AF9D1604670478446002A2DD010F0F9
:10A01400030F04D000F8011B013A26D0F7E7C9B2B8
:10A0240041EA012141EA0141202A12D3A2F120028E
:10A034002DE9F0030B460C460D460E460F468846A6
:10A044008946A0E8FA03203AFBD2BDE8F0032032A7
:10A054000BD0042A05D340F8041B043A05D0042A83
:10A06400F9D200F8011B013AFBD16046704700F1B8
:10A07400010110F0030F11D010F8012B002A23D096
:10A0840010F0030F0AD010F8012B002A1CD010F096
:10A09400030F03D010F8012B002A15D02DE970000E
:10A0A4004FF001324FF0803350F8044BA4EB02051B
:10A0B40025EA04051D4000D1F6E7A0F1040070BCB8
:0EA0C40010F8012B002AFBD1A0EB0100704721
:08A0D400B98002000000000049
:08A0DC003981020000000000C0
:10A0E400C99B020000000000F19D02000000000076
:10A0F400F82D0020C02E0020C82E0020002E0020A5
:04A10400180000003F
:10A10800EEA7020000000000F4A702000000000013
:10A11800FBA7020000000000FFA7020000000000EB
:10A1280004A8020000000000BEA102000000030312
:10A13800E8A702000000000050A802000000030386
:10A14800A9AA020000000303C4AA02000000030336
:08A15800D6A202000000000085
:10A1600090A10200000000009CA102006C2D0020C4
:10A17000FFFFFFFFFFFFFFFFFFFFFFFFFFFFFFFFEF
:10A1800000000000000000000000D60106010000F1
:10A19000F564020059650200A564020075617274DD
:10A1A0005F6C6F675F6261636B656E6400426163E1
:10A1B0006B656E647320666C7573686564006170AE
:10A1C00070000000EC3200207F0000006C330020A3
:10A1D0001B5B313B33316D0025734C6F677320641B
:10A1E000726F70706564202825642925730D0A003C
:10A1F0001B5B306D002573003C25733E2025733AB0
:10A200002000202530327800202020007C002563AB
:10A21000001B5B313B33306D001B5B313B33326DD8
:10A22000001B5B313B33336D001B5B313B33346DC3
:10A23000001B5B313B33356D001B5B313B33366DAF
:10A24000001B5B313B33376D007761726E696E675F
:10A2500000696E666F00646562756700F0A10200B8
:10A2600011A20200D0A1020019A2020021A2020044
:10A2700029A2020031A2020039A2020041A202007A
:10A28000000000009EA2020049A2020051A20200AA
:10A2900056A202008C330020466174616C20657206
:10A2A000726F720053797374656D20726573657493
:10A2B000000000000000000000000000000000009E
:10A2C0000338FDD8704730313233343536373839BA
:10A2D0004142434445467077725F6D676D7400007C
:10A2E000DCA00200DCA00200040000004E52465F29
:10A2F00053554343455353004E52465F4552524FC8
:10A30000525F5356435F48414E444C45525F4D495E
:10A310005353494E47004E52465F4552524F525F8B
:10A32000534F46544445564943455F4E4F545F454D
:10A330004E41424C4544004E52465F4552524F52A8
:10A340005F494E5445524E414C004E52465F455275
:10A35000524F525F4E4F5F4D454D004E52465F4546
:10A3600052524F525F4E4F545F464F554E44004E2F
:10A3700052465F4552524F525F4E4F545F535550B5
:10A38000504F52544544004E52465F4552524F5230
:10A390005F494E56414C49445F504152414D004E39
:10A3A00052465F4552524F525F494E56414C4944C6
:10A3B0005F5354415445004E52465F4552524F52EE
:10A3C0005F494E56414C49445F4C454E4754480006
:10A3D0004E52465F4552524F525F494E56414C498C
:10A3E000445F464C414753004E52465F4552524FE0
:10A3F000525F494E56414C49445F44415441004EDE
:10A4000052465F4552524F525F444154415F534957
:10A410005A45004E52465F4552524F525F54494D85
:10A42000454F5554004E52465F4552524F525F4E73
:10A43000554C4C004E52465F4552524F525F464F6C
:10A440005242494444454E004E52465F4552524F97
:10A45000525F494E56414C49445F41444452004E7C
:10A4600052465F4552524F525F42555359004E5229
:10A47000465F4552524F525F434F4E4E5F434F55DA
:10A480004E54004E52465F4552524F525F52455312
:10A490004F5552434553004E52465F4552524F521C
:10A4A0005F4D4F44554C455F4E4F545F494E4954A4
:10A4B00049414C495A4544004E52465F4552524F1D
:10A4C000525F4D555445585F494E49545F46414986
:10A4D0004C4544004E52465F4552524F525F4D55D7
:10A4E0005445585F4C4F434B5F4641494C454400EF
:10A4F0004E52465F4552524F525F4D555445585F3C
:10A50000554E4C4F434B5F4641494C4544004E52DB
:10A51000465F4552524F525F4D555445585F434F29
:10A520004E445F494E49545F4641494C4544004EB4
:10A5300052465F4552524F525F4D4F44554C455F16
:10A54000414C52454144595F494E495449414C4957
:10A550005A4544004E52465F4552524F525F535443
:10A560004F524147455F46554C4C004E52465F4561
:10A5700052524F525F4150495F4E4F545F494D50C8
:10A580004C454D454E544544004E52465F4552524F
:10A590004F525F464541545552455F4E4F545F45BB
:10A5A0004E41424C4544004E52465F4552524F5236
:10A5B0005F494F5F50454E44494E47004E52465FFB
:10A5C0004552524F525F4452565F5457495F45526D
:10A5D000525F4F56455252554E004E52465F4552BD
:10A5E000524F525F4452565F5457495F4552525F33
:10A5F000414E41434B004E52465F4552524F525FCF
:10A600004452565F5457495F4552525F444E41434E
:10A610004B004E52465F4552524F525F424C455F8F
:10A62000495053505F52585F504B545F5452554EEF
:10A630004341544544004E52465F4552524F525F8B
:10A64000424C455F495053505F4348414E4E454C44
:10A650005F414C52454144595F455849535453005A
:10A660004E52465F4552524F525F424C455F4950F1
:10A6700053505F4C494E4B5F444953434F4E4E45F8
:10A6800043544544004E52465F4552524F525F423A
:10A690004C455F495053505F504545525F52454AC3
:10A6A000454354454400556E6B6E6F776E2065725E
:10A6B000726F7220636F646500000000000000008C
:10A6C000ECA2020001000000F8A20200020000005B
:10A6D00016A302000300000037A3020004000000DC
:10A6E0004AA30200050000005BA302000600000070
:10A6F0006FA302000700000087A30200080000000B
:10A700009FA3020009000000B7A302000A00000096
:10A71000D0A302000B000000E8A302000C00000020
:10A72000FFA302000D00000013A402000E000000B1
:10A7300025A402000F00000034A402001000000055
:10A7400048A40200110000005FA4020012000000F3
:10A750006EA402001300000083A402008000000029
:10A7600097A4020081000000B8A40200820000004B
:10A77000D4A4020083000000F0A4020084000000C2
:10A780000EA50200850000002FA502008600000033
:10A7900054A50200900000006BA50200910000008B
:10A7A00089A5020092000000A7A502000082000017
:10A7B000BCA5020001820000DAA5020002820000AE
:10A7C000F6A502000084000012A602000184000029
:10A7D00036A602000284000060A602000384000086
:10A7E00085A602000D0E0F10636C6F636B00434C67
:10A7F0004F434B004750494F54450050525300556A
:10A800004152540055415254450000000B000300D2
:10A810002D9102000C0003002D910200180003008E
:10A820002D910200190003002D910200FC3500203B
:10A830001C3600203C360020426561636F6E206547
:10A8400078616D706C6520737461727465642E003C
:10A850006E72665F7364680001000007DCA002008E
:10A86000DCA0020008000000E4A00200F4A0020046
:10A8700008000000DCA00200E4A0020008000000C4
:10A8800073645F626C655F6366675F7365742829D4
:10A890002072657475726E65642025732077686513
:10A8A0006E20617474656D7074696E6720746F20BA
:10A8B00073657420424C455F434F4E4E5F4346479D
:10A8C0005F4741502E0073645F626C655F6366672B
:10A8D0005F73657428292072657475726E656420D3
:10A8E0002573207768656E20617474656D70746976
:10A8F0006E6720746F2073657420424C455F47413A
:10A90000505F4346475F524F4C455F434F554E544F
:10A910002E0073645F626C655F6366675F73657466
:10A9200028292072657475726E65642025732077FE
:10A9300068656E20617474656D7074696E672074EB
:10A940006F2073657420424C455F434F4D4D4F4E11
:10A950005F4346475F56535F555549442E00736425
:10A960005F626C655F6366675F7365742829207238
:10A97000657475726E6564202573207768656E2036
:10A98000617474656D7074696E6720746F2073658F
:10A990007420424C455F47415454535F4346475FE0
:10A9A000415454525F5441425F53495A452E0073FB
:10A9B000645F626C655F6366675F736574282920F6
:10A9C00072657475726E6564202573207768656E94
:10A9D00020617474656D7074696E6720746F207384
:10A9E000657420424C455F47415454535F4346478A
:10A9F0005F534552564943455F4348414E4745449E
:10AA00002E00496E73756666696369656E742052BF
:10AA1000414D20616C6C6F636174656420666F7278
:10AA20002074686520536F66744465766963652E8B
:10AA3000004368616E6765207468652052414D204F
:10AA40007374617274206C6F636174696F6E2066D9
:10AA5000726F6D203078257820746F2030782578DB
:10AA60002E004D6178696D756D2052414D207369DE
:10AA70007A6520666F72206170706C6963617469B9
:10AA80006F6E20697320307825782E0073645F62C2
:10AA90006C655F656E61626C6528292072657475EE
:10AAA000726E65642025732E006E72665F73646833
:10AAB0005F626C6500000000DCA00200DCA0020008
:10AAC000080000006E72665F7364685F736F6300F6
:10AAD000D4A00200DCA00200080000004300000037
:10AAE000504F5349580000002020202020202020D3
:10AAF00020682828282820202020202020202020EE
:10AB0000202020202020202048101010101010108D
:10AB10001010101010101010848484848484848495
:10AB200084841010101010101081818181818101A6
:10AB30000101010101010101010101010101010105
:10AB40000101011010101010108282828282820294
:10AB500002020202020202020202020202020202D5
:10AB60000202021010101020000703200417020137
:10AB70000857104080000000DCAA0200E0AB020091
:10AB8000F4AC020053756E004D6F6E005475650095
:10AB9000576564005468750046726900536174001B
:10ABA000000000004A616E00466562004D6172005F
:10ABB000417072004D6179004A756E004A756C00F3
:10ABC00041756700536570004F6374004E6F7600E7
:10ABD0004465630000000000414D00504D0000003E
:10ABE00018AD020014AD020014AD020014AD020055
:10ABF00014AD020014AD020014AD020014AD020049
:10AC000014AD020014AD0200FFFFFFFFFFFFFFFFC6
:10AC1000FFFFFFFFFFFF000054AC020084AB020007
:10AC200090AC0200A4AB0200D8AB020038AC02002A
:10AC3000E8AC020044AC0200256D2F25642F257975
:10AC40000000000025612025622025652025542074
:10AC50002559000053756E646179004D6F6E646113
:10AC6000790054756573646179005765646E657326
:10AC70006461790054687572736461790046726921
:10AC80006461790053617475726461790000000039
:10AC90004A616E756172790046656272756172799A
:10ACA000004D6172636800417072696C004D61799A
:10ACB000004A756E65004A756C7900417567757359
:10ACC000740053657074656D626572004F63746FD4
:10ACD000626572004E6F76656D62657200446563F1
:10ACE000656D62657200000025483A254D3A25538E
:10ACF00000000000019F02001D9F0200299F02002A
:10AD0000359F0200519F02005D9F0200699F020073
:0AAD1000779F0200000000002E00F3
:10AD1C000000000000200040000000000020004067
:10AD2C000000000000000000FF0000000090D003B5
:10AD3C00943600201F0000000000000000000000FE
:10AD4C00FF02150112233445566778899AABBCCDA6
:10AD5C00DEEFF001020304C378AB020078AB020013
:0CAD6C0078AB020078AB020078AB02006C
:040000032000637501
:00000001FF
